{"contracts/Peekly.sol":{"Peekly":{"abi":[{"inputs":[{"internalType":"address","name":"_feeRecipient","type":"address"}],"stateMutability":"nonpayable","type":"constructor"},{"inputs":[{"internalType":"address","name":"owner","type":"address"}],"name":"OwnableInvalidOwner","type":"error"},{"inputs":[{"internalType":"address","name":"account","type":"address"}],"name":"OwnableUnauthorizedAccount","type":"error"},{"anonymous":false,"inputs":[{"indexed":true,"internalType":"address","name":"oldRecipient","type":"address"},{"indexed":true,"internalType":"address","name":"newRecipient","type":"address"}],"name":"FeeRecipientChanged","type":"event"},{"anonymous":false,"inputs":[{"indexed":true,"internalType":"address","name":"previousOwner","type":"address"},{"indexed":true,"internalType":"address","name":"newOwner","type":"address"}],"name":"OwnershipTransferred","type":"event"},{"anonymous":false,"inputs":[{"indexed":true,"internalType":"address","name":"payer","type":"address"},{"indexed":true,"internalType":"address","name":"creator","type":"address"},{"indexed":false,"internalType":"string","name":"contentID","type":"string"},{"indexed":false,"internalType":"uint256","name":"amount","type":"uint256"},{"indexed":false,"internalType":"address","name":"token","type":"address"}],"name":"Paid","type":"event"},{"anonymous":false,"inputs":[{"indexed":false,"internalType":"uint256","name":"oldFee","type":"uint256"},{"indexed":false,"internalType":"uint256","name":"newFee","type":"uint256"}],"name":"PlatformFeeChanged","type":"event"},{"anonymous":false,"inputs":[{"indexed":true,"internalType":"address","name":"to","type":"address"},{"indexed":false,"internalType":"uint256","name":"amount","type":"uint256"}],"name":"WithdrawnETH","type":"event"},{"anonymous":false,"inputs":[{"indexed":true,"internalType":"address","name":"token","type":"address"},{"indexed":true,"internalType":"address","name":"to","type":"address"},{"indexed":false,"internalType":"uint256","name":"amount","type":"uint256"}],"name":"WithdrawnToken","type":"event"},{"inputs":[],"name":"feeRecipient","outputs":[{"internalType":"address","name":"","type":"address"}],"stateMutability":"view","type":"function"},{"inputs":[{"internalType":"address","name":"","type":"address"},{"internalType":"string","name":"","type":"string"}],"name":"hasPaid","outputs":[{"internalType":"bool","name":"","type":"bool"}],"stateMutability":"view","type":"function"},{"inputs":[],"name":"owner","outputs":[{"internalType":"address","name":"","type":"address"}],"stateMutability":"view","type":"function"},{"inputs":[{"internalType":"address","name":"creator","type":"address"},{"internalType":"string","name":"contentID","type":"string"}],"name":"payETH","outputs":[],"stateMutability":"payable","type":"function"},{"inputs":[{"internalType":"address","name":"creator","type":"address"},{"internalType":"string","name":"contentID","type":"string"},{"internalType":"uint256","name":"amount","type":"uint256"},{"internalType":"address","name":"tokenAddress","type":"address"}],"name":"payToken","outputs":[],"stateMutability":"nonpayable","type":"function"},{"inputs":[],"name":"platformFeePercent","outputs":[{"internalType":"uint256","name":"","type":"uint256"}],"stateMutability":"view","type":"function"},{"inputs":[],"name":"renounceOwnership","outputs":[],"stateMutability":"nonpayable","type":"function"},{"inputs":[{"internalType":"address","name":"newRecipient","type":"address"}],"name":"setFeeRecipient","outputs":[],"stateMutability":"nonpayable","type":"function"},{"inputs":[{"internalType":"uint256","name":"newFee","type":"uint256"}],"name":"setPlatformFee","outputs":[],"stateMutability":"nonpayable","type":"function"},{"inputs":[{"internalType":"address","name":"newOwner","type":"address"}],"name":"transferOwnership","outputs":[],"stateMutability":"nonpayable","type":"function"},{"inputs":[{"internalType":"address payable","name":"to","type":"address"},{"internalType":"uint256","name":"amount","type":"uint256"}],"name":"withdrawETH","outputs":[],"stateMutability":"nonpayable","type":"function"},{"inputs":[{"internalType":"address","name":"tokenAddress","type":"address"},{"internalType":"address","name":"to","type":"address"},{"internalType":"uint256","name":"amount","type":"uint256"}],"name":"withdrawToken","outputs":[],"stateMutability":"nonpayable","type":"function"}],"evm":{"assembly":"// RO data = 0/0 bytes\n// RW data = 568/66160 bytes\n// Stack size = 32768 bytes\n\n// Instructions = 8748\n// Code size = 30768 bytes\n\n      : @0 (gas: 1)\n     0: jump @14 if a0 == a1\n      : @1 (gas: 9)\n     3: a3 = a1 << 0x20\n     6: a3 = a3 >> 0x20\n     9: a4 = a0 << 0x20\n    12: a4 = a4 >> 0x20\n    15: a4 = a4 + a2\n    18: a3 = a3 - a4\n    21: a4 = a2 << 0x1\n    24: a4 = -a4\n    26: jump @7 if a4 >=u a3\n      : @2 (gas: 1)\n    29: jump @11 if a0 >=u a1\n      : @3 (gas: 1)\n    32: jump @14 if a2 == 0\n      : @4 (gas: 3)\n    35: a2 = a2 + a0\n    38: a3 = a0\n    40: fallthrough\n      : @5 (gas: 6)\n    41: a4 = u8 [a1]\n    43: a1 = a1 + 0x1\n    46: a5 = a3 + 0x1\n    49: u8 [a3] = a4\n    51: a3 = a5\n    53: jump @5 if a5 != a2\n      : @6 (gas: 1)\n    56: jump @14\n      : @7 (gas: 1)\n    58: jump @14 if a2 == 0\n      : @8 (gas: 3)\n    61: a2 = a2 + a0\n    64: a3 = a0\n    66: fallthrough\n      : @9 (gas: 6)\n    67: a4 = u8 [a1]\n    69: a1 = a1 + 0x1\n    72: a5 = a3 + 0x1\n    75: u8 [a3] = a4\n    77: a3 = a5\n    79: jump @9 if a5 != a2\n      : @10 (gas: 1)\n    82: jump @14\n      : @11 (gas: 1)\n    84: jump @14 if a2 == 0\n      : @12 (gas: 2)\n    87: i32 a3 = a2 + 0xffffffffffffffff\n    90: fallthrough\n      : @13 (gas: 7)\n    91: a4 = a1 + a3\n    94: a4 = u8 [a4]\n    96: a2 = a2 + 0xffffffffffffffff\n    99: a5 = a0 + a3\n   102: u8 [a5] = a4\n   104: i32 a3 = a3 + 0xffffffffffffffff\n   107: jump @13 if a2 != 0\n      : @14 (gas: 1)\n   110: ret\n      : @15 (gas: 2)\n   112: a1 = i32 [0x20240]\n   117: jump @84 if a1 == 0\n      : @16 (gas: 4)\n   121: a0 = 0x30270\n   126: i32 a0 = a0 + 0\n   128: ecalli 14 // 'set_immutable_data'\n   130: jump @84\n      : @17 (gas: 8)\n   133: sp = sp + 0xfffffffffffffff0\n   136: u64 [sp + 0x8] = ra\n   139: u64 [sp] = s0\n   141: a2 = a1\n   143: s0 = a0\n   145: a1 = 0x20\n   148: a0 = a2\n   150: ra = 2, jump @31\n      : @18 [@dyn 1] (gas: 100)\n   155: a1 = u8 [a0 + 0x1]\n   158: a2 = u8 [a0]\n   160: a3 = u8 [a0 + 0x2]\n   163: a4 = u8 [a0 + 0x3]\n   166: a1 = a1 << 0x8\n   169: a1 = a1 | a2\n   172: a3 = a3 << 0x10\n   175: a4 = a4 << 0x18\n   178: a3 = a3 | a4\n   181: a1 = a1 | a3\n   184: a2 = u8 [a0 + 0x5]\n   187: a3 = u8 [a0 + 0x4]\n   190: a4 = u8 [a0 + 0x6]\n   193: a5 = u8 [a0 + 0x7]\n   196: a2 = a2 << 0x8\n   199: a2 = a2 | a3\n   202: a4 = a4 << 0x10\n   205: a5 = a5 << 0x18\n   208: a4 = a4 | a5\n   211: a2 = a2 | a4\n   214: a2 = a2 << 0x20\n   217: t0 = a2 | a1\n   220: a2 = u8 [a0 + 0x9]\n   223: a3 = u8 [a0 + 0x8]\n   226: a4 = u8 [a0 + 0xa]\n   229: a5 = u8 [a0 + 0xb]\n   232: a2 = a2 << 0x8\n   235: a2 = a2 | a3\n   238: a4 = a4 << 0x10\n   241: a5 = a5 << 0x18\n   244: a4 = a4 | a5\n   247: a2 = a2 | a4\n   250: a3 = u8 [a0 + 0xd]\n   253: a4 = u8 [a0 + 0xc]\n   256: a5 = u8 [a0 + 0xe]\n   259: a1 = u8 [a0 + 0xf]\n   262: a3 = a3 << 0x8\n   265: a3 = a3 | a4\n   268: a5 = a5 << 0x10\n   271: a1 = a1 << 0x18\n   274: a1 = a1 | a5\n   277: a1 = a1 | a3\n   280: a1 = a1 << 0x20\n   283: t1 = a1 | a2\n   286: a1 = u8 [a0 + 0x11]\n   289: a3 = u8 [a0 + 0x10]\n   292: a4 = u8 [a0 + 0x12]\n   295: a5 = u8 [a0 + 0x13]\n   298: a1 = a1 << 0x8\n   301: a1 = a1 | a3\n   304: a4 = a4 << 0x10\n   307: a5 = a5 << 0x18\n   310: a4 = a4 | a5\n   313: a1 = a1 | a4\n   316: a3 = u8 [a0 + 0x15]\n   319: a4 = u8 [a0 + 0x14]\n   322: a5 = u8 [a0 + 0x16]\n   325: a2 = u8 [a0 + 0x17]\n   328: a3 = a3 << 0x8\n   331: a3 = a3 | a4\n   334: a5 = a5 << 0x10\n   337: a2 = a2 << 0x18\n   340: a2 = a2 | a5\n   343: a2 = a2 | a3\n   346: a2 = a2 << 0x20\n   349: a3 = a2 | a1\n   352: a1 = u8 [a0 + 0x19]\n   355: a2 = u8 [a0 + 0x18]\n   358: a4 = u8 [a0 + 0x1a]\n   361: a5 = u8 [a0 + 0x1b]\n   364: a1 = a1 << 0x8\n   367: a1 = a1 | a2\n   370: a4 = a4 << 0x10\n   373: a5 = a5 << 0x18\n   376: a4 = a4 | a5\n   379: a1 = a1 | a4\n   382: a2 = u8 [a0 + 0x1d]\n   385: a4 = u8 [a0 + 0x1c]\n   388: a5 = u8 [a0 + 0x1e]\n   391: a0 = u8 [a0 + 0x1f]\n   394: a2 = a2 << 0x8\n   397: a2 = a2 | a4\n   400: a5 = a5 << 0x10\n   403: a0 = a0 << 0x18\n   406: a0 = a0 | a5\n   409: a0 = a0 | a2\n   412: a0 = a0 << 0x20\n   415: a0 = a0 | a1\n   418: a0 = reverse a0\n   420: a1 = reverse a3\n   422: a2 = reverse t1\n   424: a3 = reverse t0\n   426: u64 [s0 + 0x18] = a3\n   429: u64 [s0 + 0x10] = a2\n   432: u64 [s0 + 0x8] = a1\n   435: u64 [s0] = a0\n   437: ra = u64 [sp + 0x8]\n   440: s0 = u64 [sp]\n   442: sp = sp + 0x10\n   445: ret\n      : @19 (gas: 12)\n   447: sp = sp + 0xffffffffffffffd8\n   450: u64 [sp + 0x20] = ra\n   453: u64 [sp + 0x18] = s0\n   456: u64 [sp + 0x10] = s1\n   459: a2 = u64 [a1]\n   461: u64 [sp + 0x8] = a2\n   464: a2 = u64 [a1 + 0x8]\n   467: u64 [sp] = a2\n   469: s0 = u64 [a1 + 0x10]\n   472: s1 = u64 [a1 + 0x18]\n   475: a1 = 0x20\n   478: ra = 4, jump @31\n      : @20 [@dyn 2] (gas: 71)\n   483: a1 = reverse s1\n   485: a2 = reverse s0\n   487: a3 = u64 [sp]\n   489: a3 = reverse a3\n   491: a4 = u64 [sp + 0x8]\n   494: a4 = reverse a4\n   496: u8 [a0 + 0x18] = a4\n   499: u8 [a0 + 0x10] = a3\n   502: u8 [a0 + 0x8] = a2\n   505: u8 [a0] = a1\n   507: a5 = a4 >> 0x38\n   510: u8 [a0 + 0x1f] = a5\n   513: a5 = a4 >> 0x30\n   516: u8 [a0 + 0x1e] = a5\n   519: a5 = a4 >> 0x28\n   522: u8 [a0 + 0x1d] = a5\n   525: a5 = a4 >> 0x20\n   528: u8 [a0 + 0x1c] = a5\n   531: a5 = a4 >> 0x18\n   534: u8 [a0 + 0x1b] = a5\n   537: a5 = a4 >> 0x10\n   540: u8 [a0 + 0x1a] = a5\n   543: a4 = a4 >> 0x8\n   546: u8 [a0 + 0x19] = a4\n   549: a4 = a3 >> 0x38\n   552: u8 [a0 + 0x17] = a4\n   555: a4 = a3 >> 0x30\n   558: u8 [a0 + 0x16] = a4\n   561: a4 = a3 >> 0x28\n   564: u8 [a0 + 0x15] = a4\n   567: a4 = a3 >> 0x20\n   570: u8 [a0 + 0x14] = a4\n   573: a4 = a3 >> 0x18\n   576: u8 [a0 + 0x13] = a4\n   579: a4 = a3 >> 0x10\n   582: u8 [a0 + 0x12] = a4\n   585: a3 = a3 >> 0x8\n   588: u8 [a0 + 0x11] = a3\n   591: a3 = a2 >> 0x38\n   594: u8 [a0 + 0xf] = a3\n   597: a3 = a2 >> 0x30\n   600: u8 [a0 + 0xe] = a3\n   603: a3 = a2 >> 0x28\n   606: u8 [a0 + 0xd] = a3\n   609: a3 = a2 >> 0x20\n   612: u8 [a0 + 0xc] = a3\n   615: a3 = a2 >> 0x18\n   618: u8 [a0 + 0xb] = a3\n   621: a3 = a2 >> 0x10\n   624: u8 [a0 + 0xa] = a3\n   627: a2 = a2 >> 0x8\n   630: u8 [a0 + 0x9] = a2\n   633: a2 = a1 >> 0x38\n   636: u8 [a0 + 0x7] = a2\n   639: a2 = a1 >> 0x30\n   642: u8 [a0 + 0x6] = a2\n   645: a2 = a1 >> 0x28\n   648: u8 [a0 + 0x5] = a2\n   651: a2 = a1 >> 0x20\n   654: u8 [a0 + 0x4] = a2\n   657: a2 = a1 >> 0x18\n   660: u8 [a0 + 0x3] = a2\n   663: a2 = a1 >> 0x10\n   666: u8 [a0 + 0x2] = a2\n   669: a1 = a1 >> 0x8\n   672: u8 [a0 + 0x1] = a1\n   675: ra = u64 [sp + 0x20]\n   678: s0 = u64 [sp + 0x18]\n   681: s1 = u64 [sp + 0x10]\n   684: sp = sp + 0x28\n   687: ret\n      : @21 (gas: 48)\n   689: sp = sp + 0xffffffffffffffa0\n   692: u64 [sp + 0x58] = ra\n   695: u64 [sp + 0x50] = s0\n   698: u64 [sp + 0x48] = s1\n   701: s0 = sp + 0x60\n   704: sp = sp & 0xffffffffffffffe0\n   707: s1 = a0\n   709: a0 = u64 [a1 + 0x18]\n   712: a2 = u64 [a1 + 0x10]\n   715: a3 = u64 [a1 + 0x8]\n   718: a1 = u64 [a1]\n   720: a0 = reverse a0\n   722: a2 = reverse a2\n   724: a3 = reverse a3\n   726: a1 = reverse a1\n   728: u64 [sp + 0x18] = a1\n   731: u64 [sp + 0x10] = a3\n   734: u64 [sp + 0x8] = a2\n   737: u64 [sp] = a0\n   739: u64 [sp + 56] = 0\n   742: u64 [sp + 48] = 0\n   745: u64 [sp + 40] = 0\n   748: u64 [sp + 32] = 0\n   751: u32 [sp + 64] = 0x20\n   755: i32 a1 = sp + 0\n   757: i32 a3 = sp + 0x20\n   760: i32 a4 = sp + 0x40\n   763: a2 = 0xffffffffffffffff\n   766: a0 = 0\n   768: ecalli 8 // 'get_storage'\n   770: a0 = u64 [sp + 0x38]\n   773: a1 = u64 [sp + 0x30]\n   776: a2 = u64 [sp + 0x28]\n   779: a3 = u64 [sp + 0x20]\n   782: a0 = reverse a0\n   784: a1 = reverse a1\n   786: a2 = reverse a2\n   788: a3 = reverse a3\n   790: u64 [s1 + 0x18] = a3\n   793: u64 [s1 + 0x10] = a2\n   796: u64 [s1 + 0x8] = a1\n   799: u64 [s1] = a0\n   801: sp = s0 + 0xffffffffffffffa0\n   804: ra = u64 [sp + 0x58]\n   807: s0 = u64 [sp + 0x50]\n   810: s1 = u64 [sp + 0x48]\n   813: sp = sp + 0x60\n   816: ret\n      : @22 (gas: 40)\n   818: sp = sp + 0xffffffffffffffa0\n   821: u64 [sp + 0x58] = ra\n   824: u64 [sp + 0x50] = s0\n   827: s0 = sp + 0x60\n   830: sp = sp & 0xffffffffffffffe0\n   833: t0 = u64 [a0]\n   835: a3 = u64 [a0 + 0x8]\n   838: a4 = u64 [a0 + 0x10]\n   841: a0 = u64 [a0 + 0x18]\n   844: t1 = u64 [a1]\n   846: a2 = u64 [a1 + 0x8]\n   849: a5 = u64 [a1 + 0x10]\n   852: a1 = u64 [a1 + 0x18]\n   855: t2 = reverse a0\n   857: a4 = reverse a4\n   859: a3 = reverse a3\n   861: a0 = reverse t0\n   863: t0 = reverse a1\n   865: a5 = reverse a5\n   867: a2 = reverse a2\n   869: a1 = reverse t1\n   871: u64 [sp + 0x18] = a0\n   874: u64 [sp + 0x10] = a3\n   877: u64 [sp + 0x8] = a4\n   880: u64 [sp] = t2\n   882: u64 [sp + 0x38] = a1\n   885: u64 [sp + 0x30] = a2\n   888: u64 [sp + 0x28] = a5\n   891: u64 [sp + 0x20] = t0\n   894: i32 a1 = sp + 0\n   896: i32 a3 = sp + 0x20\n   899: a2 = 0xffffffffffffffff\n   902: a4 = 0x20\n   905: a0 = 0\n   907: ecalli 15 // 'set_storage'\n   909: sp = s0 + 0xffffffffffffffa0\n   912: ra = u64 [sp + 0x58]\n   915: s0 = u64 [sp + 0x50]\n   918: sp = sp + 0x60\n   921: ret\n      : @23 [@dyn 3] (gas: 1)\n   923: t0 = 8, jump @1152\n      : @24 [@dyn 4] (gas: 15)\n   928: u64 [sp + 0x38] = a4\n   931: u64 [sp + 0x30] = a3\n   934: u64 [sp + 0x28] = a2\n   937: u64 [sp + 0x20] = a1\n   940: i32 a2 = a0 + 0\n   942: i32 a3 = s1 + 0\n   944: i32 a0 = sp + 0x20\n   947: a1 = 0x1\n   950: ecalli 7 // 'deposit_event'\n   952: sp = s0 + 0xffffffffffffffa0\n   955: ra = u64 [sp + 0x58]\n   958: s0 = u64 [sp + 0x50]\n   961: s1 = u64 [sp + 0x48]\n   964: sp = sp + 0x60\n   967: ret\n      : @25 [@dyn 5] (gas: 1)\n   969: t0 = 12, jump @1152\n      : @26 [@dyn 6] (gas: 27)\n   974: u64 [sp + 0x58] = a4\n   977: u64 [sp + 0x50] = a3\n   980: u64 [sp + 0x48] = a2\n   983: u64 [sp + 0x40] = a1\n   986: a1 = u64 [sp + 0x20]\n   989: a1 = reverse a1\n   991: a2 = u64 [sp + 0x28]\n   994: a2 = reverse a2\n   996: a3 = u64 [sp + 0x30]\n   999: a3 = reverse a3\n  1001: a4 = u64 [sp + 0x38]\n  1004: a4 = reverse a4\n  1006: u64 [sp + 0x78] = a4\n  1009: u64 [sp + 0x70] = a3\n  1012: u64 [sp + 0x68] = a2\n  1015: u64 [sp + 0x60] = a1\n  1018: i32 a2 = a0 + 0\n  1020: i32 a3 = s1 + 0\n  1022: i32 a0 = sp + 0x40\n  1025: a1 = 0x2\n  1028: ecalli 7 // 'deposit_event'\n  1030: sp = s0 + 0xffffffffffffff60\n  1034: ra = u64 [sp + 0x98]\n  1038: s0 = u64 [sp + 0x90]\n  1042: s1 = u64 [sp + 0x88]\n  1046: sp = sp + 0xa0\n  1050: ret\n      : @27 (gas: 33)\n  1052: sp = sp + 0xffffffffffffff20\n  1056: u64 [sp + 0xd8] = ra\n  1060: u64 [sp + 0xd0] = s0\n  1064: u64 [sp + 0xc8] = s1\n  1068: s0 = sp + 0xe0\n  1072: sp = sp & 0xffffffffffffffe0\n  1075: a5 = u64 [a4]\n  1077: u64 [sp + 0x40] = a5\n  1080: a5 = u64 [a4 + 0x8]\n  1083: u64 [sp + 0x48] = a5\n  1086: a5 = u64 [a4 + 0x10]\n  1089: u64 [sp + 0x50] = a5\n  1092: a4 = u64 [a4 + 0x18]\n  1095: u64 [sp + 0x58] = a4\n  1098: t0 = 0xe\n  1101: a4 = u64 [a3]\n  1103: u64 [sp + 0x18] = a4\n  1106: a4 = u64 [a3 + 0x8]\n  1109: u64 [sp + 0x20] = a4\n  1112: a4 = u64 [a3 + 0x10]\n  1115: u64 [sp + 0x28] = a4\n  1118: a3 = u64 [a3 + 0x18]\n  1121: u64 [sp + 0x30] = a3\n  1124: s1 = u64 [a2]\n  1126: a3 = u64 [a2 + 0x8]\n  1129: u64 [sp] = a3\n  1131: a3 = u64 [a2 + 0x10]\n  1134: u64 [sp + 0x8] = a3\n  1137: a2 = u64 [a2 + 0x18]\n  1140: u64 [sp + 0x10] = a2\n  1143: u64 [sp + 0x38] = a1\n  1146: ra = 0x10\n  1149: jump @31\n      : @28 [@dyn 7] (gas: 2)\n  1152: u64 [sp + 0x38] = a1\n  1155: ra = 16, jump @31\n      : @29 [@dyn 8] (gas: 41)\n  1159: a1 = reverse s1\n  1161: u64 [sp + 0x78] = a1\n  1164: a1 = u64 [sp]\n  1166: a1 = reverse a1\n  1168: u64 [sp + 0x70] = a1\n  1171: a1 = u64 [sp + 0x8]\n  1174: a1 = reverse a1\n  1176: u64 [sp + 0x68] = a1\n  1179: a1 = u64 [sp + 0x10]\n  1182: a1 = reverse a1\n  1184: u64 [sp + 0x60] = a1\n  1187: a1 = u64 [sp + 0x18]\n  1190: a1 = reverse a1\n  1192: u64 [sp + 0x98] = a1\n  1196: a1 = u64 [sp + 0x20]\n  1199: a1 = reverse a1\n  1201: u64 [sp + 0x90] = a1\n  1205: a1 = u64 [sp + 0x28]\n  1208: a1 = reverse a1\n  1210: u64 [sp + 0x88] = a1\n  1214: a1 = u64 [sp + 0x30]\n  1217: a1 = reverse a1\n  1219: u64 [sp + 0x80] = a1\n  1223: a1 = u64 [sp + 0x40]\n  1226: a1 = reverse a1\n  1228: u64 [sp + 0xb8] = a1\n  1232: a1 = u64 [sp + 0x48]\n  1235: a1 = reverse a1\n  1237: u64 [sp + 0xb0] = a1\n  1241: a1 = u64 [sp + 0x50]\n  1244: a1 = reverse a1\n  1246: u64 [sp + 0xa8] = a1\n  1250: a1 = u64 [sp + 0x58]\n  1253: a1 = reverse a1\n  1255: u64 [sp + 0xa0] = a1\n  1259: i32 a2 = a0 + 0\n  1261: a3 = i32 [sp + 0x38]\n  1264: i32 a0 = sp + 0x60\n  1267: a1 = 0x3\n  1270: ecalli 7 // 'deposit_event'\n  1272: t0 = 18, jump @1137\n      : @30 [@dyn 9] (gas: 1)\n  1277: ret\n      : @31 (gas: 2)\n  1279: i32 a2 = a0 >> 0x10\n  1282: jump @36 if a2 != 0\n      : @32 (gas: 4)\n  1285: a1 = a1 + a0\n  1288: i32 a1 = a1 + 0x1f\n  1291: a1 = a1 & 0xffffffffffffffe0\n  1294: jump @36 if a1 >u 65536\n      : @33 (gas: 3)\n  1300: a2 = 0x2023c\n  1305: a3 = i32 [0x2023c]\n  1310: jump @35 if a3 >=u a1\n      : @34 (gas: 2)\n  1313: u32 [0x2023c] = a1\n  1318: fallthrough\n      : @35 (gas: 4)\n  1319: a1 = 0x20250\n  1324: i32 a0 = a0 + 0\n  1326: a0 = a0 + a1\n  1329: ret\n      : @36 (gas: 1)\n  1331: trap\n      : @37 (gas: 6)\n  1332: sp = sp + 0xfffffffffffffff0\n  1335: u64 [sp + 0x8] = ra\n  1338: u64 [sp] = s0\n  1340: s0 = a0 & 0x1\n  1343: ecalli 5 // 'call_data_size'\n  1345: fallthrough\n      : @38 (gas: 2)\n  1346: u32 [0x20238] = a0\n  1351: jump @40 if s0 == 0\n      : @39 (gas: 1)\n  1354: ra = 20, jump @41\n      : @40 [@dyn 10] (gas: 18)\n  1358: ra = 0x16\n  1361: sp = sp + 0xfffffffffffffe10\n  1365: u64 [sp + 0x1e8] = ra\n  1369: u64 [sp + 0x1e0] = s0\n  1373: u64 [sp + 0x1d8] = s1\n  1377: s0 = sp + 0x1f0\n  1381: sp = sp + 0xffffffffffffda90\n  1385: sp = sp & 0xffffffffffffffe0\n  1388: s1 = sp\n  1390: a2 = s1 + 0x1918\n  1394: u64 [a2 + 1056] = 0\n  1398: u64 [a2 + 1048] = 0\n  1402: u64 [a2 + 1032] = 0x80\n  1408: a0 = 0x40\n  1411: a1 = s1 + 0x1d20\n  1415: u64 [a2 + 1040] = 0\n  1419: ra = 0x42\n  1422: jump @19\n      : @41 [@dyn 11] (gas: 15)\n  1425: sp = sp + 0xfffffffffffffc40\n  1429: a0 = sp + 0x300\n  1433: u64 [a0 + 0xb8] = ra\n  1437: u64 [a0 + 0xb0] = s0\n  1441: u64 [a0 + 0xa8] = s1\n  1445: s0 = sp + 0x3c0\n  1449: sp = sp & 0xffffffffffffffe0\n  1452: a0 = sp + 0x200\n  1456: u64 [a0 + 152] = 0\n  1460: u64 [a0 + 144] = 0\n  1464: u64 [a0 + 136] = 0\n  1468: u64 [a0 + 128] = 0\n  1472: i32 a0 = sp + 0x280\n  1476: ecalli 16 // 'value_transferred'\n  1478: fallthrough\n      : @42 (gas: 9)\n  1479: a4 = sp + 0x200\n  1483: a0 = u64 [a4 + 0x90]\n  1487: a1 = u64 [a4 + 0x98]\n  1491: a2 = u64 [a4 + 0x88]\n  1495: a3 = u64 [a4 + 0x80]\n  1499: a1 = a1 | a2\n  1502: a0 = a0 | a3\n  1505: a0 = a0 | a1\n  1508: jump @74 if a0 != 0\n      : @43 (gas: 16)\n  1512: s1 = i32 [0x20238]\n  1517: a0 = s1 << 0x20\n  1520: a0 = a0 >> 0x20\n  1523: a0 = a0 + 0x1f\n  1526: a0 = a0 & 0xffffffffffffffe0\n  1529: a1 = a0 + 0x80\n  1533: a0 = a1 <u a0\n  1536: a2 = sp + 0x200\n  1540: u64 [a2 + 0x60] = a1\n  1543: u64 [a2 + 0x68] = a0\n  1546: a0 = 0 if a0 != 0\n  1548: u64 [a2 + 0x70] = a0\n  1551: a0 = 0x40\n  1554: a1 = sp + 0x260\n  1558: u64 [a2 + 120] = 0\n  1561: ra = 24, jump @19\n      : @44 [@dyn 12] (gas: 3)\n  1566: a0 = 0x80\n  1570: a1 = s1\n  1572: ra = 26, jump @31\n      : @45 [@dyn 13] (gas: 5)\n  1577: i32 a0 = a0 + 0\n  1579: a1 = s1\n  1581: a2 = 0\n  1583: ecalli 3 // 'call_data_copy'\n  1585: fallthrough\n      : @46 (gas: 1)\n  1586: jump @75 if s1 <=u 31\n      : @47 (gas: 3)\n  1591: a0 = sp + 0x240\n  1595: a1 = 0x80\n  1599: ra = 28, jump @17\n      : @48 [@dyn 14] (gas: 12)\n  1604: a1 = u64 [sp + 0x250]\n  1608: a2 = u64 [sp + 0x258]\n  1612: a0 = 0x100000000\n  1622: a0 = a0 ^ a1\n  1625: a0 = a0 | a2\n  1628: u64 [sp + 0x68] = a1\n  1631: a1 = a1 >> 0x20\n  1634: a1 = a1 <u 0x1\n  1637: u64 [sp + 0x18] = a2\n  1640: a1 = 0 if a2 != 0\n  1642: a1 = 0 if a0 == 0\n  1644: jump @76 if a1 == 0\n      : @49 (gas: 9)\n  1648: a0 = u64 [sp + 0x248]\n  1652: u64 [sp + 0x58] = a0\n  1655: a0 = u64 [sp + 0x240]\n  1659: u64 [sp + 0x60] = a0\n  1662: s1 = 0x30250\n  1667: i32 a0 = s1 + 0\n  1669: u64 [sp + 0x78] = a0\n  1672: ecalli 6 // 'caller'\n  1674: fallthrough\n      : @50 (gas: 6)\n  1675: a0 = u32 [0x30260]\n  1680: a1 = u64 [0x30250]\n  1685: a2 = u64 [0x30258]\n  1690: a0 = a0 | a1\n  1693: a0 = a0 | a2\n  1696: jump @77 if a0 == 0\n      : @51 (gas: 14)\n  1700: a0 = 0xffffffff\n  1710: u64 [sp + 0x40] = a0\n  1713: a0 = u64 [sp + 0x68]\n  1716: a0 = a0 << 0x20\n  1719: a0 = a0 >> 0x20\n  1722: u64 [sp + 0x48] = a0\n  1725: a0 = sp + 0x200\n  1729: u64 [a0 + 184] = 0\n  1733: u64 [a0 + 176] = 0\n  1737: u64 [a0 + 168] = 0\n  1741: u64 [a0 + 160] = 0\n  1745: a0 = sp + 0x220\n  1749: a1 = sp + 0x2a0\n  1753: ra = 30, jump @21\n      : @52 [@dyn 15] (gas: 41)\n  1758: a1 = sp + 0x200\n  1762: a0 = u64 [a1 + 0x28]\n  1765: u64 [sp + 0x38] = a0\n  1768: a0 = u64 [a1 + 0x20]\n  1771: u64 [sp + 0x30] = a0\n  1774: a0 = u64 [a1 + 0x38]\n  1777: u64 [sp + 0x50] = a0\n  1780: a0 = u64 [a1 + 0x30]\n  1783: u64 [sp + 0x70] = a0\n  1786: a0 = u64 [sp + 0x78]\n  1789: ecalli 6 // 'caller'\n  1791: a0 = u64 [s1 + 0x8]\n  1794: a1 = i32 [s1 + 0x10]\n  1797: a2 = u64 [s1]\n  1799: a0 = reverse a0\n  1801: a3 = a0 << 0x20\n  1804: a1 = reverse a1\n  1806: a1 = a1 >> 0x20\n  1809: a1 = a1 | a3\n  1812: a0 = a0 >> 0x20\n  1815: a2 = reverse a2\n  1817: a3 = a2 << 0x20\n  1820: a0 = a0 | a3\n  1823: a2 = a2 >> 0x20\n  1826: a3 = u64 [sp + 0x70]\n  1829: a3 = a3 >> 0x20\n  1832: a3 = a3 << 0x20\n  1835: a2 = a2 | a3\n  1838: a4 = sp + 0x200\n  1842: u64 [a4 + 216] = 0\n  1846: u64 [a4 + 208] = 0\n  1850: u64 [a4 + 200] = 0\n  1854: u64 [a4 + 192] = 0\n  1858: a3 = u64 [sp + 0x50]\n  1861: u64 [a4 + 0xf8] = a3\n  1865: u64 [a4 + 0xf0] = a2\n  1869: u64 [a4 + 0xe8] = a0\n  1873: u64 [a4 + 0xe0] = a1\n  1877: a0 = sp + 0x2c0\n  1881: a1 = sp + 0x2e0\n  1885: ra = 32, jump @22\n      : @53 [@dyn 16] (gas: 3)\n  1890: a0 = sp + 0x200\n  1894: a1 = 0x40\n  1897: ra = 34, jump @17\n      : @54 [@dyn 17] (gas: 53)\n  1902: a1 = sp + 0x200\n  1906: a0 = u64 [a1 + 0x18]\n  1909: u64 [sp + 0x10] = a0\n  1912: a0 = u64 [a1 + 0x10]\n  1915: u64 [sp + 0x20] = a0\n  1918: a0 = u64 [a1 + 0x8]\n  1921: u64 [sp + 0x28] = a0\n  1924: a0 = u64 [a1]\n  1926: u64 [sp + 0x50] = a0\n  1929: a0 = u64 [sp + 0x78]\n  1932: ecalli 6 // 'caller'\n  1934: a0 = u64 [s1 + 0x8]\n  1937: a1 = i32 [s1 + 0x10]\n  1940: a2 = u64 [s1]\n  1942: a3 = reverse a0\n  1944: a0 = a3 << 0x20\n  1947: a1 = reverse a1\n  1949: a1 = a1 >> 0x20\n  1952: a0 = a0 | a1\n  1955: a3 = a3 >> 0x20\n  1958: a2 = reverse a2\n  1960: a1 = a2 << 0x20\n  1963: a1 = a1 | a3\n  1966: a2 = a2 >> 0x20\n  1969: a3 = u64 [sp + 0x30]\n  1972: a3 = a3 & 0xffffffffffffffff\n  1975: a5 = u64 [sp + 0x38]\n  1978: a4 = a5 & 0xffffffffffffffff\n  1981: a5 = u64 [sp + 0x40]\n  1984: s1 = u64 [sp + 0x70]\n  1987: a5 = a5 & s1\n  1990: u64 [sp + 440] = 0\n  1994: u64 [sp + 472] = 0\n  1998: u64 [sp + 0x1d0] = a5\n  2002: u64 [sp + 0x1c8] = a4\n  2006: u64 [sp + 0x1c0] = a3\n  2010: a3 = u64 [0x20000]\n  2015: a4 = u64 [0x20008]\n  2020: a5 = u64 [0x20010]\n  2025: s1 = u64 [0x20018]\n  2030: u64 [sp + 0x1f8] = a3\n  2034: u64 [sp + 0x1f0] = a4\n  2038: u64 [sp + 0x1e8] = a5\n  2042: u64 [sp + 0x1e0] = s1\n  2046: u64 [sp + 0x1b0] = a2\n  2050: u64 [sp + 0x1a8] = a1\n  2054: a2 = sp + 0x1e0\n  2058: a3 = sp + 0x1c0\n  2062: a4 = sp + 0x1a0\n  2066: u64 [sp + 0x1a0] = a0\n  2070: a0 = 0\n  2072: a1 = 0\n  2074: ra = 36, jump @27\n      : @55 [@dyn 18] (gas: 12)\n  2079: a1 = sp + 0x300\n  2083: u64 [a1 + 24] = 0\n  2086: u64 [a1 + 16] = 0\n  2089: u64 [a1 + 8] = 0\n  2092: u64 [a1 + 0] = 0x1\n  2095: u64 [a1 + 56] = 0\n  2098: u64 [a1 + 48] = 0\n  2101: u64 [a1 + 40] = 0\n  2104: u64 [a1 + 32] = 0x5\n  2108: a0 = sp + 0x300\n  2112: a1 = sp + 0x320\n  2116: ra = 38, jump @22\n      : @56 [@dyn 19] (gas: 6)\n  2121: a0 = u64 [sp + 0x60]\n  2124: a1 = u64 [sp + 0x58]\n  2127: a0 = a0 | a1\n  2130: a1 = u64 [sp + 0x48]\n  2133: a0 = a0 | a1\n  2136: jump @69 if a0 != 0\n      : @57 (gas: 12)\n  2140: a0 = u64 [sp + 0x50]\n  2143: a2 = u64 [sp + 0x20]\n  2146: a0 = a0 | a2\n  2149: a1 = u64 [sp + 0x28]\n  2152: s1 = u64 [sp + 0x10]\n  2155: a1 = a1 | s1\n  2158: a0 = a0 | a1\n  2161: a0 = a0 >> 0x20\n  2164: a1 = a1 | a2\n  2167: a1 = a1 << 0x20\n  2170: a0 = a0 | a1\n  2173: jump @73 if a0 != 0\n      : @58 (gas: 8)\n  2177: u64 [sp + 336] = 0\n  2181: u64 [sp + 328] = 0\n  2185: u64 [sp + 320] = 0\n  2189: a0 = 0x8c379a000000000\n  2199: a1 = sp + 0x140\n  2203: u64 [sp + 0x158] = a0\n  2207: a0 = u64 [sp + 0x50]\n  2210: ra = 40, jump @19\n      : @59 [@dyn 20] (gas: 10)\n  2215: a0 = u64 [sp + 0x20]\n  2218: a2 = a0 | s1\n  2221: s1 = 0x100000000\n  2231: a0 = 0xfffffffc\n  2241: a1 = u64 [sp + 0x50]\n  2244: a0 = a1 <u a0\n  2247: a1 = u64 [sp + 0x28]\n  2250: a0 = 0 if a1 != 0\n  2252: a0 = 0 if a2 != 0\n  2254: jump @73 if a0 == 0\n      : @60 (gas: 9)\n  2258: a0 = u64 [sp + 0x50]\n  2261: i32 a0 = a0 + 0x4\n  2264: u64 [sp + 312] = 0\n  2268: u64 [sp + 304] = 0\n  2272: u64 [sp + 288] = 0x20\n  2277: a1 = sp + 0x120\n  2281: u64 [sp + 296] = 0\n  2285: u64 [sp + 0x78] = a2\n  2288: ra = 42, jump @19\n      : @61 [@dyn 21] (gas: 8)\n  2293: a0 = s1 + 0xffffffffffffffdc\n  2296: a1 = u64 [sp + 0x50]\n  2299: a0 = a1 <u a0\n  2302: a1 = u64 [sp + 0x28]\n  2305: a0 = 0 if a1 != 0\n  2307: a1 = u64 [sp + 0x78]\n  2310: a0 = 0 if a1 != 0\n  2312: jump @73 if a0 == 0\n      : @62 (gas: 8)\n  2316: s1 = u64 [sp + 0x50]\n  2319: i32 a0 = s1 + 0x24\n  2322: u64 [sp + 280] = 0\n  2326: u64 [sp + 272] = 0\n  2330: u64 [sp + 256] = 0x24\n  2335: a1 = sp + 0x100\n  2339: u64 [sp + 264] = 0\n  2343: ra = 44, jump @19\n      : @63 [@dyn 22] (gas: 8)\n  2348: a2 = u64 [sp + 0x78]\n  2351: a3 = 0x100000000\n  2361: a0 = 0xffffffbc\n  2371: a0 = s1 <u a0\n  2374: a1 = u64 [sp + 0x28]\n  2377: a0 = 0 if a1 != 0\n  2379: a0 = 0 if a2 != 0\n  2381: jump @73 if a0 == 0\n      : @64 (gas: 13)\n  2385: s1 = u64 [sp + 0x50]\n  2388: i32 a0 = s1 + 0x44\n  2391: a1 = u64 [0x20020]\n  2396: u64 [sp + 0xf8] = a1\n  2400: a1 = u64 [0x20028]\n  2405: a2 = u64 [0x20030]\n  2410: u64 [sp + 0x70] = a3\n  2413: a3 = u64 [0x20038]\n  2418: u64 [sp + 0xf0] = a1\n  2422: u64 [sp + 0xe8] = a2\n  2426: a1 = sp + 0xe0\n  2430: u64 [sp + 0xe0] = a3\n  2434: ra = 46, jump @19\n      : @65 [@dyn 23] (gas: 8)\n  2439: a0 = u64 [sp + 0x70]\n  2442: a0 = a0 + 0xffffffffffffff9c\n  2445: a0 = s1 <u a0\n  2448: a1 = u64 [sp + 0x28]\n  2451: a0 = 0 if a1 != 0\n  2453: a1 = u64 [sp + 0x78]\n  2456: a0 = 0 if a1 != 0\n  2458: jump @73 if a0 == 0\n      : @66 (gas: 9)\n  2462: s1 = u64 [sp + 0x50]\n  2465: i32 a0 = s1 + 0x64\n  2468: u64 [sp + 208] = 0\n  2472: u64 [sp + 200] = 0\n  2476: a1 = 0x7265737300000000\n  2486: u64 [sp + 0xd8] = a1\n  2490: a1 = sp + 0xc0\n  2494: u64 [sp + 192] = 0\n  2498: ra = 48, jump @19\n      : @67 [@dyn 24] (gas: 3)\n  2503: a1 = 0x84\n  2507: a0 = s1\n  2509: ra = 50, jump @31\n      : @68 [@dyn 25] (gas: 5)\n  2514: i32 a1 = a0 + 0\n  2516: a0 = 0x1\n  2519: a2 = 0x84\n  2523: ecalli 13 // 'seal_return'\n  2525: fallthrough\n      : @69 (gas: 9)\n  2526: s1 = 0xffffffff00000000\n  2536: a1 = sp + 0x300\n  2540: u64 [a1 + 88] = 0\n  2543: u64 [a1 + 80] = 0\n  2546: u64 [a1 + 72] = 0\n  2549: u64 [a1 + 64] = 0x2\n  2553: a0 = sp + 0x180\n  2557: a1 = sp + 0x340\n  2561: ra = 52, jump @21\n      : @70 [@dyn 26] (gas: 22)\n  2566: a0 = u64 [sp + 0x198]\n  2570: a1 = u64 [sp + 0x190]\n  2574: a0 = a0 & 0xffffffffffffffff\n  2577: a1 = a1 & s1\n  2580: a2 = u64 [sp + 0x68]\n  2583: a1 = a1 | a2\n  2586: a2 = u64 [sp + 0x18]\n  2589: a0 = a0 | a2\n  2592: a3 = sp + 0x300\n  2596: u64 [a3 + 120] = 0\n  2599: u64 [a3 + 112] = 0\n  2602: u64 [a3 + 104] = 0\n  2605: u64 [a3 + 96] = 0x2\n  2609: a2 = u64 [sp + 0x58]\n  2612: u64 [a3 + 0x88] = a2\n  2616: a2 = u64 [sp + 0x60]\n  2619: u64 [a3 + 0x80] = a2\n  2623: u64 [a3 + 0x98] = a0\n  2627: u64 [a3 + 0x90] = a1\n  2631: a0 = sp + 0x360\n  2635: a1 = sp + 0x380\n  2639: ra = 54, jump @22\n      : @71 [@dyn 27] (gas: 3)\n  2644: a0 = sp + 0x160\n  2648: a1 = 0x40\n  2651: ra = 56, jump @17\n      : @72 [@dyn 28] (gas: 12)\n  2656: a0 = u64 [sp + 0x178]\n  2660: a1 = u64 [sp + 0x170]\n  2664: a2 = u64 [sp + 0x168]\n  2668: s1 = u64 [sp + 0x160]\n  2672: a0 = a0 | a2\n  2675: a2 = s1 | a1\n  2678: a2 = a2 | a0\n  2681: a2 = a2 >> 0x20\n  2684: a0 = a0 | a1\n  2687: a0 = a0 << 0x20\n  2690: a0 = a0 | a2\n  2693: jump @82 if a0 == 0\n      : @73 (gas: 1)\n  2697: trap\n      : @74 (gas: 6)\n  2698: a1 = 0x20250\n  2703: i32 a1 = a1 + 0\n  2705: a0 = 0x1\n  2708: a2 = 0\n  2710: ecalli 13 // 'seal_return'\n  2712: jump @77\n      : @75 (gas: 6)\n  2714: a1 = 0x20250\n  2719: i32 a1 = a1 + 0\n  2721: a0 = 0x1\n  2724: a2 = 0\n  2726: ecalli 13 // 'seal_return'\n  2728: jump @77\n      : @76 (gas: 6)\n  2730: a1 = 0x20250\n  2735: i32 a1 = a1 + 0\n  2737: a0 = 0x1\n  2740: a2 = 0\n  2742: ecalli 13 // 'seal_return'\n  2744: fallthrough\n      : @77 (gas: 8)\n  2745: u64 [sp + 176] = 0\n  2749: u64 [sp + 168] = 0\n  2753: u64 [sp + 160] = 0\n  2757: a0 = 0x1e4fbdf700000000\n  2767: a1 = sp + 0xa0\n  2771: u64 [sp + 0xb8] = a0\n  2775: a0 = 0\n  2777: ra = 58, jump @19\n      : @78 [@dyn 29] (gas: 7)\n  2782: u64 [sp + 152] = 0\n  2786: u64 [sp + 144] = 0\n  2790: u64 [sp + 136] = 0\n  2794: a0 = 0x4\n  2797: a1 = sp + 0x80\n  2801: u64 [sp + 128] = 0\n  2805: ra = 60, jump @19\n      : @79 [@dyn 30] (gas: 2)\n  2810: a1 = i32 [0x2023c]\n  2815: jump @81 if a1 >u 63\n      : @80 (gas: 2)\n  2819: u32 [0x2023c] = 0x40\n  2825: fallthrough\n      : @81 (gas: 6)\n  2826: a1 = 0x20250\n  2831: i32 a1 = a1 + 0\n  2833: a0 = 0x1\n  2836: a2 = 0x24\n  2839: ecalli 13 // 'seal_return'\n  2841: fallthrough\n      : @82 (gas: 3)\n  2842: a0 = s1\n  2844: a1 = 0\n  2846: ra = 62, jump @31\n      : @83 [@dyn 31] (gas: 5)\n  2851: i32 a0 = a0 + 0\n  2853: a1 = 0\n  2855: a2 = 0\n  2857: ecalli 3 // 'call_data_copy'\n  2859: jump @15\n      : @84 (gas: 3)\n  2862: a0 = s1\n  2864: a1 = 0\n  2866: ra = 64, jump @31\n      : @85 [@dyn 32] (gas: 5)\n  2871: i32 a1 = a0 + 0\n  2873: a0 = 0\n  2875: a2 = 0\n  2877: ecalli 13 // 'seal_return'\n  2879: jump @77\n      : @86 [@dyn 33] (gas: 4)\n  2882: a0 = 0x20238\n  2887: u64 [s1 + 0x178] = a0\n  2891: a0 = i32 [0x20238]\n  2896: jump @88 if a0 >=u 4\n      : @87 (gas: 1)\n  2900: jump @838\n      : @88 (gas: 6)\n  2903: a0 = s1 + 0x2000\n  2907: i32 a0 = a0 + 0xfffffffffffffd40\n  2911: a1 = 0\n  2913: ra = 0x44\n  2916: ecalli 4 // 'call_data_load'\n  2918: fallthrough\n      : @89 [@dyn 34] (gas: 3)\n  2919: a3 = s1 + 0x1918\n  2923: a0 = i32 [a3 + 0x444]\n  2927: jump @223 if a0 == 2355337861\n      : @90 (gas: 1)\n  2935: jump @92 if a0 != 2376452955\n      : @91 (gas: 1)\n  2942: jump @392\n      : @92 (gas: 2)\n  2945: a2 = s1 + 0x2118\n  2949: jump @94 if a0 != 3880491035\n      : @93 (gas: 1)\n  2956: jump @363\n      : @94 (gas: 1)\n  2959: jump @133 if a0 == 31667815\n      : @95 (gas: 1)\n  2967: jump @197 if a0 == 317252291\n      : @96 (gas: 1)\n  2975: jump @98 if a0 != 336579505\n      : @97 (gas: 1)\n  2982: jump @303\n      : @98 (gas: 1)\n  2985: jump @233 if a0 == 727634798\n      : @99 (gas: 1)\n  2993: jump @187 if a0 == 1183860800\n      : @100 (gas: 1)\n  3001: jump @102 if a0 == 1199765369\n      : @101 (gas: 1)\n  3008: jump @404\n      : @102 (gas: 8)\n  3011: u64 [a2 + 384] = 0\n  3015: u64 [a2 + 376] = 0\n  3019: u64 [a2 + 368] = 0\n  3023: u64 [a2 + 360] = 0\n  3027: a0 = s1 + 0x2000\n  3031: i32 a0 = a0 + 0x280\n  3035: ecalli 16 // 'value_transferred'\n  3037: fallthrough\n      : @103 (gas: 10)\n  3038: a3 = s1 + 0x2118\n  3042: a4 = a3 + 0x100\n  3046: a0 = u64 [a4 + 0x78]\n  3049: a1 = u64 [a4 + 0x80]\n  3053: a2 = u64 [a4 + 0x70]\n  3056: a3 = u64 [a4 + 0x68]\n  3059: a1 = a1 | a2\n  3062: a0 = a0 | a3\n  3065: a0 = a0 | a1\n  3068: jump @105 if a0 == 0\n      : @104 (gas: 1)\n  3071: jump @795\n      : @105 (gas: 3)\n  3074: a0 = u64 [s1 + 0x178]\n  3078: a0 = i32 [a0]\n  3080: jump @107 if a0 >u 67\n      : @106 (gas: 1)\n  3084: jump @796\n      : @107 (gas: 6)\n  3087: a0 = s1 + 0x2000\n  3091: i32 a0 = a0 + 0x2a0\n  3095: a1 = 0x4\n  3098: ra = 0x46\n  3101: ecalli 4 // 'call_data_load'\n  3103: fallthrough\n      : @108 [@dyn 35] (gas: 4)\n  3104: a3 = s1 + 0x2118\n  3108: a4 = u64 [a3 + 0x198]\n  3112: a0 = u64 [a3 + 0x1a0]\n  3116: t0 = 72, jump @1150\n      : @109 [@dyn 36] (gas: 1)\n  3121: jump @111 if a2 != 0\n      : @110 (gas: 1)\n  3124: jump @797\n      : @111 (gas: 25)\n  3127: a0 = u64 [a3 + 0x190]\n  3131: u64 [s1 + 0x170] = a0\n  3135: a0 = u64 [a3 + 0x188]\n  3139: u64 [s1 + 0x178] = a0\n  3143: u64 [s1 + 0x140] = a4\n  3147: a0 = a4 << 0x20\n  3150: a0 = a0 >> 0x20\n  3153: u64 [s1 + 0x148] = a0\n  3157: a0 = s1 + 0x2000\n  3161: i32 a0 = a0 + 0x2c0\n  3165: a1 = 0x24\n  3168: ecalli 4 // 'call_data_load'\n  3170: a0 = s1 + 0x2118\n  3174: a0 = u64 [a0 + 0x1c0]\n  3178: u64 [s1 + 0x168] = a0\n  3182: a0 = s1 + 0x2118\n  3186: a0 = u64 [a0 + 0x1b8]\n  3190: u64 [s1 + 0x160] = a0\n  3194: a0 = s1 + 0x2118\n  3198: a0 = u64 [a0 + 0x1b0]\n  3202: u64 [s1 + 0x158] = a0\n  3206: a0 = s1 + 0x2118\n  3210: a0 = u64 [a0 + 0x1a8]\n  3214: u64 [s1 + 0x150] = a0\n  3218: ra = 74, jump @1098\n      : @112 [@dyn 37] (gas: 5)\n  3223: a0 = u64 [s1 + 0x170]\n  3227: a1 = u64 [s1 + 0x178]\n  3231: a0 = a0 | a1\n  3234: a1 = u64 [s1 + 0x148]\n  3238: t0 = 76, jump @1133\n      : @113 [@dyn 38] (gas: 8)\n  3243: u64 [a1 + 952] = 0\n  3247: u64 [a1 + 944] = 0\n  3251: u64 [a1 + 0x3a0] = a0\n  3255: a0 = s1 + 0x14a0\n  3259: u64 [a1 + 936] = 0\n  3263: ra = 0x4e\n  3266: t0 = 0x368\n  3270: jump @1113\n      : @114 [@dyn 39] (gas: 4)\n  3273: a0 = s1 + 0x2000\n  3277: i32 a0 = a0 + 0x2e0\n  3281: ecalli 1 // 'balance'\n  3283: fallthrough\n      : @115 (gas: 22)\n  3284: t2 = u64 [s1 + 0x150]\n  3288: t1 = u64 [s1 + 0x158]\n  3292: t0 = u64 [s1 + 0x168]\n  3296: a3 = s1 + 0x2118\n  3300: a4 = a3 + 0x100\n  3304: a0 = u64 [a4 + 0xd0]\n  3308: a1 = u64 [a4 + 0xc8]\n  3312: a2 = u64 [a4 + 0xd8]\n  3316: a3 = u64 [a4 + 0xe0]\n  3320: a4 = a0 ^ t1\n  3323: a0 = a0 <u t1\n  3326: a1 = a1 <u t2\n  3329: a1 = a0 if a4 != 0\n  3332: a0 = a3 ^ t0\n  3335: a5 = a3 <u t0\n  3338: a3 = u64 [s1 + 0x160]\n  3342: a4 = a2 <u a3\n  3345: a4 = a5 if a0 != 0\n  3348: a2 = a2 ^ a3\n  3351: a0 = a0 | a2\n  3354: a1 = a4 if a0 != 0\n  3357: jump @117 if a1 != 0\n      : @116 (gas: 1)\n  3360: jump @479\n      : @117 (gas: 3)\n  3363: a0 = s1 + 0x1360\n  3367: a1 = 0x40\n  3370: ra = 80, jump @17\n      : @118 [@dyn 40] (gas: 7)\n  3375: a0 = s1 + 0x1100\n  3379: a1 = a0 + 0x200\n  3383: a4 = u64 [a1 + 0x78]\n  3386: a5 = u64 [a1 + 0x70]\n  3389: a3 = u64 [a1 + 0x68]\n  3392: a0 = u64 [a1 + 0x60]\n  3395: t0 = 82, jump @1142\n      : @119 [@dyn 41] (gas: 2)\n  3400: a2 = s1 + 0x1100\n  3404: jump @121 if a1 == 0\n      : @120 (gas: 1)\n  3407: jump @794\n      : @121 (gas: 11)\n  3410: u64 [a2 + 592] = 0\n  3414: u64 [a2 + 584] = 0\n  3418: u64 [a2 + 576] = 0\n  3422: u64 [s1 + 0x170] = a3\n  3426: a3 = 0x8c379a000000000\n  3436: a1 = s1 + 0x1340\n  3440: u64 [a2 + 0x258] = a3\n  3444: u64 [s1 + 0x178] = a0\n  3448: u64 [s1 + 0x168] = a4\n  3452: u64 [s1 + 0x160] = a5\n  3456: ra = 84, jump @19\n      : @122 [@dyn 42] (gas: 1)\n  3461: t0 = 86, jump @1120\n      : @123 [@dyn 43] (gas: 1)\n  3466: jump @125 if a0 != 0\n      : @124 (gas: 1)\n  3469: jump @794\n      : @125 (gas: 10)\n  3472: i32 a0 = a1 + 0x4\n  3475: a2 = s1 + 0x1100\n  3479: u64 [a2 + 568] = 0\n  3483: u64 [a2 + 560] = 0\n  3487: u64 [a2 + 544] = 0x20\n  3492: a1 = s1 + 0x1320\n  3496: u64 [a2 + 552] = 0\n  3500: u64 [s1 + 0x168] = a3\n  3504: u64 [s1 + 0x160] = a4\n  3508: ra = 88, jump @19\n      : @126 [@dyn 44] (gas: 6)\n  3513: a4 = s1 + 0x100\n  3517: a3 = u64 [a4 + 0x68]\n  3520: a2 = u64 [a4 + 0x70]\n  3523: a1 = u64 [a4 + 0x78]\n  3526: a0 = u64 [a4 + 0x60]\n  3529: t0 = 90, jump @1136\n      : @127 [@dyn 45] (gas: 1)\n  3534: jump @129 if a0 != 0\n      : @128 (gas: 1)\n  3537: jump @794\n      : @129 (gas: 8)\n  3540: i32 a0 = a1 + 0x24\n  3543: a3 = s1 + 0x1100\n  3547: u64 [a3 + 536] = 0\n  3551: u64 [a3 + 528] = 0\n  3555: u64 [a3 + 512] = 0x18\n  3560: a1 = s1 + 0x1300\n  3564: u64 [a3 + 520] = 0\n  3568: ra = 92, jump @19\n      : @130 [@dyn 46] (gas: 9)\n  3573: a2 = s1 + 0x100\n  3577: a3 = u64 [a2 + 0x78]\n  3580: a0 = 0xffffffbc\n  3590: a0 = a3 <u a0\n  3593: a1 = u64 [a2 + 0x70]\n  3596: a0 = 0 if a1 != 0\n  3598: a1 = u64 [a2 + 0x68]\n  3601: a0 = 0 if a1 != 0\n  3603: jump @132 if a0 != 0\n      : @131 (gas: 1)\n  3606: jump @794\n      : @132 (gas: 13)\n  3609: i32 a0 = a3 + 0x44\n  3612: a1 = u64 [0x200f0]\n  3617: a2 = u64 [0x200f8]\n  3622: a3 = u64 [0x20100]\n  3627: a4 = s1 + 0x1100\n  3631: a5 = a4 + 0x100\n  3635: u64 [a5 + 0xf8] = a1\n  3639: u64 [a5 + 0xf0] = a2\n  3643: u64 [a5 + 0xe8] = a3\n  3647: a1 = s1 + 0x12e0\n  3651: u64 [a4 + 480] = 0\n  3655: ra = 0xa6\n  3659: jump @19\n      : @133 (gas: 8)\n  3662: u64 [a3 + 1120] = 0\n  3666: u64 [a3 + 1112] = 0\n  3670: u64 [a3 + 1104] = 0\n  3674: u64 [a3 + 1096] = 0\n  3678: a0 = s1 + 0x2000\n  3682: i32 a0 = a0 + 0xfffffffffffffd60\n  3686: ecalli 16 // 'value_transferred'\n  3688: fallthrough\n      : @134 (gas: 10)\n  3689: a3 = s1 + 0x1918\n  3693: a4 = a3 + 0x400\n  3697: a0 = u64 [a4 + 0x58]\n  3700: a1 = u64 [a4 + 0x60]\n  3703: a2 = u64 [a4 + 0x50]\n  3706: a3 = u64 [a4 + 0x48]\n  3709: a1 = a1 | a2\n  3712: a0 = a0 | a3\n  3715: a0 = a0 | a1\n  3718: jump @136 if a0 == 0\n      : @135 (gas: 1)\n  3721: jump @798\n      : @136 (gas: 3)\n  3724: a0 = u64 [s1 + 0x178]\n  3728: a0 = i32 [a0]\n  3730: jump @138 if a0 >u 99\n      : @137 (gas: 1)\n  3734: jump @799\n      : @138 (gas: 2)\n  3737: a0 = s1 + 0x580\n  3741: ra = 94, jump @864\n      : @139 [@dyn 47] (gas: 14)\n  3746: a1 = s1 + 0x500\n  3750: a0 = u64 [a1 + 0x90]\n  3754: a2 = s1 + 0x100\n  3758: u64 [a2 + 0x70] = a0\n  3761: a0 = u64 [a1 + 0x88]\n  3765: u64 [a2 + 0x68] = a0\n  3768: a0 = u64 [a1 + 0x80]\n  3772: u64 [a2 + 0x78] = a0\n  3775: a0 = s1 + 0x2000\n  3779: i32 a0 = a0 + 0xfffffffffffffd80\n  3783: a1 = 0x24\n  3786: ra = 0x60\n  3789: ecalli 4 // 'call_data_load'\n  3791: fallthrough\n      : @140 [@dyn 48] (gas: 4)\n  3792: a4 = s1 + 0x1918\n  3796: a0 = u64 [a4 + 0x478]\n  3800: a1 = u64 [a4 + 0x480]\n  3804: t0 = 98, jump @1149\n      : @141 [@dyn 49] (gas: 1)\n  3809: jump @143 if a3 != 0\n      : @142 (gas: 1)\n  3812: jump @800\n      : @143 (gas: 24)\n  3815: a1 = u64 [a4 + 0x470]\n  3819: u64 [s1 + 0x158] = a1\n  3823: a1 = u64 [a4 + 0x468]\n  3827: u64 [s1 + 0x160] = a1\n  3831: a2 = 0xffffffff\n  3841: u64 [s1 + 0x148] = a2\n  3845: a0 = a0 << 0x20\n  3848: a0 = a0 >> 0x20\n  3851: u64 [s1 + 0x150] = a0\n  3855: a0 = s1 + 0x2000\n  3859: i32 a0 = a0 + 0xfffffffffffffda0\n  3863: a1 = 0x44\n  3866: ecalli 4 // 'call_data_load'\n  3868: a1 = s1 + 0x1918\n  3872: a2 = a1 + 0x400\n  3876: a0 = u64 [a2 + 0xa0]\n  3880: u64 [s1 + 0x138] = a0\n  3884: a0 = u64 [a2 + 0x98]\n  3888: u64 [s1 + 0x130] = a0\n  3892: a0 = u64 [a2 + 0x90]\n  3896: u64 [s1 + 0x128] = a0\n  3900: a0 = u64 [a2 + 0x88]\n  3904: u64 [s1 + 0x120] = a0\n  3908: ra = 100, jump @1098\n      : @144 [@dyn 50] (gas: 19)\n  3913: a0 = u64 [s1 + 0x168]\n  3917: a1 = a0 & 0xffffffffffffffff\n  3920: a0 = u64 [s1 + 0x178]\n  3924: a0 = a0 & 0xffffffffffffffff\n  3927: a2 = u64 [s1 + 0x170]\n  3931: a3 = u64 [s1 + 0x148]\n  3935: a2 = a2 & a3\n  3938: u64 [s1 + 0x100] = a0\n  3942: u64 [s1 + 0xf0] = a2\n  3946: a0 = a0 | a2\n  3949: u64 [s1 + 0xf8] = a1\n  3953: a0 = a0 | a1\n  3956: a0 = a0 >u 0\n  3958: u64 [s1 + 1400] = 0\n  3962: u64 [s1 + 1392] = 0\n  3966: u64 [s1 + 0x560] = a0\n  3970: a0 = s1 + 0x560\n  3974: u64 [s1 + 1384] = 0\n  3978: ra = 102, jump @896\n      : @145 [@dyn 51] (gas: 15)\n  3983: a2 = s1 + 0x100\n  3987: a0 = u64 [a2 + 0x58]\n  3990: a1 = u64 [a2 + 0x60]\n  3993: a0 = a0 | a1\n  3996: a1 = u64 [a2 + 0x50]\n  3999: a0 = a0 | a1\n  4002: a0 = a0 >u 0\n  4004: u64 [s1 + 1368] = 0\n  4008: u64 [s1 + 1360] = 0\n  4012: u64 [s1 + 0x540] = a0\n  4016: a0 = s1 + 0x540\n  4020: u64 [s1 + 1352] = 0\n  4024: ra = 0x68\n  4027: t0 = 0x368\n  4031: jump @1113\n      : @146 [@dyn 52] (gas: 3)\n  4034: a0 = s1 + 0x520\n  4038: a1 = 0x40\n  4041: ra = 106, jump @17\n      : @147 [@dyn 53] (gas: 2)\n  4046: a1 = s1 + 0x500\n  4050: t0 = 108, jump @1146\n      : @148 [@dyn 54] (gas: 1)\n  4055: jump @150 if a1 == 0\n      : @149 (gas: 1)\n  4058: jump @794\n      : @150 (gas: 11)\n  4061: u64 [s1 + 1296] = 0\n  4065: u64 [s1 + 1288] = 0\n  4069: u64 [s1 + 1280] = 0\n  4073: a2 = 0x70a0823100000000\n  4083: a1 = s1 + 0x500\n  4087: u64 [s1 + 0x518] = a2\n  4091: u64 [s1 + 0x148] = a0\n  4095: u64 [s1 + 0x118] = a3\n  4099: u64 [s1 + 0x110] = a4\n  4103: u64 [s1 + 0x108] = a5\n  4107: ra = 110, jump @19\n      : @151 [@dyn 55] (gas: 6)\n  4112: a0 = 0x30250\n  4117: u64 [s1 + 0x140] = a0\n  4121: i32 a0 = a0 + 0\n  4123: ra = 0x70\n  4126: ecalli 0 // 'address'\n  4127: fallthrough\n      : @152 [@dyn 56] (gas: 11)\n  4128: a3 = s1 + 0x100\n  4132: a4 = u64 [a3 + 0x48]\n  4135: a0 = u64 [a3 + 0x18]\n  4138: a1 = u64 [a3 + 0x10]\n  4141: a0 = a0 | a1\n  4144: a1 = 0xfffffffc\n  4154: a1 = a4 <u a1\n  4157: a2 = u64 [a3 + 0x8]\n  4160: a1 = 0 if a2 != 0\n  4162: a1 = 0 if a0 != 0\n  4164: jump @154 if a1 != 0\n      : @153 (gas: 1)\n  4167: jump @794\n      : @154 (gas: 2)\n  4170: a2 = u64 [s1 + 0x140]\n  4174: t0 = 114, jump @1129\n      : @155 [@dyn 57] (gas: 8)\n  4179: i32 a0 = a4 + 0x4\n  4182: u64 [s1 + 1272] = 0\n  4186: a4 = s1 + 0x400\n  4190: u64 [a4 + 0xf0] = a1\n  4194: u64 [a4 + 0xe8] = a2\n  4198: a1 = s1 + 0x4e0\n  4202: u64 [a4 + 0xe0] = a3\n  4206: ra = 116, jump @19\n      : @156 [@dyn 58] (gas: 29)\n  4211: ecalli 10 // 'ref_time_left'\n  4213: a0 = u64 [s1 + 0x168]\n  4217: a0 = reverse a0\n  4219: a1 = a0 << 0x20\n  4222: a2 = u64 [s1 + 0x170]\n  4226: a2 = reverse a2\n  4228: a2 = a2 >> 0x20\n  4231: a3 = a2 | a1\n  4234: a1 = u64 [s1 + 0x178]\n  4238: a1 = reverse a1\n  4240: a2 = a1 << 0x20\n  4243: a0 = a0 >> 0x20\n  4246: a0 = a0 | a2\n  4249: a1 = a1 >> 0x20\n  4252: u64 [s1 + 0xe0] = a0\n  4256: a2 = u64 [s1 + 0x140]\n  4260: u64 [a2 + 0x8] = a0\n  4263: u64 [s1 + 0x170] = a3\n  4267: u64 [a2] = a3\n  4269: u64 [s1 + 0x168] = a1\n  4273: u32 [a2 + 0x10] = a1\n  4276: a0 = s1 + 0x1918\n  4280: u64 [a0 + 1216] = 0\n  4284: u64 [a0 + 1208] = 0\n  4288: u64 [a0 + 1200] = 0\n  4292: u64 [a0 + 1192] = 0\n  4296: a1 = 0x24\n  4299: a0 = u64 [s1 + 0x148]\n  4303: ra = 118, jump @31\n      : @157 [@dyn 59] (gas: 4)\n  4308: u64 [s1 + 0x178] = a0\n  4312: a1 = 0x20\n  4315: a0 = u64 [s1 + 0x148]\n  4319: ra = 120, jump @31\n      : @158 [@dyn 60] (gas: 33)\n  4324: a1 = s1 + 0x1918\n  4328: u32 [a1 + 1224] = 0x20\n  4333: u64 [a1 + 1280] = 0\n  4337: u64 [a1 + 1272] = 0\n  4341: u64 [a1 + 1264] = 0\n  4345: u64 [a1 + 1256] = 0\n  4349: a1 = u64 [s1 + 0x140]\n  4353: a1 = a1 << 0x20\n  4356: a2 = a1 >> 0x20\n  4359: a1 = 0x1800000000\n  4369: u64 [s1 + 0xe8] = a2\n  4373: t0 = a2 | a1\n  4376: a1 = s1 + 0x1dc0\n  4380: a1 = a1 << 0x20\n  4383: a1 = a1 >> 0x20\n  4386: a2 = s1 + 0x1e00\n  4390: a2 = a2 << 0x20\n  4393: a3 = a2 | a1\n  4396: a1 = u64 [s1 + 0x178]\n  4400: a1 = a1 << 0x20\n  4403: a1 = a1 >> 0x20\n  4406: a2 = 0x2400000000\n  4416: a4 = a1 | a2\n  4419: a0 = a0 << 0x20\n  4422: a0 = a0 >> 0x20\n  4425: a1 = s1 + 0x1de0\n  4429: a1 = a1 << 0x20\n  4432: a5 = a1 | a0\n  4435: a1 = 0xffffffffffffffff\n  4438: a2 = 0xffffffffffffffff\n  4441: a0 = t0\n  4443: ecalli 2 // 'call'\n  4445: fallthrough\n      : @159 (gas: 1)\n  4446: jump @161 if a0 == 0\n      : @160 (gas: 1)\n  4449: jump @503\n      : @161 (gas: 2)\n  4452: ecalli 12 // 'return_data_size'\n  4454: fallthrough\n      : @162 (gas: 2)\n  4455: a4 = 0x20\n  4458: jump @164 if a0 >=u a4\n      : @163 (gas: 3)\n  4461: ecalli 12 // 'return_data_size'\n  4463: a4 = a0\n  4465: fallthrough\n      : @164 (gas: 18)\n  4466: a2 = u64 [s1 + 0x148]\n  4470: a3 = u64 [s1 + 0x118]\n  4474: a0 = u64 [s1 + 0x110]\n  4478: a1 = u64 [s1 + 0x108]\n  4482: u64 [s1 + 280] = 0\n  4486: u64 [s1 + 0x178] = a4\n  4490: a5 = s1 + 0x400\n  4494: u64 [a5 + 0x80] = a4\n  4498: u64 [a5 + 0xa0] = a2\n  4502: u64 [s1 + 1160] = 0\n  4506: u64 [a5 + 0xa8] = a1\n  4510: u64 [s1 + 1168] = 0\n  4514: u64 [a5 + 0xb0] = a0\n  4518: u64 [s1 + 1176] = 0\n  4522: a0 = s1 + 0x4a0\n  4526: a1 = s1 + 0x480\n  4530: u64 [a5 + 0xb8] = a3\n  4534: ra = 122, jump @869\n      : @165 [@dyn 61] (gas: 4)\n  4539: a3 = u64 [s1 + 0x118]\n  4543: a0 = a3 >u 0\n  4545: a1 = u64 [s1 + 0x178]\n  4549: t0 = 124, jump @1134\n      : @166 [@dyn 62] (gas: 1)\n  4554: jump @168 if a2 != 0\n      : @167 (gas: 1)\n  4557: jump @842\n      : @168 (gas: 3)\n  4560: a0 = s1 + 0x460\n  4564: a1 = u64 [s1 + 0x148]\n  4568: ra = 126, jump @17\n      : @169 [@dyn 63] (gas: 23)\n  4573: a0 = u64 [s1 + 0x468]\n  4577: a1 = u64 [s1 + 0x478]\n  4581: a2 = u64 [s1 + 0x460]\n  4585: a3 = u64 [s1 + 0x470]\n  4589: a5 = u64 [s1 + 0x128]\n  4593: a4 = a0 ^ a5\n  4596: a0 = a0 <u a5\n  4599: a5 = u64 [s1 + 0x120]\n  4603: a2 = a2 <u a5\n  4606: a2 = a0 if a4 != 0\n  4609: a0 = u64 [s1 + 0x130]\n  4613: t0 = a3 <u a0\n  4616: a5 = u64 [s1 + 0x138]\n  4620: a4 = a1 ^ a5\n  4623: a1 = a1 <u a5\n  4626: a1 = t0 if a4 == 0\n  4629: a0 = a0 ^ a3\n  4632: a0 = a0 | a4\n  4635: a1 = a2 if a0 == 0\n  4638: u64 [s1 + 0x178] = a1\n  4642: a0 = s1 + 0x440\n  4646: a1 = 0x40\n  4649: ra = 128, jump @17\n      : @170 [@dyn 64] (gas: 7)\n  4655: a0 = s1 + 0x400\n  4659: a5 = u64 [a0 + 0x58]\n  4662: a4 = u64 [a0 + 0x50]\n  4665: a3 = u64 [a0 + 0x48]\n  4668: a2 = u64 [a0 + 0x40]\n  4671: a0 = u64 [s1 + 0x178]\n  4675: jump @172 if a0 != 0\n      : @171 (gas: 1)\n  4678: jump @521\n      : @172 (gas: 8)\n  4681: a0 = a2 | a4\n  4684: a1 = a3 | a5\n  4687: a0 = a0 | a1\n  4690: a0 = a0 >> 0x20\n  4693: a1 = a1 | a4\n  4696: a1 = a1 << 0x20\n  4699: a0 = a0 | a1\n  4702: jump @174 if a0 == 0\n      : @173 (gas: 1)\n  4705: jump @794\n      : @174 (gas: 12)\n  4708: u64 [s1 + 496] = 0\n  4712: u64 [s1 + 488] = 0\n  4716: u64 [s1 + 480] = 0\n  4720: a0 = 0x8c379a000000000\n  4730: a1 = s1 + 0x1e0\n  4734: u64 [s1 + 0x1f8] = a0\n  4738: a0 = a2\n  4740: u64 [s1 + 0x148] = a2\n  4744: u64 [s1 + 0x118] = a3\n  4748: u64 [s1 + 0x110] = a4\n  4752: u64 [s1 + 0x108] = a5\n  4756: ra = 130, jump @19\n      : @175 [@dyn 65] (gas: 6)\n  4762: a5 = s1 + 0x100\n  4766: a1 = u64 [a5 + 0x48]\n  4769: a0 = u64 [a5 + 0x10]\n  4772: a3 = u64 [a5 + 0x8]\n  4775: a3 = a3 | a0\n  4778: t0 = 132, jump @1148\n      : @176 [@dyn 66] (gas: 1)\n  4784: jump @178 if a0 != 0\n      : @177 (gas: 1)\n  4787: jump @794\n      : @178 (gas: 9)\n  4790: i32 a0 = a1 + 0x4\n  4793: u64 [s1 + 472] = 0\n  4797: u64 [s1 + 464] = 0\n  4801: u64 [s1 + 448] = 0x20\n  4806: a1 = s1 + 0x1c0\n  4810: u64 [s1 + 456] = 0\n  4814: u64 [s1 + 0x178] = a3\n  4818: u64 [s1 + 0x170] = a4\n  4822: ra = 134, jump @19\n      : @179 [@dyn 67] (gas: 6)\n  4828: a4 = s1 + 0x100\n  4832: a3 = u64 [a4 + 0x78]\n  4835: a2 = u64 [a4 + 0x18]\n  4838: a1 = u64 [a4 + 0x48]\n  4841: a0 = u64 [a4 + 0x70]\n  4844: t0 = 136, jump @1136\n      : @180 [@dyn 68] (gas: 1)\n  4850: jump @182 if a0 != 0\n      : @181 (gas: 1)\n  4853: jump @794\n      : @182 (gas: 7)\n  4856: i32 a0 = a1 + 0x24\n  4859: u64 [s1 + 440] = 0\n  4863: u64 [s1 + 432] = 0\n  4867: u64 [s1 + 416] = 0x1a\n  4872: a1 = s1 + 0x1a0\n  4876: u64 [s1 + 424] = 0\n  4880: ra = 138, jump @19\n      : @183 [@dyn 69] (gas: 9)\n  4886: a3 = s1 + 0x100\n  4890: a2 = u64 [a3 + 0x48]\n  4893: a0 = 0xffffffbc\n  4903: a0 = a2 <u a0\n  4906: a1 = u64 [a3 + 0x18]\n  4909: a0 = 0 if a1 != 0\n  4911: a1 = u64 [a3 + 0x78]\n  4914: a0 = 0 if a1 != 0\n  4916: jump @185 if a0 != 0\n      : @184 (gas: 1)\n  4919: jump @794\n      : @185 (gas: 11)\n  4922: i32 a0 = a2 + 0x44\n  4925: a1 = u64 [0x200f0]\n  4930: a2 = u64 [0x20108]\n  4935: a3 = u64 [0x20178]\n  4940: u64 [s1 + 0x198] = a1\n  4944: u64 [s1 + 0x190] = a2\n  4948: u64 [s1 + 0x188] = a3\n  4952: a2 = 0x6365000000000000\n  4962: a1 = s1 + 0x180\n  4966: u64 [s1 + 0x180] = a2\n  4970: ra = 140, jump @19\n      : @186 [@dyn 70] (gas: 4)\n  4976: a1 = 0x64\n  4979: a0 = u64 [s1 + 0x148]\n  4983: ra = 0x1c0\n  4987: jump @31\n      : @187 (gas: 8)\n  4990: u64 [a2 + 320] = 0\n  4994: u64 [a2 + 312] = 0\n  4998: u64 [a2 + 304] = 0\n  5002: u64 [a2 + 296] = 0\n  5006: a0 = s1 + 0x2000\n  5010: i32 a0 = a0 + 0x240\n  5014: ecalli 16 // 'value_transferred'\n  5016: fallthrough\n      : @188 (gas: 10)\n  5017: a4 = s1 + 0x2118\n  5021: a5 = a4 + 0x100\n  5025: a0 = u64 [a5 + 0x38]\n  5028: a1 = u64 [a5 + 0x40]\n  5031: a2 = u64 [a5 + 0x30]\n  5034: a3 = u64 [a5 + 0x28]\n  5037: a1 = a1 | a2\n  5040: a0 = a0 | a3\n  5043: a0 = a0 | a1\n  5046: jump @190 if a0 == 0\n      : @189 (gas: 1)\n  5049: jump @801\n      : @190 (gas: 3)\n  5052: a0 = u64 [s1 + 0x178]\n  5056: a0 = i32 [a0]\n  5058: jump @192 if a0 >u 3\n      : @191 (gas: 1)\n  5062: jump @802\n      : @192 (gas: 7)\n  5065: u64 [a4 + 352] = 0\n  5069: u64 [a4 + 344] = 0\n  5073: u64 [a4 + 336] = 0\n  5077: u64 [a4 + 328] = 0x2\n  5082: a0 = s1 + 0x12c0\n  5086: a1 = s1 + 0x2260\n  5090: ra = 142, jump @21\n      : @193 [@dyn 71] (gas: 12)\n  5096: a0 = s1 + 0x1100\n  5100: a2 = a0 + 0x100\n  5104: a1 = u64 [a2 + 0xd0]\n  5108: a3 = s1 + 0x100\n  5112: u64 [a3 + 0x68] = a1\n  5115: a1 = u64 [a2 + 0xc8]\n  5119: u64 [a3 + 0x78] = a1\n  5122: a0 = u64 [a2 + 0xc0]\n  5126: u64 [a3 + 0x70] = a0\n  5129: a0 = s1 + 0x12a0\n  5133: a1 = 0x40\n  5136: ra = 144, jump @17\n      : @194 [@dyn 72] (gas: 14)\n  5142: a3 = s1 + 0x1100\n  5146: a5 = a3 + 0x100\n  5150: a4 = u64 [a5 + 0xb8]\n  5154: a1 = u64 [a5 + 0xb0]\n  5158: a2 = u64 [a5 + 0xa8]\n  5162: a0 = u64 [a5 + 0xa0]\n  5166: a4 = a4 | a2\n  5169: a2 = a0 | a1\n  5172: a2 = a2 | a4\n  5175: a2 = a2 >> 0x20\n  5178: a1 = a1 | a4\n  5181: a1 = a1 << 0x20\n  5184: a1 = a1 | a2\n  5187: jump @196 if a1 == 0\n      : @195 (gas: 1)\n  5190: jump @794\n      : @196 (gas: 15)\n  5193: a4 = s1 + 0x100\n  5197: a1 = u64 [a4 + 0x68]\n  5200: a1 = a1 << 0x20\n  5203: a2 = a1 >> 0x20\n  5206: u64 [a3 + 408] = 0\n  5210: a1 = u64 [a4 + 0x70]\n  5213: a5 = a3 + 0x100\n  5217: u64 [a5 + 0x80] = a1\n  5221: a1 = u64 [a4 + 0x78]\n  5224: u64 [a5 + 0x88] = a1\n  5228: a1 = s1 + 0x1280\n  5232: u64 [a5 + 0x90] = a2\n  5236: u64 [s1 + 0x178] = a0\n  5240: ra = 0x154\n  5244: jump @19\n      : @197 (gas: 11)\n  5247: u64 [a3 + 1472] = 0\n  5251: u64 [a3 + 1464] = 0\n  5255: u64 [a3 + 1456] = 0\n  5259: u64 [a3 + 1448] = 0\n  5263: a0 = s1 + 0x2000\n  5267: i32 a0 = a0 + 0xfffffffffffffec0\n  5271: ra = 0x92\n  5275: ecalli 16 // 'value_transferred'\n  5277: a0 = 0x1918\n  5281: t0 = 0x94\n  5285: jump @1153\n      : @198 [@dyn 73] (gas: 2)\n  5288: a0 = 0x1918\n  5292: t0 = 148, jump @1153\n      : @199 [@dyn 74] (gas: 1)\n  5298: jump @201 if a0 == 0\n      : @200 (gas: 1)\n  5301: jump @803\n      : @201 (gas: 3)\n  5304: a0 = u64 [s1 + 0x178]\n  5308: a0 = i32 [a0]\n  5310: jump @203 if a0 >u 35\n      : @202 (gas: 1)\n  5314: jump @804\n      : @203 (gas: 24)\n  5317: a0 = sp + 0xffffffffffffffe0\n  5320: a0 = a0 & 0xffffffffffffffe0\n  5323: u64 [s1 + 0x178] = a0\n  5327: sp = a0\n  5329: a0 = s1 + 0x2000\n  5333: i32 a0 = a0 + 0xfffffffffffffee0\n  5337: a1 = 0x4\n  5340: ecalli 4 // 'call_data_load'\n  5342: a0 = s1 + 0x1918\n  5346: a5 = a0 + 0x500\n  5350: a2 = u64 [a5 + 0xe0]\n  5354: u64 [s1 + 0x170] = a2\n  5358: a3 = u64 [a5 + 0xd8]\n  5362: u64 [s1 + 0x168] = a3\n  5366: a1 = u64 [a5 + 0xd0]\n  5370: u64 [s1 + 0x160] = a1\n  5374: a4 = u64 [a5 + 0xc8]\n  5378: u64 [s1 + 0x158] = a4\n  5382: a0 = u64 [s1 + 0x178]\n  5386: u64 [a0 + 0x18] = a2\n  5389: u64 [a0 + 0x10] = a3\n  5392: u64 [a0 + 0x8] = a1\n  5395: u64 [a0] = a4\n  5397: ra = 150, jump @1098\n      : @204 [@dyn 75] (gas: 10)\n  5403: a3 = s1 + 0x100\n  5407: a0 = u64 [a3 + 0x70]\n  5410: a1 = u64 [a3 + 0x68]\n  5413: a0 = a0 | a1\n  5416: a1 = u64 [a3 + 0x58]\n  5419: a1 = a1 <u 0xb\n  5422: a2 = u64 [a3 + 0x60]\n  5425: a1 = 0 if a2 != 0\n  5427: a1 = 0 if a0 != 0\n  5429: jump @206 if a1 == 0\n      : @205 (gas: 1)\n  5432: jump @467\n      : @206 (gas: 3)\n  5435: a0 = s1 + 0x620\n  5439: a1 = 0x40\n  5442: ra = 152, jump @17\n      : @207 [@dyn 76] (gas: 6)\n  5448: a1 = s1 + 0x600\n  5452: a4 = u64 [a1 + 0x38]\n  5455: a5 = u64 [a1 + 0x30]\n  5458: a3 = u64 [a1 + 0x28]\n  5461: a0 = u64 [a1 + 0x20]\n  5464: t0 = 154, jump @1142\n      : @208 [@dyn 77] (gas: 1)\n  5470: jump @210 if a1 == 0\n      : @209 (gas: 1)\n  5473: jump @794\n      : @210 (gas: 11)\n  5476: u64 [s1 + 1552] = 0\n  5480: u64 [s1 + 1544] = 0\n  5484: u64 [s1 + 1536] = 0\n  5488: a2 = 0x8c379a000000000\n  5498: a1 = s1 + 0x600\n  5502: u64 [s1 + 0x618] = a2\n  5506: u64 [s1 + 0x178] = a0\n  5510: u64 [s1 + 0x170] = a3\n  5514: u64 [s1 + 0x168] = a4\n  5518: u64 [s1 + 0x160] = a5\n  5522: ra = 156, jump @19\n      : @211 [@dyn 78] (gas: 1)\n  5528: t0 = 158, jump @1120\n      : @212 [@dyn 79] (gas: 1)\n  5534: jump @214 if a0 != 0\n      : @213 (gas: 1)\n  5537: jump @794\n      : @214 (gas: 9)\n  5540: i32 a0 = a1 + 0x4\n  5543: u64 [s1 + 1528] = 0\n  5547: u64 [s1 + 1520] = 0\n  5551: u64 [s1 + 1504] = 0x20\n  5556: a1 = s1 + 0x5e0\n  5560: u64 [s1 + 1512] = 0\n  5564: u64 [s1 + 0x168] = a3\n  5568: u64 [s1 + 0x160] = a4\n  5572: ra = 160, jump @19\n      : @215 [@dyn 80] (gas: 6)\n  5578: a4 = s1 + 0x100\n  5582: a3 = u64 [a4 + 0x68]\n  5585: a2 = u64 [a4 + 0x70]\n  5588: a1 = u64 [a4 + 0x78]\n  5591: a0 = u64 [a4 + 0x60]\n  5594: t0 = 162, jump @1136\n      : @216 [@dyn 81] (gas: 1)\n  5600: jump @218 if a0 != 0\n      : @217 (gas: 1)\n  5603: jump @794\n      : @218 (gas: 7)\n  5606: i32 a0 = a1 + 0x24\n  5609: u64 [s1 + 1496] = 0\n  5613: u64 [s1 + 1488] = 0\n  5617: u64 [s1 + 1472] = 0xc\n  5622: a1 = s1 + 0x5c0\n  5626: u64 [s1 + 1480] = 0\n  5630: ra = 164, jump @19\n      : @219 [@dyn 82] (gas: 9)\n  5636: a3 = s1 + 0x100\n  5640: a2 = u64 [a3 + 0x78]\n  5643: a0 = 0xffffffbc\n  5653: a0 = a2 <u a0\n  5656: a1 = u64 [a3 + 0x70]\n  5659: a0 = 0 if a1 != 0\n  5661: a1 = u64 [a3 + 0x68]\n  5664: a0 = 0 if a1 != 0\n  5666: jump @221 if a0 != 0\n      : @220 (gas: 1)\n  5669: jump @794\n      : @221 (gas: 9)\n  5672: i32 a0 = a2 + 0x44\n  5675: a1 = u64 [0x20138]\n  5680: u64 [s1 + 1448] = 0\n  5684: u64 [s1 + 0x5b8] = a1\n  5688: a1 = 0x6869676800000000\n  5698: u64 [s1 + 0x5b0] = a1\n  5702: a1 = s1 + 0x5a0\n  5706: u64 [s1 + 1440] = 0\n  5710: ra = 166, jump @19\n      : @222 [@dyn 83] (gas: 4)\n  5716: a1 = 0x64\n  5719: a0 = u64 [s1 + 0x178]\n  5723: ra = 0x1c0\n  5727: jump @31\n      : @223 (gas: 9)\n  5730: a0 = s1 + 0x2118\n  5734: u64 [a0 + 1216] = 0\n  5738: u64 [a0 + 1208] = 0\n  5742: u64 [a0 + 1200] = 0\n  5746: u64 [a0 + 1192] = 0\n  5750: a0 = s1 + 0x2000\n  5754: i32 a0 = a0 + 0x5c0\n  5758: ecalli 16 // 'value_transferred'\n  5760: fallthrough\n      : @224 (gas: 10)\n  5761: a4 = s1 + 0x2118\n  5765: a5 = a4 + 0x400\n  5769: a0 = u64 [a5 + 0xb8]\n  5773: a1 = u64 [a5 + 0xc0]\n  5777: a2 = u64 [a5 + 0xb0]\n  5781: a3 = u64 [a5 + 0xa8]\n  5785: a1 = a1 | a2\n  5788: a0 = a0 | a3\n  5791: a0 = a0 | a1\n  5794: jump @226 if a0 == 0\n      : @225 (gas: 1)\n  5797: jump @805\n      : @226 (gas: 3)\n  5800: a0 = u64 [s1 + 0x178]\n  5804: a0 = i32 [a0]\n  5806: jump @228 if a0 >u 3\n      : @227 (gas: 1)\n  5810: jump @806\n      : @228 (gas: 7)\n  5813: u64 [a4 + 1248] = 0\n  5817: u64 [a4 + 1240] = 0\n  5821: u64 [a4 + 1232] = 0\n  5825: u64 [a4 + 1224] = 0x1\n  5830: a0 = s1 + 0x1a60\n  5834: a1 = s1 + 0x25e0\n  5838: ra = 168, jump @21\n      : @229 [@dyn 84] (gas: 14)\n  5844: a1 = s1 + 0x1918\n  5848: a2 = a1 + 0x100\n  5852: a0 = u64 [a2 + 0x60]\n  5855: a1 = s1 + 0x100\n  5859: u64 [a1 + 0x78] = a0\n  5862: a0 = u64 [a2 + 0x58]\n  5865: u64 [a1 + 0x70] = a0\n  5868: a0 = u64 [a2 + 0x50]\n  5871: u64 [a1 + 0x68] = a0\n  5874: a0 = u64 [a2 + 0x48]\n  5877: u64 [a1 + 0x60] = a0\n  5880: a0 = s1 + 0x1a40\n  5884: a1 = 0x40\n  5887: ra = 170, jump @17\n      : @230 [@dyn 85] (gas: 14)\n  5893: a3 = s1 + 0x1918\n  5897: a5 = a3 + 0x100\n  5901: a0 = u64 [a5 + 0x40]\n  5904: a1 = u64 [a5 + 0x38]\n  5907: a2 = u64 [a5 + 0x30]\n  5910: a4 = u64 [a5 + 0x28]\n  5913: a0 = a0 | a2\n  5916: a2 = a4 | a1\n  5919: a2 = a2 | a0\n  5922: a2 = a2 >> 0x20\n  5925: a0 = a0 | a1\n  5928: a0 = a0 << 0x20\n  5931: a0 = a0 | a2\n  5934: jump @232 if a0 == 0\n      : @231 (gas: 1)\n  5937: jump @794\n      : @232 (gas: 15)\n  5940: a2 = s1 + 0x100\n  5944: a0 = u64 [a2 + 0x60]\n  5947: a5 = a3 + 0x100\n  5951: u64 [a5 + 0x8] = a0\n  5954: a0 = u64 [a2 + 0x68]\n  5957: u64 [a5 + 0x10] = a0\n  5960: a0 = u64 [a2 + 0x70]\n  5963: u64 [a5 + 0x18] = a0\n  5966: a1 = s1 + 0x1a20\n  5970: a0 = u64 [a2 + 0x78]\n  5973: u64 [a5 + 0x20] = a0\n  5976: a0 = a4\n  5978: u64 [a2 + 0x78] = a4\n  5981: ra = 0x154\n  5985: jump @19\n      : @233 (gas: 10)\n  5988: u64 [a3 + 1728] = 0\n  5992: u64 [a3 + 1720] = 0\n  5996: u64 [a3 + 1712] = 0\n  6000: u64 [a3 + 1704] = 0\n  6004: a0 = s1 + 0x2000\n  6008: i32 a0 = a0 + 0xffffffffffffffc0\n  6011: ra = 0xac\n  6015: ecalli 16 // 'value_transferred'\n  6017: t0 = 0xae\n  6021: jump @1156\n      : @234 [@dyn 86] (gas: 1)\n  6024: t0 = 174, jump @1156\n      : @235 [@dyn 87] (gas: 8)\n  6030: a0 = u64 [a4 + 0xb8]\n  6034: a1 = u64 [a4 + 0xc0]\n  6038: a2 = u64 [a4 + 0xb0]\n  6042: a3 = u64 [a4 + 0xa8]\n  6046: a1 = a1 | a2\n  6049: a0 = a0 | a3\n  6052: a0 = a0 | a1\n  6055: jump @237 if a0 == 0\n      : @236 (gas: 1)\n  6058: jump @807\n      : @237 (gas: 3)\n  6061: a0 = u64 [s1 + 0x178]\n  6065: a0 = i32 [a0]\n  6067: jump @239 if a0 >u 131\n      : @238 (gas: 1)\n  6072: jump @808\n      : @239 (gas: 2)\n  6075: a0 = s1 + 0x1260\n  6079: ra = 176, jump @864\n      : @240 [@dyn 88] (gas: 15)\n  6085: a1 = s1 + 0x1100\n  6089: a2 = a1 + 0x100\n  6093: a0 = u64 [a2 + 0x78]\n  6096: u64 [s1 + 0x70] = a0\n  6099: a0 = u64 [a2 + 0x70]\n  6102: u64 [s1 + 0xb0] = a0\n  6106: a0 = u64 [a2 + 0x68]\n  6109: u64 [s1 + 0xb8] = a0\n  6113: a0 = u64 [a2 + 0x60]\n  6116: u64 [s1 + 0xc0] = a0\n  6120: a0 = s1 + 0x2000\n  6124: i32 a0 = a0 + 0xffffffffffffffe0\n  6127: a1 = 0x24\n  6130: ecalli 4 // 'call_data_load'\n  6132: fallthrough\n      : @241 (gas: 9)\n  6133: a5 = s1 + 0x1918\n  6137: a3 = a5 + 0x600\n  6141: a0 = u64 [a3 + 0xe0]\n  6145: a1 = u64 [a3 + 0xd8]\n  6149: a2 = u64 [a3 + 0xd0]\n  6153: a3 = a1 | a0\n  6156: a4 = a2 <u 0x1\n  6159: a4 = 0 if a3 != 0\n  6161: jump @243 if a4 != 0\n      : @242 (gas: 1)\n  6164: jump @809\n      : @243 (gas: 25)\n  6167: a3 = u64 [a5 + 0x6c8]\n  6171: a4 = u64 [s1 + 0x178]\n  6175: t0 = u32 [a4]\n  6177: a5 = a3 + 0x4\n  6180: a3 = a5 <u a3\n  6183: a4 = a2 + a3\n  6186: a2 = a4 <u a2\n  6189: a2 = a3 if a3 == 0\n  6192: a2 = a2 + a1\n  6195: a1 = a2 <u a1\n  6198: t1 = a0 + a1\n  6201: a3 = s1 + 0x1100\n  6205: u64 [a3 + 248] = 0\n  6209: u64 [a3 + 240] = 0\n  6213: u64 [a3 + 232] = 0\n  6217: u64 [a3 + 0xe0] = t0\n  6221: a0 = a3 + 0x100\n  6225: u64 [a0] = a5\n  6227: u64 [a0 + 0x8] = a4\n  6230: u64 [a0 + 0x10] = a2\n  6233: a0 = s1 + 0x1220\n  6237: a1 = s1 + 0x1200\n  6241: a2 = s1 + 0x11e0\n  6245: u64 [a3 + 0x118] = t1\n  6249: ra = 178, jump @885\n      : @244 [@dyn 89] (gas: 40)\n  6255: a1 = s1 + 0x1100\n  6259: a2 = a1 + 0x100\n  6263: a0 = u64 [a2 + 0x38]\n  6266: u64 [s1 + 0x168] = a0\n  6270: a0 = u64 [a2 + 0x30]\n  6273: u64 [s1 + 0x170] = a0\n  6277: a0 = u64 [a2 + 0x28]\n  6280: u64 [s1 + 0x160] = a0\n  6284: a0 = u64 [a2 + 0x20]\n  6287: u64 [s1 + 0x178] = a0\n  6291: a0 = u64 [a2 + 0x58]\n  6294: u64 [s1 + 0x90] = a0\n  6298: a0 = u64 [a2 + 0x50]\n  6301: u64 [s1 + 0x98] = a0\n  6305: a0 = u64 [a2 + 0x48]\n  6308: u64 [s1 + 0x88] = a0\n  6312: a0 = u64 [a2 + 0x40]\n  6315: u64 [s1 + 0xa0] = a0\n  6319: a0 = s1 + 0x2000\n  6323: i32 a0 = a0 + 0\n  6325: a1 = 0x44\n  6328: ecalli 4 // 'call_data_load'\n  6330: a0 = s1 + 0x1918\n  6334: a0 = u64 [a0 + 0x700]\n  6338: u64 [s1 + 0xe8] = a0\n  6342: a0 = s1 + 0x1918\n  6346: a0 = u64 [a0 + 0x6f8]\n  6350: u64 [s1 + 0xf0] = a0\n  6354: a0 = s1 + 0x1918\n  6358: a0 = u64 [a0 + 0x6f0]\n  6362: u64 [s1 + 0xf8] = a0\n  6366: a0 = s1 + 0x1918\n  6370: a0 = u64 [a0 + 0x6e8]\n  6374: u64 [s1 + 0x100] = a0\n  6378: a0 = s1 + 0x2000\n  6382: i32 a0 = a0 + 0x20\n  6385: a1 = 0x64\n  6388: ra = 0xb4\n  6392: ecalli 4 // 'call_data_load'\n  6394: fallthrough\n      : @245 [@dyn 90] (gas: 4)\n  6395: a3 = s1 + 0x1918\n  6399: a4 = u64 [a3 + 0x718]\n  6403: a0 = u64 [a3 + 0x720]\n  6407: t0 = 182, jump @1150\n      : @246 [@dyn 91] (gas: 1)\n  6413: jump @248 if a2 != 0\n      : @247 (gas: 1)\n  6416: jump @810\n      : @248 (gas: 27)\n  6419: a0 = 0xffffffff\n  6429: u64 [s1 + 0xc8] = a0\n  6433: a0 = u64 [a3 + 0x710]\n  6437: u64 [s1 + 0xd0] = a0\n  6441: a0 = u64 [a3 + 0x708]\n  6445: u64 [s1 + 0xd8] = a0\n  6449: a0 = u64 [s1 + 0xf0]\n  6453: a1 = u64 [s1 + 0x100]\n  6457: a0 = a0 | a1\n  6460: a1 = u64 [s1 + 0xe8]\n  6464: a2 = u64 [s1 + 0xf8]\n  6468: a1 = a1 | a2\n  6471: a0 = a0 | a1\n  6474: u64 [s1 + 0x78] = a4\n  6477: a1 = a4 << 0x20\n  6480: a1 = a1 >> 0x20\n  6483: u64 [s1 + 0xa8] = a1\n  6487: a0 = a0 >u 0\n  6489: a1 = s1 + 0x1100\n  6493: u64 [a1 + 216] = 0\n  6497: u64 [a1 + 208] = 0\n  6501: u64 [a1 + 0xc0] = a0\n  6505: a0 = s1 + 0x11c0\n  6509: u64 [a1 + 200] = 0\n  6513: ra = 0xb8\n  6517: t0 = 0x38a\n  6521: jump @1113\n      : @249 [@dyn 92] (gas: 12)\n  6524: a0 = u64 [s1 + 0xb8]\n  6528: a1 = a0 & 0xffffffffffffffff\n  6531: a0 = u64 [s1 + 0xc0]\n  6535: a0 = a0 & 0xffffffffffffffff\n  6538: a2 = u64 [s1 + 0xb0]\n  6542: a3 = u64 [s1 + 0xc8]\n  6546: a2 = a2 & a3\n  6549: u64 [s1 + 0x58] = a0\n  6552: u64 [s1 + 0x48] = a2\n  6555: a0 = a0 | a2\n  6558: u64 [s1 + 0x50] = a1\n  6561: t0 = 186, jump @1133\n      : @250 [@dyn 93] (gas: 9)\n  6567: u64 [a1 + 184] = 0\n  6571: u64 [a1 + 176] = 0\n  6575: u64 [a1 + 0xa0] = a0\n  6579: a1 = s1 + 0x1100\n  6583: a0 = s1 + 0x11a0\n  6587: u64 [a1 + 168] = 0\n  6591: ra = 0xbc\n  6595: t0 = 0x3aa\n  6599: jump @1113\n      : @251 [@dyn 94] (gas: 5)\n  6602: a0 = u64 [s1 + 0xd0]\n  6606: a1 = u64 [s1 + 0xd8]\n  6610: a0 = a0 | a1\n  6613: a1 = u64 [s1 + 0xa8]\n  6617: t0 = 190, jump @1133\n      : @252 [@dyn 95] (gas: 6)\n  6623: u64 [a1 + 152] = 0\n  6627: u64 [a1 + 144] = 0\n  6631: u64 [a1 + 0x80] = a0\n  6635: a0 = s1 + 0x1180\n  6639: u64 [a1 + 136] = 0\n  6643: ra = 192, jump @896\n      : @253 [@dyn 96] (gas: 9)\n  6649: a0 = 0x30250\n  6654: u64 [s1 + 0xe0] = a0\n  6658: i32 a0 = a0 + 0\n  6660: u64 [s1 + 0x80] = a0\n  6664: ra = 0xc2\n  6668: ecalli 6 // 'caller'\n  6670: a2 = u64 [s1 + 0xe0]\n  6674: t0 = 0xc4\n  6678: jump @1116\n      : @254 [@dyn 97] (gas: 2)\n  6681: a2 = u64 [s1 + 0xe0]\n  6685: t0 = 196, jump @1116\n      : @255 [@dyn 98] (gas: 7)\n  6691: u64 [a2 + 120] = 0\n  6694: u64 [a2 + 0x70] = a1\n  6697: u64 [a2 + 0x68] = a0\n  6700: a1 = s1 + 0x1160\n  6704: u64 [a2 + 0x60] = a3\n  6707: a0 = 0\n  6709: ra = 198, jump @19\n      : @256 [@dyn 99] (gas: 3)\n  6715: t0 = 0xc8\n  6719: a1 = s1 + 0x1100\n  6723: fallthrough\n      : @257 [@dyn 100] (gas: 8)\n  6724: u64 [a1 + 88] = 0\n  6727: u64 [a1 + 80] = 0\n  6730: u64 [a1 + 64] = 0x3\n  6734: a2 = s1 + 0x1100\n  6738: a0 = 0x20\n  6741: a1 = s1 + 0x1140\n  6745: u64 [a2 + 72] = 0\n  6748: ra = 202, jump @19\n      : @258 [@dyn 101] (gas: 3)\n  6754: a2 = 0x2023c\n  6759: a0 = i32 [0x2023c]\n  6764: jump @260 if a0 >u 63\n      : @259 (gas: 2)\n  6768: u32 [0x2023c] = 0x40\n  6774: fallthrough\n      : @260 (gas: 14)\n  6775: u64 [s1 + 0x68] = a2\n  6778: a0 = sp + 0xffffffffffffffe0\n  6781: a2 = a0 & 0xffffffffffffffe0\n  6784: u64 [s1 + 0x158] = a2\n  6788: sp = a2\n  6790: a0 = 0x20250\n  6795: i32 a0 = a0 + 0\n  6797: i32 a2 = a2 + 0\n  6799: a1 = 0x40\n  6802: u64 [s1 + 0x60] = a0\n  6805: ra = 0xcc\n  6809: ecalli 9 // 'hash_keccak_256'\n  6811: t0 = 0xce\n  6815: jump @1143\n      : @261 [@dyn 102] (gas: 1)\n  6818: t0 = 206, jump @1143\n      : @262 [@dyn 103] (gas: 3)\n  6824: a0 = s1 + 0x1120\n  6828: a1 = 0x40\n  6831: ra = 208, jump @17\n      : @263 [@dyn 104] (gas: 1)\n  6837: t0 = 210, jump @1145\n      : @264 [@dyn 105] (gas: 1)\n  6843: jump @266 if a0 == 0\n      : @265 (gas: 1)\n  6846: jump @794\n      : @266 (gas: 12)\n  6849: a1 = u64 [s1 + 0xa0]\n  6853: a3 = u64 [s1 + 0x98]\n  6857: a0 = a1 | a3\n  6860: a2 = u64 [s1 + 0x90]\n  6864: a4 = u64 [s1 + 0x88]\n  6868: a2 = a2 | a4\n  6871: a0 = a0 | a2\n  6874: a0 = a0 >> 0x20\n  6877: a2 = a2 | a3\n  6880: a2 = a2 << 0x20\n  6883: a0 = a0 | a2\n  6886: jump @268 if a0 == 0\n      : @267 (gas: 1)\n  6889: jump @794\n      : @268 (gas: 13)\n  6892: a2 = s1 + 0x1100\n  6896: t0 = u64 [a2 + 0x38]\n  6899: a4 = u64 [a2 + 0x30]\n  6902: a0 = u64 [a2 + 0x20]\n  6905: t1 = u64 [a2 + 0x28]\n  6908: a3 = a0 | a4\n  6911: a2 = t1 | t0\n  6914: a3 = a3 | a2\n  6917: a3 = a3 >> 0x20\n  6920: a2 = a2 | a4\n  6923: a2 = a2 << 0x20\n  6926: a2 = a2 | a3\n  6929: jump @270 if a2 == 0\n      : @269 (gas: 1)\n  6932: jump @794\n      : @270 (gas: 9)\n  6935: i32 a5 = a5 + 0\n  6937: u64 [s1 + 0x38] = a5\n  6940: i32 a2 = a1 + 0\n  6942: u64 [s1 + 0x40] = a2\n  6945: u64 [s1 + 0x178] = a0\n  6949: u64 [s1 + 0x170] = t0\n  6953: u64 [s1 + 0x168] = a4\n  6957: u64 [s1 + 0x160] = t1\n  6961: ra = 212, jump @31\n      : @271 [@dyn 106] (gas: 6)\n  6967: i32 a0 = a0 + 0\n  6969: a1 = u64 [s1 + 0x40]\n  6972: a2 = u64 [s1 + 0x38]\n  6975: ra = 0xd6\n  6979: ecalli 3 // 'call_data_copy'\n  6981: fallthrough\n      : @272 [@dyn 107] (gas: 7)\n  6982: a0 = u64 [s1 + 0xa0]\n  6986: a1 = u64 [s1 + 0x178]\n  6990: a0 = a0 + a1\n  6993: a1 = a0 <u a1\n  6996: a2 = u64 [s1 + 0x88]\n  7000: a4 = u64 [s1 + 0x160]\n  7004: t0 = 216, jump @1124\n      : @273 [@dyn 108] (gas: 9)\n  7010: a1 = u64 [s1 + 0x98]\n  7014: a3 = u64 [s1 + 0x168]\n  7018: a1 = a1 + a3\n  7021: t0 = a1 <u a3\n  7024: a5 = u64 [s1 + 0x90]\n  7028: a3 = u64 [s1 + 0x170]\n  7032: a5 = a5 + a3\n  7035: a3 = a5 + t0\n  7038: t0 = 218, jump @1119\n      : @274 [@dyn 109] (gas: 1)\n  7044: jump @276 if a1 == 0\n      : @275 (gas: 1)\n  7047: jump @794\n      : @276 (gas: 1)\n  7050: t0 = 220, jump @1131\n      : @277 [@dyn 110] (gas: 6)\n  7056: u64 [a5] = a4\n  7058: u64 [a5 + 0x8] = a3\n  7061: u64 [a5 + 0x10] = a1\n  7064: a1 = s1 + 0x1100\n  7068: u64 [a5 + 0x18] = a2\n  7071: ra = 222, jump @19\n      : @278 [@dyn 111] (gas: 10)\n  7077: a0 = u64 [s1 + 0x98]\n  7081: a1 = u64 [s1 + 0x90]\n  7085: a0 = a0 | a1\n  7088: a1 = 0xffffffe0\n  7098: a2 = u64 [s1 + 0xa0]\n  7102: a1 = a2 <u a1\n  7105: a2 = u64 [s1 + 0x88]\n  7109: a1 = 0 if a2 != 0\n  7111: a1 = 0 if a0 != 0\n  7113: jump @280 if a1 != 0\n      : @279 (gas: 1)\n  7116: jump @794\n      : @280 (gas: 5)\n  7119: a0 = u64 [s1 + 0x40]\n  7122: i32 a1 = a0 + 0x20\n  7125: u64 [s1 + 0x30] = a1\n  7128: a0 = u64 [s1 + 0x178]\n  7132: ra = 224, jump @31\n      : @281 [@dyn 112] (gas: 1)\n  7138: t0 = 226, jump @1161\n      : @282 [@dyn 113] (gas: 4)\n  7144: ra = 0xe4\n  7148: ecalli 9 // 'hash_keccak_256'\n  7150: t0 = 0xe6\n  7154: jump @1130\n      : @283 [@dyn 114] (gas: 1)\n  7157: t0 = 230, jump @1130\n      : @284 [@dyn 115] (gas: 8)\n  7163: a5 = a4 + 0x700\n  7167: u64 [a5 + 0x40] = a3\n  7170: u64 [a5 + 0x38] = a2\n  7173: u64 [a5 + 0x30] = a1\n  7176: u64 [a5 + 0x28] = a0\n  7179: a0 = s1 + 0x10e0\n  7183: a1 = s1 + 0x2040\n  7187: ra = 232, jump @21\n      : @285 [@dyn 116] (gas: 12)\n  7193: a1 = s1 + 0x7ff\n  7197: a1 = a1 + 0xf9\n  7201: a0 = u8 [a1 + 0x7e8]\n  7205: a0 = a0 <u 0x1\n  7208: u64 [a1 + 2016] = 0\n  7212: u64 [a1 + 2008] = 0\n  7216: u64 [a1 + 0x7c8] = a0\n  7220: a0 = s1 + 0x10c0\n  7224: u64 [a1 + 2000] = 0\n  7228: ra = 0xea\n  7232: t0 = 0x3ca\n  7236: jump @1113\n      : @286 [@dyn 117] (gas: 8)\n  7239: a1 = s1 + 0x1918\n  7243: u64 [a1 + 1888] = 0\n  7247: u64 [a1 + 1880] = 0\n  7251: u64 [a1 + 1872] = 0\n  7255: u64 [a1 + 1864] = 0x1\n  7260: a0 = s1 + 0x10a0\n  7264: a1 = s1 + 0x2060\n  7268: ra = 236, jump @21\n      : @287 [@dyn 118] (gas: 23)\n  7274: a4 = s1 + 0x7ff\n  7278: a4 = a4 + 0xf9\n  7282: a5 = a4 + 0x700\n  7286: a0 = u64 [a5 + 0xa8]\n  7290: a1 = u64 [a5 + 0xb0]\n  7294: a2 = u64 [a5 + 0xb8]\n  7298: a3 = u64 [a5 + 0xc0]\n  7302: u64 [a5 + 0x60] = a3\n  7305: u64 [a5 + 0x58] = a2\n  7308: u64 [a5 + 0x50] = a1\n  7311: u64 [a5 + 0x48] = a0\n  7314: a0 = u64 [s1 + 0xe8]\n  7318: u64 [a5 + 0x80] = a0\n  7322: a0 = u64 [s1 + 0xf0]\n  7326: u64 [a5 + 0x78] = a0\n  7329: a0 = u64 [s1 + 0xf8]\n  7333: u64 [a5 + 0x70] = a0\n  7336: a0 = s1 + 0x1080\n  7340: a1 = s1 + 0x1060\n  7344: a2 = s1 + 0x1040\n  7348: a3 = u64 [s1 + 0x100]\n  7352: u64 [a5 + 0x68] = a3\n  7355: ra = 238, jump @1014\n      : @288 [@dyn 119] (gas: 59)\n  7361: a0 = s1 + 0x7ff\n  7365: a0 = a0 + 0xf9\n  7369: ra = u64 [a0 + 0x7a0]\n  7373: t2 = u64 [a0 + 0x798]\n  7377: t0 = u64 [a0 + 0x790]\n  7381: a3 = u64 [a0 + 0x788]\n  7385: u64 [s1 + 0x138] = a3\n  7389: a0 = clz ra\n  7391: a1 = clz t2\n  7393: a2 = a1 + 0x40\n  7396: a2 = a0 if ra != 0\n  7399: a0 = clz t0\n  7401: a1 = clz a3\n  7403: a1 = a1 + 0x40\n  7406: a1 = a0 if t0 != 0\n  7409: a0 = a1 + 0x80\n  7413: a3 = t2 | ra\n  7416: a2 = a0 if a3 == 0\n  7419: a5 = a0 <u a1\n  7422: a5 = 0 if a3 != 0\n  7424: a4 = a5 >u 0\n  7426: a0 = a2 <u 0xfa\n  7430: a3 = a0 ^ 0x1\n  7433: a4 = a3 if a5 == 0\n  7436: a0 = a4 <u 0x1\n  7439: a0 = a0 + 0xffffffffffffffff\n  7442: a1 = -a4\n  7444: a5 = -a5\n  7446: t1 = a5 - a3\n  7449: a2 = 0xf9 - a2\n  7453: a3 = s1 + 0x100\n  7457: u64 [a3 + 0x60] = a1\n  7460: a5 = a1 >u 0\n  7462: a1 = a0 >u 0\n  7464: u64 [a3 + 0x68] = a0\n  7467: a1 = a5 if a0 == 0\n  7470: u64 [a3 + 0x70] = a2\n  7473: a5 = a2 <u 0x100\n  7477: a5 = a5 ^ 0x1\n  7480: a2 = t1 >u 0\n  7482: a5 = a2 if t1 != 0\n  7485: a5 = a1 if a4 != 0\n  7488: a1 = t0 | ra\n  7491: a0 = u64 [a3 + 0x38]\n  7494: a2 = a0 | t2\n  7497: a1 = a1 | a2\n  7500: a2 = ra\n  7502: a1 = a1 <u 0x1\n  7505: a1 = a1 | a5\n  7508: ra = 0 if a1 != 0\n  7510: u64 [s1 + 0x128] = t2\n  7514: a3 = t2\n  7516: a3 = 0 if a1 != 0\n  7518: u64 [s1 + 0x130] = t0\n  7522: a5 = t0\n  7524: a5 = 0 if a1 != 0\n  7526: a4 = a0\n  7528: a4 = 0 if a1 != 0\n  7530: jump @290 if a1 == 0\n      : @289 (gas: 1)\n  7533: jump @570\n      : @290 (gas: 9)\n  7536: u64 [s1 + 0x120] = a2\n  7540: a1 = u64 [s1 + 0x170]\n  7544: a1 = a1 ^ 0xff\n  7548: t2 = u64 [s1 + 0x160]\n  7552: a1 = a1 | t2\n  7555: t0 = u64 [s1 + 0x168]\n  7559: a2 = t1 | t0\n  7562: a1 = a1 | a2\n  7565: jump @292 if a1 != 0\n      : @291 (gas: 1)\n  7568: jump @570\n      : @292 (gas: 18)\n  7571: a3 = u64 [s1 + 0x170]\n  7575: a2 = a3 + 0x1\n  7578: u64 [s1 + 0x178] = a2\n  7582: a1 = a2 <u 0x1\n  7585: a1 = a1 + t1\n  7588: u64 [s1 + 0x150] = a1\n  7592: a1 = a1 | a2\n  7595: a1 = a1 <u 0x1\n  7598: a1 = a1 + t2\n  7601: u64 [s1 + 0x140] = a1\n  7605: a1 = a1 <u t2\n  7608: a1 = a1 + t0\n  7611: u64 [s1 + 0x148] = a1\n  7615: a2 = 0xff - a3\n  7619: u64 [s1 + 0x170] = a2\n  7623: a2 = 0x80 - a2\n  7627: a1 = u64 [s1 + 0x130]\n  7631: ra = 240, jump @1163\n      : @293 [@dyn 120] (gas: 6)\n  7637: u64 [s1 + 0x168] = a0\n  7641: u64 [s1 + 0x160] = a1\n  7645: a0 = u64 [s1 + 0x128]\n  7649: a1 = u64 [s1 + 0x120]\n  7653: a2 = u64 [s1 + 0x170]\n  7657: ra = 242, jump @1168\n      : @294 [@dyn 121] (gas: 1)\n  7663: t0 = 244, jump @1140\n      : @295 [@dyn 122] (gas: 1)\n  7669: ra = 246, jump @1168\n      : @296 [@dyn 123] (gas: 1)\n  7675: t0 = 248, jump @1162\n      : @297 [@dyn 124] (gas: 2)\n  7681: a4 = u64 [s1 + 0x120]\n  7685: t0 = 250, jump @1154\n      : @298 [@dyn 125] (gas: 6)\n  7691: a0 = u64 [s1 + 0x128]\n  7695: a1 = a0 if a2 == 0\n  7698: u64 [s1 + 0x168] = a1\n  7702: a0 = u64 [s1 + 0x138]\n  7706: a1 = u64 [s1 + 0x130]\n  7710: ra = 252, jump @1168\n      : @299 [@dyn 126] (gas: 1)\n  7716: t0 = 254, jump @1127\n      : @300 [@dyn 127] (gas: 1)\n  7722: jump @302 if a2 == 0\n      : @301 (gas: 1)\n  7725: jump @557\n      : @302 (gas: 3)\n  7728: a5 = 0\n  7730: u64 [s1 + 280] = 0\n  7734: jump @569\n      : @303 (gas: 10)\n  7737: u64 [a3 + 1600] = 0\n  7741: u64 [a3 + 1592] = 0\n  7745: u64 [a3 + 1584] = 0\n  7749: u64 [a3 + 1576] = 0\n  7753: a0 = s1 + 0x2000\n  7757: i32 a0 = a0 + 0xffffffffffffff40\n  7761: ra = 0x100\n  7765: ecalli 16 // 'value_transferred'\n  7767: t0 = 0x102\n  7771: jump @1156\n      : @304 [@dyn 128] (gas: 1)\n  7774: t0 = 258, jump @1156\n      : @305 [@dyn 129] (gas: 1)\n  7780: t0 = 260, jump @1159\n      : @306 [@dyn 130] (gas: 1)\n  7786: jump @308 if a0 == 0\n      : @307 (gas: 1)\n  7789: jump @811\n      : @308 (gas: 3)\n  7792: a0 = u64 [s1 + 0x178]\n  7796: a0 = i32 [a0]\n  7798: jump @310 if a0 >u 67\n      : @309 (gas: 1)\n  7802: jump @812\n      : @310 (gas: 3)\n  7805: a0 = s1 + 0x7ff\n  7809: a0 = a0 + 0xc1\n  7813: ra = 262, jump @864\n      : @311 [@dyn 131] (gas: 14)\n  7819: a0 = s1 + 0x1000\n  7823: a0 = u64 [a0 + 0xfffffffffffff8d0]\n  7827: u64 [s1 + 0xe0] = a0\n  7831: a0 = s1 + 0x1000\n  7835: a0 = u64 [a0 + 0xfffffffffffff8c8]\n  7839: u64 [s1 + 0xe8] = a0\n  7843: a0 = s1 + 0x1000\n  7847: a0 = u64 [a0 + 0xfffffffffffff8c0]\n  7851: u64 [s1 + 0xf0] = a0\n  7855: a0 = s1 + 0x2000\n  7859: i32 a0 = a0 + 0xffffffffffffff60\n  7863: a1 = 0x24\n  7866: ecalli 4 // 'call_data_load'\n  7868: fallthrough\n      : @312 (gas: 8)\n  7869: a2 = s1 + 0x1918\n  7873: t2 = u64 [a2 + 0x660]\n  7877: a3 = u64 [a2 + 0x658]\n  7881: a4 = u64 [a2 + 0x650]\n  7885: a0 = a3 | t2\n  7888: a1 = a4 <u 0x1\n  7891: a1 = 0 if a0 != 0\n  7893: jump @314 if a1 != 0\n      : @313 (gas: 1)\n  7896: jump @813\n      : @314 (gas: 19)\n  7899: a5 = u64 [a2 + 0x648]\n  7903: a0 = u64 [s1 + 0x178]\n  7907: a0 = u32 [a0]\n  7909: a1 = a5 + 0x23\n  7912: a2 = a1 <u a5\n  7915: t1 = a4 + a2\n  7918: u64 [s1 + 0xf8] = a4\n  7922: a4 = t1 <u a4\n  7925: a4 = a2 if a2 == 0\n  7928: a4 = a4 + a3\n  7931: u64 [s1 + 0x100] = a3\n  7935: a2 = a4 <u a3\n  7938: u64 [s1 + 0x108] = t2\n  7942: a2 = a2 + t2\n  7945: a2 = a2 | a4\n  7948: a0 = a1 <u a0\n  7951: a0 = 0 if t1 != 0\n  7953: a0 = 0 if a2 != 0\n  7955: jump @316 if a0 != 0\n      : @315 (gas: 1)\n  7958: jump @814\n      : @316 (gas: 8)\n  7961: i32 a1 = a5 + 0x4\n  7964: a0 = s1 + 0x2000\n  7968: i32 a0 = a0 + 0xffffffffffffff80\n  7971: u64 [s1 + 0x110] = a5\n  7975: ra = 0x108\n  7979: ecalli 4 // 'call_data_load'\n  7981: t0 = 0x10a\n  7985: jump @1156\n      : @317 [@dyn 132] (gas: 1)\n  7988: t0 = 266, jump @1156\n      : @318 [@dyn 133] (gas: 21)\n  7994: a0 = u64 [a4 + 0x80]\n  7998: a1 = u64 [a4 + 0x78]\n  8001: a2 = u64 [a4 + 0x70]\n  8004: a3 = u64 [a4 + 0x68]\n  8007: u64 [s1 + 0x148] = a0\n  8011: a4 = s1 + 0x1000\n  8015: u64 [a4 + 0xfffffffffffff898] = a0\n  8019: u64 [s1 + 0x140] = a1\n  8023: a0 = s1 + 0x1000\n  8027: u64 [a0 + 0xfffffffffffff890] = a1\n  8031: u64 [s1 + 0x138] = a2\n  8035: a0 = s1 + 0x1000\n  8039: u64 [a0 + 0xfffffffffffff888] = a2\n  8043: a0 = s1 + 0x7ff\n  8047: a0 = a0 + 0xa1\n  8051: a1 = s1 + 0x7ff\n  8055: a1 = a1 + 0x81\n  8059: u64 [s1 + 0x170] = a3\n  8063: a2 = s1 + 0x1000\n  8067: u64 [a2 + 0xfffffffffffff880] = a3\n  8071: ra = 268, jump @878\n      : @319 [@dyn 134] (gas: 16)\n  8077: a0 = s1 + 0x1000\n  8081: a0 = u64 [a0 + 0xfffffffffffff8a0]\n  8085: u64 [s1 + 0x130] = a0\n  8089: a0 = s1 + 0x1000\n  8093: a0 = u64 [a0 + 0xfffffffffffff8a8]\n  8097: u64 [s1 + 0x128] = a0\n  8101: a0 = s1 + 0x1000\n  8105: a0 = u64 [a0 + 0xfffffffffffff8b0]\n  8109: u64 [s1 + 0x120] = a0\n  8113: a0 = s1 + 0x1000\n  8117: a0 = u64 [a0 + 0xfffffffffffff8b8]\n  8121: u64 [s1 + 0x118] = a0\n  8125: a0 = s1 + 0x7ff\n  8129: a0 = a0 + 0x61\n  8132: a1 = 0x40\n  8135: ra = 270, jump @17\n      : @320 [@dyn 135] (gas: 37)\n  8141: a0 = s1 + 0x1000\n  8145: a1 = u64 [a0 + 0xfffffffffffff878]\n  8149: u64 [s1 + 0x158] = a1\n  8153: a0 = s1 + 0x1000\n  8157: a2 = u64 [a0 + 0xfffffffffffff870]\n  8161: u64 [s1 + 0x160] = a2\n  8165: a0 = s1 + 0x1000\n  8169: a3 = u64 [a0 + 0xfffffffffffff868]\n  8173: u64 [s1 + 0x150] = a3\n  8177: a0 = s1 + 0x1000\n  8181: a4 = u64 [a0 + 0xfffffffffffff860]\n  8185: u64 [s1 + 0x168] = a4\n  8189: a0 = u64 [s1 + 0x118]\n  8193: a5 = s1 + 0x1000\n  8197: u64 [a5 + 0xfffffffffffff838] = a0\n  8201: a0 = u64 [s1 + 0x120]\n  8205: a5 = s1 + 0x1000\n  8209: u64 [a5 + 0xfffffffffffff830] = a0\n  8213: a0 = u64 [s1 + 0x128]\n  8217: a5 = s1 + 0x1000\n  8221: u64 [a5 + 0xfffffffffffff828] = a0\n  8225: a0 = u64 [s1 + 0x130]\n  8229: a5 = s1 + 0x1000\n  8233: u64 [a5 + 0xfffffffffffff820] = a0\n  8237: a0 = s1 + 0x1000\n  8241: u64 [a0 + 0xfffffffffffff858] = a1\n  8245: a0 = s1 + 0x1000\n  8249: u64 [a0 + 0xfffffffffffff850] = a2\n  8253: a0 = s1 + 0x1000\n  8257: u64 [a0 + 0xfffffffffffff848] = a3\n  8261: a0 = s1 + 0x7ff\n  8265: a0 = a0 + 0x41\n  8268: a1 = s1 + 0x7ff\n  8272: a1 = a1 + 0x21\n  8275: a2 = s1 + 0x1000\n  8279: u64 [a2 + 0xfffffffffffff840] = a4\n  8283: ra = 272, jump @869\n      : @321 [@dyn 136] (gas: 13)\n  8289: a4 = s1 + 0x100\n  8293: a1 = u64 [a4 + 0x50]\n  8296: a2 = u64 [a4 + 0x58]\n  8299: a3 = u64 [a4 + 0x60]\n  8302: a0 = u64 [a4 + 0x68]\n  8305: a2 = a2 | a1\n  8308: a1 = a0 | a3\n  8311: a1 = a1 | a2\n  8314: a1 = a1 >> 0x20\n  8317: a2 = a2 | a3\n  8320: a2 = a2 << 0x20\n  8323: a1 = a1 | a2\n  8326: jump @323 if a1 == 0\n      : @322 (gas: 1)\n  8329: jump @794\n      : @323 (gas: 15)\n  8332: a1 = u64 [s1 + 0x170]\n  8336: a2 = s1 + 0x1000\n  8340: u64 [a2 + 0xfffffffffffff800] = a1\n  8344: a1 = u64 [s1 + 0x138]\n  8348: a2 = s1 + 0x1000\n  8352: u64 [a2 + 0xfffffffffffff808] = a1\n  8356: a1 = u64 [s1 + 0x140]\n  8360: a2 = s1 + 0x1000\n  8364: u64 [a2 + 0xfffffffffffff810] = a1\n  8368: a1 = s1 + 0x7ff\n  8372: a1 = a1 + 0x1\n  8375: a2 = u64 [s1 + 0x148]\n  8379: a3 = s1 + 0x1000\n  8383: u64 [a3 + 0xfffffffffffff818] = a2\n  8387: ra = 274, jump @19\n      : @324 [@dyn 137] (gas: 43)\n  8393: t0 = u64 [s1 + 0x110]\n  8397: a0 = u64 [s1 + 0x170]\n  8401: a0 = a0 + t0\n  8404: a1 = a0 <u t0\n  8407: a4 = u64 [s1 + 0xf8]\n  8411: t2 = u64 [s1 + 0x138]\n  8415: a2 = a4 + t2\n  8418: a2 = a2 + a1\n  8421: a3 = a2 ^ a4\n  8424: a4 = a2 <u a4\n  8427: a4 = a1 if a3 == 0\n  8430: a3 = u64 [s1 + 0x100]\n  8434: ra = u64 [s1 + 0x140]\n  8438: a1 = a3 + ra\n  8441: a4 = a4 + a1\n  8444: a3 = a1 <u a3\n  8447: a1 = a4 <u a1\n  8450: a5 = u64 [s1 + 0x108]\n  8454: t1 = u64 [s1 + 0x148]\n  8458: a5 = a5 + t1\n  8461: a3 = a3 + a5\n  8464: a1 = a1 + a3\n  8467: a3 = a0 + 0x24\n  8470: a0 = a3 <u a0\n  8473: a5 = a2 + a0\n  8476: a2 = a5 <u a2\n  8479: a2 = a0 if a0 == 0\n  8482: a0 = u64 [s1 + 0x178]\n  8486: a0 = u32 [a0]\n  8488: a2 = a2 + a4\n  8491: a4 = a2 <u a4\n  8494: a1 = a1 + a4\n  8497: a0 = a0 <u a3\n  8500: a3 = a5 <u 0x1\n  8503: a0 = a0 ^ 0x1\n  8506: a0 = a3 if a5 != 0\n  8509: a3 = a2 <u 0x1\n  8512: a4 = a1 <u 0x1\n  8515: a4 = a3 if a1 == 0\n  8518: a1 = a1 | a2\n  8521: a0 = a4 if a1 != 0\n  8524: a1 = u64 [s1 + 0x170]\n  8528: jump @326 if a0 != 0\n      : @325 (gas: 1)\n  8531: jump @832\n      : @326 (gas: 10)\n  8534: a3 = ra\n  8536: a4 = t2\n  8538: a0 = a1 | ra\n  8541: a2 = t2 | t1\n  8544: a0 = a0 | a2\n  8547: a0 = a0 >> 0x20\n  8550: a2 = a2 | ra\n  8553: a2 = a2 << 0x20\n  8556: a0 = a0 | a2\n  8559: jump @328 if a0 == 0\n      : @327 (gas: 1)\n  8562: jump @794\n      : @328 (gas: 10)\n  8565: ra = u64 [s1 + 0x160]\n  8569: a0 = u64 [s1 + 0x158]\n  8573: t1 = ra | a0\n  8576: t2 = 0xffffffe0\n  8586: a2 = u64 [s1 + 0x168]\n  8590: a0 = a2 <u t2\n  8593: t0 = u64 [s1 + 0x150]\n  8597: a0 = 0 if t0 != 0\n  8599: a0 = 0 if t1 != 0\n  8601: jump @330 if a0 != 0\n      : @329 (gas: 1)\n  8604: jump @794\n      : @330 (gas: 7)\n  8607: a0 = u64 [s1 + 0x110]\n  8611: i32 a0 = a0 + 0x24\n  8614: u64 [s1 + 0x130] = a0\n  8618: i32 a0 = a2 + 0x20\n  8621: u64 [s1 + 0x128] = a0\n  8625: u64 [s1 + 0x178] = t2\n  8629: ra = 276, jump @31\n      : @331 [@dyn 138] (gas: 6)\n  8635: i32 a0 = a0 + 0\n  8637: a1 = i32 [s1 + 0x170]\n  8641: a2 = u64 [s1 + 0x130]\n  8645: ra = 0x116\n  8649: ecalli 3 // 'call_data_copy'\n  8651: fallthrough\n      : @332 [@dyn 139] (gas: 7)\n  8652: a1 = u64 [s1 + 0x168]\n  8656: a0 = u64 [s1 + 0x170]\n  8660: a0 = a0 + a1\n  8663: a1 = a0 <u a1\n  8666: a4 = u64 [s1 + 0x150]\n  8670: a2 = u64 [s1 + 0x138]\n  8674: t0 = 280, jump @1124\n      : @333 [@dyn 140] (gas: 17)\n  8680: a1 = u64 [s1 + 0x158]\n  8684: a3 = u64 [s1 + 0x148]\n  8688: a1 = a1 + a3\n  8691: a3 = u64 [s1 + 0x140]\n  8695: a5 = u64 [s1 + 0x160]\n  8699: a3 = a3 + a5\n  8702: a5 = a3 <u a5\n  8705: a1 = a1 + a5\n  8708: a4 = a4 + a3\n  8711: a3 = a4 <u a3\n  8714: a1 = a1 + a3\n  8717: a1 = a1 | a4\n  8720: a3 = u64 [s1 + 0x178]\n  8724: a3 = a0 <u a3\n  8727: a3 = 0 if a2 != 0\n  8729: a3 = 0 if a1 != 0\n  8731: jump @335 if a3 != 0\n      : @334 (gas: 1)\n  8734: jump @794\n      : @335 (gas: 7)\n  8737: i32 a0 = a0 + 0x20\n  8740: u64 [s1 + 2040] = 0\n  8744: u64 [s1 + 2032] = 0\n  8748: u64 [s1 + 2024] = 0\n  8752: a1 = s1 + 0x7e0\n  8756: u64 [s1 + 2016] = 0\n  8760: ra = 282, jump @19\n      : @336 [@dyn 141] (gas: 12)\n  8766: a0 = u64 [s1 + 0xe0]\n  8770: a0 = a0 << 0x20\n  8773: a0 = a0 >> 0x20\n  8776: u64 [s1 + 2008] = 0\n  8780: a1 = u64 [s1 + 0xe8]\n  8784: u64 [s1 + 0x7c8] = a1\n  8788: a1 = u64 [s1 + 0xf0]\n  8792: u64 [s1 + 0x7c0] = a1\n  8796: a1 = s1 + 0x7c0\n  8800: u64 [s1 + 0x7d0] = a0\n  8804: a0 = 0\n  8806: ra = 284, jump @19\n      : @337 [@dyn 142] (gas: 7)\n  8812: u64 [s1 + 1976] = 0\n  8816: u64 [s1 + 1968] = 0\n  8820: u64 [s1 + 1952] = 0x3\n  8825: a0 = 0x20\n  8828: a1 = s1 + 0x7a0\n  8832: u64 [s1 + 1960] = 0\n  8836: ra = 286, jump @19\n      : @338 [@dyn 143] (gas: 2)\n  8842: a1 = i32 [0x2023c]\n  8847: jump @340 if a1 >u 63\n      : @339 (gas: 2)\n  8851: u32 [0x2023c] = 0x40\n  8857: fallthrough\n      : @340 (gas: 21)\n  8858: a0 = sp + 0xffffffffffffffe0\n  8861: a2 = a0 & 0xffffffffffffffe0\n  8864: u64 [s1 + 0x178] = a2\n  8868: sp = a2\n  8870: a0 = 0x20250\n  8875: i32 a0 = a0 + 0\n  8877: i32 a2 = a2 + 0\n  8879: a1 = 0x40\n  8882: ecalli 9 // 'hash_keccak_256'\n  8884: a1 = u64 [s1 + 0x178]\n  8888: a0 = u64 [a1 + 0x18]\n  8891: u64 [s1 + 0x150] = a0\n  8895: a0 = u64 [a1 + 0x10]\n  8898: u64 [s1 + 0x148] = a0\n  8902: a0 = u64 [a1 + 0x8]\n  8905: u64 [s1 + 0x140] = a0\n  8909: a0 = u64 [a1]\n  8911: u64 [s1 + 0x138] = a0\n  8915: a0 = s1 + 0x780\n  8919: a1 = 0x40\n  8922: ra = 288, jump @17\n      : @341 [@dyn 144] (gas: 12)\n  8928: a1 = s1 + 0x700\n  8932: a0 = u64 [a1 + 0x98]\n  8936: u64 [s1 + 0x170] = a0\n  8940: a0 = u64 [a1 + 0x90]\n  8944: u64 [s1 + 0x160] = a0\n  8948: a0 = u64 [a1 + 0x88]\n  8952: u64 [s1 + 0x158] = a0\n  8956: a0 = u64 [a1 + 0x80]\n  8960: u64 [s1 + 0x178] = a0\n  8964: a0 = s1 + 0x760\n  8968: a1 = u64 [s1 + 0x168]\n  8972: ra = 290, jump @17\n      : @342 [@dyn 145] (gas: 13)\n  8978: a3 = s1 + 0x100\n  8982: a0 = u64 [a3 + 0x70]\n  8985: a1 = u64 [a3 + 0x58]\n  8988: a0 = a0 | a1\n  8991: a2 = u64 [a3 + 0x60]\n  8994: a1 = u64 [a3 + 0x78]\n  8997: a1 = a1 | a2\n  9000: a1 = a1 | a0\n  9003: a1 = a1 >> 0x20\n  9006: a0 = a0 | a2\n  9009: a0 = a0 << 0x20\n  9012: a0 = a0 | a1\n  9015: jump @344 if a0 == 0\n      : @343 (gas: 1)\n  9018: jump @794\n      : @344 (gas: 13)\n  9021: a0 = s1 + 0x700\n  9025: a4 = u64 [a0 + 0x78]\n  9028: a5 = u64 [a0 + 0x70]\n  9031: a1 = u64 [a0 + 0x60]\n  9034: a3 = u64 [a0 + 0x68]\n  9037: a0 = a1 | a5\n  9040: a2 = a3 | a4\n  9043: a0 = a0 | a2\n  9046: a0 = a0 >> 0x20\n  9049: a2 = a2 | a5\n  9052: a2 = a2 << 0x20\n  9055: a0 = a0 | a2\n  9058: jump @346 if a0 == 0\n      : @345 (gas: 1)\n  9061: jump @794\n      : @346 (gas: 6)\n  9064: a0 = u64 [s1 + 0x178]\n  9068: u64 [s1 + 0x168] = a1\n  9072: u64 [s1 + 0x130] = a3\n  9076: u64 [s1 + 0x120] = a4\n  9080: u64 [s1 + 0x118] = a5\n  9084: ra = 292, jump @31\n      : @347 [@dyn 146] (gas: 4)\n  9090: u64 [s1 + 0x110] = a0\n  9094: a0 = u64 [s1 + 0x128]\n  9098: a1 = u64 [s1 + 0x168]\n  9102: ra = 294, jump @31\n      : @348 [@dyn 147] (gas: 4)\n  9108: a1 = a0\n  9110: a0 = u64 [s1 + 0x110]\n  9114: a2 = u64 [s1 + 0x168]\n  9118: ra = 296, jump @0\n      : @349 [@dyn 148] (gas: 20)\n  9124: t2 = u64 [s1 + 0x118]\n  9128: t1 = u64 [s1 + 0x120]\n  9132: t0 = u64 [s1 + 0x130]\n  9136: a0 = u64 [s1 + 0x178]\n  9140: a1 = u64 [s1 + 0x168]\n  9144: a0 = a0 + a1\n  9147: a1 = a0 <u a1\n  9150: a2 = u64 [s1 + 0x158]\n  9154: a2 = a2 + t0\n  9157: a2 = a2 + a1\n  9160: a3 = a2 ^ t0\n  9163: a4 = a2 <u t0\n  9166: a4 = a1 if a3 == 0\n  9169: a1 = u64 [s1 + 0x160]\n  9173: a1 = a1 + t2\n  9176: a3 = a1 <u t2\n  9179: a5 = u64 [s1 + 0x170]\n  9183: a5 = a5 + t1\n  9186: a3 = a3 + a5\n  9189: t0 = 298, jump @1119\n      : @350 [@dyn 149] (gas: 1)\n  9195: jump @352 if a1 == 0\n      : @351 (gas: 1)\n  9198: jump @794\n      : @352 (gas: 15)\n  9201: a1 = u64 [s1 + 0x138]\n  9205: a2 = reverse a1\n  9207: a1 = u64 [s1 + 0x140]\n  9211: a1 = reverse a1\n  9213: a3 = u64 [s1 + 0x148]\n  9217: a3 = reverse a3\n  9219: a4 = u64 [s1 + 0x150]\n  9223: a4 = reverse a4\n  9225: a5 = s1 + 0x700\n  9229: u64 [a5 + 0x40] = a4\n  9232: u64 [a5 + 0x48] = a3\n  9235: u64 [a5 + 0x50] = a1\n  9238: a1 = s1 + 0x740\n  9242: u64 [a5 + 0x58] = a2\n  9245: ra = 300, jump @19\n      : @353 [@dyn 150] (gas: 11)\n  9251: a4 = s1 + 0x100\n  9255: a0 = u64 [a4 + 0x20]\n  9258: a1 = u64 [a4 + 0x18]\n  9261: a0 = a0 | a1\n  9264: a1 = 0xffffffe0\n  9274: a2 = u64 [a4 + 0x68]\n  9277: a1 = a2 <u a1\n  9280: a3 = u64 [a4 + 0x30]\n  9283: a1 = 0 if a3 != 0\n  9285: a1 = 0 if a0 != 0\n  9287: jump @355 if a1 != 0\n      : @354 (gas: 1)\n  9290: jump @794\n      : @355 (gas: 4)\n  9293: i32 a1 = a2 + 0x20\n  9296: u64 [s1 + 0x170] = a1\n  9300: a0 = u64 [s1 + 0x178]\n  9304: ra = 302, jump @31\n      : @356 [@dyn 151] (gas: 11)\n  9310: a1 = sp + 0xffffffffffffffe0\n  9313: a1 = a1 & 0xffffffffffffffe0\n  9316: u64 [s1 + 0x178] = a1\n  9320: sp = a1\n  9322: i32 a0 = a0 + 0\n  9324: i32 a2 = a1 + 0\n  9326: a1 = u64 [s1 + 0x170]\n  9330: ra = 0x130\n  9334: ecalli 9 // 'hash_keccak_256'\n  9336: t0 = 0x132\n  9340: jump @1130\n      : @357 [@dyn 152] (gas: 1)\n  9343: t0 = 306, jump @1130\n      : @358 [@dyn 153] (gas: 8)\n  9349: a5 = a4 + 0x600\n  9353: u64 [a5 + 0xa0] = a3\n  9357: u64 [a5 + 0x98] = a2\n  9361: u64 [a5 + 0x90] = a1\n  9365: u64 [a5 + 0x88] = a0\n  9369: a0 = s1 + 0x720\n  9373: a1 = s1 + 0x1fa0\n  9377: ra = 308, jump @21\n      : @359 [@dyn 154] (gas: 5)\n  9383: a0 = u64 [s1 + 0x720]\n  9387: u64 [s1 + 0x178] = a0\n  9391: a0 = s1 + 0x700\n  9395: a1 = 0x40\n  9398: ra = 310, jump @17\n      : @360 [@dyn 155] (gas: 13)\n  9404: a4 = s1 + 0x700\n  9408: a3 = u64 [a4 + 0x18]\n  9411: a1 = u64 [a4 + 0x10]\n  9414: a2 = u64 [a4 + 0x8]\n  9417: a0 = u64 [a4]\n  9419: a3 = a3 | a2\n  9422: a2 = a0 | a1\n  9425: a2 = a2 | a3\n  9428: a2 = a2 >> 0x20\n  9431: a1 = a1 | a3\n  9434: a1 = a1 << 0x20\n  9437: a1 = a1 | a2\n  9440: jump @362 if a1 == 0\n      : @361 (gas: 1)\n  9443: jump @794\n      : @362 (gas: 10)\n  9446: a1 = u8 [s1 + 0x178]\n  9450: a2 = a1 >u 0\n  9452: u64 [s1 + 1784] = 0\n  9456: u64 [s1 + 1776] = 0\n  9460: u64 [s1 + 1768] = 0\n  9464: a1 = s1 + 0x6e0\n  9468: u64 [s1 + 0x6e0] = a2\n  9472: u64 [s1 + 0x178] = a0\n  9476: ra = 0x154\n  9480: jump @19\n      : @363 (gas: 9)\n  9483: u64 [a2 + 1344] = 0\n  9487: u64 [a2 + 1336] = 0\n  9491: u64 [a2 + 1328] = 0\n  9495: u64 [a2 + 1320] = 0\n  9499: a0 = s1 + 0x2000\n  9503: i32 a0 = a0 + 0x640\n  9507: ra = 0x138\n  9511: ecalli 16 // 'value_transferred'\n  9513: fallthrough\n      : @364 [@dyn 156] (gas: 3)\n  9514: a3 = s1 + 0x2118\n  9518: a4 = a3 + 0x500\n  9522: t0 = 314, jump @1159\n      : @365 [@dyn 157] (gas: 1)\n  9528: jump @367 if a0 == 0\n      : @366 (gas: 1)\n  9531: jump @815\n      : @367 (gas: 3)\n  9534: a0 = u64 [s1 + 0x178]\n  9538: a0 = i32 [a0]\n  9540: jump @369 if a0 >u 35\n      : @368 (gas: 1)\n  9544: jump @816\n      : @369 (gas: 2)\n  9547: a0 = s1 + 0x1c20\n  9551: ra = 316, jump @864\n      : @370 [@dyn 158] (gas: 8)\n  9557: a0 = s1 + 0x1918\n  9561: a1 = u64 [a0 + 0x310]\n  9565: u64 [s1 + 0x170] = a1\n  9569: a1 = u64 [a0 + 0x308]\n  9573: u64 [s1 + 0x178] = a1\n  9577: a0 = u32 [a0 + 0x318]\n  9581: u64 [s1 + 0x168] = a0\n  9585: ra = 318, jump @1098\n      : @371 [@dyn 159] (gas: 7)\n  9591: a2 = s1 + 0x100\n  9595: a0 = u64 [a2 + 0x78]\n  9598: a1 = u64 [a2 + 0x68]\n  9601: a0 = a0 | a1\n  9604: a1 = u64 [a2 + 0x70]\n  9607: a0 = a0 | a1\n  9610: jump @373 if a0 == 0\n      : @372 (gas: 1)\n  9613: jump @817\n      : @373 (gas: 3)\n  9616: a0 = s1 + 0x1b80\n  9620: a1 = 0x40\n  9623: ra = 320, jump @17\n      : @374 [@dyn 160] (gas: 14)\n  9629: a4 = s1 + 0x1918\n  9633: t0 = u64 [a4 + 0x280]\n  9637: a1 = a4 + 0x200\n  9641: a5 = u64 [a1 + 0x78]\n  9644: a3 = u64 [a1 + 0x70]\n  9647: a0 = u64 [a1 + 0x68]\n  9650: a2 = a3 | t0\n  9653: a1 = a0 | a5\n  9656: a1 = a1 | a2\n  9659: a1 = a1 >> 0x20\n  9662: a2 = a2 | a5\n  9665: a2 = a2 << 0x20\n  9668: a1 = a1 | a2\n  9671: jump @376 if a1 == 0\n      : @375 (gas: 1)\n  9674: jump @794\n      : @376 (gas: 11)\n  9677: u64 [a4 + 600] = 0\n  9681: u64 [a4 + 592] = 0\n  9685: u64 [a4 + 584] = 0\n  9689: u64 [s1 + 0x170] = a3\n  9693: a3 = 0x8c379a000000000\n  9703: a1 = s1 + 0x1b60\n  9707: u64 [a4 + 0x260] = a3\n  9711: u64 [s1 + 0x178] = a0\n  9715: u64 [s1 + 0x168] = t0\n  9719: u64 [s1 + 0x160] = a5\n  9723: ra = 322, jump @19\n      : @377 [@dyn 161] (gas: 1)\n  9729: t0 = 324, jump @1120\n      : @378 [@dyn 162] (gas: 1)\n  9735: jump @380 if a0 != 0\n      : @379 (gas: 1)\n  9738: jump @794\n      : @380 (gas: 10)\n  9741: i32 a0 = a1 + 0x4\n  9744: a2 = s1 + 0x1918\n  9748: u64 [a2 + 576] = 0\n  9752: u64 [a2 + 568] = 0\n  9756: u64 [a2 + 552] = 0x20\n  9761: a1 = s1 + 0x1b40\n  9765: u64 [a2 + 560] = 0\n  9769: u64 [s1 + 0x168] = a3\n  9773: u64 [s1 + 0x160] = a4\n  9777: ra = 326, jump @19\n      : @381 [@dyn 163] (gas: 10)\n  9783: a3 = s1 + 0x100\n  9787: a1 = u64 [a3 + 0x78]\n  9790: a0 = u64 [a3 + 0x60]\n  9793: a0 = a0 + 0xffffffffffffffdc\n  9796: a0 = a1 <u a0\n  9799: a2 = u64 [a3 + 0x70]\n  9802: a0 = 0 if a2 != 0\n  9804: a2 = u64 [a3 + 0x68]\n  9807: a0 = 0 if a2 != 0\n  9809: jump @383 if a0 != 0\n      : @382 (gas: 1)\n  9812: jump @794\n      : @383 (gas: 8)\n  9815: i32 a0 = a1 + 0x24\n  9818: a2 = s1 + 0x1918\n  9822: u64 [a2 + 544] = 0\n  9826: u64 [a2 + 536] = 0\n  9830: u64 [a2 + 520] = 0x24\n  9835: a1 = s1 + 0x1b20\n  9839: u64 [a2 + 528] = 0\n  9843: ra = 328, jump @19\n      : @384 [@dyn 164] (gas: 10)\n  9849: a0 = s1 + 0x100\n  9853: a4 = u64 [a0 + 0x68]\n  9856: a3 = u64 [a0 + 0x70]\n  9859: a1 = u64 [a0 + 0x78]\n  9862: a2 = 0x100000000\n  9872: a0 = 0xffffffbc\n  9882: a0 = a1 <u a0\n  9885: a0 = 0 if a3 != 0\n  9887: a0 = 0 if a4 != 0\n  9889: jump @386 if a0 != 0\n      : @385 (gas: 1)\n  9892: jump @794\n      : @386 (gas: 14)\n  9895: i32 a0 = a1 + 0x44\n  9898: a1 = u64 [0x20080]\n  9903: u64 [s1 + 0x160] = a2\n  9907: a4 = s1 + 0x1918\n  9911: u64 [a4 + 0x200] = a1\n  9915: a1 = u64 [0x20088]\n  9920: a2 = u64 [0x20090]\n  9925: a3 = u64 [0x20098]\n  9930: a5 = a4 + 0x100\n  9934: u64 [a5 + 0xf8] = a1\n  9938: u64 [a5 + 0xf0] = a2\n  9942: a1 = s1 + 0x1b00\n  9946: u64 [a5 + 0xe8] = a3\n  9950: ra = 330, jump @19\n      : @387 [@dyn 165] (gas: 10)\n  9956: a3 = s1 + 0x100\n  9960: a2 = u64 [a3 + 0x78]\n  9963: a0 = u64 [a3 + 0x60]\n  9966: a0 = a0 + 0xffffffffffffff9c\n  9969: a0 = a2 <u a0\n  9972: a1 = u64 [a3 + 0x70]\n  9975: a0 = 0 if a1 != 0\n  9977: a1 = u64 [a3 + 0x68]\n  9980: a0 = 0 if a1 != 0\n  9982: jump @389 if a0 != 0\n      : @388 (gas: 1)\n  9985: jump @794\n      : @389 (gas: 9)\n  9988: i32 a0 = a2 + 0x64\n  9991: a3 = s1 + 0x1918\n  9995: u64 [a3 + 472] = 0\n  9999: u64 [a3 + 464] = 0\n 10003: a1 = 0x7265737300000000\n 10013: u64 [a3 + 0x1e0] = a1\n 10017: a1 = s1 + 0x1ae0\n 10021: u64 [a3 + 456] = 0\n 10025: ra = 332, jump @19\n      : @390 [@dyn 166] (gas: 3)\n 10031: a1 = 0x84\n 10035: a0 = u64 [s1 + 0x178]\n 10039: ra = 334, jump @31\n      : @391 [@dyn 167] (gas: 5)\n 10045: i32 a1 = a0 + 0\n 10047: a0 = 0x1\n 10050: a2 = 0x84\n 10054: ecalli 13 // 'seal_return'\n 10056: fallthrough\n      : @392 (gas: 9)\n 10057: a0 = s1 + 0x2118\n 10061: u64 [a0 + 1280] = 0\n 10065: u64 [a0 + 1272] = 0\n 10069: u64 [a0 + 1264] = 0\n 10073: u64 [a0 + 1256] = 0\n 10077: a0 = s1 + 0x2000\n 10081: i32 a0 = a0 + 0x600\n 10085: ecalli 16 // 'value_transferred'\n 10087: fallthrough\n      : @393 (gas: 10)\n 10088: a4 = s1 + 0x2118\n 10092: a5 = a4 + 0x400\n 10096: a0 = u64 [a5 + 0xf8]\n 10100: a1 = u64 [a4 + 0x500]\n 10104: a2 = u64 [a5 + 0xf0]\n 10108: a3 = u64 [a5 + 0xe8]\n 10112: a1 = a1 | a2\n 10115: a0 = a0 | a3\n 10118: a0 = a0 | a1\n 10121: jump @395 if a0 == 0\n      : @394 (gas: 1)\n 10124: jump @823\n      : @395 (gas: 3)\n 10127: a0 = u64 [s1 + 0x178]\n 10131: a0 = i32 [a0]\n 10133: jump @397 if a0 >u 3\n      : @396 (gas: 1)\n 10137: jump @824\n      : @397 (gas: 7)\n 10140: u64 [a4 + 1312] = 0\n 10144: u64 [a4 + 1304] = 0\n 10148: u64 [a4 + 1296] = 0\n 10152: u64 [a4 + 1288] = 0\n 10156: a0 = s1 + 0x1ac0\n 10160: a1 = s1 + 0x2620\n 10164: ra = 336, jump @21\n      : @398 [@dyn 168] (gas: 12)\n 10170: a1 = s1 + 0x1918\n 10174: a2 = a1 + 0x100\n 10178: a0 = u64 [a2 + 0xb8]\n 10182: a1 = s1 + 0x100\n 10186: u64 [a1 + 0x68] = a0\n 10189: a0 = u64 [a2 + 0xb0]\n 10193: u64 [a1 + 0x78] = a0\n 10196: a0 = u64 [a2 + 0xa8]\n 10200: u64 [a1 + 0x70] = a0\n 10203: a0 = s1 + 0x1aa0\n 10207: a1 = 0x40\n 10210: ra = 338, jump @17\n      : @399 [@dyn 169] (gas: 14)\n 10216: a3 = s1 + 0x1918\n 10220: a5 = a3 + 0x100\n 10224: a4 = u64 [a5 + 0xa0]\n 10228: a1 = u64 [a5 + 0x98]\n 10232: a2 = u64 [a5 + 0x90]\n 10236: a0 = u64 [a5 + 0x88]\n 10240: a4 = a4 | a2\n 10243: a2 = a0 | a1\n 10246: a2 = a2 | a4\n 10249: a2 = a2 >> 0x20\n 10252: a1 = a1 | a4\n 10255: a1 = a1 << 0x20\n 10258: a1 = a1 | a2\n 10261: jump @401 if a1 == 0\n      : @400 (gas: 1)\n 10264: jump @794\n      : @401 (gas: 14)\n 10267: a4 = s1 + 0x100\n 10271: a1 = u64 [a4 + 0x68]\n 10274: a1 = a1 << 0x20\n 10277: a2 = a1 >> 0x20\n 10280: u64 [a3 + 384] = 0\n 10284: a1 = u64 [a4 + 0x70]\n 10287: a5 = a3 + 0x100\n 10291: u64 [a5 + 0x68] = a1\n 10294: a1 = u64 [a4 + 0x78]\n 10297: u64 [a5 + 0x70] = a1\n 10300: a1 = s1 + 0x1a80\n 10304: u64 [a5 + 0x78] = a2\n 10307: u64 [s1 + 0x178] = a0\n 10311: ra = 340, jump @19\n      : @402 [@dyn 170] (gas: 3)\n 10317: a1 = 0x20\n 10320: a0 = u64 [s1 + 0x178]\n 10324: ra = 342, jump @31\n      : @403 [@dyn 171] (gas: 5)\n 10330: i32 a1 = a0 + 0\n 10332: a2 = 0x20\n 10335: a0 = 0\n 10337: ecalli 13 // 'seal_return'\n 10339: fallthrough\n      : @404 (gas: 1)\n 10340: jump @406 if a0 == 1314930029\n      : @405 (gas: 1)\n 10347: jump @825\n      : @406 (gas: 3)\n 10350: a0 = u64 [s1 + 0x178]\n 10354: a0 = i32 [a0]\n 10356: jump @408 if a0 >u 67\n      : @407 (gas: 1)\n 10360: jump @830\n      : @408 (gas: 2)\n 10363: a0 = s1 + 0x1980\n 10367: ra = 344, jump @864\n      : @409 [@dyn 172] (gas: 12)\n 10373: a1 = s1 + 0x1918\n 10377: a0 = u64 [a1 + 0x78]\n 10380: u64 [s1 + 0xe8] = a0\n 10384: a0 = u64 [a1 + 0x70]\n 10387: u64 [s1 + 0xf0] = a0\n 10391: a0 = u64 [a1 + 0x68]\n 10394: u64 [s1 + 0xf8] = a0\n 10398: a0 = s1 + 0x2000\n 10402: i32 a0 = a0 + 0x360\n 10406: a1 = 0x24\n 10409: ecalli 4 // 'call_data_load'\n 10411: fallthrough\n      : @410 (gas: 9)\n 10412: a5 = s1 + 0x2118\n 10416: a3 = a5 + 0x200\n 10420: a0 = u64 [a3 + 0x60]\n 10423: a1 = u64 [a3 + 0x58]\n 10426: a2 = u64 [a3 + 0x50]\n 10429: a3 = a1 | a0\n 10432: a4 = a2 <u 0x1\n 10435: a4 = 0 if a3 != 0\n 10437: jump @412 if a4 != 0\n      : @411 (gas: 1)\n 10440: jump @831\n      : @412 (gas: 25)\n 10443: a3 = u64 [a5 + 0x248]\n 10447: a4 = u64 [s1 + 0x178]\n 10451: t0 = u32 [a4]\n 10453: a5 = a3 + 0x4\n 10456: a3 = a5 <u a3\n 10459: a4 = a2 + a3\n 10462: a2 = a4 <u a2\n 10465: a2 = a3 if a3 == 0\n 10468: a2 = a2 + a1\n 10471: a1 = a2 <u a1\n 10474: a3 = a0 + a1\n 10477: a0 = s1 + 0x1918\n 10481: u64 [a0 + 0] = 0\n 10483: u64 [a0 + 4294967288] = 0\n 10486: u64 [a0 + 4294967280] = 0\n 10489: u64 [a0 + 0xffffffffffffffe8] = t0\n 10492: u64 [a0 + 0x8] = a5\n 10495: u64 [a0 + 0x10] = a4\n 10498: u64 [a0 + 0x18] = a2\n 10501: a4 = a0\n 10503: a0 = s1 + 0x1940\n 10507: a1 = s1 + 0x1920\n 10511: a2 = s1 + 0x1900\n 10515: u64 [a4 + 0x20] = a3\n 10518: ra = 346, jump @885\n      : @413 [@dyn 173] (gas: 27)\n 10524: a1 = s1 + 0x1918\n 10528: a0 = u64 [a1 + 0x40]\n 10531: u64 [s1 + 0x168] = a0\n 10535: a0 = u64 [a1 + 0x38]\n 10538: u64 [s1 + 0x170] = a0\n 10542: a0 = u64 [a1 + 0x30]\n 10545: u64 [s1 + 0x160] = a0\n 10549: a0 = u64 [a1 + 0x28]\n 10552: u64 [s1 + 0x178] = a0\n 10556: a0 = u64 [a1 + 0x60]\n 10559: u64 [s1 + 0xd0] = a0\n 10563: a0 = u64 [a1 + 0x58]\n 10566: u64 [s1 + 0xd8] = a0\n 10570: a0 = u64 [a1 + 0x50]\n 10573: u64 [s1 + 0xc8] = a0\n 10577: a0 = u64 [a1 + 0x48]\n 10580: u64 [s1 + 0xe0] = a0\n 10584: a0 = s1 + 0x2118\n 10588: u64 [a0 + 640] = 0\n 10592: u64 [a0 + 632] = 0\n 10596: u64 [a0 + 624] = 0\n 10600: u64 [a0 + 616] = 0\n 10604: a0 = s1 + 0x2000\n 10608: i32 a0 = a0 + 0x380\n 10612: ra = 0x15c\n 10616: ecalli 16 // 'value_transferred'\n 10618: fallthrough\n      : @414 [@dyn 174] (gas: 9)\n 10619: a3 = s1 + 0x2118\n 10623: a4 = a3 + 0x200\n 10627: a0 = u64 [a4 + 0x78]\n 10630: a1 = u64 [a4 + 0x80]\n 10634: a2 = u64 [a4 + 0x70]\n 10637: a3 = u64 [a4 + 0x68]\n 10640: a1 = a1 | a2\n 10643: a0 = a0 | a3\n 10646: t0 = 350, jump @1133\n      : @415 [@dyn 175] (gas: 8)\n 10652: u64 [a1 + 2040] = 0\n 10656: u64 [a1 + 2032] = 0\n 10660: u64 [a1 + 0x7e0] = a0\n 10664: a0 = s1 + 0x18e0\n 10668: u64 [a1 + 2024] = 0\n 10672: ra = 0x160\n 10676: t0 = 0x38a\n 10680: jump @1113\n      : @416 [@dyn 176] (gas: 8)\n 10683: a0 = u64 [s1 + 0xe8]\n 10687: a0 = a0 << 0x20\n 10690: a1 = a0 >> 0x20\n 10693: a0 = u64 [s1 + 0xf0]\n 10697: a2 = u64 [s1 + 0xf8]\n 10701: a0 = a0 | a2\n 10704: u64 [s1 + 0xa0] = a1\n 10708: t0 = 354, jump @1133\n      : @417 [@dyn 177] (gas: 8)\n 10714: u64 [a1 + 2008] = 0\n 10718: u64 [a1 + 2000] = 0\n 10722: u64 [a1 + 0x7c0] = a0\n 10726: a0 = s1 + 0x18c0\n 10730: u64 [a1 + 1992] = 0\n 10734: ra = 0x164\n 10738: t0 = 0x3aa\n 10742: jump @1113\n      : @418 [@dyn 178] (gas: 9)\n 10745: a0 = 0x30250\n 10750: u64 [s1 + 0x100] = a0\n 10754: i32 a0 = a0 + 0\n 10756: u64 [s1 + 0xc0] = a0\n 10760: ra = 0x166\n 10764: ecalli 6 // 'caller'\n 10766: a2 = u64 [s1 + 0x100]\n 10770: t0 = 0x168\n 10774: jump @1116\n      : @419 [@dyn 179] (gas: 2)\n 10777: a2 = u64 [s1 + 0x100]\n 10781: t0 = 360, jump @1116\n      : @420 [@dyn 180] (gas: 8)\n 10787: u64 [a2 + 1976] = 0\n 10791: a4 = a2 + 0x700\n 10795: u64 [a4 + 0xb0] = a1\n 10799: u64 [a4 + 0xa8] = a0\n 10803: a1 = s1 + 0x18a0\n 10807: u64 [a4 + 0xa0] = a3\n 10811: a0 = 0\n 10813: ra = 362, jump @19\n      : @421 [@dyn 181] (gas: 3)\n 10819: t0 = 0x16c\n 10823: a1 = s1 + 0x1100\n 10827: fallthrough\n      : @422 [@dyn 182] (gas: 8)\n 10828: u64 [a1 + 1944] = 0\n 10832: u64 [a1 + 1936] = 0\n 10836: u64 [a1 + 1920] = 0x3\n 10841: a2 = s1 + 0x1100\n 10845: a0 = 0x20\n 10848: a1 = s1 + 0x1880\n 10852: u64 [a2 + 1928] = 0\n 10856: ra = 366, jump @19\n      : @423 [@dyn 183] (gas: 3)\n 10862: a2 = 0x2023c\n 10867: a0 = i32 [0x2023c]\n 10872: jump @425 if a0 >u 63\n      : @424 (gas: 2)\n 10876: u32 [0x2023c] = 0x40\n 10882: fallthrough\n      : @425 (gas: 15)\n 10883: u64 [s1 + 0xb0] = a2\n 10887: a0 = sp + 0xffffffffffffffe0\n 10890: a2 = a0 & 0xffffffffffffffe0\n 10893: u64 [s1 + 0x158] = a2\n 10897: sp = a2\n 10899: a0 = 0x20250\n 10904: u64 [s1 + 0xa8] = a0\n 10908: i32 a0 = a0 + 0\n 10910: i32 a2 = a2 + 0\n 10912: a1 = 0x40\n 10915: u64 [s1 + 0xb8] = a0\n 10919: ra = 0x170\n 10923: ecalli 9 // 'hash_keccak_256'\n 10925: t0 = 0x172\n 10929: jump @1143\n      : @426 [@dyn 184] (gas: 1)\n 10932: t0 = 370, jump @1143\n      : @427 [@dyn 185] (gas: 3)\n 10938: a0 = s1 + 0x1860\n 10942: a1 = 0x40\n 10945: ra = 372, jump @17\n      : @428 [@dyn 186] (gas: 1)\n 10951: t0 = 374, jump @1145\n      : @429 [@dyn 187] (gas: 1)\n 10957: jump @431 if a0 == 0\n      : @430 (gas: 1)\n 10960: jump @794\n      : @431 (gas: 12)\n 10963: a1 = u64 [s1 + 0xe0]\n 10967: a3 = u64 [s1 + 0xd8]\n 10971: a0 = a1 | a3\n 10974: a2 = u64 [s1 + 0xd0]\n 10978: a4 = u64 [s1 + 0xc8]\n 10982: a2 = a2 | a4\n 10985: a0 = a0 | a2\n 10988: a0 = a0 >> 0x20\n 10991: a2 = a2 | a3\n 10994: a2 = a2 << 0x20\n 10997: a0 = a0 | a2\n 11000: jump @433 if a0 == 0\n      : @432 (gas: 1)\n 11003: jump @794\n      : @433 (gas: 13)\n 11006: a2 = s1 + 0x1100\n 11010: t0 = u64 [a2 + 0x778]\n 11014: a4 = u64 [a2 + 0x770]\n 11018: a0 = u64 [a2 + 0x760]\n 11022: t1 = u64 [a2 + 0x768]\n 11026: a3 = a0 | a4\n 11029: a2 = t1 | t0\n 11032: a3 = a3 | a2\n 11035: a3 = a3 >> 0x20\n 11038: a2 = a2 | a4\n 11041: a2 = a2 << 0x20\n 11044: a2 = a2 | a3\n 11047: jump @435 if a2 == 0\n      : @434 (gas: 1)\n 11050: jump @794\n      : @435 (gas: 9)\n 11053: i32 a5 = a5 + 0\n 11055: u64 [s1 + 0x90] = a5\n 11059: i32 a2 = a1 + 0\n 11061: u64 [s1 + 0x98] = a2\n 11065: u64 [s1 + 0x178] = a0\n 11069: u64 [s1 + 0x170] = t0\n 11073: u64 [s1 + 0x168] = a4\n 11077: u64 [s1 + 0x160] = t1\n 11081: ra = 376, jump @31\n      : @436 [@dyn 188] (gas: 6)\n 11087: i32 a0 = a0 + 0\n 11089: a1 = u64 [s1 + 0x98]\n 11093: a2 = u64 [s1 + 0x90]\n 11097: ra = 0x17a\n 11101: ecalli 3 // 'call_data_copy'\n 11103: fallthrough\n      : @437 [@dyn 189] (gas: 7)\n 11104: a0 = u64 [s1 + 0xe0]\n 11108: a1 = u64 [s1 + 0x178]\n 11112: a0 = a0 + a1\n 11115: a1 = a0 <u a1\n 11118: a2 = u64 [s1 + 0xc8]\n 11122: a4 = u64 [s1 + 0x160]\n 11126: t0 = 380, jump @1124\n      : @438 [@dyn 190] (gas: 9)\n 11132: a1 = u64 [s1 + 0xd8]\n 11136: a3 = u64 [s1 + 0x168]\n 11140: a1 = a1 + a3\n 11143: t0 = a1 <u a3\n 11146: a5 = u64 [s1 + 0xd0]\n 11150: a3 = u64 [s1 + 0x170]\n 11154: a5 = a5 + a3\n 11157: a3 = a5 + t0\n 11160: t0 = 382, jump @1119\n      : @439 [@dyn 191] (gas: 1)\n 11166: jump @441 if a1 == 0\n      : @440 (gas: 1)\n 11169: jump @794\n      : @441 (gas: 1)\n 11172: t0 = 384, jump @1131\n      : @442 [@dyn 192] (gas: 7)\n 11178: u64 [a5 + 0x740] = a4\n 11182: a4 = a5 + 0x700\n 11186: u64 [a4 + 0x48] = a3\n 11189: u64 [a4 + 0x50] = a1\n 11192: a1 = s1 + 0x1840\n 11196: u64 [a4 + 0x58] = a2\n 11199: ra = 386, jump @19\n      : @443 [@dyn 193] (gas: 10)\n 11205: a0 = u64 [s1 + 0xd8]\n 11209: a1 = u64 [s1 + 0xd0]\n 11213: a0 = a0 | a1\n 11216: a1 = 0xffffffe0\n 11226: a2 = u64 [s1 + 0xe0]\n 11230: a1 = a2 <u a1\n 11233: a2 = u64 [s1 + 0xc8]\n 11237: a1 = 0 if a2 != 0\n 11239: a1 = 0 if a0 != 0\n 11241: jump @445 if a1 != 0\n      : @444 (gas: 1)\n 11244: jump @794\n      : @445 (gas: 5)\n 11247: a0 = u64 [s1 + 0x98]\n 11251: i32 a1 = a0 + 0x20\n 11254: u64 [s1 + 0x88] = a1\n 11258: a0 = u64 [s1 + 0x178]\n 11262: ra = 388, jump @31\n      : @446 [@dyn 194] (gas: 1)\n 11268: t0 = 390, jump @1160\n      : @447 [@dyn 195] (gas: 19)\n 11274: ecalli 9 // 'hash_keccak_256'\n 11276: a3 = u64 [s1 + 0x178]\n 11280: a0 = u64 [a3 + 0x18]\n 11283: a1 = u64 [a3 + 0x10]\n 11286: a2 = u64 [a3 + 0x8]\n 11289: a3 = u64 [a3]\n 11291: a0 = reverse a0\n 11293: a1 = reverse a1\n 11295: a2 = reverse a2\n 11297: a3 = reverse a3\n 11299: a4 = s1 + 0x2118\n 11303: a5 = a4 + 0x200\n 11307: u64 [a5 + 0xa0] = a3\n 11311: u64 [a5 + 0x98] = a2\n 11315: u64 [a5 + 0x90] = a1\n 11319: u64 [a5 + 0x88] = a0\n 11323: a0 = s1 + 0x1820\n 11327: a1 = s1 + 0x23a0\n 11331: ra = 392, jump @21\n      : @448 [@dyn 196] (gas: 11)\n 11337: a1 = s1 + 0x1100\n 11341: a0 = u8 [a1 + 0x720]\n 11345: a0 = a0 <u 0x1\n 11348: u64 [a1 + 1816] = 0\n 11352: u64 [a1 + 1808] = 0\n 11356: u64 [a1 + 0x700] = a0\n 11360: a0 = s1 + 0x1800\n 11364: u64 [a1 + 1800] = 0\n 11368: ra = 0x18a\n 11372: t0 = 0x3ca\n 11376: jump @1113\n      : @449 [@dyn 197] (gas: 8)\n 11379: a1 = s1 + 0x2118\n 11383: u64 [a1 + 704] = 0\n 11387: u64 [a1 + 696] = 0\n 11391: u64 [a1 + 688] = 0\n 11395: u64 [a1 + 680] = 0x1\n 11400: a0 = s1 + 0x17e0\n 11404: a1 = s1 + 0x23c0\n 11408: ra = 396, jump @21\n      : @450 [@dyn 198] (gas: 43)\n 11414: a1 = s1 + 0x1100\n 11418: a2 = a1 + 0x600\n 11422: a0 = u64 [a2 + 0xe0]\n 11426: u64 [s1 + 0x178] = a0\n 11430: a0 = u64 [a2 + 0xe8]\n 11434: u64 [s1 + 0x170] = a0\n 11438: a0 = u64 [a2 + 0xf0]\n 11442: u64 [s1 + 0x168] = a0\n 11446: a0 = u64 [a2 + 0xf8]\n 11450: u64 [s1 + 0x160] = a0\n 11454: a0 = s1 + 0x2118\n 11458: u64 [a0 + 736] = 0\n 11462: u64 [a0 + 728] = 0\n 11466: u64 [a0 + 720] = 0\n 11470: u64 [a0 + 712] = 0\n 11474: a0 = s1 + 0x2000\n 11478: i32 a0 = a0 + 0x3e0\n 11482: ecalli 16 // 'value_transferred'\n 11484: a2 = s1 + 0x2118\n 11488: a4 = a2 + 0x200\n 11492: a3 = u64 [a4 + 0xc8]\n 11496: a0 = u64 [a4 + 0xd0]\n 11500: a1 = u64 [a4 + 0xd8]\n 11504: a2 = u64 [a4 + 0xe0]\n 11508: a4 = s1 + 0x1100\n 11512: a5 = u64 [s1 + 0x160]\n 11516: u64 [a4 + 0x698] = a5\n 11520: a5 = u64 [s1 + 0x168]\n 11524: u64 [a4 + 0x690] = a5\n 11528: a5 = u64 [s1 + 0x170]\n 11532: u64 [a4 + 0x688] = a5\n 11536: a5 = u64 [s1 + 0x178]\n 11540: u64 [a4 + 0x680] = a5\n 11544: a5 = a4 + 0x600\n 11548: u64 [a5 + 0xb8] = a2\n 11552: u64 [a5 + 0xb0] = a1\n 11556: u64 [a5 + 0xa8] = a0\n 11560: a4 = s1 + 0x1100\n 11564: a0 = s1 + 0x17c0\n 11568: a1 = s1 + 0x17a0\n 11572: a2 = s1 + 0x1780\n 11576: u64 [a4 + 0x6a0] = a3\n 11580: ra = 398, jump @1014\n      : @451 [@dyn 199] (gas: 2)\n 11586: a1 = s1 + 0x1100\n 11590: fallthrough\n      : @452 (gas: 57)\n 11591: t0 = u64 [a1 + 0x6d8]\n 11595: a0 = u64 [a1 + 0x6d0]\n 11599: t2 = u64 [a1 + 0x6c8]\n 11603: t1 = u64 [a1 + 0x6c0]\n 11607: a3 = clz t0\n 11609: a1 = clz a0\n 11611: a2 = a1 + 0x40\n 11614: a2 = a3 if t0 != 0\n 11617: a3 = clz t2\n 11619: a1 = clz t1\n 11621: a1 = a1 + 0x40\n 11624: a1 = a3 if t2 != 0\n 11627: a4 = a1 + 0x80\n 11631: a3 = a0 | t0\n 11634: a2 = a4 if a3 == 0\n 11637: a5 = a4 <u a1\n 11640: a5 = 0 if a3 != 0\n 11642: a4 = a5 >u 0\n 11644: a1 = a2 <u 0xfa\n 11648: a3 = a1 ^ 0x1\n 11651: a4 = a3 if a5 == 0\n 11654: ra = a4 <u 0x1\n 11657: ra = ra + 0xffffffffffffffff\n 11660: a1 = -a4\n 11662: a5 = -a5\n 11664: a3 = a5 - a3\n 11667: a2 = 0xf9 - a2\n 11671: u64 [s1 + 0x160] = a1\n 11675: a5 = a1 >u 0\n 11677: a1 = ra >u 0\n 11679: a1 = a5 if ra == 0\n 11682: u64 [s1 + 0x158] = a2\n 11686: a5 = a2 <u 0x100\n 11690: a5 = a5 ^ 0x1\n 11693: a2 = a3 >u 0\n 11695: a5 = a2 if a3 != 0\n 11698: a5 = a1 if a4 != 0\n 11701: a4 = a0\n 11703: a1 = t2 | t0\n 11706: a2 = t1 | a0\n 11709: a1 = a1 | a2\n 11712: a1 = a1 <u 0x1\n 11715: a1 = a1 | a5\n 11718: a0 = t0\n 11720: a0 = 0 if a1 != 0\n 11722: a2 = s1 + 0x100\n 11726: u64 [a2 + 0x68] = a0\n 11729: a0 = a4\n 11731: a0 = 0 if a1 != 0\n 11733: u64 [a2 + 0x70] = a0\n 11736: a0 = t2\n 11738: a0 = 0 if a1 != 0\n 11740: u64 [a2 + 0x78] = a0\n 11743: u64 [s1 + 0x138] = t1\n 11747: a5 = t1\n 11749: a5 = 0 if a1 != 0\n 11751: jump @454 if a1 == 0\n      : @453 (gas: 1)\n 11754: jump @624\n      : @454 (gas: 8)\n 11757: t1 = a4\n 11759: a4 = u64 [s1 + 0x158]\n 11763: a1 = a4 ^ 0xff\n 11767: a0 = u64 [s1 + 0x160]\n 11771: a1 = a1 | a0\n 11774: a2 = a3 | ra\n 11777: a1 = a1 | a2\n 11780: jump @456 if a1 != 0\n      : @455 (gas: 1)\n 11783: jump @624\n      : @456 (gas: 21)\n 11786: a2 = a4 + 0x1\n 11789: u64 [s1 + 0x178] = a2\n 11793: a1 = a2 <u 0x1\n 11796: a1 = a1 + a3\n 11799: u64 [s1 + 0x150] = a1\n 11803: a1 = a1 | a2\n 11806: a1 = a1 <u 0x1\n 11809: a1 = a1 + a0\n 11812: u64 [s1 + 0x140] = a1\n 11816: a1 = a1 <u a0\n 11819: a1 = a1 + ra\n 11822: u64 [s1 + 0x148] = a1\n 11826: a0 = 0xff - a4\n 11830: u64 [s1 + 0x170] = a0\n 11834: a2 = 0x80 - a0\n 11838: a0 = u64 [s1 + 0x138]\n 11842: a1 = t2\n 11844: u64 [s1 + 0x130] = t2\n 11848: u64 [s1 + 0x128] = t0\n 11852: u64 [s1 + 0x120] = t1\n 11856: ra = 400, jump @1163\n      : @457 [@dyn 200] (gas: 6)\n 11862: u64 [s1 + 0x168] = a0\n 11866: u64 [s1 + 0x160] = a1\n 11870: a0 = u64 [s1 + 0x120]\n 11874: a1 = u64 [s1 + 0x128]\n 11878: a2 = u64 [s1 + 0x170]\n 11882: ra = 402, jump @1168\n      : @458 [@dyn 201] (gas: 1)\n 11888: t0 = 404, jump @1140\n      : @459 [@dyn 202] (gas: 1)\n 11894: ra = 406, jump @1168\n      : @460 [@dyn 203] (gas: 1)\n 11900: t0 = 408, jump @1162\n      : @461 [@dyn 204] (gas: 2)\n 11906: a4 = u64 [s1 + 0x128]\n 11910: t0 = 410, jump @1154\n      : @462 [@dyn 205] (gas: 6)\n 11916: a0 = u64 [s1 + 0x120]\n 11920: a1 = a0 if a2 == 0\n 11923: u64 [s1 + 0x168] = a1\n 11927: a0 = u64 [s1 + 0x138]\n 11931: a1 = u64 [s1 + 0x130]\n 11935: ra = 412, jump @1168\n      : @463 [@dyn 206] (gas: 1)\n 11941: t0 = 414, jump @1127\n      : @464 [@dyn 207] (gas: 1)\n 11947: jump @466 if a2 == 0\n      : @465 (gas: 1)\n 11950: jump @611\n      : @466 (gas: 3)\n 11953: a5 = 0\n 11955: u64 [s1 + 280] = 0\n 11959: jump @623\n      : @467 (gas: 8)\n 11962: a0 = s1 + 0x1918\n 11966: u64 [a0 + 1536] = 0\n 11970: u64 [a0 + 1528] = 0\n 11974: u64 [a0 + 1520] = 0\n 11978: u64 [a0 + 1512] = 0x1\n 11983: a0 = s1 + 0x6c0\n 11987: a1 = s1 + 0x1f00\n 11991: ra = 416, jump @21\n      : @468 [@dyn 208] (gas: 17)\n 11997: a0 = u64 [s1 + 0x6d8]\n 12001: a2 = s1 + 0x100\n 12005: u64 [a2 + 0x50] = a0\n 12008: a0 = u64 [s1 + 0x6d0]\n 12012: u64 [a2 + 0x48] = a0\n 12015: a0 = u64 [s1 + 0x6c8]\n 12019: u64 [a2 + 0x40] = a0\n 12022: a0 = u64 [s1 + 0x6c0]\n 12026: u64 [a2 + 0x38] = a0\n 12029: a1 = s1 + 0x1918\n 12033: u64 [a1 + 1568] = 0\n 12037: u64 [a1 + 1560] = 0\n 12041: u64 [a1 + 1552] = 0\n 12045: u64 [a1 + 1544] = 0x1\n 12050: a0 = s1 + 0x1f20\n 12054: a1 = u64 [a2 + 0x78]\n 12057: ra = 418, jump @22\n      : @469 [@dyn 209] (gas: 3)\n 12063: a0 = s1 + 0x6a0\n 12067: a1 = 0x40\n 12070: ra = 420, jump @17\n      : @470 [@dyn 210] (gas: 6)\n 12076: a1 = s1 + 0x600\n 12080: a4 = u64 [a1 + 0xb8]\n 12084: a5 = u64 [a1 + 0xb0]\n 12088: a3 = u64 [a1 + 0xa8]\n 12092: a0 = u64 [a1 + 0xa0]\n 12096: t0 = 422, jump @1142\n      : @471 [@dyn 211] (gas: 1)\n 12102: jump @473 if a1 == 0\n      : @472 (gas: 1)\n 12105: jump @794\n      : @473 (gas: 14)\n 12108: a1 = u64 [s1 + 0x138]\n 12112: u64 [s1 + 0x680] = a1\n 12116: a1 = u64 [s1 + 0x140]\n 12120: u64 [s1 + 0x688] = a1\n 12124: a1 = u64 [s1 + 0x148]\n 12128: u64 [s1 + 0x690] = a1\n 12132: a1 = s1 + 0x680\n 12136: a2 = u64 [s1 + 0x150]\n 12140: u64 [s1 + 0x698] = a2\n 12144: u64 [s1 + 0x178] = a0\n 12148: u64 [s1 + 0x150] = a3\n 12152: u64 [s1 + 0x148] = a4\n 12156: u64 [s1 + 0x140] = a5\n 12160: ra = 424, jump @19\n      : @474 [@dyn 212] (gas: 11)\n 12166: a4 = s1 + 0x100\n 12170: a2 = u64 [a4 + 0x78]\n 12173: a0 = u64 [a4 + 0x48]\n 12176: a1 = u64 [a4 + 0x40]\n 12179: a0 = a0 | a1\n 12182: a1 = 0xffffffe0\n 12192: a1 = a2 <u a1\n 12195: a3 = u64 [a4 + 0x50]\n 12198: a1 = 0 if a3 != 0\n 12200: a1 = 0 if a0 != 0\n 12202: jump @476 if a1 != 0\n      : @475 (gas: 1)\n 12205: jump @794\n      : @476 (gas: 11)\n 12208: i32 a0 = a2 + 0x20\n 12211: a1 = u64 [s1 + 0x158]\n 12215: u64 [s1 + 0x660] = a1\n 12219: a1 = u64 [s1 + 0x160]\n 12223: u64 [s1 + 0x668] = a1\n 12227: a1 = u64 [s1 + 0x168]\n 12231: u64 [s1 + 0x670] = a1\n 12235: a1 = s1 + 0x660\n 12239: a2 = u64 [s1 + 0x170]\n 12243: u64 [s1 + 0x678] = a2\n 12247: ra = 426, jump @19\n      : @477 [@dyn 213] (gas: 30)\n 12253: a0 = u64 [0x20118]\n 12258: a1 = u64 [0x20120]\n 12263: a4 = s1 + 0x600\n 12267: u64 [a4 + 0x58] = a0\n 12270: a0 = u64 [0x20128]\n 12275: u64 [a4 + 0x50] = a1\n 12278: a3 = u64 [0x20130]\n 12283: u64 [a4 + 0x48] = a0\n 12286: a1 = 0x40\n 12289: a2 = s1 + 0x640\n 12293: u64 [a4 + 0x40] = a3\n 12296: a0 = u64 [s1 + 0x178]\n 12300: ra = 0x1ac\n 12304: sp = sp + 0xffffffffffffffa0\n 12307: u64 [sp + 0x58] = ra\n 12310: u64 [sp + 0x50] = s0\n 12313: u64 [sp + 0x48] = s1\n 12316: s0 = sp + 0x60\n 12319: sp = sp & 0xffffffffffffffe0\n 12322: a3 = u64 [a2]\n 12324: u64 [sp + 0x18] = a3\n 12327: a3 = u64 [a2 + 0x8]\n 12330: u64 [sp + 0x10] = a3\n 12333: a3 = u64 [a2 + 0x10]\n 12336: u64 [sp + 0x8] = a3\n 12339: a2 = u64 [a2 + 0x18]\n 12342: u64 [sp] = a2\n 12344: s1 = a1\n 12346: ra = 0x6\n 12349: jump @31\n      : @478 [@dyn 214] (gas: 3)\n 12352: a1 = 0x20250\n 12357: i32 a1 = a1 + 0\n 12359: jump @822\n      : @479 (gas: 59)\n 12362: ecalli 10 // 'ref_time_left'\n 12364: a1 = u64 [s1 + 0x170]\n 12368: a2 = reverse a1\n 12370: a1 = a2 << 0x20\n 12373: a3 = u64 [s1 + 0x140]\n 12377: a3 = reverse a3\n 12379: a3 = a3 >> 0x20\n 12382: a3 = a3 | a1\n 12385: a1 = u64 [s1 + 0x178]\n 12389: a4 = reverse a1\n 12391: a5 = a4 << 0x20\n 12394: a1 = 0x30250\n 12399: a2 = a2 >> 0x20\n 12402: a2 = a2 | a5\n 12405: a4 = a4 >> 0x20\n 12408: u32 [0x30260] = a4\n 12413: u64 [0x30258] = a2\n 12418: u64 [0x30250] = a3\n 12423: a3 = s1 + 0x2118\n 12427: a2 = u64 [s1 + 0x158]\n 12431: a4 = a3 + 0x100\n 12435: u64 [a4 + 0xf0] = a2\n 12439: a2 = u64 [s1 + 0x150]\n 12443: u64 [a4 + 0xe8] = a2\n 12447: a2 = u64 [s1 + 0x160]\n 12451: u64 [a4 + 0xf8] = a2\n 12455: a2 = u64 [s1 + 0x168]\n 12459: a4 = a3 + 0x200\n 12463: u64 [a4] = a2\n 12465: u32 [a3 + 520] = 0\n 12469: a0 = a0 >u 0x8fc\n 12473: a2 = -a0\n 12475: u64 [a4 + 0x40] = a2\n 12478: u64 [a4 + 0x38] = a2\n 12481: u64 [a4 + 0x30] = a2\n 12484: u64 [a4 + 0x28] = a2\n 12487: a1 = a1 << 0x20\n 12490: a1 = a1 >> 0x20\n 12493: a0 = a0 << 0x23\n 12496: a0 = a0 | a1\n 12499: a1 = s1 + 0x2300\n 12503: a1 = a1 << 0x20\n 12506: a1 = a1 >> 0x20\n 12509: a4 = 0x20250\n 12514: a2 = s1 + 0x2340\n 12518: a2 = a2 << 0x20\n 12521: a3 = a2 | a1\n 12524: u64 [s1 + 0x138] = a4\n 12528: a4 = a4 << 0x20\n 12531: a4 = a4 >> 0x20\n 12534: a1 = s1 + 0x2320\n 12538: a1 = a1 << 0x20\n 12541: a5 = a1 | a4\n 12544: a1 = 0xffffffffffffffff\n 12547: a2 = 0xffffffffffffffff\n 12550: ecalli 2 // 'call'\n 12552: u64 [s1 + 0x140] = a0\n 12556: a0 = s1 + 0x1480\n 12560: ra = 430, jump @1082\n      : @480 [@dyn 215] (gas: 3)\n 12566: a0 = s1 + 0x1460\n 12570: a1 = 0x40\n 12573: ra = 432, jump @17\n      : @481 [@dyn 216] (gas: 9)\n 12579: a0 = s1 + 0x1100\n 12583: a1 = a0 + 0x300\n 12587: a2 = u64 [a1 + 0x78]\n 12590: a5 = u64 [a1 + 0x70]\n 12593: a4 = u64 [a1 + 0x68]\n 12596: a3 = u64 [a1 + 0x60]\n 12599: t0 = s1 + 0x1100\n 12603: a0 = u64 [s1 + 0x140]\n 12607: jump @487 if a0 != 0\n      : @482 (gas: 8)\n 12611: a0 = a3 | a5\n 12614: a1 = a4 | a2\n 12617: a0 = a0 | a1\n 12620: a0 = a0 >> 0x20\n 12623: a1 = a1 | a5\n 12626: a1 = a1 << 0x20\n 12629: a0 = a0 | a1\n 12632: jump @484 if a0 == 0\n      : @483 (gas: 1)\n 12635: jump @794\n      : @484 (gas: 13)\n 12638: a0 = u64 [s1 + 0x150]\n 12642: a2 = t0 + 0x200\n 12646: u64 [a2 + 0xc0] = a0\n 12650: a0 = u64 [s1 + 0x158]\n 12654: u64 [a2 + 0xc8] = a0\n 12658: a0 = u64 [s1 + 0x160]\n 12662: u64 [a2 + 0xd0] = a0\n 12666: a1 = s1 + 0x13c0\n 12670: a0 = u64 [s1 + 0x168]\n 12674: u64 [a2 + 0xd8] = a0\n 12678: a0 = a3\n 12680: u64 [s1 + 0x130] = a3\n 12684: ra = 434, jump @19\n      : @485 [@dyn 217] (gas: 48)\n 12690: a0 = u64 [s1 + 0x148]\n 12694: a4 = s1 + 0x1100\n 12698: a5 = a4 + 0x200\n 12702: u64 [a5 + 0x90] = a0\n 12706: a0 = u64 [s1 + 0x170]\n 12710: u64 [a5 + 0x88] = a0\n 12714: a0 = u64 [s1 + 0x178]\n 12718: u64 [a5 + 0x80] = a0\n 12722: a0 = u64 [0x200d0]\n 12727: a1 = u64 [0x200d8]\n 12732: a2 = u64 [0x200e0]\n 12737: a3 = u64 [0x200e8]\n 12742: u64 [a5 + 0xb8] = a0\n 12746: u64 [a5 + 0xb0] = a1\n 12750: u64 [a5 + 0xa8] = a2\n 12754: u64 [a5 + 0xa0] = a3\n 12758: a0 = s1 + 0x1100\n 12762: a1 = 0x20\n 12765: a2 = s1 + 0x13a0\n 12769: a3 = s1 + 0x1380\n 12773: u64 [a0 + 664] = 0\n 12777: a0 = u64 [s1 + 0x130]\n 12781: ra = 0x1b4\n 12785: sp = sp + 0xffffffffffffff60\n 12789: u64 [sp + 0x98] = ra\n 12793: u64 [sp + 0x90] = s0\n 12797: u64 [sp + 0x88] = s1\n 12801: s0 = sp + 0xa0\n 12805: sp = sp & 0xffffffffffffffe0\n 12808: a4 = u64 [a3]\n 12810: u64 [sp + 0x38] = a4\n 12813: a4 = u64 [a3 + 0x8]\n 12816: u64 [sp + 0x30] = a4\n 12819: a4 = u64 [a3 + 0x10]\n 12822: u64 [sp + 0x28] = a4\n 12825: a3 = u64 [a3 + 0x18]\n 12828: u64 [sp + 0x20] = a3\n 12831: a3 = u64 [a2]\n 12833: u64 [sp + 0x18] = a3\n 12836: a3 = u64 [a2 + 0x8]\n 12839: u64 [sp + 0x10] = a3\n 12842: a3 = u64 [a2 + 0x10]\n 12845: u64 [sp + 0x8] = a3\n 12848: a2 = u64 [a2 + 0x18]\n 12851: u64 [sp] = a2\n 12853: s1 = a1\n 12855: ra = 0xa\n 12858: jump @31\n      : @486 [@dyn 218] (gas: 5)\n 12861: a1 = i32 [s1 + 0x138]\n 12865: a0 = 0\n 12867: a2 = 0\n 12869: ecalli 13 // 'seal_return'\n 12871: jump @840\n      : @487 (gas: 8)\n 12874: a0 = a3 | a5\n 12877: a1 = a4 | a2\n 12880: a0 = a0 | a1\n 12883: a0 = a0 >> 0x20\n 12886: a1 = a1 | a5\n 12889: a1 = a1 << 0x20\n 12892: a0 = a0 | a1\n 12895: jump @489 if a0 == 0\n      : @488 (gas: 1)\n 12898: jump @794\n      : @489 (gas: 12)\n 12901: u64 [t0 + 848] = 0\n 12905: u64 [t0 + 840] = 0\n 12909: u64 [t0 + 832] = 0\n 12913: a0 = 0x8c379a000000000\n 12923: a1 = s1 + 0x1440\n 12927: u64 [t0 + 0x358] = a0\n 12931: a0 = a3\n 12933: u64 [s1 + 0x130] = a3\n 12937: u64 [s1 + 0x128] = a4\n 12941: u64 [s1 + 0x170] = a5\n 12945: u64 [s1 + 0x178] = a2\n 12949: ra = 438, jump @19\n      : @490 [@dyn 219] (gas: 12)\n 12955: a5 = s1 + 0x100\n 12959: a1 = u64 [a5 + 0x30]\n 12962: a0 = u64 [a5 + 0x78]\n 12965: a3 = u64 [a5 + 0x70]\n 12968: a3 = a3 | a0\n 12971: a4 = 0x100000000\n 12981: a0 = 0xfffffffc\n 12991: a0 = a1 <u a0\n 12994: a2 = u64 [a5 + 0x28]\n 12997: a0 = 0 if a2 != 0\n 12999: a0 = 0 if a3 != 0\n 13001: jump @492 if a0 != 0\n      : @491 (gas: 1)\n 13004: jump @794\n      : @492 (gas: 10)\n 13007: i32 a0 = a1 + 0x4\n 13010: a2 = s1 + 0x1100\n 13014: u64 [a2 + 824] = 0\n 13018: u64 [a2 + 816] = 0\n 13022: u64 [a2 + 800] = 0x20\n 13027: a1 = s1 + 0x1420\n 13031: u64 [a2 + 808] = 0\n 13035: u64 [s1 + 0x178] = a3\n 13039: u64 [s1 + 0x170] = a4\n 13043: ra = 440, jump @19\n      : @493 [@dyn 220] (gas: 6)\n 13049: a4 = s1 + 0x100\n 13053: a3 = u64 [a4 + 0x78]\n 13056: a2 = u64 [a4 + 0x28]\n 13059: a1 = u64 [a4 + 0x30]\n 13062: a0 = u64 [a4 + 0x70]\n 13065: t0 = 442, jump @1136\n      : @494 [@dyn 221] (gas: 1)\n 13071: jump @496 if a0 != 0\n      : @495 (gas: 1)\n 13074: jump @794\n      : @496 (gas: 8)\n 13077: i32 a0 = a1 + 0x24\n 13080: a3 = s1 + 0x1100\n 13084: u64 [a3 + 792] = 0\n 13088: u64 [a3 + 784] = 0\n 13092: u64 [a3 + 768] = 0x15\n 13097: a1 = s1 + 0x1400\n 13101: u64 [a3 + 776] = 0\n 13105: ra = 444, jump @19\n      : @497 [@dyn 222] (gas: 9)\n 13111: a2 = s1 + 0x100\n 13115: a3 = u64 [a2 + 0x30]\n 13118: a0 = 0xffffffbc\n 13128: a0 = a3 <u a0\n 13131: a1 = u64 [a2 + 0x28]\n 13134: a0 = 0 if a1 != 0\n 13136: a1 = u64 [a2 + 0x78]\n 13139: a0 = 0 if a1 != 0\n 13141: jump @499 if a0 != 0\n      : @498 (gas: 1)\n 13144: jump @794\n      : @499 (gas: 12)\n 13147: i32 a0 = a3 + 0x44\n 13150: a1 = u64 [0x200c0]\n 13155: a2 = u64 [0x200c8]\n 13160: a4 = s1 + 0x1100\n 13164: a3 = a4 + 0x200\n 13168: u64 [a3 + 0xf8] = a1\n 13172: u64 [a3 + 0xf0] = a2\n 13176: a1 = 0x61696c6564000000\n 13186: u64 [a3 + 0xe8] = a1\n 13190: a1 = s1 + 0x13e0\n 13194: u64 [a4 + 736] = 0\n 13198: ra = 446, jump @19\n      : @500 [@dyn 223] (gas: 3)\n 13204: a1 = 0x64\n 13207: a0 = u64 [s1 + 0x130]\n 13211: ra = 448, jump @31\n      : @501 [@dyn 224] (gas: 1)\n 13217: t0 = 450, jump @1155\n      : @502 [@dyn 225] (gas: 2)\n 13223: ecalli 13 // 'seal_return'\n 13225: fallthrough\n      : @503 (gas: 3)\n 13226: a0 = s1 + 0x4c0\n 13230: a1 = 0x40\n 13233: ra = 452, jump @17\n      : @504 [@dyn 226] (gas: 2)\n 13239: a1 = s1 + 0x400\n 13243: t0 = 454, jump @1147\n      : @505 [@dyn 227] (gas: 4)\n 13249: ra = 0x1c8\n 13253: ecalli 12 // 'return_data_size'\n 13255: t0 = 0x1ca\n 13259: jump @1117\n      : @506 [@dyn 228] (gas: 1)\n 13262: t0 = 458, jump @1117\n      : @507 [@dyn 229] (gas: 1)\n 13268: jump @509 if a1 == 0\n      : @508 (gas: 1)\n 13271: jump @794\n      : @509 (gas: 3)\n 13274: a2 = a0\n 13276: a0 = a0 >> 0x20\n 13279: jump @511 if a0 == 0\n      : @510 (gas: 1)\n 13282: jump @794\n      : @511 (gas: 1)\n 13285: t0 = 460, jump @1141\n      : @512 [@dyn 230] (gas: 1)\n 13291: ra = 462, jump @31\n      : @513 [@dyn 231] (gas: 11)\n 13297: a1 = s1 + 0x1918\n 13301: a2 = u64 [s1 + 0x168]\n 13305: u32 [a1 + 0x508] = a2\n 13309: i32 a0 = a0 + 0\n 13311: a1 = s1 + 0x2000\n 13315: i32 a1 = a1 + 0xfffffffffffffe20\n 13319: a2 = 0\n 13321: ecalli 11 // 'return_data_copy'\n 13323: a0 = s1 + 0x1918\n 13327: a0 = i32 [a0 + 0x508]\n 13331: fallthrough\n      : @514 (gas: 2)\n 13332: a1 = u64 [s1 + 0x170]\n 13336: jump @516 if a0 >=u a1\n      : @515 (gas: 1)\n 13339: jump @794\n      : @516 (gas: 2)\n 13342: ecalli 12 // 'return_data_size'\n 13344: fallthrough\n      : @517 (gas: 3)\n 13345: a1 = a0\n 13347: a0 = a0 >> 0x20\n 13350: jump @519 if a0 == 0\n      : @518 (gas: 1)\n 13353: jump @794\n      : @519 (gas: 3)\n 13356: a0 = u64 [s1 + 0x178]\n 13360: u64 [s1 + 0x170] = a1\n 13364: ra = 464, jump @31\n      : @520 [@dyn 232] (gas: 5)\n 13370: i32 a1 = a0 + 0\n 13372: a2 = i32 [s1 + 0x170]\n 13376: a0 = 0x1\n 13379: ecalli 13 // 'seal_return'\n 13381: jump @811\n      : @521 (gas: 8)\n 13384: a0 = a2 | a4\n 13387: a1 = a3 | a5\n 13390: a0 = a0 | a1\n 13393: a0 = a0 >> 0x20\n 13396: a1 = a1 | a4\n 13399: a1 = a1 << 0x20\n 13402: a0 = a0 | a1\n 13405: jump @523 if a0 == 0\n      : @522 (gas: 1)\n 13408: jump @794\n      : @523 (gas: 12)\n 13411: u64 [s1 + 1072] = 0\n 13415: u64 [s1 + 1064] = 0\n 13419: u64 [s1 + 1056] = 0\n 13423: a0 = 0xa9059cbb00000000\n 13433: a1 = s1 + 0x420\n 13437: u64 [s1 + 0x438] = a0\n 13441: a0 = a2\n 13443: u64 [s1 + 0x148] = a2\n 13447: u64 [s1 + 0x118] = a3\n 13451: u64 [s1 + 0x110] = a4\n 13455: u64 [s1 + 0x108] = a5\n 13459: ra = 466, jump @19\n      : @524 [@dyn 233] (gas: 6)\n 13465: a5 = s1 + 0x100\n 13469: a1 = u64 [a5 + 0x48]\n 13472: a0 = u64 [a5 + 0x10]\n 13475: a2 = u64 [a5 + 0x8]\n 13478: a3 = a0 | a2\n 13481: t0 = 468, jump @1148\n      : @525 [@dyn 234] (gas: 1)\n 13487: jump @527 if a0 != 0\n      : @526 (gas: 1)\n 13490: jump @794\n      : @527 (gas: 13)\n 13493: i32 a0 = a1 + 0x4\n 13496: u64 [s1 + 1048] = 0\n 13500: a1 = u64 [s1 + 0x160]\n 13504: a5 = s1 + 0x400\n 13508: u64 [a5] = a1\n 13510: a1 = u64 [s1 + 0x158]\n 13514: u64 [a5 + 0x8] = a1\n 13517: a1 = s1 + 0x400\n 13521: a2 = u64 [s1 + 0x150]\n 13525: u64 [a5 + 0x10] = a2\n 13528: u64 [s1 + 0x178] = a3\n 13532: u64 [s1 + 0xd8] = a4\n 13536: ra = 470, jump @19\n      : @528 [@dyn 235] (gas: 10)\n 13542: a3 = s1 + 0x100\n 13546: a2 = u64 [a3 + 0x48]\n 13549: a0 = u64 [s1 + 0xd8]\n 13553: a0 = a0 + 0xffffffffffffffdc\n 13556: a0 = a2 <u a0\n 13559: a1 = u64 [a3 + 0x18]\n 13562: a0 = 0 if a1 != 0\n 13564: a1 = u64 [a3 + 0x78]\n 13567: a0 = 0 if a1 != 0\n 13569: jump @530 if a0 != 0\n      : @529 (gas: 1)\n 13572: jump @794\n      : @530 (gas: 12)\n 13575: i32 a0 = a2 + 0x24\n 13578: a1 = u64 [s1 + 0x120]\n 13582: a3 = s1 + 0x300\n 13586: u64 [a3 + 0xe0] = a1\n 13590: a1 = u64 [s1 + 0x128]\n 13594: u64 [a3 + 0xe8] = a1\n 13598: a1 = u64 [s1 + 0x130]\n 13602: u64 [a3 + 0xf0] = a1\n 13606: a1 = s1 + 0x3e0\n 13610: a2 = u64 [s1 + 0x138]\n 13614: u64 [a3 + 0xf8] = a2\n 13618: ra = 472, jump @19\n      : @531 [@dyn 236] (gas: 16)\n 13624: ecalli 10 // 'ref_time_left'\n 13626: a0 = u64 [s1 + 0x140]\n 13630: a1 = u64 [s1 + 0xe0]\n 13634: u64 [a0 + 0x8] = a1\n 13637: a1 = u64 [s1 + 0x170]\n 13641: u64 [a0] = a1\n 13643: a1 = u64 [s1 + 0x168]\n 13647: u32 [a0 + 0x10] = a1\n 13650: a0 = s1 + 0x1918\n 13654: u64 [a0 + 1344] = 0\n 13658: u64 [a0 + 1336] = 0\n 13662: u64 [a0 + 1328] = 0\n 13666: u64 [a0 + 1320] = 0\n 13670: a1 = 0x44\n 13673: a0 = u64 [s1 + 0x148]\n 13677: ra = 474, jump @31\n      : @532 [@dyn 237] (gas: 4)\n 13683: u64 [s1 + 0x178] = a0\n 13687: a1 = 0x20\n 13690: a0 = u64 [s1 + 0x148]\n 13694: ra = 476, jump @31\n      : @533 [@dyn 238] (gas: 31)\n 13700: a2 = s1 + 0x1918\n 13704: a3 = a2 + 0x500\n 13708: u32 [a3 + 72] = 0x20\n 13712: u64 [a3 + 128] = 0xffffffffffffffff\n 13717: u64 [a3 + 120] = 0xffffffffffffffff\n 13721: u64 [a3 + 112] = 0xffffffffffffffff\n 13725: u64 [a3 + 104] = 0xffffffffffffffff\n 13729: a1 = 0x800000000\n 13739: a2 = u64 [s1 + 0xe8]\n 13743: t0 = a2 | a1\n 13746: a1 = s1 + 0x1e40\n 13750: a1 = a1 << 0x20\n 13753: a1 = a1 >> 0x20\n 13756: a2 = s1 + 0x1e80\n 13760: a2 = a2 << 0x20\n 13763: a3 = a2 | a1\n 13766: a1 = u64 [s1 + 0x178]\n 13770: a1 = a1 << 0x20\n 13773: a1 = a1 >> 0x20\n 13776: a2 = 0x4400000000\n 13786: a4 = a1 | a2\n 13789: a0 = a0 << 0x20\n 13792: a0 = a0 >> 0x20\n 13795: a1 = s1 + 0x1e60\n 13799: a1 = a1 << 0x20\n 13802: a5 = a1 | a0\n 13805: a1 = 0xffffffffffffffff\n 13808: a2 = 0xffffffffffffffff\n 13811: a0 = t0\n 13813: ecalli 2 // 'call'\n 13815: fallthrough\n      : @534 (gas: 1)\n 13816: jump @536 if a0 == 0\n      : @535 (gas: 1)\n 13819: jump @678\n      : @536 (gas: 2)\n 13822: ecalli 12 // 'return_data_size'\n 13824: fallthrough\n      : @537 (gas: 2)\n 13825: a1 = 0x20\n 13828: jump @539 if a0 >=u a1\n      : @538 (gas: 3)\n 13831: ecalli 12 // 'return_data_size'\n 13833: a1 = a0\n 13835: fallthrough\n      : @539 (gas: 17)\n 13836: a2 = u64 [s1 + 0x148]\n 13840: a3 = u64 [s1 + 0x118]\n 13844: a4 = u64 [s1 + 0x110]\n 13848: a5 = u64 [s1 + 0x108]\n 13852: u64 [s1 + 0x170] = a1\n 13856: u64 [s1 + 376] = 0\n 13860: u64 [s1 + 0x380] = a1\n 13864: u64 [s1 + 0x3a0] = a2\n 13868: u64 [s1 + 904] = 0\n 13872: u64 [s1 + 0x3a8] = a3\n 13876: u64 [s1 + 912] = 0\n 13880: u64 [s1 + 0x3b0] = a4\n 13884: u64 [s1 + 920] = 0\n 13888: a0 = s1 + 0x3a0\n 13892: a1 = s1 + 0x380\n 13896: u64 [s1 + 0x3b8] = a5\n 13900: ra = 478, jump @869\n      : @540 [@dyn 239] (gas: 32)\n 13906: t0 = u64 [s1 + 0x148]\n 13910: a0 = u64 [s1 + 0x170]\n 13914: ra = a0 + t0\n 13917: a1 = ra <u a0\n 13920: t1 = u64 [s1 + 0x118]\n 13924: a5 = u64 [s1 + 0x178]\n 13928: a2 = a5 + t1\n 13931: a2 = a2 + a1\n 13934: a3 = a2 ^ a5\n 13937: a4 = a2 <u a5\n 13940: a4 = a1 if a3 == 0\n 13943: a3 = u64 [s1 + 0x110]\n 13947: a1 = a5 + a3\n 13950: a4 = a4 + a1\n 13953: t2 = a4 <u a1\n 13956: a1 = a1 <u a5\n 13959: a0 = u64 [s1 + 0x108]\n 13963: a5 = a5 + a0\n 13966: a1 = a1 + a5\n 13969: t2 = t2 + a1\n 13972: u64 [s1 + 0x330] = a4\n 13976: u64 [s1 + 0x328] = a2\n 13980: u64 [s1 + 0x320] = ra\n 13984: u64 [s1 + 0x358] = a0\n 13988: u64 [s1 + 0x350] = a3\n 13992: u64 [s1 + 0x348] = t1\n 13996: u64 [s1 + 0x340] = t0\n 14000: a0 = s1 + 0x360\n 14004: a1 = s1 + 0x340\n 14008: a2 = s1 + 0x320\n 14012: u64 [s1 + 0x338] = t2\n 14016: ra = 480, jump @936\n      : @541 [@dyn 240] (gas: 11)\n 14022: a0 = u64 [s1 + 0x370]\n 14026: a1 = u64 [s1 + 0x378]\n 14030: a2 = u64 [s1 + 0x368]\n 14034: a3 = u64 [s1 + 0x360]\n 14038: a1 = a1 | a2\n 14041: a0 = a0 | a3\n 14044: a0 = a0 | a1\n 14047: u64 [s1 + 0x178] = a0\n 14051: a0 = s1 + 0x300\n 14055: a1 = 0x40\n 14058: ra = 482, jump @17\n      : @542 [@dyn 241] (gas: 7)\n 14064: a0 = s1 + 0x300\n 14068: a4 = u64 [a0 + 0x18]\n 14071: a3 = u64 [a0 + 0x10]\n 14074: a1 = u64 [a0 + 0x8]\n 14077: a2 = u64 [a0]\n 14079: a0 = u64 [s1 + 0x178]\n 14083: jump @544 if a0 == 0\n      : @543 (gas: 1)\n 14086: jump @689\n      : @544 (gas: 12)\n 14089: a0 = a2 | a3\n 14092: a5 = s1 + 0x100\n 14096: u64 [a5 + 0x78] = a1\n 14099: u64 [a5 + 0x60] = a4\n 14102: a1 = a1 | a4\n 14105: a0 = a0 | a1\n 14108: a0 = a0 >> 0x20\n 14111: u64 [a5 + 0x68] = a3\n 14114: a1 = a1 | a3\n 14117: a1 = a1 << 0x20\n 14120: a0 = a0 | a1\n 14123: jump @546 if a0 == 0\n      : @545 (gas: 1)\n 14126: jump @794\n      : @546 (gas: 9)\n 14129: u64 [s1 + 624] = 0\n 14133: u64 [s1 + 616] = 0\n 14137: u64 [s1 + 608] = 0\n 14141: a0 = 0x8c379a000000000\n 14151: a1 = s1 + 0x260\n 14155: u64 [s1 + 0x278] = a0\n 14159: a0 = a2\n 14161: u64 [s1 + 0x170] = a2\n 14165: ra = 484, jump @19\n      : @547 [@dyn 242] (gas: 14)\n 14171: a4 = s1 + 0x100\n 14175: a2 = u64 [a4 + 0x70]\n 14178: a0 = u64 [a4 + 0x68]\n 14181: a3 = u64 [a4 + 0x60]\n 14184: a3 = a3 | a0\n 14187: a0 = 0x100000000\n 14197: u64 [a4 + 0x60] = a0\n 14200: a0 = 0xfffffffc\n 14210: a0 = a2 <u a0\n 14213: a1 = u64 [a4 + 0x78]\n 14216: a0 = 0 if a1 != 0\n 14218: u64 [a4 + 0x68] = a3\n 14221: a0 = 0 if a3 != 0\n 14223: jump @549 if a0 != 0\n      : @548 (gas: 1)\n 14226: jump @794\n      : @549 (gas: 7)\n 14229: i32 a0 = a2 + 0x4\n 14232: u64 [s1 + 600] = 0\n 14236: u64 [s1 + 592] = 0\n 14240: u64 [s1 + 576] = 0x20\n 14245: a1 = s1 + 0x240\n 14249: u64 [s1 + 584] = 0\n 14253: ra = 486, jump @19\n      : @550 [@dyn 243] (gas: 10)\n 14259: a2 = s1 + 0x100\n 14263: a0 = u64 [a2 + 0x60]\n 14266: a0 = a0 + 0xffffffffffffffdc\n 14269: a1 = u64 [a2 + 0x70]\n 14272: a0 = a1 <u a0\n 14275: a1 = u64 [a2 + 0x78]\n 14278: a0 = 0 if a1 != 0\n 14280: a1 = u64 [a2 + 0x68]\n 14283: a0 = 0 if a1 != 0\n 14285: jump @552 if a0 != 0\n      : @551 (gas: 1)\n 14288: jump @794\n      : @552 (gas: 8)\n 14291: a0 = u64 [s1 + 0x170]\n 14295: i32 a0 = a0 + 0x24\n 14298: u64 [s1 + 568] = 0\n 14302: u64 [s1 + 560] = 0\n 14306: u64 [s1 + 544] = 0x17\n 14311: a1 = s1 + 0x220\n 14315: u64 [s1 + 552] = 0\n 14319: ra = 488, jump @19\n      : @553 [@dyn 244] (gas: 9)\n 14325: a0 = 0xffffffbc\n 14335: a2 = s1 + 0x100\n 14339: a1 = u64 [a2 + 0x70]\n 14342: a0 = a1 <u a0\n 14345: a1 = u64 [a2 + 0x78]\n 14348: a0 = 0 if a1 != 0\n 14350: a1 = u64 [a2 + 0x68]\n 14353: a0 = 0 if a1 != 0\n 14355: jump @555 if a0 != 0\n      : @554 (gas: 1)\n 14358: jump @794\n      : @555 (gas: 12)\n 14361: a0 = u64 [s1 + 0x170]\n 14365: i32 a0 = a0 + 0x44\n 14368: a1 = u64 [0x20160]\n 14373: a2 = u64 [0x20168]\n 14378: a3 = u64 [0x20170]\n 14383: a4 = s1 + 0x200\n 14387: u64 [a4 + 0x18] = a1\n 14390: u64 [a4 + 0x10] = a2\n 14393: u64 [a4 + 0x8] = a3\n 14396: a1 = s1 + 0x200\n 14400: u64 [s1 + 512] = 0\n 14404: ra = 490, jump @19\n      : @556 [@dyn 245] (gas: 4)\n 14410: a1 = 0x64\n 14413: a0 = u64 [s1 + 0x170]\n 14417: ra = 0x1c0\n 14421: jump @31\n      : @557 (gas: 5)\n 14424: a0 = u64 [s1 + 0x178]\n 14428: a2 = a0 + 0xffffffffffffff80\n 14431: a0 = u64 [s1 + 0x128]\n 14435: a1 = u64 [s1 + 0x120]\n 14439: ra = 492, jump @1163\n      : @558 [@dyn 246] (gas: 1)\n 14445: t0 = 494, jump @1158\n      : @559 [@dyn 247] (gas: 1)\n 14451: ra = 496, jump @1163\n      : @560 [@dyn 248] (gas: 7)\n 14457: u64 [s1 + 0x28] = a0\n 14460: u64 [s1 + 0x110] = a1\n 14464: a1 = u64 [s1 + 0x178]\n 14468: a2 = 0x80 - a1\n 14472: a0 = u64 [s1 + 0x128]\n 14476: a1 = u64 [s1 + 0x120]\n 14480: ra = 498, jump @1168\n      : @561 [@dyn 249] (gas: 1)\n 14486: t0 = 500, jump @1128\n      : @562 [@dyn 250] (gas: 2)\n 14492: a1 = u64 [s1 + 0x28]\n 14495: t0 = 502, jump @1151\n      : @563 [@dyn 251] (gas: 3)\n 14501: a0 = u64 [s1 + 0x128]\n 14505: a1 = u64 [s1 + 0x120]\n 14509: ra = 504, jump @1163\n      : @564 [@dyn 252] (gas: 1)\n 14515: t0 = 506, jump @1126\n      : @565 [@dyn 253] (gas: 2)\n 14521: t0 = u64 [s1 + 0x138]\n 14525: fallthrough\n      : @566 (gas: 8)\n 14526: u64 [s1 + 0x128] = a1\n 14530: u64 [s1 + 0x130] = a5\n 14534: u64 [s1 + 280] = 0\n 14538: a2 = t0 >> 0x3f\n 14541: a3 = t2 << 0x1\n 14544: a3 = a3 | a2\n 14547: a2 = t0 << 0x1\n 14550: t0 = 508, jump @1132\n      : @567 [@dyn 254] (gas: 38)\n 14556: t0 = a5 <u a4\n 14559: a4 = u64 [s1 + 0x120]\n 14563: t0 = a1 if a4 != 0\n 14566: a1 = u64 [s1 + 0x128]\n 14570: a1 = a1 << 0x1\n 14573: a4 = a0 >> 0x3f\n 14576: a1 = a1 | a4\n 14579: u64 [s1 + 0x128] = a1\n 14583: a4 = t2 >> 0x3f\n 14586: a0 = a0 << 0x1\n 14589: a4 = a4 | a0\n 14592: a0 = ra << 0x1\n 14595: a1 = u64 [s1 + 0x168]\n 14599: a5 = a1 >> 0x3f\n 14602: a0 = a0 | a5\n 14605: u64 [s1 + 0x160] = a0\n 14609: a5 = a1 << 0x1\n 14612: a0 = u64 [s1 + 0x158]\n 14616: a1 = a0 >> 0x3f\n 14619: t2 = a5 | a1\n 14622: a5 = a0 << 0x1\n 14625: a0 = u64 [s1 + 0x170]\n 14629: ra = a0 >> 0x3f\n 14632: a5 = a5 | ra\n 14635: a0 = a0 << 0x1\n 14638: a1 = u64 [s1 + 0x130]\n 14642: a0 = a0 | a1\n 14645: u64 [s1 + 0x170] = a0\n 14649: a0 = t1 | a5\n 14652: u64 [s1 + 0x158] = a0\n 14656: a0 = t1 | t2\n 14659: u64 [s1 + 0x168] = a0\n 14663: a0 = u64 [s1 + 0x160]\n 14667: a0 = t1 | a0\n 14670: u64 [s1 + 0x160] = a0\n 14674: a0 = a2 - a4\n 14677: a0 = a0 <u t0\n 14680: t0 = 510, jump @1135\n      : @568 [@dyn 255] (gas: 29)\n 14686: t0 = a1 - a0\n 14689: a1 = a1 <u a0\n 14692: t2 = a3 - a1\n 14695: a1 = 0 if a3 != 0\n 14697: a0 = a4 - a1\n 14700: a1 = a4 <u a1\n 14703: a1 = t1 - a1\n 14706: a3 = u64 [s1 + 0x178]\n 14710: a5 = u64 [s1 + 0x150]\n 14714: a2 = a3 | a5\n 14717: a2 = a2 <u 0x1\n 14720: a4 = u64 [s1 + 0x140]\n 14724: t1 = a4 <u a2\n 14727: a4 = a4 - a2\n 14730: a2 = a3 <u 0x1\n 14733: a5 = a5 - a2\n 14736: a2 = u64 [s1 + 0x148]\n 14740: a2 = a2 - t1\n 14743: a3 = a3 + 0xffffffffffffffff\n 14746: u64 [s1 + 0x150] = a5\n 14750: u64 [s1 + 0x148] = a2\n 14754: a2 = a2 | a5\n 14757: u64 [s1 + 0x178] = a3\n 14761: a3 = a3 | a4\n 14764: a2 = a2 | a3\n 14767: a5 = ra & 0x1\n 14770: u64 [s1 + 0x140] = a4\n 14774: t1 = 0\n 14776: jump @566 if a2 != 0\n      : @569 (gas: 20)\n 14780: a2 = u64 [s1 + 0x168]\n 14784: a0 = a2 >> 0x3f\n 14787: a1 = u64 [s1 + 0x160]\n 14791: a1 = a1 << 0x1\n 14794: t0 = a1 | a0\n 14797: a3 = u64 [s1 + 0x158]\n 14801: a1 = a3 >> 0x3f\n 14804: a2 = a2 << 0x1\n 14807: a1 = a1 | a2\n 14810: a4 = u64 [s1 + 0x170]\n 14814: a2 = a4 >> 0x3f\n 14817: a3 = a3 << 0x1\n 14820: a4 = a4 << 0x1\n 14823: a4 = a4 | a5\n 14826: a0 = u64 [s1 + 0x118]\n 14830: a2 = a2 | a0\n 14833: a5 = a2 | a3\n 14836: a3 = a0 | a1\n 14839: ra = a0 | t0\n 14842: fallthrough\n      : @570 (gas: 26)\n 14843: a1 = s1 + 0x7ff\n 14847: a1 = a1 + 0xf9\n 14851: u64 [s1 + 0x158] = a4\n 14855: a2 = a1 + 0x600\n 14859: u64 [a2 + 0xe8] = a4\n 14863: a0 = u64 [s1 + 0x100]\n 14867: a4 = a1 + 0x700\n 14871: u64 [a4 + 0x8] = a0\n 14874: u64 [s1 + 0x150] = a5\n 14878: u64 [a2 + 0xf0] = a5\n 14882: a0 = u64 [s1 + 0xf8]\n 14886: u64 [a4 + 0x10] = a0\n 14889: u64 [s1 + 0x148] = a3\n 14893: u64 [a2 + 0xf8] = a3\n 14897: a0 = u64 [s1 + 0xf0]\n 14901: u64 [a4 + 0x18] = a0\n 14904: u64 [s1 + 0x140] = ra\n 14908: u64 [a1 + 0x700] = ra\n 14912: a4 = a1\n 14914: a0 = s1 + 0x1020\n 14918: a1 = s1 + 0x1000\n 14922: a2 = s1 + 0x7ff\n 14926: a2 = a2 + 0x7e1\n 14930: a3 = u64 [s1 + 0xe8]\n 14934: u64 [a4 + 0x720] = a3\n 14938: ra = 512, jump @1022\n      : @571 [@dyn 256] (gas: 16)\n 14944: a1 = s1 + 0x7ff\n 14948: a1 = a1 + 0xf9\n 14952: a2 = a1 + 0x700\n 14956: a0 = u64 [a2 + 0x40]\n 14959: a1 = s1 + 0x100\n 14963: u64 [a1 + 0x20] = a0\n 14966: a0 = u64 [a2 + 0x38]\n 14969: u64 [a1 + 0x28] = a0\n 14972: a0 = u64 [a2 + 0x30]\n 14975: u64 [a1 + 0x30] = a0\n 14978: a0 = u64 [a2 + 0x28]\n 14981: u64 [a1 + 0x38] = a0\n 14984: a0 = s1 + 0x7ff\n 14988: a0 = a0 + 0x7c1\n 14992: a1 = 0x40\n 14995: ra = 514, jump @17\n      : @572 [@dyn 257] (gas: 15)\n 15001: a2 = s1 + 0x7ff\n 15005: a2 = a2 + 0xf9\n 15009: t0 = u64 [a2 + 0x6e0]\n 15013: a1 = a2 + 0x600\n 15017: a5 = u64 [a1 + 0xd8]\n 15021: a4 = u64 [a1 + 0xd0]\n 15025: a0 = u64 [a1 + 0xc8]\n 15029: a3 = a4 | t0\n 15032: a1 = a0 | a5\n 15035: a1 = a1 | a3\n 15038: a1 = a1 >> 0x20\n 15041: a3 = a3 | a5\n 15044: a3 = a3 << 0x20\n 15047: a1 = a1 | a3\n 15050: jump @574 if a1 == 0\n      : @573 (gas: 1)\n 15053: jump @794\n      : @574 (gas: 12)\n 15056: u64 [a2 + 1720] = 0\n 15060: u64 [a2 + 1712] = 0\n 15064: u64 [a2 + 1704] = 0\n 15068: a3 = 0xdd62ed3e00000000\n 15078: a1 = s1 + 0x7ff\n 15082: a1 = a1 + 0x7a1\n 15086: u64 [a2 + 0x6c0] = a3\n 15090: u64 [s1 + 0x178] = a0\n 15094: u64 [s1 + 0x168] = t0\n 15098: u64 [s1 + 0x160] = a5\n 15102: u64 [s1 + 0x170] = a4\n 15106: ra = 516, jump @19\n      : @575 [@dyn 258] (gas: 3)\n 15112: a0 = u64 [s1 + 0x80]\n 15116: ecalli 6 // 'caller'\n 15118: fallthrough\n      : @576 (gas: 12)\n 15119: a5 = s1 + 0x100\n 15123: a4 = u64 [a5 + 0x78]\n 15126: a0 = u64 [a5 + 0x68]\n 15129: a1 = u64 [a5 + 0x60]\n 15132: a2 = a1 | a0\n 15135: a3 = 0x100000000\n 15145: a0 = 0xfffffffc\n 15155: a0 = a4 <u a0\n 15158: a1 = u64 [a5 + 0x70]\n 15161: a0 = 0 if a1 != 0\n 15163: a0 = 0 if a2 != 0\n 15165: jump @578 if a0 != 0\n      : @577 (gas: 1)\n 15168: jump @794\n      : @578 (gas: 27)\n 15171: u64 [s1 + 0x118] = a2\n 15175: a2 = u64 [s1 + 0xe0]\n 15179: a0 = u64 [a2 + 0x8]\n 15182: a1 = i32 [a2 + 0x10]\n 15185: a2 = u64 [a2]\n 15187: a0 = reverse a0\n 15189: u64 [s1 + 0x110] = a3\n 15193: a3 = a0 << 0x20\n 15196: a1 = reverse a1\n 15198: a1 = a1 >> 0x20\n 15201: a3 = a3 | a1\n 15204: a0 = a0 >> 0x20\n 15207: a1 = reverse a2\n 15209: a2 = a1 << 0x20\n 15212: a2 = a2 | a0\n 15215: a1 = a1 >> 0x20\n 15218: i32 a0 = a4 + 0x4\n 15221: a4 = s1 + 0x7ff\n 15225: a4 = a4 + 0xf9\n 15229: u64 [a4 + 1696] = 0\n 15233: a5 = a4 + 0x600\n 15237: u64 [a5 + 0x98] = a1\n 15241: u64 [a5 + 0x90] = a2\n 15245: a1 = s1 + 0x7ff\n 15249: a1 = a1 + 0x781\n 15253: u64 [a5 + 0x88] = a3\n 15257: ra = 518, jump @19\n      : @579 [@dyn 259] (gas: 4)\n 15263: a0 = u64 [s1 + 0x80]\n 15267: ra = 0x208\n 15271: ecalli 0 // 'address'\n 15272: fallthrough\n      : @580 [@dyn 260] (gas: 10)\n 15273: a2 = s1 + 0x100\n 15277: a4 = u64 [a2 + 0x78]\n 15280: a0 = u64 [a2 + 0x10]\n 15283: a0 = a0 + 0xffffffffffffffdc\n 15286: a0 = a4 <u a0\n 15289: a1 = u64 [a2 + 0x70]\n 15292: a0 = 0 if a1 != 0\n 15294: a1 = u64 [a2 + 0x18]\n 15297: a0 = 0 if a1 != 0\n 15299: jump @582 if a0 != 0\n      : @581 (gas: 1)\n 15302: jump @794\n      : @582 (gas: 2)\n 15305: a2 = u64 [s1 + 0xe0]\n 15309: t0 = 522, jump @1129\n      : @583 [@dyn 261] (gas: 11)\n 15315: i32 a0 = a4 + 0x24\n 15318: a5 = s1 + 0x7ff\n 15322: a5 = a5 + 0xf9\n 15326: u64 [a5 + 1664] = 0\n 15330: a4 = a5 + 0x600\n 15334: u64 [a4 + 0x78] = a1\n 15337: u64 [a4 + 0x70] = a2\n 15340: a1 = s1 + 0x7ff\n 15344: a1 = a1 + 0x761\n 15348: u64 [a4 + 0x68] = a3\n 15351: ra = 524, jump @19\n      : @584 [@dyn 262] (gas: 29)\n 15357: ecalli 10 // 'ref_time_left'\n 15359: a0 = u64 [s1 + 0xd0]\n 15363: a0 = reverse a0\n 15365: a1 = a0 << 0x20\n 15368: a2 = u64 [s1 + 0x78]\n 15371: a2 = reverse a2\n 15373: a2 = a2 >> 0x20\n 15376: a3 = a2 | a1\n 15379: a1 = u64 [s1 + 0xd8]\n 15383: a1 = reverse a1\n 15385: a2 = a1 << 0x20\n 15388: a0 = a0 >> 0x20\n 15391: a0 = a0 | a2\n 15394: a1 = a1 >> 0x20\n 15397: u64 [s1 + 0x78] = a0\n 15400: a2 = u64 [s1 + 0xe0]\n 15404: u64 [a2 + 0x8] = a0\n 15407: u64 [s1 + 0x110] = a3\n 15411: u64 [a2] = a3\n 15413: u64 [s1 + 0x108] = a1\n 15417: u32 [a2 + 0x10] = a1\n 15420: a0 = s1 + 0x1918\n 15424: u64 [a0 + 1920] = 0\n 15428: u64 [a0 + 1912] = 0\n 15432: u64 [a0 + 1904] = 0\n 15436: u64 [a0 + 1896] = 0\n 15440: a1 = 0x44\n 15443: a0 = u64 [s1 + 0x178]\n 15447: ra = 526, jump @31\n      : @585 [@dyn 263] (gas: 4)\n 15453: u64 [s1 + 0x118] = a0\n 15457: a1 = 0x20\n 15460: a0 = u64 [s1 + 0x178]\n 15464: ra = 528, jump @31\n      : @586 [@dyn 264] (gas: 33)\n 15470: a1 = s1 + 0x1918\n 15474: u32 [a1 + 1928] = 0x20\n 15479: u64 [a1 + 1984] = 0\n 15483: u64 [a1 + 1976] = 0\n 15487: u64 [a1 + 1968] = 0\n 15491: u64 [a1 + 1960] = 0\n 15495: a1 = u64 [s1 + 0xe0]\n 15499: a1 = a1 << 0x20\n 15502: a2 = a1 >> 0x20\n 15505: a1 = 0x1800000000\n 15515: u64 [s1 + 0x28] = a2\n 15518: t0 = a2 | a1\n 15521: a1 = s1 + 0x2080\n 15525: a1 = a1 << 0x20\n 15528: a1 = a1 >> 0x20\n 15531: a2 = s1 + 0x20c0\n 15535: a2 = a2 << 0x20\n 15538: a3 = a2 | a1\n 15541: a1 = u64 [s1 + 0x118]\n 15545: a1 = a1 << 0x20\n 15548: a1 = a1 >> 0x20\n 15551: a2 = 0x4400000000\n 15561: a4 = a1 | a2\n 15564: a0 = a0 << 0x20\n 15567: a0 = a0 >> 0x20\n 15570: a1 = s1 + 0x20a0\n 15574: a1 = a1 << 0x20\n 15577: a5 = a1 | a0\n 15580: a1 = 0xffffffffffffffff\n 15583: a2 = 0xffffffffffffffff\n 15586: a0 = t0\n 15588: ecalli 2 // 'call'\n 15590: fallthrough\n      : @587 (gas: 1)\n 15591: jump @589 if a0 == 0\n      : @588 (gas: 1)\n 15594: jump @694\n      : @589 (gas: 2)\n 15597: ecalli 12 // 'return_data_size'\n 15599: fallthrough\n      : @590 (gas: 2)\n 15600: a1 = 0x20\n 15603: jump @592 if a0 >=u a1\n      : @591 (gas: 3)\n 15606: ecalli 12 // 'return_data_size'\n 15608: a1 = a0\n 15610: fallthrough\n      : @592 (gas: 22)\n 15611: u64 [s1 + 32] = 0\n 15614: u64 [s1 + 0x118] = a1\n 15618: a3 = s1 + 0x7ff\n 15622: a3 = a3 + 0xf9\n 15626: a4 = a3 + 0x600\n 15630: u64 [a4 + 0x8] = a1\n 15633: a0 = u64 [s1 + 0x178]\n 15637: u64 [a4 + 0x28] = a0\n 15640: u64 [a3 + 1552] = 0\n 15644: a0 = u64 [s1 + 0x170]\n 15648: u64 [a4 + 0x30] = a0\n 15651: u64 [a3 + 1560] = 0\n 15655: a0 = u64 [s1 + 0x160]\n 15659: u64 [a4 + 0x38] = a0\n 15662: u64 [a3 + 1568] = 0\n 15666: a0 = s1 + 0x7ff\n 15670: a0 = a0 + 0x721\n 15674: a1 = s1 + 0x7ff\n 15678: a1 = a1 + 0x701\n 15682: a2 = u64 [s1 + 0x168]\n 15686: u64 [a4 + 0x40] = a2\n 15689: ra = 530, jump @869\n      : @593 [@dyn 265] (gas: 4)\n 15695: a3 = u64 [s1 + 0x20]\n 15698: a0 = a3 >u 0\n 15700: a1 = u64 [s1 + 0x118]\n 15704: t0 = 532, jump @1134\n      : @594 [@dyn 266] (gas: 1)\n 15710: jump @596 if a2 != 0\n      : @595 (gas: 1)\n 15713: jump @863\n      : @596 (gas: 4)\n 15716: a0 = s1 + 0x7ff\n 15720: a0 = a0 + 0x6e1\n 15724: a1 = u64 [s1 + 0x178]\n 15728: ra = 534, jump @17\n      : @597 [@dyn 267] (gas: 22)\n 15734: a3 = s1 + 0x7ff\n 15738: a3 = a3 + 0xf9\n 15742: a0 = u64 [a3 + 0x5f0]\n 15746: a1 = u64 [a3 + 0x600]\n 15750: a2 = u64 [a3 + 0x5e8]\n 15754: t0 = u64 [a3 + 0x5f8]\n 15758: a5 = u64 [s1 + 0xf8]\n 15762: a4 = a0 ^ a5\n 15765: a0 = a0 <u a5\n 15768: a5 = u64 [s1 + 0x100]\n 15772: a2 = a2 <u a5\n 15775: a2 = a0 if a4 != 0\n 15778: a5 = u64 [s1 + 0xf0]\n 15782: a0 = t0 <u a5\n 15785: a4 = u64 [s1 + 0xe8]\n 15789: a3 = a1 ^ a4\n 15792: a1 = a1 <u a4\n 15795: a1 = a0 if a3 == 0\n 15798: a0 = t0 ^ a5\n 15801: a0 = a0 | a3\n 15804: a1 = a2 if a0 == 0\n 15807: jump @702 if a1 == 0\n      : @598 (gas: 4)\n 15811: a0 = s1 + 0x7ff\n 15815: a0 = a0 + 0x161\n 15819: a1 = 0x40\n 15822: ra = 536, jump @17\n      : @599 [@dyn 268] (gas: 19)\n 15828: a2 = s1 + 0x7ff\n 15832: a2 = a2 + 0xf9\n 15836: a3 = u64 [a2 + 0x80]\n 15840: a4 = u64 [a2 + 0x78]\n 15843: a0 = u64 [a2 + 0x70]\n 15846: a1 = u64 [a2 + 0x68]\n 15849: a5 = s1 + 0x100\n 15853: u64 [a5 + 0x70] = a0\n 15856: u64 [a5 + 0x68] = a3\n 15859: a0 = a0 | a3\n 15862: u64 [a5 + 0x78] = a1\n 15865: a1 = a1 | a4\n 15868: a1 = a1 | a0\n 15871: a1 = a1 >> 0x20\n 15874: u64 [a5 + 0x60] = a4\n 15877: a0 = a0 | a4\n 15880: a0 = a0 << 0x20\n 15883: a0 = a0 | a1\n 15886: jump @601 if a0 == 0\n      : @600 (gas: 1)\n 15889: jump @794\n      : @601 (gas: 9)\n 15892: u64 [a2 + 88] = 0\n 15895: u64 [a2 + 80] = 0\n 15898: u64 [a2 + 72] = 0\n 15901: a0 = 0x8c379a000000000\n 15911: a1 = s1 + 0x7ff\n 15915: a1 = a1 + 0x141\n 15919: u64 [a2 + 0x60] = a0\n 15922: a0 = u64 [s1 + 0x178]\n 15926: ra = 538, jump @19\n      : @602 [@dyn 269] (gas: 14)\n 15932: a3 = s1 + 0x100\n 15936: a0 = u64 [a3 + 0x68]\n 15939: a2 = u64 [a3 + 0x60]\n 15942: a2 = a2 | a0\n 15945: a0 = 0x100000000\n 15955: u64 [a3 + 0x60] = a0\n 15958: a0 = 0xfffffffc\n 15968: a1 = u64 [a3 + 0x78]\n 15971: a0 = a1 <u a0\n 15974: a1 = u64 [a3 + 0x70]\n 15977: a0 = 0 if a1 != 0\n 15979: u64 [a3 + 0x68] = a2\n 15982: a0 = 0 if a2 != 0\n 15984: jump @604 if a0 != 0\n      : @603 (gas: 1)\n 15987: jump @794\n      : @604 (gas: 11)\n 15990: a0 = u64 [s1 + 0x178]\n 15994: i32 a0 = a0 + 0x4\n 15997: a2 = s1 + 0x7ff\n 16001: a2 = a2 + 0xf9\n 16005: u64 [a2 + 64] = 0\n 16008: u64 [a2 + 56] = 0\n 16011: u64 [a2 + 40] = 0x20\n 16015: a1 = s1 + 0x7ff\n 16019: a1 = a1 + 0x121\n 16023: u64 [a2 + 48] = 0\n 16026: ra = 540, jump @19\n      : @605 [@dyn 270] (gas: 10)\n 16032: a2 = s1 + 0x100\n 16036: a0 = u64 [a2 + 0x60]\n 16039: a0 = a0 + 0xffffffffffffffdc\n 16042: a1 = u64 [a2 + 0x78]\n 16045: a0 = a1 <u a0\n 16048: a1 = u64 [a2 + 0x70]\n 16051: a0 = 0 if a1 != 0\n 16053: a1 = u64 [a2 + 0x68]\n 16056: a0 = 0 if a1 != 0\n 16058: jump @607 if a0 != 0\n      : @606 (gas: 1)\n 16061: jump @794\n      : @607 (gas: 11)\n 16064: a0 = u64 [s1 + 0x178]\n 16068: i32 a0 = a0 + 0x24\n 16071: a2 = s1 + 0x7ff\n 16075: a2 = a2 + 0xf9\n 16079: u64 [a2 + 32] = 0\n 16082: u64 [a2 + 24] = 0\n 16085: u64 [a2 + 8] = 0x1c\n 16089: a1 = s1 + 0x7ff\n 16093: a1 = a1 + 0x101\n 16097: u64 [a2 + 16] = 0\n 16100: ra = 542, jump @19\n      : @608 [@dyn 271] (gas: 9)\n 16106: a0 = 0xffffffbc\n 16116: a2 = s1 + 0x100\n 16120: a1 = u64 [a2 + 0x78]\n 16123: a0 = a1 <u a0\n 16126: a1 = u64 [a2 + 0x70]\n 16129: a0 = 0 if a1 != 0\n 16131: a1 = u64 [a2 + 0x68]\n 16134: a0 = 0 if a1 != 0\n 16136: jump @610 if a0 != 0\n      : @609 (gas: 1)\n 16139: jump @794\n      : @610 (gas: 18)\n 16142: a0 = u64 [s1 + 0x178]\n 16146: i32 a0 = a0 + 0x44\n 16149: a1 = u64 [0x200f0]\n 16154: a2 = u64 [0x20108]\n 16159: a3 = u64 [0x20110]\n 16164: a4 = s1 + 0x7ff\n 16168: a4 = a4 + 0xf9\n 16172: u64 [a4] = a1\n 16174: u64 [a4 + 0xfffffffffffffff8] = a2\n 16177: a1 = s1 + 0x1000\n 16181: u64 [a1 + 0xfffffffffffff8e8] = a3\n 16185: a2 = 0x616e636500000000\n 16195: a1 = s1 + 0x7ff\n 16199: a1 = a1 + 0xe1\n 16203: a3 = s1 + 0x1000\n 16207: u64 [a3 + 0xfffffffffffff8e0] = a2\n 16211: ra = 0xa6\n 16215: jump @19\n      : @611 (gas: 5)\n 16218: a0 = u64 [s1 + 0x178]\n 16222: a2 = a0 + 0xffffffffffffff80\n 16225: a0 = u64 [s1 + 0x120]\n 16229: a1 = u64 [s1 + 0x128]\n 16233: ra = 544, jump @1163\n      : @612 [@dyn 272] (gas: 1)\n 16239: t0 = 546, jump @1158\n      : @613 [@dyn 273] (gas: 1)\n 16245: ra = 548, jump @1163\n      : @614 [@dyn 274] (gas: 7)\n 16251: u64 [s1 + 0x80] = a0\n 16255: u64 [s1 + 0x110] = a1\n 16259: a1 = u64 [s1 + 0x178]\n 16263: a2 = 0x80 - a1\n 16267: a0 = u64 [s1 + 0x120]\n 16271: a1 = u64 [s1 + 0x128]\n 16275: ra = 550, jump @1168\n      : @615 [@dyn 275] (gas: 1)\n 16281: t0 = 552, jump @1128\n      : @616 [@dyn 276] (gas: 2)\n 16287: a1 = u64 [s1 + 0x80]\n 16291: t0 = 554, jump @1151\n      : @617 [@dyn 277] (gas: 3)\n 16297: a0 = u64 [s1 + 0x120]\n 16301: a1 = u64 [s1 + 0x128]\n 16305: ra = 556, jump @1163\n      : @618 [@dyn 278] (gas: 1)\n 16311: t0 = 558, jump @1126\n      : @619 [@dyn 279] (gas: 2)\n 16317: t0 = u64 [s1 + 0x138]\n 16321: fallthrough\n      : @620 (gas: 8)\n 16322: u64 [s1 + 0x128] = a1\n 16326: u64 [s1 + 0x130] = a5\n 16330: u64 [s1 + 280] = 0\n 16334: a2 = t0 >> 0x3f\n 16337: a3 = t2 << 0x1\n 16340: a3 = a3 | a2\n 16343: a2 = t0 << 0x1\n 16346: t0 = 560, jump @1132\n      : @621 [@dyn 280] (gas: 38)\n 16352: t0 = a5 <u a4\n 16355: a4 = u64 [s1 + 0x120]\n 16359: t0 = a1 if a4 != 0\n 16362: a1 = u64 [s1 + 0x128]\n 16366: a1 = a1 << 0x1\n 16369: a4 = a0 >> 0x3f\n 16372: a1 = a1 | a4\n 16375: u64 [s1 + 0x128] = a1\n 16379: a4 = t2 >> 0x3f\n 16382: a0 = a0 << 0x1\n 16385: a4 = a4 | a0\n 16388: a0 = ra << 0x1\n 16391: a1 = u64 [s1 + 0x168]\n 16395: a5 = a1 >> 0x3f\n 16398: a0 = a0 | a5\n 16401: u64 [s1 + 0x160] = a0\n 16405: a5 = a1 << 0x1\n 16408: a0 = u64 [s1 + 0x158]\n 16412: a1 = a0 >> 0x3f\n 16415: t2 = a5 | a1\n 16418: a5 = a0 << 0x1\n 16421: a0 = u64 [s1 + 0x170]\n 16425: ra = a0 >> 0x3f\n 16428: a5 = a5 | ra\n 16431: a0 = a0 << 0x1\n 16434: a1 = u64 [s1 + 0x130]\n 16438: a0 = a0 | a1\n 16441: u64 [s1 + 0x170] = a0\n 16445: a0 = t1 | a5\n 16448: u64 [s1 + 0x158] = a0\n 16452: a0 = t1 | t2\n 16455: u64 [s1 + 0x168] = a0\n 16459: a0 = u64 [s1 + 0x160]\n 16463: a0 = t1 | a0\n 16466: u64 [s1 + 0x160] = a0\n 16470: a0 = a2 - a4\n 16473: a0 = a0 <u t0\n 16476: t0 = 562, jump @1135\n      : @622 [@dyn 281] (gas: 29)\n 16482: t0 = a1 - a0\n 16485: a1 = a1 <u a0\n 16488: t2 = a3 - a1\n 16491: a1 = 0 if a3 != 0\n 16493: a0 = a4 - a1\n 16496: a1 = a4 <u a1\n 16499: a1 = t1 - a1\n 16502: a3 = u64 [s1 + 0x178]\n 16506: a5 = u64 [s1 + 0x150]\n 16510: a2 = a3 | a5\n 16513: a2 = a2 <u 0x1\n 16516: a4 = u64 [s1 + 0x140]\n 16520: t1 = a4 <u a2\n 16523: a4 = a4 - a2\n 16526: a2 = a3 <u 0x1\n 16529: a5 = a5 - a2\n 16532: a2 = u64 [s1 + 0x148]\n 16536: a2 = a2 - t1\n 16539: a3 = a3 + 0xffffffffffffffff\n 16542: u64 [s1 + 0x150] = a5\n 16546: u64 [s1 + 0x148] = a2\n 16550: a2 = a2 | a5\n 16553: u64 [s1 + 0x178] = a3\n 16557: a3 = a3 | a4\n 16560: a2 = a2 | a3\n 16563: a5 = ra & 0x1\n 16566: u64 [s1 + 0x140] = a4\n 16570: t1 = 0\n 16572: jump @620 if a2 != 0\n      : @623 (gas: 24)\n 16576: a2 = u64 [s1 + 0x168]\n 16580: a0 = a2 >> 0x3f\n 16583: a1 = u64 [s1 + 0x160]\n 16587: a1 = a1 << 0x1\n 16590: a0 = a0 | a1\n 16593: a3 = u64 [s1 + 0x158]\n 16597: a1 = a3 >> 0x3f\n 16600: a2 = a2 << 0x1\n 16603: a1 = a1 | a2\n 16606: a4 = u64 [s1 + 0x170]\n 16610: a2 = a4 >> 0x3f\n 16613: a3 = a3 << 0x1\n 16616: a4 = a4 << 0x1\n 16619: a5 = a5 | a4\n 16622: a4 = u64 [s1 + 0x118]\n 16626: a2 = a2 | a4\n 16629: a2 = a2 | a3\n 16632: a3 = s1 + 0x100\n 16636: u64 [a3 + 0x78] = a2\n 16639: a1 = a1 | a4\n 16642: u64 [a3 + 0x70] = a1\n 16645: a0 = a0 | a4\n 16648: u64 [a3 + 0x68] = a0\n 16651: fallthrough\n      : @624 (gas: 34)\n 16652: u64 [s1 + 0x160] = a5\n 16656: a0 = s1 + 0x2118\n 16660: u64 [a0 + 768] = 0\n 16664: u64 [a0 + 760] = 0\n 16668: u64 [a0 + 752] = 0\n 16672: u64 [a0 + 744] = 0\n 16676: a0 = s1 + 0x2000\n 16680: i32 a0 = a0 + 0x400\n 16684: ecalli 16 // 'value_transferred'\n 16686: a2 = s1 + 0x2118\n 16690: a4 = a2 + 0x200\n 16694: a3 = u64 [a4 + 0xe8]\n 16698: a0 = u64 [a4 + 0xf0]\n 16702: a1 = u64 [a4 + 0xf8]\n 16706: a2 = u64 [a2 + 0x300]\n 16710: a4 = s1 + 0x1100\n 16714: a5 = u64 [s1 + 0x168]\n 16718: u64 [a4 + 0x638] = a5\n 16722: a5 = u64 [s1 + 0x170]\n 16726: u64 [a4 + 0x630] = a5\n 16730: a5 = u64 [s1 + 0x178]\n 16734: u64 [a4 + 0x628] = a5\n 16738: a5 = u64 [s1 + 0x160]\n 16742: u64 [a4 + 0x620] = a5\n 16746: a5 = a4 + 0x600\n 16750: u64 [a5 + 0x58] = a2\n 16753: u64 [a5 + 0x50] = a1\n 16756: u64 [a5 + 0x48] = a0\n 16759: a4 = s1 + 0x1100\n 16763: a0 = s1 + 0x1760\n 16767: a1 = s1 + 0x1740\n 16771: a2 = s1 + 0x1720\n 16775: u64 [a4 + 0x640] = a3\n 16779: ra = 564, jump @1022\n      : @625 [@dyn 282] (gas: 18)\n 16785: a0 = s1 + 0x1100\n 16789: a2 = a0 + 0x600\n 16793: a1 = u64 [a2 + 0x60]\n 16796: u64 [s1 + 0x158] = a1\n 16800: a1 = u64 [a2 + 0x68]\n 16803: u64 [s1 + 0x150] = a1\n 16807: a1 = u64 [a2 + 0x70]\n 16810: u64 [s1 + 0x148] = a1\n 16814: a0 = u64 [a2 + 0x78]\n 16817: u64 [s1 + 0x140] = a0\n 16821: a1 = s1 + 0x2118\n 16825: u64 [a1 + 800] = 0\n 16829: u64 [a1 + 792] = 0\n 16833: u64 [a1 + 784] = 0\n 16837: u64 [a1 + 776] = 0x2\n 16842: a0 = s1 + 0x1700\n 16846: a1 = s1 + 0x2420\n 16850: ra = 566, jump @21\n      : @626 [@dyn 283] (gas: 69)\n 16856: a0 = s1 + 0x1100\n 16860: a2 = a0 + 0x600\n 16864: a1 = u64 [a2]\n 16866: u64 [s1 + 0x138] = a1\n 16870: a1 = u64 [a2 + 0x10]\n 16873: u64 [s1 + 0x130] = a1\n 16877: a0 = u64 [a2 + 0x8]\n 16880: u64 [s1 + 0x128] = a0\n 16884: ecalli 10 // 'ref_time_left'\n 16886: a1 = u64 [s1 + 0x128]\n 16890: a1 = reverse a1\n 16892: a2 = a1 << 0x20\n 16895: a3 = u64 [s1 + 0x130]\n 16899: a3 = reverse a3\n 16901: a3 = a3 >> 0x20\n 16904: a2 = a2 | a3\n 16907: a1 = a1 >> 0x20\n 16910: a3 = u64 [s1 + 0x138]\n 16914: a3 = reverse a3\n 16916: a4 = a3 << 0x20\n 16919: a1 = a1 | a4\n 16922: a3 = a3 >> 0x20\n 16925: a4 = u64 [s1 + 0x100]\n 16929: u32 [a4 + 0x10] = a3\n 16932: u64 [a4 + 0x8] = a1\n 16935: u64 [a4] = a2\n 16937: a2 = s1 + 0x2118\n 16941: a1 = u64 [s1 + 0x168]\n 16945: a3 = a2 + 0x300\n 16949: u64 [a3 + 0x40] = a1\n 16952: a1 = u64 [s1 + 0x170]\n 16956: u64 [a3 + 0x38] = a1\n 16959: a1 = u64 [s1 + 0x178]\n 16963: u64 [a3 + 0x30] = a1\n 16966: a1 = u64 [s1 + 0x160]\n 16970: u64 [a3 + 0x28] = a1\n 16973: u32 [a2 + 840] = 0\n 16977: u64 [s1 + 376] = 0x8fc\n 16983: a0 = a0 >u 0x8fc\n 16987: a1 = -a0\n 16989: u64 [a3 + 0x80] = a1\n 16993: u64 [a3 + 0x78] = a1\n 16996: u64 [a3 + 0x70] = a1\n 16999: u64 [a3 + 0x68] = a1\n 17002: a1 = a4 << 0x20\n 17005: a1 = a1 >> 0x20\n 17008: u64 [s1 + 0x170] = a1\n 17012: a0 = a0 << 0x23\n 17015: a0 = a0 | a1\n 17018: a1 = s1 + 0x2440\n 17022: a1 = a1 << 0x20\n 17025: a1 = a1 >> 0x20\n 17028: a2 = s1 + 0x2480\n 17032: a2 = a2 << 0x20\n 17035: a3 = a2 | a1\n 17038: a1 = u64 [s1 + 0xa8]\n 17042: a1 = a1 << 0x20\n 17045: a4 = a1 >> 0x20\n 17048: u64 [s1 + 0x168] = a4\n 17052: a1 = s1 + 0x2460\n 17056: a1 = a1 << 0x20\n 17059: a5 = a1 | a4\n 17062: a1 = 0xffffffffffffffff\n 17065: a2 = 0xffffffffffffffff\n 17068: ecalli 2 // 'call'\n 17070: a0 = a0 <u 0x1\n 17073: u64 [s1 + 0x160] = a0\n 17077: a0 = s1 + 0x16e0\n 17081: ra = 568, jump @1082\n      : @627 [@dyn 284] (gas: 11)\n 17087: a0 = s1 + 0x1100\n 17091: u64 [a0 + 1496] = 0\n 17095: u64 [a0 + 1488] = 0\n 17099: a1 = u64 [s1 + 0x160]\n 17103: u64 [a0 + 0x5c0] = a1\n 17107: a1 = s1 + 0x1100\n 17111: a0 = s1 + 0x16c0\n 17115: u64 [a1 + 1480] = 0\n 17119: ra = 0x23a\n 17123: t0 = 0x3fc\n 17127: jump @1113\n      : @628 [@dyn 285] (gas: 56)\n 17130: ecalli 10 // 'ref_time_left'\n 17132: a1 = u64 [s1 + 0xf0]\n 17136: a1 = reverse a1\n 17138: a2 = a1 << 0x20\n 17141: a3 = u64 [s1 + 0xe8]\n 17145: a3 = reverse a3\n 17147: a3 = a3 >> 0x20\n 17150: a2 = a2 | a3\n 17153: a3 = u64 [s1 + 0xf8]\n 17157: a3 = reverse a3\n 17159: a1 = a1 >> 0x20\n 17162: a4 = a3 << 0x20\n 17165: a1 = a1 | a4\n 17168: a4 = u64 [s1 + 0x100]\n 17172: u64 [a4 + 0x8] = a1\n 17175: u64 [a4] = a2\n 17177: a3 = a3 >> 0x20\n 17180: u32 [a4 + 0x10] = a3\n 17183: a2 = s1 + 0x2118\n 17187: a1 = u64 [s1 + 0x140]\n 17191: a3 = a2 + 0x300\n 17195: u64 [a3 + 0xa0] = a1\n 17199: a1 = u64 [s1 + 0x148]\n 17203: u64 [a3 + 0x98] = a1\n 17207: a1 = u64 [s1 + 0x150]\n 17211: u64 [a3 + 0x90] = a1\n 17215: a1 = u64 [s1 + 0x158]\n 17219: u64 [a3 + 0x88] = a1\n 17223: u32 [a2 + 936] = 0\n 17227: a1 = u64 [s1 + 0x178]\n 17231: a0 = a1 <u a0\n 17234: a1 = -a0\n 17236: u64 [a3 + 0xe0] = a1\n 17240: u64 [a3 + 0xd8] = a1\n 17244: u64 [a3 + 0xd0] = a1\n 17248: u64 [a3 + 0xc8] = a1\n 17252: a0 = a0 << 0x23\n 17255: a1 = u64 [s1 + 0x170]\n 17259: a0 = a0 | a1\n 17262: a1 = s1 + 0x24a0\n 17266: a1 = a1 << 0x20\n 17269: a1 = a1 >> 0x20\n 17272: a2 = s1 + 0x24e0\n 17276: a2 = a2 << 0x20\n 17279: a3 = a2 | a1\n 17282: a1 = s1 + 0x24c0\n 17286: a1 = a1 << 0x20\n 17289: a4 = u64 [s1 + 0x168]\n 17293: a5 = a1 | a4\n 17296: a1 = 0xffffffffffffffff\n 17299: a2 = 0xffffffffffffffff\n 17302: ecalli 2 // 'call'\n 17304: a0 = a0 <u 0x1\n 17307: u64 [s1 + 0x178] = a0\n 17311: a0 = s1 + 0x16a0\n 17315: ra = 572, jump @1082\n      : @629 [@dyn 286] (gas: 10)\n 17321: a1 = s1 + 0x1100\n 17325: u64 [a1 + 1432] = 0\n 17329: u64 [a1 + 1424] = 0\n 17333: a0 = u64 [s1 + 0x178]\n 17337: u64 [a1 + 0x580] = a0\n 17341: a0 = s1 + 0x1680\n 17345: u64 [a1 + 1416] = 0\n 17349: ra = 0x23e\n 17353: t0 = 0x41c\n 17357: jump @1113\n      : @630 [@dyn 287] (gas: 6)\n 17360: a0 = u64 [s1 + 0xc0]\n 17364: ra = 0x240\n 17368: ecalli 6 // 'caller'\n 17370: a2 = u64 [s1 + 0x100]\n 17374: t0 = 0x242\n 17378: jump @1116\n      : @631 [@dyn 288] (gas: 2)\n 17381: a2 = u64 [s1 + 0x100]\n 17385: t0 = 578, jump @1116\n      : @632 [@dyn 289] (gas: 8)\n 17391: u64 [a2 + 1400] = 0\n 17395: a4 = a2 + 0x500\n 17399: u64 [a4 + 0x70] = a1\n 17402: u64 [a4 + 0x68] = a0\n 17405: a1 = s1 + 0x1660\n 17409: u64 [a4 + 0x60] = a3\n 17412: a0 = 0\n 17414: ra = 580, jump @19\n      : @633 [@dyn 290] (gas: 3)\n 17420: t0 = 0x246\n 17424: a1 = s1 + 0x1100\n 17428: fallthrough\n      : @634 [@dyn 291] (gas: 8)\n 17429: u64 [a1 + 1368] = 0\n 17433: u64 [a1 + 1360] = 0\n 17437: u64 [a1 + 1344] = 0x3\n 17442: a2 = s1 + 0x1100\n 17446: a0 = 0x20\n 17449: a1 = s1 + 0x1640\n 17453: u64 [a2 + 1352] = 0\n 17457: ra = 584, jump @19\n      : @635 [@dyn 292] (gas: 3)\n 17463: a2 = u64 [s1 + 0xb0]\n 17467: a0 = i32 [a2]\n 17469: jump @637 if a0 >u 63\n      : @636 (gas: 3)\n 17473: u32 [a2 + 0] = 0x40\n 17476: t0 = 0x24a\n 17480: jump @1157\n      : @637 (gas: 1)\n 17483: t0 = 586, jump @1157\n      : @638 [@dyn 293] (gas: 15)\n 17489: a0 = u64 [s1 + 0xb8]\n 17493: ecalli 9 // 'hash_keccak_256'\n 17495: a2 = s1 + 0x100\n 17499: a1 = u64 [a2 + 0x78]\n 17502: a0 = u64 [a1 + 0x18]\n 17505: u64 [a2 + 0x70] = a0\n 17508: a0 = u64 [a1 + 0x10]\n 17511: u64 [a2 + 0x68] = a0\n 17514: a0 = u64 [a1 + 0x8]\n 17517: u64 [a2 + 0x60] = a0\n 17520: a0 = u64 [a1]\n 17522: u64 [a2 + 0x58] = a0\n 17525: a0 = s1 + 0x1620\n 17529: a1 = 0x40\n 17532: ra = 588, jump @17\n      : @639 [@dyn 294] (gas: 3)\n 17538: a0 = s1 + 0x1100\n 17542: a1 = a0 + 0x500\n 17546: t0 = 590, jump @1146\n      : @640 [@dyn 295] (gas: 1)\n 17552: jump @642 if a1 == 0\n      : @641 (gas: 1)\n 17555: jump @794\n      : @642 (gas: 6)\n 17558: a1 = u64 [s1 + 0x98]\n 17562: u64 [s1 + 0x178] = a0\n 17566: u64 [s1 + 0x150] = a3\n 17570: u64 [s1 + 0x148] = a4\n 17574: u64 [s1 + 0x140] = a5\n 17578: ra = 592, jump @31\n      : @643 [@dyn 296] (gas: 6)\n 17584: i32 a0 = a0 + 0\n 17586: a1 = u64 [s1 + 0x98]\n 17590: a2 = u64 [s1 + 0x90]\n 17594: ra = 0x252\n 17598: ecalli 3 // 'call_data_copy'\n 17600: fallthrough\n      : @644 [@dyn 297] (gas: 7)\n 17601: a1 = u64 [s1 + 0xe0]\n 17605: a0 = u64 [s1 + 0x178]\n 17609: a0 = a0 + a1\n 17612: a1 = a0 <u a1\n 17615: a4 = u64 [s1 + 0xc8]\n 17619: a2 = u64 [s1 + 0x140]\n 17623: t0 = 596, jump @1124\n      : @645 [@dyn 298] (gas: 9)\n 17629: a3 = u64 [s1 + 0xd8]\n 17633: a1 = u64 [s1 + 0x148]\n 17637: a1 = a1 + a3\n 17640: t0 = a1 <u a3\n 17643: a5 = u64 [s1 + 0xd0]\n 17647: a3 = u64 [s1 + 0x150]\n 17651: a5 = a5 + a3\n 17654: a3 = a5 + t0\n 17657: t0 = 598, jump @1119\n      : @646 [@dyn 299] (gas: 1)\n 17663: jump @648 if a1 == 0\n      : @647 (gas: 1)\n 17666: jump @794\n      : @648 (gas: 16)\n 17669: a1 = u64 [s1 + 0x158]\n 17673: a2 = reverse a1\n 17675: a1 = u64 [s1 + 0x160]\n 17679: a1 = reverse a1\n 17681: a3 = u64 [s1 + 0x168]\n 17685: a3 = reverse a3\n 17687: a4 = u64 [s1 + 0x170]\n 17691: a4 = reverse a4\n 17693: a5 = s1 + 0x1100\n 17697: u64 [a5 + 0x500] = a4\n 17701: a4 = a5 + 0x500\n 17705: u64 [a4 + 0x8] = a3\n 17708: u64 [a4 + 0x10] = a1\n 17711: a1 = s1 + 0x1600\n 17715: u64 [a4 + 0x18] = a2\n 17718: ra = 600, jump @19\n      : @649 [@dyn 300] (gas: 7)\n 17724: a0 = sp + 0xffffffffffffffe0\n 17727: a0 = a0 & 0xffffffffffffffe0\n 17730: u64 [s1 + 0x170] = a0\n 17734: sp = a0\n 17736: a0 = u64 [s1 + 0x178]\n 17740: a1 = u64 [s1 + 0x88]\n 17744: ra = 602, jump @31\n      : @650 [@dyn 301] (gas: 1)\n 17750: t0 = 604, jump @1160\n      : @651 [@dyn 302] (gas: 4)\n 17756: ra = 0x25e\n 17760: ecalli 9 // 'hash_keccak_256'\n 17762: t0 = 0x260\n 17766: jump @1125\n      : @652 [@dyn 303] (gas: 1)\n 17769: t0 = 608, jump @1125\n      : @653 [@dyn 304] (gas: 2)\n 17775: a0 = s1 + 0x15e0\n 17779: ra = 610, jump @21\n      : @654 [@dyn 305] (gas: 17)\n 17785: a3 = s1 + 0x1100\n 17789: a4 = a3 + 0x400\n 17793: a0 = u64 [a4 + 0xe0]\n 17797: a1 = u64 [a4 + 0xe8]\n 17801: a2 = u64 [a4 + 0xf8]\n 17805: a3 = u64 [a4 + 0xf0]\n 17809: a0 = a0 & 0xffffffffffffff00\n 17813: a0 = a0 | 0x1\n 17816: a4 = s1 + 0x2118\n 17820: u64 [a4 + 0x400] = a2\n 17824: a2 = a4 + 0x300\n 17828: u64 [a2 + 0xf8] = a3\n 17832: u64 [a2 + 0xf0] = a1\n 17836: u64 [a2 + 0xe8] = a0\n 17840: a1 = s1 + 0x2500\n 17844: a0 = u64 [s1 + 0x170]\n 17848: ra = 612, jump @22\n      : @655 [@dyn 306] (gas: 3)\n 17854: a0 = s1 + 0x15c0\n 17858: a1 = 0x40\n 17861: ra = 614, jump @17\n      : @656 [@dyn 307] (gas: 14)\n 17867: a2 = s1 + 0x1100\n 17871: t0 = u64 [a2 + 0x4d8]\n 17875: a1 = a2 + 0x400\n 17879: a4 = u64 [a1 + 0xd0]\n 17883: a5 = u64 [a1 + 0xc8]\n 17887: a0 = u64 [a1 + 0xc0]\n 17891: a3 = a5 | t0\n 17894: a1 = a0 | a4\n 17897: a1 = a1 | a3\n 17900: a1 = a1 >> 0x20\n 17903: a3 = a3 | a4\n 17906: a3 = a3 << 0x20\n 17909: a1 = a1 | a3\n 17912: jump @658 if a1 == 0\n      : @657 (gas: 1)\n 17915: jump @794\n      : @658 (gas: 10)\n 17918: u64 [a2 + 1208] = 0\n 17922: u64 [a2 + 1200] = 0\n 17926: u64 [a2 + 1192] = 0\n 17930: a1 = s1 + 0x15a0\n 17934: u64 [a2 + 1184] = 0x60\n 17939: u64 [s1 + 0x178] = a0\n 17943: u64 [s1 + 0x168] = a4\n 17947: u64 [s1 + 0x160] = t0\n 17951: u64 [s1 + 0x170] = a5\n 17955: ra = 616, jump @19\n      : @659 [@dyn 308] (gas: 12)\n 17961: a4 = s1 + 0x100\n 17965: a3 = u64 [a4 + 0x70]\n 17968: a1 = u64 [a4 + 0x78]\n 17971: a0 = u64 [a4 + 0x68]\n 17974: a2 = u64 [a4 + 0x60]\n 17977: a2 = a2 | a0\n 17980: a4 = 0x100000000\n 17990: a0 = 0xffffffa0\n 18000: a0 = a1 <u a0\n 18003: a0 = 0 if a3 != 0\n 18005: a0 = 0 if a2 != 0\n 18007: jump @661 if a0 != 0\n      : @660 (gas: 1)\n 18010: jump @794\n      : @661 (gas: 15)\n 18013: i32 a0 = a1 + 0x60\n 18016: a1 = u64 [s1 + 0xe0]\n 18020: u64 [s1 + 0x158] = a4\n 18024: a4 = s1 + 0x1100\n 18028: a3 = a4 + 0x400\n 18032: u64 [a3 + 0x80] = a1\n 18036: a1 = u64 [s1 + 0xc8]\n 18040: u64 [a3 + 0x88] = a1\n 18044: a1 = u64 [s1 + 0xd8]\n 18048: u64 [a3 + 0x90] = a1\n 18052: a1 = s1 + 0x1580\n 18056: u64 [s1 + 0x150] = a2\n 18060: a2 = u64 [s1 + 0xd0]\n 18064: u64 [a3 + 0x98] = a2\n 18068: ra = 618, jump @19\n      : @662 [@dyn 309] (gas: 10)\n 18074: a3 = s1 + 0x100\n 18078: a2 = u64 [a3 + 0x78]\n 18081: a0 = u64 [a3 + 0x58]\n 18084: a0 = a0 + 0xffffffffffffff80\n 18087: a0 = a2 <u a0\n 18090: a1 = u64 [a3 + 0x70]\n 18093: a0 = 0 if a1 != 0\n 18095: a1 = u64 [a3 + 0x50]\n 18098: a0 = 0 if a1 != 0\n 18100: jump @664 if a0 != 0\n      : @663 (gas: 1)\n 18103: jump @794\n      : @664 (gas: 3)\n 18106: i32 a0 = a2 + 0x80\n 18110: a1 = u64 [s1 + 0x98]\n 18114: ra = 620, jump @31\n      : @665 [@dyn 310] (gas: 6)\n 18120: i32 a0 = a0 + 0\n 18122: a1 = u64 [s1 + 0x98]\n 18126: a2 = u64 [s1 + 0x90]\n 18130: ra = 0x26e\n 18134: ecalli 3 // 'call_data_copy'\n 18136: fallthrough\n      : @666 [@dyn 311] (gas: 17)\n 18137: a0 = u64 [s1 + 0xe0]\n 18141: a1 = u64 [s1 + 0x178]\n 18145: a0 = a0 + a1\n 18148: a2 = a0 <u a1\n 18151: a4 = u64 [s1 + 0x170]\n 18155: a1 = u64 [s1 + 0xc8]\n 18159: a1 = a1 + a4\n 18162: a1 = a1 + a2\n 18165: a3 = a1 ^ a4\n 18168: a4 = a1 <u a4\n 18171: a4 = a2 if a3 == 0\n 18174: a2 = u64 [s1 + 0x160]\n 18178: a3 = u64 [s1 + 0xd0]\n 18182: a2 = a2 + a3\n 18185: a5 = u64 [s1 + 0x168]\n 18189: a3 = u64 [s1 + 0xd8]\n 18193: t0 = 624, jump @1123\n      : @667 [@dyn 312] (gas: 1)\n 18199: jump @669 if a3 != 0\n      : @668 (gas: 1)\n 18202: jump @794\n      : @669 (gas: 8)\n 18205: i32 a0 = a0 + 0x80\n 18209: a2 = s1 + 0x1100\n 18213: u64 [a2 + 1144] = 0\n 18217: u64 [a2 + 1136] = 0\n 18221: u64 [a2 + 1128] = 0\n 18225: a1 = s1 + 0x1560\n 18229: u64 [a2 + 1120] = 0\n 18233: ra = 626, jump @19\n      : @670 [@dyn 313] (gas: 29)\n 18239: a0 = u64 [s1 + 0xe0]\n 18243: a0 = a0 + 0x1f\n 18246: a1 = 0x1ffffffe0\n 18256: a0 = a0 & a1\n 18259: u64 [s1 + 0x168] = a0\n 18263: a0 = s1 + 0x2118\n 18267: u64 [a0 + 1056] = 0\n 18271: u64 [a0 + 1048] = 0\n 18275: u64 [a0 + 1040] = 0\n 18279: u64 [a0 + 1032] = 0\n 18283: a0 = s1 + 0x2000\n 18287: i32 a0 = a0 + 0x520\n 18291: ecalli 16 // 'value_transferred'\n 18293: a0 = s1 + 0x2118\n 18297: a5 = a0 + 0x400\n 18301: a2 = u64 [a5 + 0x8]\n 18304: a1 = u64 [a5 + 0x10]\n 18307: a3 = u64 [a5 + 0x18]\n 18310: a4 = u64 [a5 + 0x20]\n 18313: a0 = u64 [s1 + 0x178]\n 18317: i32 a0 = a0 + 0x20\n 18320: a5 = s1 + 0x1100\n 18324: u64 [a5 + 0x458] = a4\n 18328: a4 = a5 + 0x400\n 18332: u64 [a4 + 0x50] = a3\n 18335: u64 [a4 + 0x48] = a1\n 18338: a1 = s1 + 0x1540\n 18342: u64 [a4 + 0x40] = a2\n 18345: ra = 628, jump @19\n      : @671 [@dyn 314] (gas: 10)\n 18351: a0 = u64 [s1 + 0x178]\n 18355: i32 a0 = a0 + 0x40\n 18358: a1 = s1 + 0x1100\n 18362: u64 [a1 + 1080] = 0\n 18366: u64 [a1 + 1072] = 0\n 18370: u64 [a1 + 1064] = 0\n 18374: a2 = s1 + 0x1100\n 18378: a1 = s1 + 0x1520\n 18382: u64 [a2 + 1056] = 0\n 18386: ra = 630, jump @19\n      : @672 [@dyn 315] (gas: 4)\n 18392: a0 = u64 [s1 + 0xc0]\n 18396: ra = 0x278\n 18400: ecalli 6 // 'caller'\n 18402: fallthrough\n      : @673 [@dyn 316] (gas: 3)\n 18403: a0 = u64 [s1 + 0x170]\n 18407: a1 = u64 [s1 + 0x168]\n 18411: jump @675 if a1 <u a0\n      : @674 (gas: 1)\n 18414: jump @794\n      : @675 (gas: 3)\n 18417: a4 = a1\n 18419: a2 = u64 [s1 + 0x100]\n 18423: t0 = 634, jump @1122\n      : @676 [@dyn 317] (gas: 32)\n 18429: t0 = a1 | a0\n 18432: a3 = a3 >> 0x20\n 18435: a1 = reverse a2\n 18437: a2 = a1 << 0x20\n 18440: a2 = a2 | a3\n 18443: a3 = a1 >> 0x20\n 18446: i32 a1 = a4 + 0x80\n 18450: t1 = s1 + 0x1100\n 18454: a0 = u64 [s1 + 0xa0]\n 18458: u64 [t1 + 0x3d0] = a0\n 18462: a4 = u64 [0x200a0]\n 18467: u64 [t1 + 984] = 0\n 18471: a0 = u64 [s1 + 0xf0]\n 18475: u64 [t1 + 0x3c8] = a0\n 18479: a0 = u64 [s1 + 0xf8]\n 18483: u64 [t1 + 0x3c0] = a0\n 18487: u64 [t1 + 0x418] = a4\n 18491: a4 = u64 [0x200a8]\n 18496: a5 = u64 [0x200b0]\n 18501: a0 = u64 [0x200b8]\n 18506: u64 [t1 + 1016] = 0\n 18510: u64 [t1 + 0x410] = a4\n 18514: u64 [t1 + 0x408] = a5\n 18518: u64 [t1 + 0x400] = a0\n 18522: u64 [t1 + 0x3f0] = a3\n 18526: u64 [t1 + 0x3e8] = a2\n 18530: a2 = s1 + 0x1500\n 18534: a3 = s1 + 0x14e0\n 18538: a4 = s1 + 0x14c0\n 18542: u64 [t1 + 0x3e0] = t0\n 18546: a0 = u64 [s1 + 0x178]\n 18550: ra = 636, jump @27\n      : @677 [@dyn 318] (gas: 5)\n 18556: a0 = 0\n 18558: a1 = u64 [s1 + 0xb8]\n 18562: a2 = 0\n 18564: ecalli 13 // 'seal_return'\n 18566: jump @840\n      : @678 (gas: 3)\n 18569: a0 = s1 + 0x3c0\n 18573: a1 = 0x40\n 18576: ra = 638, jump @17\n      : @679 [@dyn 319] (gas: 2)\n 18582: a1 = s1 + 0x300\n 18586: t0 = 640, jump @1147\n      : @680 [@dyn 320] (gas: 4)\n 18592: ra = 0x282\n 18596: ecalli 12 // 'return_data_size'\n 18598: t0 = 0x284\n 18602: jump @1117\n      : @681 [@dyn 321] (gas: 1)\n 18605: t0 = 644, jump @1117\n      : @682 [@dyn 322] (gas: 1)\n 18611: jump @684 if a1 == 0\n      : @683 (gas: 1)\n 18614: jump @794\n      : @684 (gas: 3)\n 18617: a2 = a0\n 18619: a0 = a0 >> 0x20\n 18622: jump @686 if a0 == 0\n      : @685 (gas: 1)\n 18625: jump @794\n      : @686 (gas: 1)\n 18628: t0 = 646, jump @1141\n      : @687 [@dyn 323] (gas: 1)\n 18634: ra = 648, jump @31\n      : @688 [@dyn 324] (gas: 11)\n 18640: a1 = s1 + 0x1918\n 18644: a2 = u64 [s1 + 0x168]\n 18648: u32 [a1 + 0x588] = a2\n 18652: i32 a0 = a0 + 0\n 18654: a1 = s1 + 0x2000\n 18658: i32 a1 = a1 + 0xfffffffffffffea0\n 18662: a2 = 0\n 18664: ecalli 11 // 'return_data_copy'\n 18666: a0 = s1 + 0x1918\n 18670: a0 = i32 [a0 + 0x588]\n 18674: jump @514\n      : @689 (gas: 8)\n 18677: a0 = a2 | a3\n 18680: a1 = a1 | a4\n 18683: a0 = a0 | a1\n 18686: a0 = a0 >> 0x20\n 18689: a1 = a1 | a3\n 18692: a1 = a1 << 0x20\n 18695: a0 = a0 | a1\n 18698: jump @691 if a0 == 0\n      : @690 (gas: 1)\n 18701: jump @794\n      : @691 (gas: 12)\n 18704: a0 = u64 [s1 + 0x120]\n 18708: u64 [s1 + 0x2e0] = a0\n 18712: a0 = u64 [s1 + 0x128]\n 18716: u64 [s1 + 0x2e8] = a0\n 18720: a0 = u64 [s1 + 0x130]\n 18724: u64 [s1 + 0x2f0] = a0\n 18728: a1 = s1 + 0x2e0\n 18732: a0 = u64 [s1 + 0x138]\n 18736: u64 [s1 + 0x2f8] = a0\n 18740: a0 = a2\n 18742: u64 [s1 + 0x170] = a2\n 18746: ra = 650, jump @19\n      : @692 [@dyn 325] (gas: 29)\n 18752: u64 [s1 + 664] = 0\n 18756: a5 = s1 + 0x100\n 18760: a0 = u64 [a5 + 0x50]\n 18763: u64 [s1 + 0x290] = a0\n 18767: a0 = u64 [a5 + 0x58]\n 18770: u64 [s1 + 0x288] = a0\n 18774: a0 = u64 [a5 + 0x60]\n 18777: u64 [s1 + 0x280] = a0\n 18781: u64 [s1 + 696] = 0\n 18785: a0 = u64 [s1 + 0xf0]\n 18789: u64 [s1 + 0x2b0] = a0\n 18793: a0 = u64 [s1 + 0xf8]\n 18797: u64 [s1 + 0x2a8] = a0\n 18801: a0 = u64 [0x20140]\n 18806: a1 = u64 [0x20148]\n 18811: a2 = u64 [0x20150]\n 18816: a3 = u64 [a5]\n 18818: u64 [s1 + 0x2a0] = a3\n 18822: u64 [s1 + 0x2d8] = a0\n 18826: u64 [s1 + 0x2d0] = a1\n 18830: u64 [s1 + 0x2c8] = a2\n 18834: a0 = u64 [0x20158]\n 18839: a1 = 0x20\n 18842: a2 = s1 + 0x2c0\n 18846: a3 = s1 + 0x2a0\n 18850: a4 = s1 + 0x280\n 18854: u64 [s1 + 0x2c0] = a0\n 18858: a0 = u64 [a5 + 0x70]\n 18861: ra = 652, jump @27\n      : @693 [@dyn 326] (gas: 3)\n 18867: a1 = 0x20250\n 18872: i32 a1 = a1 + 0\n 18874: jump @822\n      : @694 (gas: 4)\n 18877: a0 = s1 + 0x7ff\n 18881: a0 = a0 + 0x741\n 18885: a1 = 0x40\n 18888: ra = 654, jump @17\n      : @695 [@dyn 327] (gas: 15)\n 18894: a0 = s1 + 0x7ff\n 18898: a0 = a0 + 0xf9\n 18902: a2 = a0 + 0x600\n 18906: a1 = u64 [a2 + 0x60]\n 18909: u64 [s1 + 0x170] = a1\n 18913: a1 = u64 [a2 + 0x58]\n 18916: u64 [s1 + 0x168] = a1\n 18920: a1 = u64 [a2 + 0x50]\n 18923: u64 [s1 + 0x160] = a1\n 18927: a0 = u64 [a2 + 0x48]\n 18930: u64 [s1 + 0x178] = a0\n 18934: ra = 0x290\n 18938: ecalli 12 // 'return_data_size'\n 18940: t0 = 0x292\n 18944: jump @1117\n      : @696 [@dyn 328] (gas: 1)\n 18947: t0 = 658, jump @1117\n      : @697 [@dyn 329] (gas: 1)\n 18953: jump @794 if a1 != 0\n      : @698 (gas: 3)\n 18957: a2 = a0\n 18959: a0 = a0 >> 0x20\n 18962: jump @794 if a0 != 0\n      : @699 (gas: 1)\n 18966: t0 = 660, jump @1141\n      : @700 [@dyn 330] (gas: 1)\n 18972: ra = 662, jump @31\n      : @701 [@dyn 331] (gas: 11)\n 18978: a1 = s1 + 0x1918\n 18982: a2 = u64 [s1 + 0x168]\n 18986: u32 [a1 + 0x7c8] = a2\n 18990: i32 a0 = a0 + 0\n 18992: a1 = s1 + 0x2000\n 18996: i32 a1 = a1 + 0xe0\n 19000: a2 = 0\n 19002: ecalli 11 // 'return_data_copy'\n 19004: a0 = s1 + 0x1918\n 19008: a0 = i32 [a0 + 0x7c8]\n 19012: jump @514\n      : @702 (gas: 9)\n 19015: a1 = s1 + 0x2118\n 19019: u64 [a1 + 0] = 0\n 19021: u64 [a1 + 4294967288] = 0\n 19024: u64 [a1 + 4294967280] = 0\n 19027: u64 [a1 + 4294967272] = 0x2\n 19031: a0 = s1 + 0x7ff\n 19035: a0 = a0 + 0x6c1\n 19039: a1 = s1 + 0x2100\n 19043: ra = 664, jump @21\n      : @703 [@dyn 332] (gas: 13)\n 19049: a1 = s1 + 0x7ff\n 19053: a1 = a1 + 0xf9\n 19057: a2 = a1 + 0x500\n 19061: a0 = u64 [a2 + 0xd8]\n 19065: u64 [s1 + 0x118] = a0\n 19069: a0 = u64 [a2 + 0xd0]\n 19073: u64 [s1 + 0x20] = a0\n 19076: a0 = u64 [a2 + 0xc8]\n 19080: u64 [s1 + 0x18] = a0\n 19083: a0 = s1 + 0x7ff\n 19087: a0 = a0 + 0x6a1\n 19091: a1 = 0x40\n 19094: ra = 666, jump @17\n      : @704 [@dyn 333] (gas: 19)\n 19100: a4 = s1 + 0x7ff\n 19104: a4 = a4 + 0xf9\n 19108: a5 = a4 + 0x500\n 19112: a1 = u64 [a5 + 0xc0]\n 19116: a2 = u64 [a5 + 0xb8]\n 19120: a0 = u64 [a5 + 0xb0]\n 19124: a3 = u64 [a5 + 0xa8]\n 19128: a5 = s1 + 0x100\n 19132: u64 [a5 + 0x70] = a0\n 19135: u64 [a5 + 0x60] = a1\n 19138: a0 = a0 | a1\n 19141: a1 = a3 | a2\n 19144: a1 = a1 | a0\n 19147: a1 = a1 >> 0x20\n 19150: u64 [a5 + 0x68] = a2\n 19153: a0 = a0 | a2\n 19156: a0 = a0 << 0x20\n 19159: a0 = a0 | a1\n 19162: jump @794 if a0 != 0\n      : @705 (gas: 20)\n 19166: a1 = u64 [s1 + 0x18]\n 19169: a1 = a1 & 0xffffffffffffffff\n 19172: u64 [s1 + 0x18] = a1\n 19175: a1 = u64 [s1 + 0x20]\n 19178: a0 = a1 & 0xffffffffffffffff\n 19181: u64 [s1 + 0x20] = a0\n 19184: a0 = u64 [s1 + 0xc8]\n 19188: a1 = u64 [s1 + 0x118]\n 19192: a0 = a0 & a1\n 19195: u64 [s1 + 0x118] = a0\n 19199: u64 [a4 + 1432] = 0\n 19203: u64 [a4 + 1424] = 0\n 19207: u64 [a4 + 1416] = 0\n 19211: a0 = 0x23b872dd00000000\n 19221: a1 = s1 + 0x7ff\n 19225: a1 = a1 + 0x681\n 19229: u64 [a4 + 0x5a0] = a0\n 19233: a0 = a3\n 19235: u64 [s1 + 0x178] = a3\n 19239: ra = 668, jump @19\n      : @706 [@dyn 334] (gas: 6)\n 19245: a0 = u64 [s1 + 0x80]\n 19249: ra = 0x29e\n 19253: ecalli 6 // 'caller'\n 19255: a2 = u64 [s1 + 0xe0]\n 19259: t0 = 0x2a0\n 19263: jump @1122\n      : @707 [@dyn 335] (gas: 2)\n 19266: a2 = u64 [s1 + 0xe0]\n 19270: t0 = 672, jump @1122\n      : @708 [@dyn 336] (gas: 56)\n 19276: t0 = a1 | a0\n 19279: a3 = a3 >> 0x20\n 19282: a2 = reverse a2\n 19284: a1 = a2 << 0x20\n 19287: t1 = a1 | a3\n 19290: t2 = a2 >> 0x20\n 19293: a0 = u64 [s1 + 0x178]\n 19297: a3 = a0 + 0x4\n 19300: a4 = a3 <u a0\n 19303: a0 = u64 [s1 + 0x170]\n 19307: a5 = a0 + a4\n 19310: a0 = a5 <u a0\n 19313: a0 = a4 if a4 == 0\n 19316: a1 = u64 [s1 + 0x168]\n 19320: a0 = a0 + a1\n 19323: a4 = a0 <u a1\n 19326: a1 = u64 [s1 + 0x160]\n 19330: a4 = a4 + a1\n 19333: a1 = u64 [s1 + 0x140]\n 19337: a2 = s1 + 0x7ff\n 19341: a2 = a2 + 0xf9\n 19345: u64 [a2 + 0x500] = a1\n 19349: a1 = u64 [s1 + 0x148]\n 19353: u64 [a2 + 0x4f8] = a1\n 19357: a1 = u64 [s1 + 0x150]\n 19361: u64 [a2 + 0x4f0] = a1\n 19365: a1 = u64 [s1 + 0x158]\n 19369: u64 [a2 + 0x4e8] = a1\n 19373: a1 = u64 [s1 + 0x118]\n 19377: u64 [a2 + 0x518] = a1\n 19381: a1 = u64 [s1 + 0x20]\n 19384: u64 [a2 + 0x510] = a1\n 19388: a1 = u64 [s1 + 0x18]\n 19391: u64 [a2 + 0x508] = a1\n 19395: a1 = a2 + 0x500\n 19399: u64 [a1 + 0x60] = a4\n 19402: u64 [a1 + 0x58] = a0\n 19405: u64 [a2 + 1312] = 0\n 19409: u64 [a1 + 0x50] = a5\n 19412: u64 [a1 + 0x48] = a3\n 19415: u64 [a2 + 0x538] = t2\n 19419: u64 [a2 + 0x530] = t1\n 19423: u64 [a2 + 0x528] = t0\n 19427: a5 = a2\n 19429: a0 = s1 + 0x7ff\n 19433: a0 = a0 + 0x661\n 19437: a1 = s1 + 0x7ff\n 19441: a1 = a1 + 0x641\n 19445: a2 = s1 + 0x7ff\n 19449: a2 = a2 + 0x621\n 19453: a3 = s1 + 0x7ff\n 19457: a3 = a3 + 0x601\n 19461: a4 = s1 + 0x7ff\n 19465: a4 = a4 + 0x5e1\n 19469: u64 [a5 + 1344] = 0\n 19473: ra = 674, jump @1029\n      : @709 [@dyn 337] (gas: 33)\n 19479: a1 = s1 + 0x7ff\n 19483: a1 = a1 + 0xf9\n 19487: a0 = u64 [a1 + 0x570]\n 19491: t0 = u64 [a1 + 0x580]\n 19495: t1 = u64 [a1 + 0x568]\n 19499: a3 = u64 [a1 + 0x578]\n 19503: a1 = u64 [s1 + 0x170]\n 19507: a4 = a0 ^ a1\n 19510: a5 = a0 <u a1\n 19513: ra = a1\n 19515: t2 = u64 [s1 + 0x178]\n 19519: a1 = t1 <u t2\n 19522: a5 = a1 if a4 == 0\n 19525: a2 = u64 [s1 + 0x168]\n 19529: a4 = a3 - a2\n 19532: a3 = a3 <u a2\n 19535: a2 = u64 [s1 + 0x160]\n 19539: a2 = t0 - a2\n 19542: a2 = a2 - a3\n 19545: a3 = a4 <u a5\n 19548: a2 = a2 - a3\n 19551: u64 [s1 + 0x150] = a2\n 19555: a4 = a4 - a5\n 19558: u64 [s1 + 0x148] = a4\n 19562: a0 = a0 - ra\n 19565: a0 = a0 - a1\n 19568: u64 [s1 + 0x140] = a0\n 19572: a0 = t1 - t2\n 19575: u64 [s1 + 0x158] = a0\n 19579: ra = 0x2a4\n 19583: ecalli 10 // 'ref_time_left'\n 19585: t0 = 0x2a6\n 19589: jump @1144\n      : @710 [@dyn 338] (gas: 1)\n 19592: t0 = 678, jump @1144\n      : @711 [@dyn 339] (gas: 17)\n 19598: u64 [a2 + 32] = 0\n 19601: u64 [a2 + 24] = 0\n 19604: u64 [a2 + 16] = 0\n 19607: a0 = u64 [s1 + 0x158]\n 19611: a3 = a0\n 19613: a4 = u64 [s1 + 0x148]\n 19617: a0 = a0 | a4\n 19620: a1 = u64 [s1 + 0x150]\n 19624: a5 = u64 [s1 + 0x140]\n 19628: a1 = a1 | a5\n 19631: a0 = a0 | a1\n 19634: a0 = a0 >> 0x20\n 19637: a1 = a1 | a4\n 19640: a1 = a1 << 0x20\n 19643: a0 = a0 | a1\n 19646: u64 [a2 + 8] = 0\n 19649: jump @794 if a0 != 0\n      : @712 (gas: 3)\n 19653: a0 = u64 [s1 + 0x178]\n 19657: a1 = a3\n 19659: ra = 680, jump @31\n      : @713 [@dyn 340] (gas: 4)\n 19665: u64 [s1 + 0x148] = a0\n 19669: a1 = 0x20\n 19672: a0 = u64 [s1 + 0x178]\n 19676: ra = 682, jump @31\n      : @714 [@dyn 341] (gas: 34)\n 19682: a2 = s1 + 0x2118\n 19686: a5 = s1 + 0x100\n 19690: u64 [a5 + 80] = 0x20\n 19694: u32 [a2 + 40] = 0x20\n 19698: u64 [a2 + 96] = 0xffffffffffffffff\n 19702: u64 [a2 + 88] = 0xffffffffffffffff\n 19706: u64 [a2 + 80] = 0xffffffffffffffff\n 19710: u64 [a2 + 72] = 0xffffffffffffffff\n 19714: a1 = 0x800000000\n 19724: a2 = u64 [s1 + 0x28]\n 19727: t0 = a2 | a1\n 19730: a1 = s1 + 0x2120\n 19734: a1 = a1 << 0x20\n 19737: a1 = a1 >> 0x20\n 19740: a2 = s1 + 0x2160\n 19744: a2 = a2 << 0x20\n 19747: a3 = a2 | a1\n 19750: a1 = u64 [a5 + 0x48]\n 19753: a1 = a1 << 0x20\n 19756: a1 = a1 >> 0x20\n 19759: a4 = u64 [a5 + 0x58]\n 19762: a4 = a4 << 0x20\n 19765: a4 = a4 | a1\n 19768: a0 = a0 << 0x20\n 19771: a0 = a0 >> 0x20\n 19774: a1 = s1 + 0x2140\n 19778: a1 = a1 << 0x20\n 19781: a5 = a1 | a0\n 19784: a1 = 0xffffffffffffffff\n 19787: a2 = 0xffffffffffffffff\n 19790: u64 [s1 + 0x158] = t0\n 19794: a0 = t0\n 19796: ecalli 2 // 'call'\n 19798: fallthrough\n      : @715 (gas: 1)\n 19799: jump @780 if a0 != 0\n      : @716 (gas: 2)\n 19803: ecalli 12 // 'return_data_size'\n 19805: fallthrough\n      : @717 (gas: 1)\n 19806: jump @719 if a0 >=u 32\n      : @718 (gas: 3)\n 19810: ecalli 12 // 'return_data_size'\n 19812: u64 [s1 + 0x150] = a0\n 19816: fallthrough\n      : @719 (gas: 22)\n 19817: a2 = s1 + 0x7ff\n 19821: a2 = a2 + 0xf9\n 19825: a0 = u64 [s1 + 0x150]\n 19829: a4 = a2 + 0x400\n 19833: u64 [a4 + 0x88] = a0\n 19837: a0 = u64 [s1 + 0x178]\n 19841: u64 [a4 + 0xa8] = a0\n 19845: u64 [s1 + 328] = 0\n 19849: u64 [a2 + 1168] = 0\n 19853: a0 = u64 [s1 + 0x170]\n 19857: u64 [a4 + 0xb0] = a0\n 19861: u64 [a2 + 1176] = 0\n 19865: a0 = u64 [s1 + 0x168]\n 19869: u64 [a4 + 0xb8] = a0\n 19873: u64 [a2 + 1184] = 0\n 19877: a0 = s1 + 0x7ff\n 19881: a0 = a0 + 0x5a1\n 19885: a1 = s1 + 0x7ff\n 19889: a1 = a1 + 0x581\n 19893: a3 = u64 [s1 + 0x160]\n 19897: u64 [a4 + 0xc0] = a3\n 19901: ra = 684, jump @869\n      : @720 [@dyn 342] (gas: 39)\n 19907: t0 = u64 [s1 + 0x178]\n 19911: a0 = u64 [s1 + 0x150]\n 19915: ra = a0 + t0\n 19918: a1 = ra <u a0\n 19921: t1 = u64 [s1 + 0x170]\n 19925: a5 = u64 [s1 + 0x148]\n 19929: a2 = a5 + t1\n 19932: a2 = a2 + a1\n 19935: a3 = a2 ^ a5\n 19938: a4 = a2 <u a5\n 19941: a4 = a1 if a3 == 0\n 19944: a3 = u64 [s1 + 0x168]\n 19948: a1 = a5 + a3\n 19951: a4 = a4 + a1\n 19954: t2 = a4 <u a1\n 19957: a1 = a1 <u a5\n 19960: a0 = u64 [s1 + 0x160]\n 19964: a5 = a5 + a0\n 19967: a1 = a1 + a5\n 19970: t2 = t2 + a1\n 19973: a1 = s1 + 0x7ff\n 19977: a1 = a1 + 0xf9\n 19981: a5 = a1 + 0x400\n 19985: u64 [a5 + 0x38] = a4\n 19988: u64 [a5 + 0x30] = a2\n 19991: u64 [a1 + 0x428] = ra\n 19995: u64 [a5 + 0x60] = a0\n 19998: u64 [a5 + 0x58] = a3\n 20001: u64 [a1 + 0x450] = t1\n 20005: u64 [a1 + 0x448] = t0\n 20009: a3 = a1\n 20011: a0 = s1 + 0x7ff\n 20015: a0 = a0 + 0x561\n 20019: a1 = s1 + 0x7ff\n 20023: a1 = a1 + 0x541\n 20027: a2 = s1 + 0x7ff\n 20031: a2 = a2 + 0x521\n 20035: u64 [a3 + 0x440] = t2\n 20039: ra = 686, jump @936\n      : @721 [@dyn 343] (gas: 16)\n 20045: a4 = s1 + 0x7ff\n 20049: a4 = a4 + 0xf9\n 20053: a5 = a4 + 0x400\n 20057: a1 = u64 [a5 + 0x68]\n 20060: a0 = u64 [a5 + 0x70]\n 20063: a2 = u64 [a5 + 0x78]\n 20066: a3 = u64 [a5 + 0x80]\n 20070: u64 [a5 + 0x20] = a3\n 20073: u64 [a5 + 0x18] = a2\n 20076: u64 [a5 + 0x10] = a0\n 20079: a0 = s1 + 0x7ff\n 20083: a0 = a0 + 0x501\n 20087: u64 [a5 + 0x8] = a1\n 20090: ra = 0x2b0\n 20094: t0 = 0x3fc\n 20098: jump @1113\n      : @722 [@dyn 344] (gas: 4)\n 20101: a0 = s1 + 0x7ff\n 20105: a0 = a0 + 0x4e1\n 20109: a1 = 0x40\n 20112: ra = 690, jump @17\n      : @723 [@dyn 345] (gas: 20)\n 20118: a1 = s1 + 0x7ff\n 20122: a1 = a1 + 0xf9\n 20126: a3 = u64 [a1 + 0x400]\n 20130: a4 = a1 + 0x300\n 20134: a2 = u64 [a4 + 0xf8]\n 20138: a0 = u64 [a4 + 0xf0]\n 20142: a1 = u64 [a4 + 0xe8]\n 20146: a4 = s1 + 0x100\n 20150: u64 [a4 + 0x70] = a0\n 20153: u64 [a4 + 0x60] = a3\n 20156: a0 = a0 | a3\n 20159: u64 [a4 + 0x78] = a1\n 20162: a1 = a1 | a2\n 20165: a1 = a1 | a0\n 20168: a1 = a1 >> 0x20\n 20171: u64 [a4 + 0x68] = a2\n 20174: a0 = a0 | a2\n 20177: a0 = a0 << 0x20\n 20180: a0 = a0 | a1\n 20183: jump @794 if a0 != 0\n      : @724 (gas: 12)\n 20187: a0 = s1 + 0x7ff\n 20191: a0 = a0 + 0xf9\n 20195: u64 [a0 + 984] = 0\n 20199: u64 [a0 + 976] = 0\n 20203: u64 [a0 + 968] = 0\n 20207: a2 = a0\n 20209: a0 = 0x23b872dd00000000\n 20219: a1 = s1 + 0x7ff\n 20223: a1 = a1 + 0x4c1\n 20227: u64 [a2 + 0x3e0] = a0\n 20231: a0 = u64 [s1 + 0x178]\n 20235: ra = 692, jump @19\n      : @725 [@dyn 346] (gas: 6)\n 20241: a0 = u64 [s1 + 0x80]\n 20245: ra = 0x2b6\n 20249: ecalli 6 // 'caller'\n 20251: a2 = u64 [s1 + 0xe0]\n 20255: t0 = 0x2b8\n 20259: jump @1122\n      : @726 [@dyn 347] (gas: 2)\n 20262: a2 = u64 [s1 + 0xe0]\n 20266: t0 = 696, jump @1122\n      : @727 [@dyn 348] (gas: 57)\n 20272: t0 = a1 | a0\n 20275: a3 = a3 >> 0x20\n 20278: a2 = reverse a2\n 20280: a1 = a2 << 0x20\n 20283: t1 = a1 | a3\n 20286: t2 = a2 >> 0x20\n 20289: a0 = u64 [s1 + 0x178]\n 20293: a3 = a0 + 0x4\n 20296: a4 = a3 <u a0\n 20299: a0 = u64 [s1 + 0x170]\n 20303: a5 = a0 + a4\n 20306: a0 = a5 <u a0\n 20309: a0 = a4 if a4 == 0\n 20312: a1 = u64 [s1 + 0x168]\n 20316: a0 = a0 + a1\n 20319: a4 = a0 <u a1\n 20322: a1 = u64 [s1 + 0x160]\n 20326: a4 = a4 + a1\n 20329: a1 = u64 [s1 + 0x120]\n 20333: a2 = s1 + 0x7ff\n 20337: a2 = a2 + 0xf9\n 20341: u64 [a2 + 0x340] = a1\n 20345: a1 = u64 [s1 + 0x128]\n 20349: u64 [a2 + 0x338] = a1\n 20353: a1 = u64 [s1 + 0x130]\n 20357: u64 [a2 + 0x330] = a1\n 20361: a1 = u64 [s1 + 0x138]\n 20365: u64 [a2 + 0x328] = a1\n 20369: a1 = u64 [s1 + 0x70]\n 20372: u64 [a2 + 0x360] = a1\n 20376: a1 = u64 [s1 + 0xb0]\n 20380: u64 [a2 + 0x358] = a1\n 20384: a1 = u64 [s1 + 0xb8]\n 20388: u64 [a2 + 0x350] = a1\n 20392: a1 = u64 [s1 + 0xc0]\n 20396: u64 [a2 + 0x348] = a1\n 20400: a1 = a2 + 0x300\n 20404: u64 [a1 + 0xa0] = a4\n 20408: u64 [a1 + 0x98] = a0\n 20412: u64 [a1 + 0x90] = a5\n 20416: u64 [a1 + 0x88] = a3\n 20420: u64 [a2 + 0x378] = t2\n 20424: u64 [a2 + 0x370] = t1\n 20428: u64 [a2 + 0x368] = t0\n 20432: a5 = a2\n 20434: a0 = s1 + 0x7ff\n 20438: a0 = a0 + 0x4a1\n 20442: a1 = s1 + 0x7ff\n 20446: a1 = a1 + 0x481\n 20450: a2 = s1 + 0x7ff\n 20454: a2 = a2 + 0x461\n 20458: a3 = s1 + 0x7ff\n 20462: a3 = a3 + 0x441\n 20466: a4 = s1 + 0x7ff\n 20470: a4 = a4 + 0x421\n 20474: u64 [a5 + 896] = 0\n 20478: ra = 698, jump @1029\n      : @728 [@dyn 349] (gas: 33)\n 20484: a1 = s1 + 0x7ff\n 20488: a1 = a1 + 0xf9\n 20492: a0 = u64 [a1 + 0x3b0]\n 20496: t0 = u64 [a1 + 0x3c0]\n 20500: t1 = u64 [a1 + 0x3a8]\n 20504: a3 = u64 [a1 + 0x3b8]\n 20508: a1 = u64 [s1 + 0x170]\n 20512: a4 = a0 ^ a1\n 20515: a5 = a0 <u a1\n 20518: ra = a1\n 20520: t2 = u64 [s1 + 0x178]\n 20524: a1 = t1 <u t2\n 20527: a5 = a1 if a4 == 0\n 20530: a2 = u64 [s1 + 0x168]\n 20534: a4 = a3 - a2\n 20537: a3 = a3 <u a2\n 20540: a2 = u64 [s1 + 0x160]\n 20544: a2 = t0 - a2\n 20547: a2 = a2 - a3\n 20550: a3 = a4 <u a5\n 20553: a2 = a2 - a3\n 20556: u64 [s1 + 0x148] = a2\n 20560: a4 = a4 - a5\n 20563: u64 [s1 + 0x140] = a4\n 20567: a0 = a0 - ra\n 20570: a0 = a0 - a1\n 20573: u64 [s1 + 0x138] = a0\n 20577: a0 = t1 - t2\n 20580: u64 [s1 + 0x150] = a0\n 20584: ra = 0x2bc\n 20588: ecalli 10 // 'ref_time_left'\n 20590: t0 = 0x2be\n 20594: jump @1144\n      : @729 [@dyn 350] (gas: 1)\n 20597: t0 = 702, jump @1144\n      : @730 [@dyn 351] (gas: 17)\n 20603: u64 [a2 + 160] = 0\n 20607: u64 [a2 + 152] = 0\n 20611: u64 [a2 + 144] = 0\n 20615: a0 = u64 [s1 + 0x150]\n 20619: a3 = a0\n 20621: a4 = u64 [s1 + 0x140]\n 20625: a0 = a0 | a4\n 20628: a1 = u64 [s1 + 0x148]\n 20632: a5 = u64 [s1 + 0x138]\n 20636: a1 = a1 | a5\n 20639: a0 = a0 | a1\n 20642: a0 = a0 >> 0x20\n 20645: a1 = a1 | a4\n 20648: a1 = a1 << 0x20\n 20651: a0 = a0 | a1\n 20654: u64 [a2 + 136] = 0\n 20658: jump @794 if a0 != 0\n      : @731 (gas: 3)\n 20662: a0 = u64 [s1 + 0x178]\n 20666: a1 = a3\n 20668: ra = 704, jump @31\n      : @732 [@dyn 352] (gas: 4)\n 20674: u64 [s1 + 0x140] = a0\n 20678: a1 = 0x20\n 20681: a0 = u64 [s1 + 0x178]\n 20685: ra = 706, jump @31\n      : @733 [@dyn 353] (gas: 29)\n 20691: a2 = s1 + 0x2118\n 20695: u64 [s1 + 328] = 0x20\n 20700: u32 [a2 + 168] = 0x20\n 20705: u64 [a2 + 224] = 0xffffffffffffffff\n 20710: u64 [a2 + 216] = 0xffffffffffffffff\n 20715: u64 [a2 + 208] = 0xffffffffffffffff\n 20720: u64 [a2 + 200] = 0xffffffffffffffff\n 20725: a1 = s1 + 0x21a0\n 20729: a1 = a1 << 0x20\n 20732: a1 = a1 >> 0x20\n 20735: a2 = s1 + 0x21e0\n 20739: a2 = a2 << 0x20\n 20742: a3 = a2 | a1\n 20745: a1 = u64 [s1 + 0x140]\n 20749: a1 = a1 << 0x20\n 20752: a1 = a1 >> 0x20\n 20755: a4 = u64 [s1 + 0x150]\n 20759: a4 = a4 << 0x20\n 20762: a4 = a4 | a1\n 20765: a0 = a0 << 0x20\n 20768: a0 = a0 >> 0x20\n 20771: a1 = s1 + 0x21c0\n 20775: a1 = a1 << 0x20\n 20778: a5 = a1 | a0\n 20781: a1 = 0xffffffffffffffff\n 20784: a2 = 0xffffffffffffffff\n 20787: a0 = u64 [s1 + 0x158]\n 20791: ecalli 2 // 'call'\n 20793: fallthrough\n      : @734 (gas: 1)\n 20794: jump @787 if a0 != 0\n      : @735 (gas: 2)\n 20798: ecalli 12 // 'return_data_size'\n 20800: fallthrough\n      : @736 (gas: 1)\n 20801: jump @738 if a0 >=u 32\n      : @737 (gas: 3)\n 20805: ecalli 12 // 'return_data_size'\n 20807: u64 [s1 + 0x148] = a0\n 20811: fallthrough\n      : @738 (gas: 22)\n 20812: a2 = s1 + 0x7ff\n 20816: a2 = a2 + 0xf9\n 20820: a0 = u64 [s1 + 0x148]\n 20824: a1 = a2 + 0x200\n 20828: u64 [a1 + 0xc8] = a0\n 20832: a0 = u64 [s1 + 0x178]\n 20836: u64 [a1 + 0xe8] = a0\n 20840: u64 [s1 + 344] = 0\n 20844: u64 [a2 + 720] = 0\n 20848: a0 = u64 [s1 + 0x170]\n 20852: u64 [a1 + 0xf0] = a0\n 20856: u64 [a2 + 728] = 0\n 20860: a0 = u64 [s1 + 0x168]\n 20864: u64 [a1 + 0xf8] = a0\n 20868: u64 [a2 + 736] = 0\n 20872: a0 = s1 + 0x7ff\n 20876: a0 = a0 + 0x3e1\n 20880: a1 = s1 + 0x7ff\n 20884: a1 = a1 + 0x3c1\n 20888: a3 = u64 [s1 + 0x160]\n 20892: u64 [a2 + 0x300] = a3\n 20896: ra = 708, jump @869\n      : @739 [@dyn 354] (gas: 39)\n 20902: t0 = u64 [s1 + 0x178]\n 20906: a0 = u64 [s1 + 0x148]\n 20910: ra = a0 + t0\n 20913: a1 = ra <u a0\n 20916: t1 = u64 [s1 + 0x170]\n 20920: a5 = u64 [s1 + 0x158]\n 20924: a2 = a5 + t1\n 20927: a2 = a2 + a1\n 20930: a3 = a2 ^ a5\n 20933: a4 = a2 <u a5\n 20936: a4 = a1 if a3 == 0\n 20939: a3 = u64 [s1 + 0x168]\n 20943: a1 = a5 + a3\n 20946: a4 = a4 + a1\n 20949: t2 = a4 <u a1\n 20952: a1 = a1 <u a5\n 20955: a0 = u64 [s1 + 0x160]\n 20959: a5 = a5 + a0\n 20962: a1 = a1 + a5\n 20965: t2 = t2 + a1\n 20968: a1 = s1 + 0x7ff\n 20972: a1 = a1 + 0xf9\n 20976: a5 = a1 + 0x200\n 20980: u64 [a5 + 0x78] = a4\n 20983: u64 [a5 + 0x70] = a2\n 20986: u64 [a1 + 0x268] = ra\n 20990: u64 [a5 + 0xa0] = a0\n 20994: u64 [a5 + 0x98] = a3\n 20998: u64 [a1 + 0x290] = t1\n 21002: u64 [a1 + 0x288] = t0\n 21006: a3 = a1\n 21008: a0 = s1 + 0x7ff\n 21012: a0 = a0 + 0x3a1\n 21016: a1 = s1 + 0x7ff\n 21020: a1 = a1 + 0x381\n 21024: a2 = s1 + 0x7ff\n 21028: a2 = a2 + 0x361\n 21032: u64 [a3 + 0x280] = t2\n 21036: ra = 710, jump @936\n      : @740 [@dyn 355] (gas: 16)\n 21042: a4 = s1 + 0x7ff\n 21046: a4 = a4 + 0xf9\n 21050: a5 = a4 + 0x200\n 21054: a1 = u64 [a5 + 0xa8]\n 21058: a0 = u64 [a5 + 0xb0]\n 21062: a2 = u64 [a5 + 0xb8]\n 21066: a3 = u64 [a5 + 0xc0]\n 21070: u64 [a5 + 0x60] = a3\n 21073: u64 [a5 + 0x58] = a2\n 21076: u64 [a5 + 0x50] = a0\n 21079: a0 = s1 + 0x7ff\n 21083: a0 = a0 + 0x341\n 21087: u64 [a5 + 0x48] = a1\n 21090: ra = 0x2c8\n 21094: t0 = 0x41c\n 21098: jump @1113\n      : @741 [@dyn 356] (gas: 4)\n 21101: a0 = u64 [s1 + 0x80]\n 21105: ra = 0x2ca\n 21109: ecalli 6 // 'caller'\n 21111: fallthrough\n      : @742 [@dyn 357] (gas: 5)\n 21112: a2 = u64 [s1 + 0xe0]\n 21116: a0 = u64 [a2 + 0x8]\n 21119: a1 = i32 [a2 + 0x10]\n 21122: a2 = u64 [a2]\n 21124: t0 = 716, jump @1138\n      : @743 [@dyn 358] (gas: 11)\n 21130: a2 = s1 + 0x7ff\n 21134: a2 = a2 + 0xf9\n 21138: u64 [a2 + 576] = 0\n 21142: a4 = a2 + 0x200\n 21146: u64 [a4 + 0x38] = a1\n 21149: u64 [a4 + 0x30] = a0\n 21152: a1 = s1 + 0x7ff\n 21156: a1 = a1 + 0x321\n 21160: u64 [a4 + 0x28] = a3\n 21163: a0 = 0\n 21165: ra = 718, jump @19\n      : @744 [@dyn 359] (gas: 11)\n 21171: a1 = s1 + 0x7ff\n 21175: a1 = a1 + 0xf9\n 21179: u64 [a1 + 544] = 0\n 21183: u64 [a1 + 536] = 0\n 21187: u64 [a1 + 520] = 0x3\n 21192: a2 = a1\n 21194: a0 = 0x20\n 21197: a1 = s1 + 0x7ff\n 21201: a1 = a1 + 0x301\n 21205: u64 [a2 + 528] = 0\n 21209: ra = 720, jump @19\n      : @745 [@dyn 360] (gas: 3)\n 21215: a0 = u64 [s1 + 0x68]\n 21218: a0 = i32 [a0]\n 21220: jump @747 if a0 >u 63\n      : @746 (gas: 4)\n 21224: a1 = u64 [s1 + 0x68]\n 21227: u32 [a1 + 0] = 0x40\n 21230: t0 = 0x2d2\n 21234: jump @1157\n      : @747 (gas: 1)\n 21237: t0 = 722, jump @1157\n      : @748 [@dyn 361] (gas: 15)\n 21243: a0 = u64 [s1 + 0x60]\n 21246: ecalli 9 // 'hash_keccak_256'\n 21248: a1 = u64 [s1 + 0x178]\n 21252: a0 = u64 [a1 + 0x18]\n 21255: u64 [s1 + 0x158] = a0\n 21259: a0 = u64 [a1 + 0x10]\n 21262: u64 [s1 + 0x150] = a0\n 21266: a0 = u64 [a1 + 0x8]\n 21269: u64 [s1 + 0x148] = a0\n 21273: a0 = u64 [a1]\n 21275: u64 [s1 + 0x140] = a0\n 21279: a0 = s1 + 0x7ff\n 21283: a0 = a0 + 0x2e1\n 21287: a1 = 0x40\n 21290: ra = 724, jump @17\n      : @749 [@dyn 362] (gas: 20)\n 21296: a0 = s1 + 0x7ff\n 21300: a0 = a0 + 0xf9\n 21304: a2 = u64 [a0 + 0x200]\n 21308: a5 = a0 + 0x100\n 21312: a3 = u64 [a5 + 0xf8]\n 21316: a4 = u64 [a5 + 0xf0]\n 21320: a1 = u64 [a5 + 0xe8]\n 21324: a5 = s1 + 0x100\n 21328: u64 [a5 + 0x70] = a2\n 21331: u64 [a5 + 0x60] = a4\n 21334: a0 = a4 | a2\n 21337: u64 [a5 + 0x78] = a1\n 21340: a1 = a1 | a3\n 21343: a1 = a1 | a0\n 21346: a1 = a1 >> 0x20\n 21349: u64 [a5 + 0x68] = a3\n 21352: a0 = a0 | a3\n 21355: a0 = a0 << 0x20\n 21358: a0 = a0 | a1\n 21361: jump @794 if a0 != 0\n      : @750 (gas: 3)\n 21365: a0 = u64 [s1 + 0x178]\n 21369: a1 = u64 [s1 + 0x40]\n 21372: ra = 726, jump @31\n      : @751 [@dyn 363] (gas: 6)\n 21378: i32 a0 = a0 + 0\n 21380: a1 = u64 [s1 + 0x40]\n 21383: a2 = u64 [s1 + 0x38]\n 21386: ra = 0x2d8\n 21390: ecalli 3 // 'call_data_copy'\n 21392: fallthrough\n      : @752 [@dyn 364] (gas: 7)\n 21393: a1 = u64 [s1 + 0xa0]\n 21397: a0 = u64 [s1 + 0x178]\n 21401: a0 = a0 + a1\n 21404: a1 = a0 <u a1\n 21407: a4 = u64 [s1 + 0x88]\n 21411: a2 = u64 [s1 + 0x160]\n 21415: t0 = 730, jump @1124\n      : @753 [@dyn 365] (gas: 9)\n 21421: a3 = u64 [s1 + 0x98]\n 21425: a1 = u64 [s1 + 0x168]\n 21429: a1 = a1 + a3\n 21432: t0 = a1 <u a3\n 21435: a5 = u64 [s1 + 0x90]\n 21439: a3 = u64 [s1 + 0x170]\n 21443: a5 = a5 + a3\n 21446: a3 = a5 + t0\n 21449: t0 = 732, jump @1119\n      : @754 [@dyn 366] (gas: 1)\n 21455: jump @794 if a1 != 0\n      : @755 (gas: 18)\n 21459: a1 = u64 [s1 + 0x140]\n 21463: a2 = reverse a1\n 21465: a1 = u64 [s1 + 0x148]\n 21469: a1 = reverse a1\n 21471: a3 = u64 [s1 + 0x150]\n 21475: a3 = reverse a3\n 21477: a4 = u64 [s1 + 0x158]\n 21481: a4 = reverse a4\n 21483: a5 = s1 + 0x7ff\n 21487: a5 = a5 + 0xf9\n 21491: u64 [a5 + 0x1c8] = a4\n 21495: a4 = a5 + 0x100\n 21499: u64 [a4 + 0xd0] = a3\n 21503: u64 [a4 + 0xd8] = a1\n 21507: a1 = s1 + 0x7ff\n 21511: a1 = a1 + 0x2c1\n 21515: u64 [a4 + 0xe0] = a2\n 21519: ra = 734, jump @19\n      : @756 [@dyn 367] (gas: 7)\n 21525: a0 = sp + 0xffffffffffffffe0\n 21528: a0 = a0 & 0xffffffffffffffe0\n 21531: u64 [s1 + 0x170] = a0\n 21535: sp = a0\n 21537: a0 = u64 [s1 + 0x178]\n 21541: a1 = u64 [s1 + 0x30]\n 21544: ra = 736, jump @31\n      : @757 [@dyn 368] (gas: 1)\n 21550: t0 = 738, jump @1161\n      : @758 [@dyn 369] (gas: 4)\n 21556: ra = 0x2e4\n 21560: ecalli 9 // 'hash_keccak_256'\n 21562: t0 = 0x2e6\n 21566: jump @1125\n      : @759 [@dyn 370] (gas: 1)\n 21569: t0 = 742, jump @1125\n      : @760 [@dyn 371] (gas: 3)\n 21575: a0 = s1 + 0x7ff\n 21579: a0 = a0 + 0x2a1\n 21583: ra = 744, jump @21\n      : @761 [@dyn 372] (gas: 18)\n 21589: a3 = s1 + 0x7ff\n 21593: a3 = a3 + 0xf9\n 21597: a4 = a3 + 0x100\n 21601: a0 = u64 [a4 + 0xa8]\n 21605: a1 = u64 [a4 + 0xb0]\n 21609: a2 = u64 [a4 + 0xc0]\n 21613: a3 = u64 [a4 + 0xb8]\n 21617: a0 = a0 & 0xffffffffffffff00\n 21621: a0 = a0 | 0x1\n 21624: a4 = s1 + 0x2118\n 21628: a5 = a4 + 0x100\n 21632: u64 [a5 + 0x20] = a2\n 21635: u64 [a5 + 0x18] = a3\n 21638: u64 [a5 + 0x10] = a1\n 21641: u64 [a5 + 0x8] = a0\n 21644: a1 = s1 + 0x2220\n 21648: a0 = u64 [s1 + 0x170]\n 21652: ra = 746, jump @22\n      : @762 [@dyn 373] (gas: 4)\n 21658: a0 = s1 + 0x7ff\n 21662: a0 = a0 + 0x281\n 21666: a1 = 0x40\n 21669: ra = 748, jump @17\n      : @763 [@dyn 374] (gas: 20)\n 21675: a1 = s1 + 0x7ff\n 21679: a1 = a1 + 0xf9\n 21683: a4 = a1 + 0x100\n 21687: a0 = u64 [a4 + 0xa0]\n 21691: a2 = u64 [a4 + 0x98]\n 21695: a3 = u64 [a4 + 0x90]\n 21699: a1 = u64 [a4 + 0x88]\n 21703: a4 = s1 + 0x100\n 21707: u64 [a4 + 0x60] = a0\n 21710: u64 [a4 + 0x70] = a3\n 21713: a0 = a0 | a3\n 21716: u64 [a4 + 0x78] = a1\n 21719: a1 = a1 | a2\n 21722: a1 = a1 | a0\n 21725: a1 = a1 >> 0x20\n 21728: u64 [a4 + 0x68] = a2\n 21731: a0 = a0 | a2\n 21734: a0 = a0 << 0x20\n 21737: a0 = a0 | a1\n 21740: jump @794 if a0 != 0\n      : @764 (gas: 10)\n 21744: a2 = s1 + 0x7ff\n 21748: a2 = a2 + 0xf9\n 21752: u64 [a2 + 384] = 0\n 21756: u64 [a2 + 376] = 0\n 21760: u64 [a2 + 368] = 0\n 21764: a1 = s1 + 0x7ff\n 21768: a1 = a1 + 0x261\n 21772: u64 [a2 + 360] = 0x60\n 21777: a0 = u64 [s1 + 0x178]\n 21781: ra = 750, jump @19\n      : @765 [@dyn 375] (gas: 14)\n 21787: a3 = s1 + 0x100\n 21791: a0 = u64 [a3 + 0x68]\n 21794: a1 = u64 [a3 + 0x60]\n 21797: a2 = a0 | a1\n 21800: a0 = 0x100000000\n 21810: u64 [a3 + 0x50] = a0\n 21813: a0 = 0xffffffa0\n 21823: a1 = u64 [a3 + 0x78]\n 21826: a0 = a1 <u a0\n 21829: a1 = u64 [a3 + 0x70]\n 21832: a0 = 0 if a1 != 0\n 21834: u64 [a3 + 0x58] = a2\n 21837: a0 = 0 if a2 != 0\n 21839: jump @794 if a0 == 0\n      : @766 (gas: 16)\n 21843: a0 = u64 [s1 + 0x178]\n 21847: i32 a0 = a0 + 0x60\n 21850: a1 = u64 [s1 + 0xa0]\n 21854: a3 = s1 + 0x7ff\n 21858: a3 = a3 + 0xf9\n 21862: a4 = a3 + 0x100\n 21866: u64 [a4 + 0x48] = a1\n 21869: a1 = u64 [s1 + 0x88]\n 21873: u64 [a4 + 0x50] = a1\n 21876: a1 = u64 [s1 + 0x98]\n 21880: u64 [a4 + 0x58] = a1\n 21883: a1 = s1 + 0x7ff\n 21887: a1 = a1 + 0x241\n 21891: a2 = u64 [s1 + 0x90]\n 21895: u64 [a4 + 0x60] = a2\n 21898: ra = 752, jump @19\n      : @767 [@dyn 376] (gas: 10)\n 21904: a2 = s1 + 0x100\n 21908: a0 = u64 [a2 + 0x50]\n 21911: a0 = a0 + 0xffffffffffffff80\n 21914: a1 = u64 [a2 + 0x78]\n 21917: a0 = a1 <u a0\n 21920: a1 = u64 [a2 + 0x70]\n 21923: a0 = 0 if a1 != 0\n 21925: a1 = u64 [a2 + 0x58]\n 21928: a0 = 0 if a1 != 0\n 21930: jump @794 if a0 == 0\n      : @768 (gas: 4)\n 21934: a0 = u64 [s1 + 0x178]\n 21938: i32 a0 = a0 + 0x80\n 21942: a1 = u64 [s1 + 0x40]\n 21945: ra = 754, jump @31\n      : @769 [@dyn 377] (gas: 6)\n 21951: i32 a0 = a0 + 0\n 21953: a1 = u64 [s1 + 0x40]\n 21956: a2 = u64 [s1 + 0x38]\n 21959: ra = 0x2f4\n 21963: ecalli 3 // 'call_data_copy'\n 21965: fallthrough\n      : @770 [@dyn 378] (gas: 17)\n 21966: a0 = u64 [s1 + 0xa0]\n 21970: a1 = u64 [s1 + 0x178]\n 21974: a0 = a0 + a1\n 21977: a2 = a0 <u a1\n 21980: a1 = u64 [s1 + 0x88]\n 21984: a4 = u64 [s1 + 0x170]\n 21988: a1 = a1 + a4\n 21991: a1 = a1 + a2\n 21994: a3 = a1 ^ a4\n 21997: a4 = a1 <u a4\n 22000: a4 = a2 if a3 == 0\n 22003: a2 = u64 [s1 + 0x90]\n 22007: a3 = u64 [s1 + 0x160]\n 22011: a2 = a2 + a3\n 22014: a3 = u64 [s1 + 0x98]\n 22018: a5 = u64 [s1 + 0x168]\n 22022: t0 = 758, jump @1123\n      : @771 [@dyn 379] (gas: 1)\n 22028: jump @794 if a3 == 0\n      : @772 (gas: 10)\n 22032: i32 a0 = a0 + 0x80\n 22036: a2 = s1 + 0x7ff\n 22040: a2 = a2 + 0xf9\n 22044: u64 [a2 + 320] = 0\n 22048: u64 [a2 + 312] = 0\n 22052: u64 [a2 + 304] = 0\n 22056: a1 = s1 + 0x7ff\n 22060: a1 = a1 + 0x221\n 22064: u64 [a2 + 296] = 0\n 22068: ra = 760, jump @19\n      : @773 [@dyn 380] (gas: 21)\n 22074: a0 = u64 [s1 + 0xa0]\n 22078: a0 = a0 + 0x1f\n 22081: a1 = 0x1ffffffe0\n 22091: a0 = a0 & a1\n 22094: u64 [s1 + 0x168] = a0\n 22098: a0 = u64 [s1 + 0x178]\n 22102: i32 a0 = a0 + 0x20\n 22105: a1 = u64 [s1 + 0xe8]\n 22109: a3 = s1 + 0x7ff\n 22113: a3 = a3 + 0xf9\n 22117: a4 = a3 + 0x100\n 22121: u64 [a4 + 0x20] = a1\n 22124: a1 = u64 [s1 + 0xf0]\n 22128: u64 [a4 + 0x18] = a1\n 22131: a1 = u64 [s1 + 0xf8]\n 22135: u64 [a4 + 0x10] = a1\n 22138: a1 = s1 + 0x7ff\n 22142: a1 = a1 + 0x201\n 22146: a2 = u64 [s1 + 0x100]\n 22150: u64 [a4 + 0x8] = a2\n 22153: ra = 762, jump @19\n      : @774 [@dyn 381] (gas: 15)\n 22159: a0 = u64 [s1 + 0x178]\n 22163: i32 a0 = a0 + 0x40\n 22166: a2 = s1 + 0x7ff\n 22170: a2 = a2 + 0xf9\n 22174: u64 [a2 + 256] = 0\n 22178: a1 = u64 [s1 + 0xa8]\n 22182: u64 [a2 + 0xf8] = a1\n 22186: a1 = u64 [s1 + 0xd0]\n 22190: u64 [a2 + 0xf0] = a1\n 22194: a3 = a2\n 22196: a1 = s1 + 0x7ff\n 22200: a1 = a1 + 0x1e1\n 22204: a2 = u64 [s1 + 0xd8]\n 22208: u64 [a3 + 0xe8] = a2\n 22212: ra = 764, jump @19\n      : @775 [@dyn 382] (gas: 4)\n 22218: a0 = u64 [s1 + 0x80]\n 22222: ra = 0x2fe\n 22226: ecalli 6 // 'caller'\n 22228: fallthrough\n      : @776 [@dyn 383] (gas: 3)\n 22229: a0 = u64 [s1 + 0x170]\n 22233: a1 = u64 [s1 + 0x168]\n 22237: jump @794 if a1 >=u a0\n      : @777 (gas: 3)\n 22241: a4 = a1\n 22243: a2 = u64 [s1 + 0xe0]\n 22247: t0 = 768, jump @1122\n      : @778 [@dyn 384] (gas: 37)\n 22253: t0 = a1 | a0\n 22256: a3 = a3 >> 0x20\n 22259: a1 = reverse a2\n 22261: a2 = a1 << 0x20\n 22264: a2 = a2 | a3\n 22267: a3 = a1 >> 0x20\n 22270: i32 a1 = a4 + 0x80\n 22274: a0 = u64 [s1 + 0x48]\n 22277: t1 = s1 + 0x7ff\n 22281: t1 = t1 + 0xf9\n 22285: u64 [t1 + 0x98] = a0\n 22289: a4 = u64 [0x200a0]\n 22294: u64 [t1 + 160] = 0\n 22298: a0 = u64 [s1 + 0x50]\n 22301: u64 [t1 + 0x90] = a0\n 22305: a0 = u64 [s1 + 0x58]\n 22308: u64 [t1 + 0x88] = a0\n 22312: u64 [t1 + 0xe0] = a4\n 22316: a4 = u64 [0x200a8]\n 22321: a5 = u64 [0x200b0]\n 22326: a0 = u64 [0x200b8]\n 22331: u64 [t1 + 192] = 0\n 22335: u64 [t1 + 0xd8] = a4\n 22339: a4 = t1\n 22341: u64 [a4 + 0xd0] = a5\n 22345: u64 [a4 + 0xc8] = a0\n 22349: u64 [a4 + 0xb8] = a3\n 22353: u64 [a4 + 0xb0] = a2\n 22357: a2 = s1 + 0x7ff\n 22361: a2 = a2 + 0x1c1\n 22365: a3 = s1 + 0x7ff\n 22369: a3 = a3 + 0x1a1\n 22373: a4 = s1 + 0x7ff\n 22377: a4 = a4 + 0x181\n 22381: u64 [t1 + 0xa8] = t0\n 22385: a0 = u64 [s1 + 0x178]\n 22389: ra = 770, jump @27\n      : @779 [@dyn 385] (gas: 5)\n 22395: a0 = 0\n 22397: a1 = u64 [s1 + 0x60]\n 22400: a2 = 0\n 22402: ecalli 13 // 'seal_return'\n 22404: jump @840\n      : @780 (gas: 4)\n 22407: a0 = s1 + 0x7ff\n 22411: a0 = a0 + 0x5c1\n 22415: a1 = 0x40\n 22418: ra = 772, jump @17\n      : @781 [@dyn 386] (gas: 15)\n 22424: a0 = s1 + 0x7ff\n 22428: a0 = a0 + 0xf9\n 22432: a2 = a0 + 0x400\n 22436: a1 = u64 [a2 + 0xe0]\n 22440: u64 [s1 + 0x170] = a1\n 22444: a1 = u64 [a2 + 0xd8]\n 22448: u64 [s1 + 0x168] = a1\n 22452: a1 = u64 [a2 + 0xd0]\n 22456: u64 [s1 + 0x160] = a1\n 22460: a0 = u64 [a2 + 0xc8]\n 22464: u64 [s1 + 0x178] = a0\n 22468: ra = 0x306\n 22472: ecalli 12 // 'return_data_size'\n 22474: t0 = 0x308\n 22478: jump @1117\n      : @782 [@dyn 387] (gas: 1)\n 22481: t0 = 776, jump @1117\n      : @783 [@dyn 388] (gas: 1)\n 22487: jump @794 if a1 != 0\n      : @784 (gas: 2)\n 22491: a1 = a0 >> 0x20\n 22494: jump @794 if a1 != 0\n      : @785 (gas: 6)\n 22498: a1 = a0\n 22500: u64 [s1 + 0x168] = a0\n 22504: i32 a0 = a0 + 0\n 22506: u64 [s1 + 0x170] = a0\n 22510: a0 = u64 [s1 + 0x178]\n 22514: ra = 778, jump @31\n      : @786 [@dyn 389] (gas: 11)\n 22520: a1 = s1 + 0x2118\n 22524: a2 = u64 [s1 + 0x168]\n 22528: u32 [a1 + 0x68] = a2\n 22531: i32 a0 = a0 + 0\n 22533: a1 = s1 + 0x2000\n 22537: i32 a1 = a1 + 0x180\n 22541: a2 = 0\n 22543: ecalli 11 // 'return_data_copy'\n 22545: a0 = s1 + 0x2118\n 22549: a0 = i32 [a0 + 0x68]\n 22552: jump @514\n      : @787 (gas: 4)\n 22555: a0 = s1 + 0x7ff\n 22559: a0 = a0 + 0x401\n 22563: a1 = 0x40\n 22566: ra = 780, jump @17\n      : @788 [@dyn 390] (gas: 15)\n 22572: a0 = s1 + 0x7ff\n 22576: a0 = a0 + 0xf9\n 22580: a2 = a0 + 0x300\n 22584: a1 = u64 [a2 + 0x20]\n 22587: u64 [s1 + 0x170] = a1\n 22591: a1 = u64 [a2 + 0x18]\n 22594: u64 [s1 + 0x168] = a1\n 22598: a1 = u64 [a2 + 0x10]\n 22601: u64 [s1 + 0x160] = a1\n 22605: a0 = u64 [a2 + 0x8]\n 22608: u64 [s1 + 0x178] = a0\n 22612: ra = 0x30e\n 22616: ecalli 12 // 'return_data_size'\n 22618: t0 = 0x310\n 22622: jump @1117\n      : @789 [@dyn 391] (gas: 1)\n 22625: t0 = 784, jump @1117\n      : @790 [@dyn 392] (gas: 1)\n 22631: jump @794 if a1 != 0\n      : @791 (gas: 2)\n 22634: a1 = a0 >> 0x20\n 22637: jump @794 if a1 != 0\n      : @792 (gas: 6)\n 22640: a1 = a0\n 22642: u64 [s1 + 0x168] = a0\n 22646: i32 a0 = a0 + 0\n 22648: u64 [s1 + 0x170] = a0\n 22652: a0 = u64 [s1 + 0x178]\n 22656: ra = 786, jump @31\n      : @793 [@dyn 393] (gas: 11)\n 22662: a1 = s1 + 0x2118\n 22666: a2 = u64 [s1 + 0x168]\n 22670: u32 [a1 + 0xe8] = a2\n 22674: i32 a0 = a0 + 0\n 22676: a1 = s1 + 0x2000\n 22680: i32 a1 = a1 + 0x200\n 22684: a2 = 0\n 22686: ecalli 11 // 'return_data_copy'\n 22688: a0 = s1 + 0x2118\n 22692: a0 = i32 [a0 + 0xe8]\n 22696: jump @514\n      : @794 (gas: 1)\n 22699: trap\n      : @795 (gas: 6)\n 22700: a1 = 0x20250\n 22705: i32 a1 = a1 + 0\n 22707: a0 = 0x1\n 22710: a2 = 0\n 22712: ecalli 13 // 'seal_return'\n 22714: jump @840\n      : @796 (gas: 6)\n 22717: a1 = 0x20250\n 22722: i32 a1 = a1 + 0\n 22724: a0 = 0x1\n 22727: a2 = 0\n 22729: ecalli 13 // 'seal_return'\n 22731: jump @840\n      : @797 (gas: 5)\n 22734: a1 = 0x20250\n 22739: i32 a1 = a1 + 0\n 22741: a0 = 0x1\n 22744: ecalli 13 // 'seal_return'\n 22746: jump @811\n      : @798 (gas: 6)\n 22749: a1 = 0x20250\n 22754: i32 a1 = a1 + 0\n 22756: a0 = 0x1\n 22759: a2 = 0\n 22761: ecalli 13 // 'seal_return'\n 22763: jump @840\n      : @799 (gas: 6)\n 22766: a1 = 0x20250\n 22771: i32 a1 = a1 + 0\n 22773: a0 = 0x1\n 22776: a2 = 0\n 22778: ecalli 13 // 'seal_return'\n 22780: jump @840\n      : @800 (gas: 6)\n 22783: a1 = 0x20250\n 22788: i32 a1 = a1 + 0\n 22790: a0 = 0x1\n 22793: a2 = 0\n 22795: ecalli 13 // 'seal_return'\n 22797: jump @840\n      : @801 (gas: 6)\n 22800: a1 = 0x20250\n 22805: i32 a1 = a1 + 0\n 22807: a0 = 0x1\n 22810: a2 = 0\n 22812: ecalli 13 // 'seal_return'\n 22814: jump @840\n      : @802 (gas: 6)\n 22817: a1 = 0x20250\n 22822: i32 a1 = a1 + 0\n 22824: a0 = 0x1\n 22827: a2 = 0\n 22829: ecalli 13 // 'seal_return'\n 22831: jump @840\n      : @803 (gas: 6)\n 22834: a1 = 0x20250\n 22839: i32 a1 = a1 + 0\n 22841: a0 = 0x1\n 22844: a2 = 0\n 22846: ecalli 13 // 'seal_return'\n 22848: jump @840\n      : @804 (gas: 6)\n 22851: a1 = 0x20250\n 22856: i32 a1 = a1 + 0\n 22858: a0 = 0x1\n 22861: a2 = 0\n 22863: ecalli 13 // 'seal_return'\n 22865: jump @840\n      : @805 (gas: 6)\n 22868: a1 = 0x20250\n 22873: i32 a1 = a1 + 0\n 22875: a0 = 0x1\n 22878: a2 = 0\n 22880: ecalli 13 // 'seal_return'\n 22882: jump @840\n      : @806 (gas: 6)\n 22885: a1 = 0x20250\n 22890: i32 a1 = a1 + 0\n 22892: a0 = 0x1\n 22895: a2 = 0\n 22897: ecalli 13 // 'seal_return'\n 22899: jump @840\n      : @807 (gas: 6)\n 22902: a1 = 0x20250\n 22907: i32 a1 = a1 + 0\n 22909: a0 = 0x1\n 22912: a2 = 0\n 22914: ecalli 13 // 'seal_return'\n 22916: jump @840\n      : @808 (gas: 6)\n 22919: a1 = 0x20250\n 22924: i32 a1 = a1 + 0\n 22926: a0 = 0x1\n 22929: a2 = 0\n 22931: ecalli 13 // 'seal_return'\n 22933: jump @840\n      : @809 (gas: 6)\n 22936: a1 = 0x20250\n 22941: i32 a1 = a1 + 0\n 22943: a0 = 0x1\n 22946: a2 = 0\n 22948: ecalli 13 // 'seal_return'\n 22950: jump @840\n      : @810 (gas: 5)\n 22953: a1 = 0x20250\n 22958: i32 a1 = a1 + 0\n 22960: a0 = 0x1\n 22963: ecalli 13 // 'seal_return'\n 22965: fallthrough\n      : @811 (gas: 6)\n 22966: a1 = 0x20250\n 22971: i32 a1 = a1 + 0\n 22973: a0 = 0x1\n 22976: a2 = 0\n 22978: ecalli 13 // 'seal_return'\n 22980: jump @840\n      : @812 (gas: 6)\n 22983: a1 = 0x20250\n 22988: i32 a1 = a1 + 0\n 22990: a0 = 0x1\n 22993: a2 = 0\n 22995: ecalli 13 // 'seal_return'\n 22997: jump @840\n      : @813 (gas: 6)\n 23000: a1 = 0x20250\n 23005: i32 a1 = a1 + 0\n 23007: a0 = 0x1\n 23010: a2 = 0\n 23012: ecalli 13 // 'seal_return'\n 23014: jump @840\n      : @814 (gas: 6)\n 23017: a1 = 0x20250\n 23022: i32 a1 = a1 + 0\n 23024: a0 = 0x1\n 23027: a2 = 0\n 23029: ecalli 13 // 'seal_return'\n 23031: jump @840\n      : @815 (gas: 6)\n 23034: a1 = 0x20250\n 23039: i32 a1 = a1 + 0\n 23041: a0 = 0x1\n 23044: a2 = 0\n 23046: ecalli 13 // 'seal_return'\n 23048: jump @840\n      : @816 (gas: 6)\n 23051: a1 = 0x20250\n 23056: i32 a1 = a1 + 0\n 23058: a0 = 0x1\n 23061: a2 = 0\n 23063: ecalli 13 // 'seal_return'\n 23065: jump @840\n      : @817 (gas: 10)\n 23068: a0 = 0xffffffff\n 23078: u64 [s1 + 0x160] = a0\n 23082: a0 = s1 + 0x2118\n 23086: u64 [a0 + 1376] = 0\n 23090: u64 [a0 + 1368] = 0\n 23094: u64 [a0 + 1360] = 0\n 23098: u64 [a0 + 1352] = 0x2\n 23103: a0 = s1 + 0x1c00\n 23107: a1 = s1 + 0x2660\n 23111: ra = 788, jump @21\n      : @818 [@dyn 394] (gas: 28)\n 23117: a1 = s1 + 0x1918\n 23121: a3 = a1 + 0x200\n 23125: a0 = u64 [a3 + 0xf0]\n 23129: u64 [s1 + 0x158] = a0\n 23133: a0 = u64 [a1 + 0x300]\n 23137: a2 = u64 [a3 + 0xf8]\n 23141: u64 [s1 + 0x148] = a2\n 23145: a1 = u64 [a3 + 0xe8]\n 23149: u64 [s1 + 0x150] = a1\n 23153: a1 = s1 + 0x2118\n 23157: a4 = a1 + 0x500\n 23161: u64 [a4 + 104] = 0x2\n 23165: u64 [a4 + 0xa0] = a0\n 23169: a0 = a2 >> 0x20\n 23172: a0 = a0 << 0x20\n 23175: a2 = u64 [s1 + 0x168]\n 23179: a0 = a0 | a2\n 23182: u64 [a4 + 0x98] = a0\n 23186: u64 [a1 + 1408] = 0\n 23190: u64 [a1 + 1400] = 0\n 23194: u64 [a1 + 1392] = 0\n 23198: a0 = u64 [s1 + 0x170]\n 23202: u64 [a4 + 0x90] = a0\n 23206: a0 = u64 [s1 + 0x178]\n 23210: u64 [a4 + 0x88] = a0\n 23214: a0 = s1 + 0x2680\n 23218: a1 = s1 + 0x26a0\n 23222: ra = 790, jump @22\n      : @819 [@dyn 395] (gas: 1)\n 23228: t0 = 792, jump @1139\n      : @820 [@dyn 396] (gas: 27)\n 23234: u64 [a4 + 672] = 0\n 23238: a3 = u64 [a5 + 0x68]\n 23241: u64 [a4 + 0x298] = a3\n 23245: a3 = u64 [a5 + 0x70]\n 23248: u64 [a4 + 0x290] = a3\n 23252: a3 = u64 [a5 + 0x78]\n 23255: a5 = a4 + 0x200\n 23259: u64 [a5 + 0x88] = a3\n 23263: u64 [a4 + 704] = 0\n 23267: u64 [a5 + 0xb8] = a2\n 23271: u64 [a5 + 0xb0] = a1\n 23275: a1 = u64 [0x20060]\n 23280: a2 = u64 [0x20068]\n 23285: a3 = u64 [0x20070]\n 23290: u64 [a5 + 0xa8] = a0\n 23294: u64 [a5 + 0xe0] = a1\n 23298: u64 [a5 + 0xd8] = a2\n 23302: u64 [a5 + 0xd0] = a3\n 23306: a1 = a4\n 23308: a0 = u64 [0x20078]\n 23313: a2 = s1 + 0x1be0\n 23317: a3 = s1 + 0x1bc0\n 23321: a4 = s1 + 0x1ba0\n 23325: u64 [a1 + 0x2c8] = a0\n 23329: a0 = 0\n 23331: a1 = 0\n 23333: ra = 794, jump @27\n      : @821 [@dyn 397] (gas: 3)\n 23339: a1 = 0x20250\n 23344: i32 a1 = a1 + 0\n 23346: fallthrough\n      : @822 (gas: 4)\n 23347: a0 = 0\n 23349: a2 = 0\n 23351: ecalli 13 // 'seal_return'\n 23353: jump @840\n      : @823 (gas: 6)\n 23356: a1 = 0x20250\n 23361: i32 a1 = a1 + 0\n 23363: a0 = 0x1\n 23366: a2 = 0\n 23368: ecalli 13 // 'seal_return'\n 23370: jump @840\n      : @824 (gas: 6)\n 23373: a1 = 0x20250\n 23378: i32 a1 = a1 + 0\n 23380: a0 = 0x1\n 23383: a2 = 0\n 23385: ecalli 13 // 'seal_return'\n 23387: jump @840\n      : @825 (gas: 1)\n 23390: jump @833 if a0 != 4076725131\n      : @826 (gas: 12)\n 23398: a0 = s1 + 0x2118\n 23402: u64 [a0 + 1472] = 0\n 23406: u64 [a0 + 1464] = 0\n 23410: u64 [a0 + 1456] = 0\n 23414: u64 [a0 + 1448] = 0\n 23418: a0 = s1 + 0x2000\n 23422: i32 a0 = a0 + 0x6c0\n 23426: ra = 0x31c\n 23430: ecalli 16 // 'value_transferred'\n 23432: a0 = 0x2118\n 23436: t0 = 0x31e\n 23440: jump @1153\n      : @827 [@dyn 398] (gas: 2)\n 23443: a0 = 0x2118\n 23447: t0 = 798, jump @1153\n      : @828 [@dyn 399] (gas: 1)\n 23453: jump @840 if a0 == 0\n      : @829 (gas: 6)\n 23457: a1 = 0x20250\n 23462: i32 a1 = a1 + 0\n 23464: a0 = 0x1\n 23467: a2 = 0\n 23469: ecalli 13 // 'seal_return'\n 23471: jump @840\n      : @830 (gas: 6)\n 23474: a1 = 0x20250\n 23479: i32 a1 = a1 + 0\n 23481: a0 = 0x1\n 23484: a2 = 0\n 23486: ecalli 13 // 'seal_return'\n 23488: jump @840\n      : @831 (gas: 6)\n 23491: a1 = 0x20250\n 23496: i32 a1 = a1 + 0\n 23498: a0 = 0x1\n 23501: a2 = 0\n 23503: ecalli 13 // 'seal_return'\n 23505: jump @840\n      : @832 (gas: 6)\n 23507: a1 = 0x20250\n 23512: i32 a1 = a1 + 0\n 23514: a0 = 0x1\n 23517: a2 = 0\n 23519: ecalli 13 // 'seal_return'\n 23521: jump @840\n      : @833 (gas: 1)\n 23523: jump @838 if a0 != 1901074598\n      : @834 (gas: 10)\n 23530: a0 = s1 + 0x2118\n 23534: u64 [a0 + 1088] = 0\n 23538: u64 [a0 + 1080] = 0\n 23542: u64 [a0 + 1072] = 0\n 23546: u64 [a0 + 1064] = 0\n 23550: a0 = s1 + 0x2000\n 23554: i32 a0 = a0 + 0x540\n 23558: ra = 0x320\n 23562: ecalli 16 // 'value_transferred'\n 23564: fallthrough\n      : @835 [@dyn 400] (gas: 3)\n 23565: a3 = s1 + 0x2118\n 23569: a4 = a3 + 0x400\n 23573: t0 = 802, jump @1159\n      : @836 [@dyn 401] (gas: 1)\n 23579: jump @843 if a0 == 0\n      : @837 (gas: 6)\n 23582: a1 = 0x20250\n 23587: i32 a1 = a1 + 0\n 23589: a0 = 0x1\n 23592: a2 = 0\n 23594: ecalli 13 // 'seal_return'\n 23596: jump @840\n      : @838 (gas: 6)\n 23598: a1 = 0x20250\n 23603: i32 a1 = a1 + 0\n 23605: a0 = 0x1\n 23608: a2 = 0\n 23610: ecalli 13 // 'seal_return'\n 23612: jump @840\n      : @839 (gas: 5)\n 23614: i32 a1 = a1 + 0\n 23616: a0 = 0x1\n 23619: a2 = 0\n 23621: ecalli 13 // 'seal_return'\n 23623: fallthrough\n      : @840 (gas: 3)\n 23624: a0 = u64 [s1 + 0x178]\n 23628: a0 = i32 [a0]\n 23630: jump @845 if a0 >u 35\n      : @841 (gas: 2)\n 23634: a1 = 0x20250\n 23639: jump @839\n      : @842 (gas: 5)\n 23641: a1 = 0x20250\n 23646: i32 a1 = a1 + 0\n 23648: a0 = 0x1\n 23651: ecalli 13 // 'seal_return'\n 23653: jump @811\n      : @843 (gas: 3)\n 23656: a0 = u64 [s1 + 0x178]\n 23660: a0 = i32 [a0]\n 23662: jump @853 if a0 >u 3\n      : @844 (gas: 2)\n 23667: a1 = 0x20250\n 23672: jump @839\n      : @845 (gas: 2)\n 23674: a0 = s1 + 0x1d00\n 23678: ra = 804, jump @864\n      : @846 [@dyn 402] (gas: 8)\n 23684: a0 = s1 + 0x1918\n 23688: a1 = u64 [a0 + 0x3f0]\n 23692: u64 [s1 + 0x170] = a1\n 23696: a1 = u64 [a0 + 0x3e8]\n 23700: u64 [s1 + 0x178] = a1\n 23704: a0 = u32 [a0 + 0x3f8]\n 23708: u64 [s1 + 0x168] = a0\n 23712: ra = 806, jump @1098\n      : @847 [@dyn 403] (gas: 7)\n 23718: a2 = s1 + 0x100\n 23722: a0 = u64 [a2 + 0x78]\n 23725: a1 = u64 [a2 + 0x68]\n 23728: a0 = a0 | a1\n 23731: a1 = u64 [a2 + 0x70]\n 23734: a0 = a0 | a1\n 23737: jump @858 if a0 == 0\n      : @848 (gas: 10)\n 23741: a0 = 0xffffffff\n 23751: u64 [s1 + 0x160] = a0\n 23755: a0 = s1 + 0x2118\n 23759: u64 [a0 + 1504] = 0\n 23763: u64 [a0 + 1496] = 0\n 23767: u64 [a0 + 1488] = 0\n 23771: u64 [a0 + 1480] = 0\n 23775: a0 = s1 + 0x1ce0\n 23779: a1 = s1 + 0x26e0\n 23783: ra = 808, jump @21\n      : @849 [@dyn 404] (gas: 28)\n 23789: a1 = s1 + 0x1918\n 23793: a3 = a1 + 0x300\n 23797: a2 = u64 [a3 + 0xd8]\n 23801: u64 [s1 + 0x148] = a2\n 23805: a0 = u64 [a3 + 0xd0]\n 23809: u64 [s1 + 0x158] = a0\n 23813: a0 = u64 [a3 + 0xc8]\n 23817: u64 [s1 + 0x150] = a0\n 23821: a0 = u64 [a3 + 0xe0]\n 23825: a1 = a2 >> 0x20\n 23828: a1 = a1 << 0x20\n 23831: a2 = u64 [s1 + 0x168]\n 23835: a1 = a1 | a2\n 23838: a2 = s1 + 0x2118\n 23842: u64 [a2 + 1536] = 0\n 23846: u64 [a2 + 1528] = 0\n 23850: u64 [a2 + 1520] = 0\n 23854: u64 [a2 + 1512] = 0\n 23858: a3 = u64 [s1 + 0x170]\n 23862: a4 = a2 + 0x600\n 23866: u64 [a4 + 0x10] = a3\n 23869: a3 = u64 [s1 + 0x178]\n 23873: u64 [a4 + 0x8] = a3\n 23876: u64 [a4 + 0x20] = a0\n 23879: u64 [a4 + 0x18] = a1\n 23882: a0 = s1 + 0x2700\n 23886: a1 = s1 + 0x2720\n 23890: ra = 810, jump @22\n      : @850 [@dyn 405] (gas: 1)\n 23896: t0 = 812, jump @1139\n      : @851 [@dyn 406] (gas: 27)\n 23902: u64 [a4 + 896] = 0\n 23906: a3 = u64 [a5 + 0x68]\n 23909: u64 [a4 + 0x378] = a3\n 23913: a3 = u64 [a5 + 0x70]\n 23916: u64 [a4 + 0x370] = a3\n 23920: a3 = u64 [a5 + 0x78]\n 23923: a5 = a4 + 0x300\n 23927: u64 [a5 + 0x68] = a3\n 23930: u64 [a4 + 928] = 0\n 23934: u64 [a5 + 0x98] = a2\n 23938: u64 [a5 + 0x90] = a1\n 23942: a1 = u64 [0x20040]\n 23947: a2 = u64 [0x20048]\n 23952: a3 = u64 [0x20050]\n 23957: u64 [a5 + 0x88] = a0\n 23961: u64 [a5 + 0xc0] = a1\n 23965: u64 [a5 + 0xb8] = a2\n 23969: u64 [a5 + 0xb0] = a3\n 23973: a1 = a4\n 23975: a0 = u64 [0x20058]\n 23980: a2 = s1 + 0x1cc0\n 23984: a3 = s1 + 0x1ca0\n 23988: a4 = s1 + 0x1c80\n 23992: u64 [a1 + 0x3a8] = a0\n 23996: a0 = 0\n 23998: a1 = 0\n 24000: ra = 814, jump @27\n      : @852 [@dyn 407] (gas: 6)\n 24006: a1 = 0x20250\n 24011: i32 a1 = a1 + 0\n 24013: a0 = 0\n 24015: a2 = 0\n 24017: ecalli 13 // 'seal_return'\n 24019: jump @840\n      : @853 (gas: 1)\n 24022: ra = 816, jump @1098\n      : @854 [@dyn 408] (gas: 8)\n 24028: a0 = s1 + 0x2118\n 24032: u64 [a0 + 1120] = 0\n 24036: u64 [a0 + 1112] = 0\n 24040: u64 [a0 + 1104] = 0\n 24044: u64 [a0 + 1096] = 0\n 24048: a0 = s1 + 0x1a00\n 24052: a1 = s1 + 0x2560\n 24056: ra = 818, jump @21\n      : @855 [@dyn 409] (gas: 22)\n 24062: a1 = s1 + 0x1918\n 24066: a2 = u64 [a1 + 0xf8]\n 24070: u64 [s1 + 0x168] = a2\n 24074: a0 = u64 [a1 + 0xe8]\n 24078: u64 [s1 + 0x178] = a0\n 24082: a0 = u64 [a1 + 0xf0]\n 24086: u64 [s1 + 0x170] = a0\n 24090: a0 = u64 [a1 + 0x100]\n 24094: a1 = a2 >> 0x20\n 24097: a1 = a1 << 0x20\n 24100: a2 = s1 + 0x2118\n 24104: u64 [a2 + 1152] = 0\n 24108: u64 [a2 + 1144] = 0\n 24112: u64 [a2 + 1136] = 0\n 24116: u64 [a2 + 1128] = 0\n 24120: u64 [a2 + 1168] = 0\n 24124: u64 [a2 + 1160] = 0\n 24128: u64 [a2 + 0x4a0] = a0\n 24132: u64 [a2 + 0x498] = a1\n 24136: a0 = s1 + 0x2580\n 24140: a1 = s1 + 0x25a0\n 24144: ra = 820, jump @22\n      : @856 [@dyn 410] (gas: 30)\n 24150: a5 = s1 + 0x100\n 24154: a0 = u64 [a5 + 0x68]\n 24157: a0 = a0 << 0x20\n 24160: a0 = a0 >> 0x20\n 24163: a3 = s1 + 0x1918\n 24167: u64 [a3 + 160] = 0\n 24171: u64 [a3 + 152] = 0\n 24175: u64 [a3 + 144] = 0\n 24179: u64 [a3 + 136] = 0\n 24183: u64 [a3 + 192] = 0\n 24187: u64 [a3 + 0xb8] = a0\n 24191: a0 = u64 [a5 + 0x70]\n 24194: u64 [a3 + 0xb0] = a0\n 24198: a0 = u64 [0x20040]\n 24203: a1 = u64 [0x20048]\n 24208: a2 = u64 [0x20050]\n 24213: a4 = u64 [a5 + 0x78]\n 24216: u64 [a3 + 0xa8] = a4\n 24220: u64 [a3 + 0xe0] = a0\n 24224: u64 [a3 + 0xd8] = a1\n 24228: u64 [a3 + 0xd0] = a2\n 24232: a1 = a3\n 24234: a0 = u64 [0x20058]\n 24239: a2 = s1 + 0x19e0\n 24243: a3 = s1 + 0x19c0\n 24247: a4 = s1 + 0x19a0\n 24251: u64 [a1 + 0xc8] = a0\n 24255: a0 = 0\n 24257: a1 = 0\n 24259: ra = 822, jump @27\n      : @857 [@dyn 411] (gas: 6)\n 24265: a1 = 0x20250\n 24270: i32 a1 = a1 + 0\n 24272: a0 = 0\n 24274: a2 = 0\n 24276: ecalli 13 // 'seal_return'\n 24278: jump @840\n      : @858 (gas: 10)\n 24281: a0 = s1 + 0x1918\n 24285: u64 [a0 + 856] = 0\n 24289: u64 [a0 + 848] = 0\n 24293: u64 [a0 + 840] = 0\n 24297: a2 = a0\n 24299: a0 = 0x1e4fbdf700000000\n 24309: a1 = s1 + 0x1c60\n 24313: u64 [a2 + 0x360] = a0\n 24317: a0 = 0\n 24319: ra = 824, jump @19\n      : @859 [@dyn 412] (gas: 9)\n 24325: a0 = s1 + 0x1918\n 24329: u64 [a0 + 832] = 0\n 24333: u64 [a0 + 824] = 0\n 24337: u64 [a0 + 816] = 0\n 24341: a2 = a0\n 24343: a0 = 0x4\n 24346: a1 = s1 + 0x1c40\n 24350: u64 [a2 + 808] = 0\n 24354: ra = 826, jump @19\n      : @860 [@dyn 413] (gas: 2)\n 24360: a1 = i32 [0x2023c]\n 24365: jump @862 if a1 >u 63\n      : @861 (gas: 2)\n 24369: u32 [0x2023c] = 0x40\n 24375: fallthrough\n      : @862 (gas: 6)\n 24376: a1 = 0x20250\n 24381: i32 a1 = a1 + 0\n 24383: a0 = 0x1\n 24386: a2 = 0x24\n 24389: ecalli 13 // 'seal_return'\n 24391: fallthrough\n      : @863 (gas: 5)\n 24392: a0 = 0x1\n 24395: a1 = u64 [s1 + 0x60]\n 24398: ra = 0x33c\n 24402: ecalli 13 // 'seal_return'\n 24404: fallthrough\n      : @864 [@dyn 414] (gas: 12)\n 24405: sp = sp + 0xffffffffffffffc0\n 24408: u64 [sp + 0x38] = ra\n 24411: u64 [sp + 0x30] = s0\n 24414: u64 [sp + 0x28] = s1\n 24417: s0 = sp + 0x40\n 24420: sp = sp & 0xffffffffffffffe0\n 24423: s1 = a0\n 24425: i32 a0 = sp + 0\n 24427: a1 = 0x4\n 24430: ra = 0x33e\n 24434: ecalli 4 // 'call_data_load'\n 24436: fallthrough\n      : @865 [@dyn 415] (gas: 3)\n 24437: a0 = u64 [sp + 0x10]\n 24440: a1 = u64 [sp + 0x18]\n 24443: t0 = 832, jump @1149\n      : @866 [@dyn 416] (gas: 1)\n 24449: jump @868 if a3 == 0\n      : @867 (gas: 12)\n 24452: a2 = u64 [sp]\n 24454: a3 = u64 [sp + 0x8]\n 24457: u64 [s1] = a2\n 24459: u64 [s1 + 0x8] = a3\n 24462: u64 [s1 + 0x10] = a0\n 24465: u64 [s1 + 0x18] = a1\n 24468: sp = s0 + 0xffffffffffffffc0\n 24471: ra = u64 [sp + 0x38]\n 24474: s0 = u64 [sp + 0x30]\n 24477: s1 = u64 [sp + 0x28]\n 24480: sp = sp + 0x40\n 24483: ret\n      : @868 (gas: 7)\n 24485: a1 = 0x20250\n 24490: i32 a1 = a1 + 0\n 24492: a0 = 0x1\n 24495: a2 = 0\n 24497: ra = 0x342\n 24501: ecalli 13 // 'seal_return'\n 24503: fallthrough\n      : @869 [@dyn 417] (gas: 46)\n 24504: sp = sp + 0xffffffffffffff70\n 24508: u64 [sp + 0x88] = ra\n 24512: u64 [sp + 0x80] = s0\n 24516: u64 [sp + 0x78] = s1\n 24519: s0 = sp + 0x90\n 24523: sp = sp & 0xfffffffffffffff0\n 24526: t0 = a0\n 24528: a2 = u64 [a1]\n 24530: t2 = u64 [a0 + 0x8]\n 24533: a5 = u64 [a1 + 0x8]\n 24536: t1 = u64 [a0]\n 24538: a3 = a2 + 0x1f\n 24541: ra = a3 <u a2\n 24544: a2 = a5 + ra\n 24547: a3 = a3 & 0xffffffffffffffe0\n 24550: u64 [sp + 0x8] = t1\n 24553: t1 = t1 + a3\n 24556: a4 = t1 <u a3\n 24559: a3 = a2 + t2\n 24562: a3 = a3 + a4\n 24565: s1 = a3 ^ a2\n 24568: a0 = a3 <u a2\n 24571: a0 = a4 if s1 == 0\n 24574: a4 = u64 [t0 + 0x18]\n 24577: a5 = a2 <u a5\n 24580: s1 = u64 [a1 + 0x10]\n 24583: t0 = u64 [t0 + 0x10]\n 24586: a1 = u64 [a1 + 0x18]\n 24589: a5 = ra if ra == 0\n 24592: a5 = a5 + s1\n 24595: s1 = a5 <u s1\n 24598: a2 = a5 + t0\n 24601: a0 = a0 + a2\n 24604: a5 = a2 <u a5\n 24607: a2 = a0 <u a2\n 24610: a1 = a1 + a4\n 24613: a1 = a1 + s1\n 24616: a1 = a1 + a5\n 24619: a5 = a1 + a2\n 24622: a1 = a5 >u 0\n 24624: a2 = a0 >u 0\n 24626: a2 = a1 if a5 != 0\n 24629: a1 = a0 | a5\n 24632: s1 = a3 >u 0\n 24634: s1 = a2 if a1 != 0\n 24637: jump @873 if s1 != 0\n      : @870 (gas: 13)\n 24640: a1 = u64 [sp + 0x8]\n 24643: a1 = t1 <u a1\n 24646: a2 = a3 ^ t2\n 24649: s1 = a3 <u t2\n 24652: s1 = a1 if a2 == 0\n 24655: a1 = a0 <u t0\n 24658: a2 = a5 ^ a4\n 24661: a4 = a5 <u a4\n 24664: a4 = a1 if a2 == 0\n 24667: a1 = a0 ^ t0\n 24670: a1 = a1 | a2\n 24673: a4 = s1 if a1 == 0\n 24676: jump @873 if a4 != 0\n      : @871 (gas: 7)\n 24679: u64 [sp + 0x50] = t1\n 24682: u64 [sp + 0x58] = a3\n 24685: u64 [sp + 0x60] = a0\n 24688: a0 = 0x40\n 24691: a1 = sp + 0x50\n 24694: u64 [sp + 0x68] = a5\n 24697: ra = 836, jump @19\n      : @872 [@dyn 418] (gas: 6)\n 24703: sp = s0 + 0xffffffffffffff70\n 24707: ra = u64 [sp + 0x88]\n 24711: s0 = u64 [sp + 0x80]\n 24715: s1 = u64 [sp + 0x78]\n 24718: sp = sp + 0x90\n 24722: ret\n      : @873 (gas: 8)\n 24724: u64 [sp + 64] = 0\n 24727: u64 [sp + 56] = 0\n 24730: u64 [sp + 48] = 0\n 24733: a0 = 0x4e487b7100000000\n 24743: a1 = sp + 0x30\n 24746: u64 [sp + 0x48] = a0\n 24749: a0 = 0\n 24751: ra = 838, jump @19\n      : @874 [@dyn 419] (gas: 7)\n 24757: u64 [sp + 40] = 0\n 24760: u64 [sp + 32] = 0\n 24763: u64 [sp + 16] = 0x41\n 24767: a0 = 0x4\n 24770: a1 = sp + 0x10\n 24773: u64 [sp + 24] = 0\n 24776: ra = 840, jump @19\n      : @875 [@dyn 420] (gas: 2)\n 24782: a1 = i32 [0x2023c]\n 24787: jump @877 if a1 >u 63\n      : @876 (gas: 2)\n 24791: u32 [0x2023c] = 0x40\n 24797: fallthrough\n      : @877 (gas: 7)\n 24798: a1 = 0x20250\n 24803: i32 a1 = a1 + 0\n 24805: a0 = 0x1\n 24808: a2 = 0x24\n 24811: ra = 0x34a\n 24815: ecalli 13 // 'seal_return'\n 24817: fallthrough\n      : @878 [@dyn 421] (gas: 10)\n 24818: a3 = u64 [a1 + 0x18]\n 24821: a4 = u64 [a1 + 0x10]\n 24824: t0 = u64 [a1 + 0x8]\n 24827: a5 = a3 >u 0\n 24829: a2 = a4 >u 0\n 24831: a2 = a5 if a3 != 0\n 24834: a3 = a3 | a4\n 24837: a4 = t0 >u 0\n 24839: a4 = a2 if a3 != 0\n 24842: jump @880 if a4 != 0\n      : @879 (gas: 16)\n 24845: a1 = u64 [a1]\n 24847: a2 = a1 + 0x1f\n 24850: a1 = a2 <u a1\n 24853: a1 = a1 + t0\n 24856: a1 = a1 & 0x1\n 24859: a2 = a2 & 0xffffffffffffffe0\n 24862: a3 = a2 + 0x20\n 24865: a2 = a3 <u a2\n 24868: a4 = a1 + a2\n 24871: a1 = a4 <u a1\n 24874: a1 = a2 if a2 == 0\n 24877: u64 [a0 + 24] = 0\n 24880: u64 [a0] = a3\n 24882: u64 [a0 + 0x8] = a4\n 24885: u64 [a0 + 0x10] = a1\n 24888: ret\n      : @880 (gas: 13)\n 24890: sp = sp + 0xffffffffffffffb0\n 24893: u64 [sp + 0x48] = ra\n 24896: u64 [sp + 0x40] = s0\n 24899: s0 = sp + 0x50\n 24902: sp = sp & 0xfffffffffffffff0\n 24905: u64 [sp + 48] = 0\n 24908: u64 [sp + 40] = 0\n 24911: u64 [sp + 32] = 0\n 24914: a0 = 0x4e487b7100000000\n 24924: a1 = sp + 0x20\n 24927: u64 [sp + 0x38] = a0\n 24930: a0 = 0\n 24932: ra = 844, jump @19\n      : @881 [@dyn 422] (gas: 7)\n 24938: u64 [sp + 24] = 0\n 24941: u64 [sp + 16] = 0\n 24944: u64 [sp + 0] = 0x41\n 24947: a0 = 0x4\n 24950: a1 = sp\n 24952: u64 [sp + 8] = 0\n 24955: ra = 846, jump @19\n      : @882 [@dyn 423] (gas: 2)\n 24961: a1 = i32 [0x2023c]\n 24966: jump @884 if a1 >u 63\n      : @883 (gas: 2)\n 24970: u32 [0x2023c] = 0x40\n 24976: fallthrough\n      : @884 (gas: 7)\n 24977: a1 = 0x20250\n 24982: i32 a1 = a1 + 0\n 24984: a0 = 0x1\n 24987: a2 = 0x24\n 24990: ra = 0x350\n 24994: ecalli 13 // 'seal_return'\n 24996: fallthrough\n      : @885 [@dyn 424] (gas: 37)\n 24997: sp = sp + 0xffffffffffffff60\n 25001: u64 [sp + 0x98] = ra\n 25005: u64 [sp + 0x90] = s0\n 25009: u64 [sp + 0x88] = s1\n 25013: s0 = sp + 0xa0\n 25017: sp = sp & 0xffffffffffffffe0\n 25020: a4 = u64 [a1]\n 25022: s1 = u64 [a2 + 0x8]\n 25025: ra = u64 [a1 + 0x8]\n 25028: t1 = u64 [a2]\n 25030: a3 = a4 + 0x1f\n 25033: u64 [sp + 0x58] = a4\n 25036: t0 = a3 <u a4\n 25039: a5 = ra + t0\n 25042: u64 [sp + 0x40] = t1\n 25045: t1 = a3 <u t1\n 25048: a3 = a5 ^ s1\n 25051: u64 [sp + 0x48] = s1\n 25054: a4 = a5 <u s1\n 25057: a4 = t1 if a3 == 0\n 25060: t2 = u64 [a1 + 0x10]\n 25063: a3 = a5 <u ra\n 25066: a3 = t0 if t0 == 0\n 25069: t0 = u64 [a2 + 0x18]\n 25072: t1 = u64 [a1 + 0x18]\n 25075: s1 = u64 [a2 + 0x10]\n 25078: a3 = a3 + t2\n 25081: a1 = a3 <u t2\n 25084: a1 = a1 + t1\n 25087: a2 = a1 ^ t0\n 25090: a1 = a1 <s t0\n 25093: a5 = a3 <u s1\n 25096: a1 = a5 if a2 == 0\n 25099: a3 = a3 ^ s1\n 25102: a2 = a2 | a3\n 25105: a4 = a1 if a2 != 0\n 25108: jump @892 if a4 == 0\n      : @886 (gas: 14)\n 25112: u64 [sp + 0x28] = t0\n 25115: u64 [sp + 0x30] = s1\n 25118: u64 [sp + 0x38] = a0\n 25121: a0 = u64 [sp + 0x58]\n 25124: a0 = a0 | t2\n 25127: u64 [sp + 0x18] = t1\n 25130: a1 = ra | t1\n 25133: a0 = a0 | a1\n 25136: a0 = a0 >> 0x20\n 25139: u64 [sp + 0x20] = t2\n 25142: a1 = a1 | t2\n 25145: a1 = a1 << 0x20\n 25148: a0 = a0 | a1\n 25151: jump @891 if a0 != 0\n      : @887 (gas: 5)\n 25155: s1 = ra\n 25157: a1 = i32 [sp + 0x58]\n 25160: i32 a0 = sp + 0x60\n 25163: ecalli 4 // 'call_data_load'\n 25165: fallthrough\n      : @888 (gas: 8)\n 25166: t2 = u64 [sp + 0x78]\n 25169: a0 = u64 [sp + 0x70]\n 25172: a2 = u64 [sp + 0x68]\n 25175: u64 [sp + 0x50] = a0\n 25178: a0 = a0 | t2\n 25181: a1 = a2 <u 0x1\n 25184: a1 = 0 if a0 != 0\n 25186: jump @893 if a1 == 0\n      : @889 (gas: 46)\n 25190: a1 = u64 [sp + 0x60]\n 25193: a0 = u64 [sp + 0x58]\n 25196: a4 = a0 + 0x20\n 25199: a3 = a4 <u a0\n 25202: t1 = s1 + a3\n 25205: u64 [sp + 0x8] = a1\n 25208: a1 = a1 + a4\n 25211: t0 = a1 <u a4\n 25214: u64 [sp + 0x10] = a2\n 25217: a2 = a2 + t1\n 25220: a2 = a2 + t0\n 25223: a5 = a2 ^ t1\n 25226: a0 = a2 <u t1\n 25229: a0 = t0 if a5 == 0\n 25232: a5 = t1 <u s1\n 25235: a5 = a3 if a3 == 0\n 25238: a3 = u64 [sp + 0x20]\n 25241: ra = a3 + a5\n 25244: s1 = ra <u a3\n 25247: t0 = u64 [sp + 0x18]\n 25250: t0 = t0 + s1\n 25253: s1 = u64 [sp + 0x48]\n 25256: a5 = a2 ^ s1\n 25259: a2 = s1 <u a2\n 25262: s1 = u64 [sp + 0x40]\n 25265: a1 = s1 <u a1\n 25268: a1 = a2 if a5 != 0\n 25271: a2 = u64 [sp + 0x50]\n 25274: a2 = a2 + ra\n 25277: a5 = a2 <u ra\n 25280: u64 [sp + 0x58] = t2\n 25283: s1 = t0 + t2\n 25286: a5 = a5 + s1\n 25289: a0 = a0 + a2\n 25292: a2 = a0 <u a2\n 25295: a2 = a2 + a5\n 25298: s1 = u64 [sp + 0x28]\n 25301: a5 = a2 ^ s1\n 25304: a2 = s1 <u a2\n 25307: t2 = u64 [sp + 0x30]\n 25310: s1 = t2 <u a0\n 25313: s1 = a2 if a5 != 0\n 25316: a0 = a0 ^ t2\n 25319: a0 = a0 | a5\n 25322: a1 = s1 if a0 != 0\n 25325: jump @894 if a1 != 0\n      : @890 (gas: 19)\n 25328: a0 = u64 [sp + 0x38]\n 25331: a1 = u64 [sp + 0x8]\n 25334: u64 [a0 + 0x20] = a1\n 25337: u64 [a0] = a4\n 25339: a1 = u64 [sp + 0x10]\n 25342: u64 [a0 + 0x28] = a1\n 25345: u64 [a0 + 0x8] = t1\n 25348: a1 = u64 [sp + 0x50]\n 25351: u64 [a0 + 0x30] = a1\n 25354: u64 [a0 + 0x10] = ra\n 25357: a1 = u64 [sp + 0x58]\n 25360: u64 [a0 + 0x38] = a1\n 25363: u64 [a0 + 0x18] = t0\n 25366: sp = s0 + 0xffffffffffffff60\n 25370: ra = u64 [sp + 0x98]\n 25374: s0 = u64 [sp + 0x90]\n 25378: s1 = u64 [sp + 0x88]\n 25382: sp = sp + 0xa0\n 25386: ret\n      : @891 (gas: 1)\n 25388: trap\n      : @892 (gas: 2)\n 25389: a1 = 0x20250\n 25394: jump @895\n      : @893 (gas: 2)\n 25396: a1 = 0x20250\n 25401: jump @895\n      : @894 (gas: 2)\n 25403: a1 = 0x20250\n 25408: fallthrough\n      : @895 (gas: 6)\n 25409: i32 a1 = a1 + 0\n 25411: a0 = 0x1\n 25414: a2 = 0\n 25416: ra = 0x352\n 25420: ecalli 13 // 'seal_return'\n 25422: fallthrough\n      : @896 [@dyn 425] (gas: 14)\n 25423: sp = sp + 0xffffffffffffff00\n 25427: u64 [sp + 0xf8] = ra\n 25431: u64 [sp + 0xf0] = s0\n 25435: u64 [sp + 0xe8] = s1\n 25439: s0 = sp + 0x100\n 25443: sp = sp & 0xfffffffffffffff0\n 25446: a1 = u64 [a0 + 0x10]\n 25449: a2 = u64 [a0 + 0x18]\n 25452: a3 = u64 [a0 + 0x8]\n 25455: a0 = u64 [a0]\n 25457: a2 = a2 | a3\n 25460: a0 = a0 | a1\n 25463: a0 = a0 | a2\n 25466: jump @898 if a0 == 0\n      : @897 (gas: 6)\n 25469: sp = s0 + 0xffffffffffffff00\n 25473: ra = u64 [sp + 0xf8]\n 25477: s0 = u64 [sp + 0xf0]\n 25481: s1 = u64 [sp + 0xe8]\n 25485: sp = sp + 0x100\n 25489: ret\n      : @898 (gas: 3)\n 25491: a0 = sp + 0xc0\n 25495: a1 = 0x40\n 25498: ra = 852, jump @17\n      : @899 [@dyn 426] (gas: 15)\n 25504: a2 = u64 [sp + 0xd8]\n 25508: s1 = u64 [sp + 0xd0]\n 25512: a0 = u64 [sp + 0xc8]\n 25516: a1 = u64 [sp + 0xc0]\n 25520: u64 [sp + 0x10] = a0\n 25523: u64 [sp + 0x8] = a2\n 25526: a0 = a0 | a2\n 25529: u64 [sp + 0x18] = a1\n 25532: a1 = a1 | s1\n 25535: a1 = a1 | a0\n 25538: a1 = a1 >> 0x20\n 25541: a0 = a0 | s1\n 25544: a0 = a0 << 0x20\n 25547: a0 = a0 | a1\n 25550: jump @910 if a0 != 0\n      : @900 (gas: 8)\n 25554: u64 [sp + 176] = 0\n 25558: u64 [sp + 168] = 0\n 25562: u64 [sp + 160] = 0\n 25566: a0 = 0x8c379a000000000\n 25576: a1 = sp + 0xa0\n 25580: u64 [sp + 0xb8] = a0\n 25584: a0 = u64 [sp + 0x18]\n 25587: ra = 854, jump @19\n      : @901 [@dyn 427] (gas: 1)\n 25593: t0 = 856, jump @1111\n      : @902 [@dyn 428] (gas: 1)\n 25599: jump @910 if a0 == 0\n      : @903 (gas: 8)\n 25603: a0 = u64 [sp + 0x18]\n 25606: i32 a0 = a0 + 0x4\n 25609: u64 [sp + 152] = 0\n 25613: u64 [sp + 144] = 0\n 25617: u64 [sp + 128] = 0x20\n 25622: a1 = sp + 0x80\n 25626: u64 [sp + 136] = 0\n 25630: ra = 858, jump @19\n      : @904 [@dyn 429] (gas: 1)\n 25636: t0 = 860, jump @1114\n      : @905 [@dyn 430] (gas: 1)\n 25642: jump @910 if a0 == 0\n      : @906 (gas: 8)\n 25646: s1 = u64 [sp + 0x18]\n 25649: i32 a0 = s1 + 0x24\n 25652: u64 [sp + 120] = 0\n 25655: u64 [sp + 112] = 0\n 25658: u64 [sp + 96] = 0x24\n 25662: a1 = sp + 0x60\n 25665: u64 [sp + 104] = 0\n 25668: ra = 862, jump @19\n      : @907 [@dyn 431] (gas: 9)\n 25674: a0 = 0x100000000\n 25684: u64 [sp] = a0\n 25686: a0 = 0xffffffbc\n 25696: a0 = s1 <u a0\n 25699: a1 = u64 [sp + 0x10]\n 25702: a0 = 0 if a1 != 0\n 25704: a1 = u64 [sp + 0x8]\n 25707: a0 = 0 if a1 != 0\n 25709: jump @910 if a0 == 0\n      : @908 (gas: 12)\n 25712: s1 = u64 [sp + 0x18]\n 25715: i32 a0 = s1 + 0x44\n 25718: a1 = u64 [0x20180]\n 25723: u64 [sp + 0x58] = a1\n 25726: a1 = u64 [0x20188]\n 25731: a2 = u64 [0x20190]\n 25736: a3 = u64 [0x20198]\n 25741: u64 [sp + 0x50] = a1\n 25744: u64 [sp + 0x48] = a2\n 25747: a1 = sp + 0x40\n 25750: u64 [sp + 0x40] = a3\n 25753: ra = 864, jump @19\n      : @909 [@dyn 432] (gas: 8)\n 25759: a0 = u64 [sp]\n 25761: a0 = a0 + 0xffffffffffffff9c\n 25764: a0 = s1 <u a0\n 25767: a1 = u64 [sp + 0x10]\n 25770: a0 = 0 if a1 != 0\n 25772: a1 = u64 [sp + 0x8]\n 25775: a0 = 0 if a1 != 0\n 25777: jump @911 if a0 != 0\n      : @910 (gas: 1)\n 25780: trap\n      : @911 (gas: 9)\n 25781: s1 = u64 [sp + 0x18]\n 25784: i32 a0 = s1 + 0x64\n 25787: u64 [sp + 48] = 0\n 25790: u64 [sp + 40] = 0\n 25793: a1 = 0x7265737300000000\n 25803: u64 [sp + 0x38] = a1\n 25806: a1 = sp + 0x20\n 25809: u64 [sp + 32] = 0\n 25812: ra = 866, jump @19\n      : @912 [@dyn 433] (gas: 3)\n 25818: a1 = 0x84\n 25822: a0 = s1\n 25824: ra = 868, jump @31\n      : @913 [@dyn 434] (gas: 7)\n 25830: i32 a1 = a0 + 0\n 25832: a0 = 0x1\n 25835: a2 = 0x84\n 25839: ra = 0x366\n 25843: ecalli 13 // 'seal_return'\n 25845: t0 = 0x368\n 25849: jump @1113\n      : @914 [@dyn 435] (gas: 1)\n 25852: t0 = 872, jump @1113\n      : @915 [@dyn 436] (gas: 1)\n 25858: jump @918 if a0 == 0\n      : @916 (gas: 1)\n 25861: t0 = 874, jump @1137\n      : @917 [@dyn 437] (gas: 1)\n 25867: ret\n      : @918 (gas: 3)\n 25869: a0 = sp + 0xa0\n 25873: a1 = 0x40\n 25876: ra = 876, jump @17\n      : @919 [@dyn 438] (gas: 1)\n 25882: t0 = 878, jump @1112\n      : @920 [@dyn 439] (gas: 1)\n 25888: jump @931 if a0 != 0\n      : @921 (gas: 1)\n 25891: t0 = 880, jump @1118\n      : @922 [@dyn 440] (gas: 1)\n 25897: ra = 882, jump @19\n      : @923 [@dyn 441] (gas: 1)\n 25903: t0 = 884, jump @1111\n      : @924 [@dyn 442] (gas: 1)\n 25909: jump @931 if a0 == 0\n      : @925 (gas: 8)\n 25912: a0 = u64 [sp + 0x18]\n 25915: i32 a0 = a0 + 0x4\n 25918: u64 [sp + 120] = 0\n 25921: u64 [sp + 112] = 0\n 25924: u64 [sp + 104] = 0\n 25927: a1 = sp + 0x60\n 25930: u64 [sp + 96] = 0x20\n 25934: ra = 886, jump @19\n      : @926 [@dyn 443] (gas: 1)\n 25940: t0 = 888, jump @1114\n      : @927 [@dyn 444] (gas: 1)\n 25946: jump @931 if a0 == 0\n      : @928 (gas: 8)\n 25949: s1 = u64 [sp + 0x18]\n 25952: i32 a0 = s1 + 0x24\n 25955: u64 [sp + 88] = 0\n 25958: u64 [sp + 80] = 0\n 25961: u64 [sp + 64] = 0x20\n 25965: a1 = sp + 0x40\n 25968: u64 [sp + 72] = 0\n 25971: ra = 890, jump @19\n      : @929 [@dyn 445] (gas: 1)\n 25977: t0 = 892, jump @1115\n      : @930 [@dyn 446] (gas: 1)\n 25983: jump @932 if a0 != 0\n      : @931 (gas: 1)\n 25986: trap\n      : @932 (gas: 12)\n 25987: s1 = u64 [sp + 0x18]\n 25990: i32 a0 = s1 + 0x44\n 25993: a1 = u64 [0x201a0]\n 25998: u64 [sp + 0x38] = a1\n 26001: a1 = u64 [0x201a8]\n 26006: a2 = u64 [0x201b0]\n 26011: a3 = u64 [0x201b8]\n 26016: u64 [sp + 0x30] = a1\n 26019: u64 [sp + 0x28] = a2\n 26022: a1 = sp + 0x20\n 26025: u64 [sp + 0x20] = a3\n 26028: ra = 894, jump @19\n      : @933 [@dyn 447] (gas: 3)\n 26034: a1 = 0x64\n 26037: a0 = s1\n 26039: ra = 896, jump @31\n      : @934 [@dyn 448] (gas: 1)\n 26045: t0 = 898, jump @1155\n      : @935 [@dyn 449] (gas: 3)\n 26051: ra = 0x384\n 26055: ecalli 13 // 'seal_return'\n 26057: fallthrough\n      : @936 [@dyn 450] (gas: 53)\n 26058: sp = sp + 0xffffffffffffff90\n 26061: u64 [sp + 0x68] = ra\n 26064: u64 [sp + 0x60] = s0\n 26067: u64 [sp + 0x58] = s1\n 26070: s0 = sp + 0x70\n 26073: sp = sp & 0xfffffffffffffff0\n 26076: a3 = a1\n 26078: t2 = u64 [a1 + 0x10]\n 26081: a1 = u64 [a1 + 0x8]\n 26084: t0 = u64 [a2 + 0x8]\n 26087: s1 = u64 [a3]\n 26089: u64 [sp] = s1\n 26091: a4 = u64 [a2]\n 26093: u64 [sp + 0x8] = a4\n 26096: ra = u64 [a2 + 0x10]\n 26099: a5 = t0 ^ a1\n 26102: u64 [sp + 0x28] = a5\n 26105: a5 = t0 <u a1\n 26108: a4 = a4 <u s1\n 26111: t1 = u64 [sp + 0x28]\n 26114: a5 = a4 if t1 == 0\n 26117: s1 = a4\n 26119: a3 = u64 [a3 + 0x18]\n 26122: u64 [sp + 0x18] = a3\n 26125: a2 = u64 [a2 + 0x18]\n 26128: u64 [sp + 0x10] = a2\n 26131: a3 = ra - t2\n 26134: a2 = a3 - a5\n 26137: u64 [sp + 0x20] = a2\n 26140: a2 = a3 <u a5\n 26143: u64 [sp + 0x28] = t2\n 26146: a4 = ra <u t2\n 26149: t2 = u64 [sp + 0x18]\n 26152: a3 = u64 [sp + 0x10]\n 26155: a3 = a3 - t2\n 26158: a3 = a3 - a4\n 26161: a3 = a3 - a2\n 26164: a2 = t0 - a1\n 26167: a2 = a2 - s1\n 26170: t0 = u64 [sp]\n 26172: a4 = u64 [sp + 0x8]\n 26175: a4 = a4 - t0\n 26178: a5 = a2 >u 0\n 26180: a4 = a4 <u 0x20\n 26183: a4 = a4 ^ 0x1\n 26186: a4 = a5 if a2 != 0\n 26189: s1 = a3 >s 0\n 26191: a2 = u64 [sp + 0x20]\n 26194: a5 = a2 >u 0\n 26196: a5 = s1 if a3 != 0\n 26199: a2 = a2 | a3\n 26202: a4 = a5 if a2 != 0\n 26205: jump @942 if a4 == 0\n      : @937 (gas: 10)\n 26208: s1 = a0\n 26210: a3 = u64 [sp + 0x28]\n 26213: a0 = t0 | a3\n 26216: a2 = a1 | t2\n 26219: a0 = a0 | a2\n 26222: a0 = a0 >> 0x20\n 26225: a2 = a2 | a3\n 26228: a2 = a2 << 0x20\n 26231: a0 = a0 | a2\n 26234: jump @941 if a0 != 0\n      : @938 (gas: 3)\n 26237: a0 = sp + 0x30\n 26240: a1 = t0\n 26242: ra = 902, jump @17\n      : @939 [@dyn 451] (gas: 9)\n 26248: a0 = u64 [sp + 0x48]\n 26251: a1 = u64 [sp + 0x40]\n 26254: a2 = u64 [sp + 0x30]\n 26257: a3 = u64 [sp + 0x38]\n 26260: a4 = a1 | a0\n 26263: a5 = a2 <u 0x2\n 26266: a5 = 0 if a3 != 0\n 26268: a5 = 0 if a4 != 0\n 26270: jump @943 if a5 == 0\n      : @940 (gas: 10)\n 26273: u64 [s1] = a2\n 26275: u64 [s1 + 0x8] = a3\n 26278: u64 [s1 + 0x10] = a1\n 26281: u64 [s1 + 0x18] = a0\n 26284: sp = s0 + 0xffffffffffffff90\n 26287: ra = u64 [sp + 0x68]\n 26290: s0 = u64 [sp + 0x60]\n 26293: s1 = u64 [sp + 0x58]\n 26296: sp = sp + 0x70\n 26299: ret\n      : @941 (gas: 1)\n 26301: trap\n      : @942 (gas: 2)\n 26302: a1 = 0x20250\n 26307: jump @944\n      : @943 (gas: 2)\n 26309: a1 = 0x20250\n 26314: fallthrough\n      : @944 (gas: 7)\n 26315: i32 a1 = a1 + 0\n 26317: a0 = 0x1\n 26320: a2 = 0\n 26322: ra = 0x388\n 26326: ecalli 13 // 'seal_return'\n 26328: t0 = 0x38a\n 26332: jump @1113\n      : @945 [@dyn 452] (gas: 1)\n 26335: t0 = 906, jump @1113\n      : @946 [@dyn 453] (gas: 1)\n 26341: jump @949 if a0 == 0\n      : @947 (gas: 1)\n 26344: t0 = 908, jump @1137\n      : @948 [@dyn 454] (gas: 1)\n 26350: ret\n      : @949 (gas: 3)\n 26352: a0 = sp + 0xa0\n 26356: a1 = 0x40\n 26359: ra = 910, jump @17\n      : @950 [@dyn 455] (gas: 1)\n 26365: t0 = 912, jump @1112\n      : @951 [@dyn 456] (gas: 1)\n 26371: jump @963 if a0 != 0\n      : @952 (gas: 1)\n 26374: t0 = 914, jump @1118\n      : @953 [@dyn 457] (gas: 1)\n 26380: ra = 916, jump @19\n      : @954 [@dyn 458] (gas: 1)\n 26386: t0 = 918, jump @1111\n      : @955 [@dyn 459] (gas: 1)\n 26392: jump @963 if a0 == 0\n      : @956 (gas: 1)\n 26395: t0 = 920, jump @1121\n      : @957 [@dyn 460] (gas: 1)\n 26401: ra = 922, jump @19\n      : @958 [@dyn 461] (gas: 1)\n 26407: t0 = 924, jump @1114\n      : @959 [@dyn 462] (gas: 1)\n 26413: jump @963 if a0 == 0\n      : @960 (gas: 8)\n 26416: s1 = u64 [sp + 0x18]\n 26419: i32 a0 = s1 + 0x24\n 26422: u64 [sp + 88] = 0\n 26425: u64 [sp + 80] = 0\n 26428: u64 [sp + 64] = 0x1e\n 26432: a1 = sp + 0x40\n 26435: u64 [sp + 72] = 0\n 26438: ra = 926, jump @19\n      : @961 [@dyn 463] (gas: 1)\n 26444: t0 = 928, jump @1115\n      : @962 [@dyn 464] (gas: 1)\n 26450: jump @964 if a0 != 0\n      : @963 (gas: 1)\n 26453: trap\n      : @964 (gas: 12)\n 26454: s1 = u64 [sp + 0x18]\n 26457: i32 a0 = s1 + 0x44\n 26460: a1 = u64 [0x201c0]\n 26465: a2 = u64 [0x201c8]\n 26470: a3 = u64 [0x201d0]\n 26475: u64 [sp + 0x38] = a1\n 26478: u64 [sp + 0x30] = a2\n 26481: u64 [sp + 0x28] = a3\n 26484: a2 = 0x7468616e20300000\n 26494: a1 = sp + 0x20\n 26497: u64 [sp + 0x20] = a2\n 26500: ra = 930, jump @19\n      : @965 [@dyn 465] (gas: 3)\n 26506: a1 = 0x64\n 26509: a0 = s1\n 26511: ra = 932, jump @31\n      : @966 [@dyn 466] (gas: 1)\n 26517: t0 = 934, jump @1155\n      : @967 [@dyn 467] (gas: 4)\n 26523: ra = 0x3a8\n 26527: ecalli 13 // 'seal_return'\n 26529: t0 = 0x3aa\n 26533: jump @1113\n      : @968 [@dyn 468] (gas: 1)\n 26536: t0 = 938, jump @1113\n      : @969 [@dyn 469] (gas: 1)\n 26542: jump @972 if a0 == 0\n      : @970 (gas: 1)\n 26545: t0 = 940, jump @1137\n      : @971 [@dyn 470] (gas: 1)\n 26551: ret\n      : @972 (gas: 3)\n 26553: a0 = sp + 0xa0\n 26557: a1 = 0x40\n 26560: ra = 942, jump @17\n      : @973 [@dyn 471] (gas: 1)\n 26566: t0 = 944, jump @1112\n      : @974 [@dyn 472] (gas: 1)\n 26572: jump @986 if a0 != 0\n      : @975 (gas: 1)\n 26575: t0 = 946, jump @1118\n      : @976 [@dyn 473] (gas: 1)\n 26581: ra = 948, jump @19\n      : @977 [@dyn 474] (gas: 1)\n 26587: t0 = 950, jump @1111\n      : @978 [@dyn 475] (gas: 1)\n 26593: jump @986 if a0 == 0\n      : @979 (gas: 1)\n 26596: t0 = 952, jump @1121\n      : @980 [@dyn 476] (gas: 1)\n 26602: ra = 954, jump @19\n      : @981 [@dyn 477] (gas: 1)\n 26608: t0 = 956, jump @1114\n      : @982 [@dyn 478] (gas: 1)\n 26614: jump @986 if a0 == 0\n      : @983 (gas: 8)\n 26617: s1 = u64 [sp + 0x18]\n 26620: i32 a0 = s1 + 0x24\n 26623: u64 [sp + 88] = 0\n 26626: u64 [sp + 80] = 0\n 26629: u64 [sp + 64] = 0x1e\n 26633: a1 = sp + 0x40\n 26636: u64 [sp + 72] = 0\n 26639: ra = 958, jump @19\n      : @984 [@dyn 479] (gas: 1)\n 26645: t0 = 960, jump @1115\n      : @985 [@dyn 480] (gas: 1)\n 26651: jump @987 if a0 != 0\n      : @986 (gas: 1)\n 26654: trap\n      : @987 (gas: 12)\n 26655: s1 = u64 [sp + 0x18]\n 26658: i32 a0 = s1 + 0x44\n 26661: a1 = u64 [0x201d8]\n 26666: u64 [sp + 0x38] = a1\n 26669: a1 = u64 [0x201e0]\n 26674: a2 = u64 [0x201e8]\n 26679: a3 = u64 [0x201f0]\n 26684: u64 [sp + 0x30] = a1\n 26687: u64 [sp + 0x28] = a2\n 26690: a1 = sp + 0x20\n 26693: u64 [sp + 0x20] = a3\n 26696: ra = 962, jump @19\n      : @988 [@dyn 481] (gas: 3)\n 26702: a1 = 0x64\n 26705: a0 = s1\n 26707: ra = 964, jump @31\n      : @989 [@dyn 482] (gas: 1)\n 26713: t0 = 966, jump @1155\n      : @990 [@dyn 483] (gas: 4)\n 26719: ra = 0x3c8\n 26723: ecalli 13 // 'seal_return'\n 26725: t0 = 0x3ca\n 26729: jump @1113\n      : @991 [@dyn 484] (gas: 1)\n 26732: t0 = 970, jump @1113\n      : @992 [@dyn 485] (gas: 1)\n 26738: jump @995 if a0 == 0\n      : @993 (gas: 1)\n 26741: t0 = 972, jump @1137\n      : @994 [@dyn 486] (gas: 1)\n 26747: ret\n      : @995 (gas: 3)\n 26749: a0 = sp + 0xa0\n 26753: a1 = 0x40\n 26756: ra = 974, jump @17\n      : @996 [@dyn 487] (gas: 1)\n 26762: t0 = 976, jump @1112\n      : @997 [@dyn 488] (gas: 1)\n 26768: jump @1009 if a0 != 0\n      : @998 (gas: 1)\n 26771: t0 = 978, jump @1118\n      : @999 [@dyn 489] (gas: 1)\n 26777: ra = 980, jump @19\n      : @1000 [@dyn 490] (gas: 1)\n 26783: t0 = 982, jump @1111\n      : @1001 [@dyn 491] (gas: 1)\n 26789: jump @1009 if a0 == 0\n      : @1002 (gas: 1)\n 26792: t0 = 984, jump @1121\n      : @1003 [@dyn 492] (gas: 1)\n 26798: ra = 986, jump @19\n      : @1004 [@dyn 493] (gas: 1)\n 26804: t0 = 988, jump @1114\n      : @1005 [@dyn 494] (gas: 1)\n 26810: jump @1009 if a0 == 0\n      : @1006 (gas: 8)\n 26813: s1 = u64 [sp + 0x18]\n 26816: i32 a0 = s1 + 0x24\n 26819: u64 [sp + 88] = 0\n 26822: u64 [sp + 80] = 0\n 26825: u64 [sp + 64] = 0x1d\n 26829: a1 = sp + 0x40\n 26832: u64 [sp + 72] = 0\n 26835: ra = 990, jump @19\n      : @1007 [@dyn 495] (gas: 1)\n 26841: t0 = 992, jump @1115\n      : @1008 [@dyn 496] (gas: 1)\n 26847: jump @1010 if a0 != 0\n      : @1009 (gas: 1)\n 26850: trap\n      : @1010 (gas: 12)\n 26851: s1 = u64 [sp + 0x18]\n 26854: i32 a0 = s1 + 0x44\n 26857: a1 = u64 [0x201f8]\n 26862: a2 = u64 [0x20200]\n 26867: a3 = u64 [0x20208]\n 26872: u64 [sp + 0x38] = a1\n 26875: u64 [sp + 0x30] = a2\n 26878: u64 [sp + 0x28] = a3\n 26881: a2 = 0x6e74656e74000000\n 26891: a1 = sp + 0x20\n 26894: u64 [sp + 0x20] = a2\n 26897: ra = 994, jump @19\n      : @1011 [@dyn 497] (gas: 3)\n 26903: a1 = 0x64\n 26906: a0 = s1\n 26908: ra = 996, jump @31\n      : @1012 [@dyn 498] (gas: 1)\n 26914: t0 = 998, jump @1155\n      : @1013 [@dyn 499] (gas: 3)\n 26920: ra = 0x3e8\n 26924: ecalli 13 // 'seal_return'\n 26926: fallthrough\n      : @1014 [@dyn 500] (gas: 70)\n 26927: sp = sp + 0xffffffffffffff40\n 26931: u64 [sp + 0xb8] = ra\n 26935: u64 [sp + 0xb0] = s0\n 26939: u64 [sp + 0xa8] = s1\n 26943: s0 = sp + 0xc0\n 26947: sp = sp & 0xfffffffffffffff0\n 26950: ra = u64 [a2]\n 26952: t0 = u64 [a1]\n 26954: a3 = u64 [a1 + 0x8]\n 26957: u64 [sp + 0x58] = a0\n 26960: a4 = u64 [a2 + 0x8]\n 26963: a0 = t0 mulhu ra\n 26966: s1 = a3 * ra\n 26969: a0 = a0 + s1\n 26972: s1 = a0 <u s1\n 26975: a5 = a3 mulhu ra\n 26978: a5 = a5 + s1\n 26981: s1 = t0 * a4\n 26984: a0 = a0 + s1\n 26987: u64 [sp + 0x50] = a0\n 26990: a0 = a0 <u s1\n 26993: s1 = t0 mulhu a4\n 26996: a0 = a0 + s1\n 26999: a0 = a0 + a5\n 27002: a5 = a0 <u a5\n 27005: s1 = a3 mulhu a4\n 27008: a5 = a5 + s1\n 27011: s1 = a3 * a4\n 27014: a0 = a0 + s1\n 27017: u64 [sp + 0x48] = a0\n 27020: s1 = a0 <u s1\n 27023: a5 = a5 + s1\n 27026: u64 [sp + 0x40] = a5\n 27029: t1 = u64 [a2 + 0x10]\n 27032: a2 = u64 [a2 + 0x18]\n 27035: t2 = u64 [a1 + 0x18]\n 27038: a0 = u64 [a1 + 0x10]\n 27041: a5 = a3 * t1\n 27044: u64 [sp + 0x20] = a2\n 27047: s1 = a2 * t0\n 27050: a1 = s1 + a5\n 27053: u64 [sp + 0x28] = a4\n 27056: s1 = a4 * a0\n 27059: a2 = t2 * ra\n 27062: a2 = a2 + s1\n 27065: s1 = t1 * t0\n 27068: a5 = a0 * ra\n 27071: s1 = s1 + a5\n 27074: u64 [sp + 0x30] = t1\n 27077: a4 = t1 mulhu t0\n 27080: u64 [sp + 0x10] = a4\n 27083: a4 = a4 + a1\n 27086: t1 = a0 mulhu ra\n 27089: a1 = t1 + a2\n 27092: a2 = s1 <u a5\n 27095: u64 [sp + 0x18] = a1\n 27098: u64 [sp + 0x8] = a4\n 27101: a5 = a1 + a4\n 27104: a2 = a2 + a5\n 27107: u64 [sp + 0x38] = t2\n 27110: a5 = a3 | t2\n 27113: a1 = t0 | a0\n 27116: a1 = a1 | a5\n 27119: a4 = u64 [sp + 0x40]\n 27122: a5 = u64 [sp + 0x48]\n 27125: s1 = s1 + a5\n 27128: t2 = s1 <u a5\n 27131: a2 = a2 + a4\n 27134: a2 = a2 + t2\n 27137: jump @1016 if a1 == 0\n      : @1015 (gas: 50)\n 27141: a1 = a2 ^ a4\n 27144: u64 [sp + 0x48] = a2\n 27147: a2 = u64 [sp + 0x48]\n 27150: a2 = a2 <u a4\n 27153: t2 = a2 if a1 != 0\n 27156: u64 [sp + 0x40] = s1\n 27159: a1 = u64 [sp + 0x10]\n 27162: a2 = u64 [sp + 0x8]\n 27165: s1 = a2 <u a1\n 27168: a2 = a3 >u 0\n 27170: a1 = u64 [sp + 0x20]\n 27173: a5 = a1 >u 0\n 27175: a2 = a2 & a5\n 27178: a5 = a1 mulhu t0\n 27181: a5 = a5 >u 0\n 27183: a2 = a2 | a5\n 27186: a4 = t1\n 27188: t1 = u64 [sp + 0x30]\n 27191: a3 = a3 mulhu t1\n 27194: a3 = a3 >u 0\n 27196: a2 = a2 | a3\n 27199: a2 = a2 | s1\n 27202: u64 [sp + 0x10] = a2\n 27205: a2 = u64 [sp + 0x18]\n 27208: a2 = a2 <u a4\n 27211: a4 = u64 [sp + 0x28]\n 27214: a3 = a4 >u 0\n 27216: s1 = u64 [sp + 0x38]\n 27219: a5 = s1 >u 0\n 27221: a3 = a3 & a5\n 27224: a5 = s1 mulhu ra\n 27227: a5 = a5 >u 0\n 27229: a3 = a3 | a5\n 27232: a5 = a4 mulhu a0\n 27235: a5 = a5 >u 0\n 27237: a3 = a3 | a5\n 27240: a2 = a2 | a3\n 27243: a3 = t1 | a1\n 27246: a5 = a0 | s1\n 27249: s1 = u64 [sp + 0x40]\n 27252: a3 = a3 >u 0\n 27254: a5 = a5 >u 0\n 27256: a3 = a3 & a5\n 27259: a2 = a2 | a3\n 27262: a1 = u64 [sp + 0x10]\n 27265: a1 = a1 | a2\n 27268: a2 = u64 [sp + 0x48]\n 27271: a0 = a1 | t2\n 27274: a0 = a0 & 0x1\n 27277: jump @1017 if a0 != 0\n      : @1016 (gas: 13)\n 27280: a0 = t0 * ra\n 27283: a1 = u64 [sp + 0x58]\n 27286: u64 [a1] = a0\n 27288: a0 = u64 [sp + 0x50]\n 27291: u64 [a1 + 0x8] = a0\n 27294: u64 [a1 + 0x10] = s1\n 27297: u64 [a1 + 0x18] = a2\n 27300: sp = s0 + 0xffffffffffffff40\n 27304: ra = u64 [sp + 0xb8]\n 27308: s0 = u64 [sp + 0xb0]\n 27312: s1 = u64 [sp + 0xa8]\n 27316: sp = sp + 0xc0\n 27320: ret\n      : @1017 (gas: 8)\n 27322: u64 [sp + 144] = 0\n 27326: u64 [sp + 136] = 0\n 27330: u64 [sp + 128] = 0\n 27334: a0 = 0x4e487b7100000000\n 27344: a1 = sp + 0x80\n 27348: u64 [sp + 0x98] = a0\n 27352: a0 = 0\n 27354: ra = 1002, jump @19\n      : @1018 [@dyn 501] (gas: 7)\n 27360: u64 [sp + 120] = 0\n 27363: u64 [sp + 112] = 0\n 27366: u64 [sp + 96] = 0x11\n 27370: a0 = 0x4\n 27373: a1 = sp + 0x60\n 27376: u64 [sp + 104] = 0\n 27379: ra = 1004, jump @19\n      : @1019 [@dyn 502] (gas: 2)\n 27385: a1 = i32 [0x2023c]\n 27390: jump @1021 if a1 >u 63\n      : @1020 (gas: 2)\n 27394: u32 [0x2023c] = 0x40\n 27400: fallthrough\n      : @1021 (gas: 7)\n 27401: a1 = 0x20250\n 27406: i32 a1 = a1 + 0\n 27408: a0 = 0x1\n 27411: a2 = 0x24\n 27414: ra = 0x3ee\n 27418: ecalli 13 // 'seal_return'\n 27420: fallthrough\n      : @1022 [@dyn 503] (gas: 30)\n 27421: sp = sp + 0xffffffffffffff80\n 27424: u64 [sp + 0x78] = ra\n 27427: u64 [sp + 0x70] = s0\n 27430: u64 [sp + 0x68] = s1\n 27433: s0 = sp + 0x80\n 27437: sp = sp & 0xfffffffffffffff0\n 27440: a4 = u64 [a2]\n 27442: a3 = u64 [a1]\n 27444: s1 = u64 [a2 + 0x8]\n 27447: t1 = u64 [a1 + 0x8]\n 27450: t2 = u64 [a2 + 0x10]\n 27453: a5 = u64 [a1 + 0x10]\n 27456: a2 = u64 [a2 + 0x18]\n 27459: a1 = u64 [a1 + 0x18]\n 27462: t0 = t1 ^ s1\n 27465: u64 [sp + 0x8] = s1\n 27468: s1 = t1 <u s1\n 27471: u64 [sp + 0x18] = a4\n 27474: u64 [sp + 0x10] = a3\n 27477: a3 = a3 <u a4\n 27480: u64 [sp] = a3\n 27482: s1 = a3 if t0 == 0\n 27485: a3 = a1 ^ a2\n 27488: ra = a1 <u a2\n 27491: t0 = a5 <u t2\n 27494: ra = t0 if a3 == 0\n 27497: a4 = a5 ^ t2\n 27500: a3 = a3 | a4\n 27503: ra = s1 if a3 == 0\n 27506: jump @1024 if ra != 0\n      : @1023 (gas: 23)\n 27509: a3 = a5 - t2\n 27512: a1 = a1 - a2\n 27515: a1 = a1 - t0\n 27518: a2 = a3 <u s1\n 27521: a1 = a1 - a2\n 27524: a3 = a3 - s1\n 27527: a2 = u64 [sp + 0x8]\n 27530: a2 = t1 - a2\n 27533: a4 = u64 [sp]\n 27535: a2 = a2 - a4\n 27538: a4 = u64 [sp + 0x18]\n 27541: a5 = u64 [sp + 0x10]\n 27544: a4 = a5 - a4\n 27547: u64 [a0] = a4\n 27549: u64 [a0 + 0x8] = a2\n 27552: u64 [a0 + 0x10] = a3\n 27555: u64 [a0 + 0x18] = a1\n 27558: sp = s0 + 0xffffffffffffff80\n 27561: ra = u64 [sp + 0x78]\n 27564: s0 = u64 [sp + 0x70]\n 27567: s1 = u64 [sp + 0x68]\n 27570: sp = sp + 0x80\n 27574: ret\n      : @1024 (gas: 8)\n 27576: u64 [sp + 80] = 0\n 27579: u64 [sp + 72] = 0\n 27582: u64 [sp + 64] = 0\n 27585: a0 = 0x4e487b7100000000\n 27595: a1 = sp + 0x40\n 27598: u64 [sp + 0x58] = a0\n 27601: a0 = 0\n 27603: ra = 1008, jump @19\n      : @1025 [@dyn 504] (gas: 7)\n 27609: u64 [sp + 56] = 0\n 27612: u64 [sp + 48] = 0\n 27615: u64 [sp + 32] = 0x11\n 27619: a0 = 0x4\n 27622: a1 = sp + 0x20\n 27625: u64 [sp + 40] = 0\n 27628: ra = 1010, jump @19\n      : @1026 [@dyn 505] (gas: 2)\n 27634: a1 = i32 [0x2023c]\n 27639: jump @1028 if a1 >u 63\n      : @1027 (gas: 2)\n 27643: u32 [0x2023c] = 0x40\n 27649: fallthrough\n      : @1028 (gas: 7)\n 27650: a1 = 0x20250\n 27655: i32 a1 = a1 + 0\n 27657: a0 = 0x1\n 27660: a2 = 0x24\n 27663: ra = 0x3f4\n 27667: ecalli 13 // 'seal_return'\n 27669: fallthrough\n      : @1029 [@dyn 506] (gas: 23)\n 27670: sp = sp + 0xffffffffffffff10\n 27674: u64 [sp + 0xe8] = ra\n 27678: u64 [sp + 0xe0] = s0\n 27682: u64 [sp + 0xd8] = s1\n 27686: s0 = sp + 0xf0\n 27690: sp = sp & 0xfffffffffffffff0\n 27693: s1 = u64 [a1 + 0x10]\n 27696: t0 = u64 [a1 + 0x18]\n 27699: a5 = u64 [a1 + 0x8]\n 27702: a1 = u64 [a1]\n 27704: u64 [sp + 0x68] = a5\n 27707: u64 [sp + 0x58] = t0\n 27710: t1 = a5 | t0\n 27713: t0 = a1\n 27715: a5 = a1 | s1\n 27718: a5 = a5 | t1\n 27721: a5 = a5 >> 0x20\n 27724: u64 [sp + 0x60] = s1\n 27727: a1 = t1 | s1\n 27730: a1 = a1 << 0x20\n 27733: a1 = a1 | a5\n 27736: u64 [sp + 0x50] = a0\n 27739: jump @1036 if a1 != 0\n      : @1030 (gas: 27)\n 27743: a0 = u64 [a4 + 0x18]\n 27746: u64 [sp + 0x20] = a0\n 27749: a0 = u64 [a4 + 0x10]\n 27752: u64 [sp + 0x18] = a0\n 27755: a0 = u64 [a4 + 0x8]\n 27758: u64 [sp + 0x10] = a0\n 27761: a0 = u64 [a4]\n 27763: u64 [sp + 0x8] = a0\n 27766: a0 = u64 [a3 + 0x10]\n 27769: u64 [sp + 0x30] = a0\n 27772: a0 = u64 [a3 + 0x8]\n 27775: u64 [sp + 0x38] = a0\n 27778: a0 = u64 [a3]\n 27780: u64 [sp + 0x40] = a0\n 27783: a0 = u64 [a2 + 0x10]\n 27786: a1 = u64 [a2 + 0x8]\n 27789: a2 = u64 [a2]\n 27791: a0 = a0 << 0x20\n 27794: a0 = a0 >> 0x20\n 27797: u64 [sp + 200] = 0\n 27801: u64 [sp + 0xb0] = a2\n 27805: u64 [sp + 0xb8] = a1\n 27809: a1 = sp + 0xb0\n 27813: u64 [sp + 0xc0] = a0\n 27817: s1 = t0\n 27819: a0 = t0\n 27821: ra = 1014, jump @19\n      : @1031 [@dyn 507] (gas: 12)\n 27827: a0 = u64 [sp + 0x60]\n 27830: a1 = u64 [sp + 0x58]\n 27833: a2 = a0 | a1\n 27836: a0 = 0x100000000\n 27846: u64 [sp + 0x28] = a0\n 27849: a0 = 0xffffffe0\n 27859: a0 = s1 <u a0\n 27862: a1 = u64 [sp + 0x68]\n 27865: a0 = 0 if a1 != 0\n 27867: u64 [sp + 0x48] = a2\n 27870: a0 = 0 if a2 != 0\n 27872: jump @1036 if a0 == 0\n      : @1032 (gas: 14)\n 27876: a1 = 0xffffffff\n 27886: a2 = u64 [sp + 0x30]\n 27889: a2 = a2 & a1\n 27892: a1 = u64 [sp + 0x38]\n 27895: a1 = a1 & 0xffffffffffffffff\n 27898: a3 = u64 [sp + 0x40]\n 27901: a3 = a3 & 0xffffffffffffffff\n 27904: i32 a0 = s1 + 0x20\n 27907: u64 [sp + 168] = 0\n 27911: u64 [sp + 0x90] = a3\n 27915: u64 [sp + 0x98] = a1\n 27919: a1 = sp + 0x90\n 27923: u64 [sp + 0xa0] = a2\n 27927: ra = 1016, jump @19\n      : @1033 [@dyn 508] (gas: 8)\n 27933: a0 = u64 [sp + 0x28]\n 27936: a0 = a0 + 0xffffffffffffffc0\n 27939: a0 = s1 <u a0\n 27942: a1 = u64 [sp + 0x68]\n 27945: a0 = 0 if a1 != 0\n 27947: a1 = u64 [sp + 0x48]\n 27950: a0 = 0 if a1 != 0\n 27952: jump @1036 if a0 == 0\n      : @1034 (gas: 26)\n 27956: a0 = s1 + 0x60\n 27959: u64 [sp + 0x48] = a0\n 27962: a0 = a0 <u s1\n 27965: a1 = u64 [sp + 0x68]\n 27968: a2 = a1 + a0\n 27971: u64 [sp + 0x40] = a2\n 27974: a1 = a2 <u a1\n 27977: a1 = a0 if a0 == 0\n 27980: a0 = u64 [sp + 0x60]\n 27983: a1 = a1 + a0\n 27986: u64 [sp + 0x38] = a1\n 27989: a0 = a1 <u a0\n 27992: a1 = u64 [sp + 0x58]\n 27995: a0 = a0 + a1\n 27998: u64 [sp + 0x68] = a0\n 28001: i32 a0 = s1 + 0x40\n 28004: a1 = u64 [sp + 0x8]\n 28007: u64 [sp + 0x70] = a1\n 28010: a1 = u64 [sp + 0x10]\n 28013: u64 [sp + 0x78] = a1\n 28016: a1 = u64 [sp + 0x18]\n 28019: u64 [sp + 0x80] = a1\n 28023: a1 = sp + 0x70\n 28026: a2 = u64 [sp + 0x20]\n 28029: u64 [sp + 0x88] = a2\n 28033: ra = 1018, jump @19\n      : @1035 [@dyn 509] (gas: 15)\n 28039: a0 = u64 [sp + 0x50]\n 28042: a1 = u64 [sp + 0x38]\n 28045: u64 [a0 + 0x10] = a1\n 28048: a1 = u64 [sp + 0x40]\n 28051: u64 [a0 + 0x8] = a1\n 28054: a1 = u64 [sp + 0x48]\n 28057: u64 [a0] = a1\n 28059: a1 = u64 [sp + 0x68]\n 28062: u64 [a0 + 0x18] = a1\n 28065: sp = s0 + 0xffffffffffffff10\n 28069: ra = u64 [sp + 0xe8]\n 28073: s0 = u64 [sp + 0xe0]\n 28077: s1 = u64 [sp + 0xd8]\n 28081: sp = sp + 0xf0\n 28085: ret\n      : @1036 (gas: 1)\n 28087: trap\n      : @1037 [@dyn 510] (gas: 1)\n 28088: jump @1040 if a0 == 0\n      : @1038 (gas: 1)\n 28091: t0 = 1022, jump @1137\n      : @1039 [@dyn 511] (gas: 1)\n 28097: ret\n      : @1040 (gas: 3)\n 28099: a0 = sp + 0xa0\n 28103: a1 = 0x40\n 28106: ra = 1024, jump @17\n      : @1041 [@dyn 512] (gas: 1)\n 28112: t0 = 1026, jump @1112\n      : @1042 [@dyn 513] (gas: 1)\n 28118: jump @1054 if a0 != 0\n      : @1043 (gas: 1)\n 28121: t0 = 1028, jump @1118\n      : @1044 [@dyn 514] (gas: 1)\n 28127: ra = 1030, jump @19\n      : @1045 [@dyn 515] (gas: 1)\n 28133: t0 = 1032, jump @1111\n      : @1046 [@dyn 516] (gas: 1)\n 28139: jump @1054 if a0 == 0\n      : @1047 (gas: 1)\n 28142: t0 = 1034, jump @1121\n      : @1048 [@dyn 517] (gas: 1)\n 28148: ra = 1036, jump @19\n      : @1049 [@dyn 518] (gas: 1)\n 28154: t0 = 1038, jump @1114\n      : @1050 [@dyn 519] (gas: 1)\n 28160: jump @1054 if a0 == 0\n      : @1051 (gas: 8)\n 28163: s1 = u64 [sp + 0x18]\n 28166: i32 a0 = s1 + 0x24\n 28169: u64 [sp + 88] = 0\n 28172: u64 [sp + 80] = 0\n 28175: u64 [sp + 64] = 0x13\n 28179: a1 = sp + 0x40\n 28182: u64 [sp + 72] = 0\n 28185: ra = 1040, jump @19\n      : @1052 [@dyn 520] (gas: 1)\n 28191: t0 = 1042, jump @1115\n      : @1053 [@dyn 521] (gas: 1)\n 28197: jump @1055 if a0 != 0\n      : @1054 (gas: 1)\n 28200: trap\n      : @1055 (gas: 11)\n 28201: s1 = u64 [sp + 0x18]\n 28204: i32 a0 = s1 + 0x44\n 28207: a1 = u64 [0x20210]\n 28212: a2 = u64 [0x20218]\n 28217: u64 [sp + 0x38] = a1\n 28220: u64 [sp + 0x30] = a2\n 28223: a1 = 0x6c65640000000000\n 28233: u64 [sp + 0x28] = a1\n 28236: a1 = sp + 0x20\n 28239: u64 [sp + 32] = 0\n 28242: ra = 1044, jump @19\n      : @1056 [@dyn 522] (gas: 3)\n 28248: a1 = 0x64\n 28251: a0 = s1\n 28253: ra = 1046, jump @31\n      : @1057 [@dyn 523] (gas: 1)\n 28259: t0 = 1048, jump @1155\n      : @1058 [@dyn 524] (gas: 4)\n 28265: ra = 0x41a\n 28269: ecalli 13 // 'seal_return'\n 28271: t0 = 0x41c\n 28275: jump @1113\n      : @1059 [@dyn 525] (gas: 1)\n 28278: t0 = 1052, jump @1113\n      : @1060 [@dyn 526] (gas: 1)\n 28284: jump @1063 if a0 == 0\n      : @1061 (gas: 1)\n 28287: t0 = 1054, jump @1137\n      : @1062 [@dyn 527] (gas: 1)\n 28293: ret\n      : @1063 (gas: 3)\n 28295: a0 = sp + 0xa0\n 28299: a1 = 0x40\n 28302: ra = 1056, jump @17\n      : @1064 [@dyn 528] (gas: 1)\n 28308: t0 = 1058, jump @1112\n      : @1065 [@dyn 529] (gas: 1)\n 28314: jump @1077 if a0 != 0\n      : @1066 (gas: 1)\n 28317: t0 = 1060, jump @1118\n      : @1067 [@dyn 530] (gas: 1)\n 28323: ra = 1062, jump @19\n      : @1068 [@dyn 531] (gas: 1)\n 28329: t0 = 1064, jump @1111\n      : @1069 [@dyn 532] (gas: 1)\n 28335: jump @1077 if a0 == 0\n      : @1070 (gas: 1)\n 28338: t0 = 1066, jump @1121\n      : @1071 [@dyn 533] (gas: 1)\n 28344: ra = 1068, jump @19\n      : @1072 [@dyn 534] (gas: 1)\n 28350: t0 = 1070, jump @1114\n      : @1073 [@dyn 535] (gas: 1)\n 28356: jump @1077 if a0 == 0\n      : @1074 (gas: 8)\n 28359: s1 = u64 [sp + 0x18]\n 28362: i32 a0 = s1 + 0x24\n 28365: u64 [sp + 88] = 0\n 28368: u64 [sp + 80] = 0\n 28371: u64 [sp + 64] = 0x17\n 28375: a1 = sp + 0x40\n 28378: u64 [sp + 72] = 0\n 28381: ra = 1072, jump @19\n      : @1075 [@dyn 536] (gas: 1)\n 28387: t0 = 1074, jump @1115\n      : @1076 [@dyn 537] (gas: 1)\n 28393: jump @1078 if a0 != 0\n      : @1077 (gas: 1)\n 28396: trap\n      : @1078 (gas: 11)\n 28397: s1 = u64 [sp + 0x18]\n 28400: i32 a0 = s1 + 0x44\n 28403: a1 = u64 [0x20220]\n 28408: a2 = u64 [0x20228]\n 28413: a3 = u64 [0x20230]\n 28418: u64 [sp + 0x38] = a1\n 28421: u64 [sp + 0x30] = a2\n 28424: u64 [sp + 0x28] = a3\n 28427: a1 = sp + 0x20\n 28430: u64 [sp + 32] = 0\n 28433: ra = 1076, jump @19\n      : @1079 [@dyn 538] (gas: 3)\n 28439: a1 = 0x64\n 28442: a0 = s1\n 28444: ra = 1078, jump @31\n      : @1080 [@dyn 539] (gas: 1)\n 28450: t0 = 1080, jump @1155\n      : @1081 [@dyn 540] (gas: 3)\n 28456: ra = 0x43a\n 28460: ecalli 13 // 'seal_return'\n 28462: fallthrough\n      : @1082 [@dyn 541] (gas: 9)\n 28463: sp = sp + 0xfffffffffffffec0\n 28467: u64 [sp + 0x138] = ra\n 28471: u64 [sp + 0x130] = s0\n 28475: u64 [sp + 0x128] = s1\n 28479: s0 = sp + 0x140\n 28483: sp = sp & 0xffffffffffffffe0\n 28486: s1 = a0\n 28488: ecalli 12 // 'return_data_size'\n 28490: fallthrough\n      : @1083 (gas: 1)\n 28491: jump @1096 if a0 == 0\n      : @1084 (gas: 11)\n 28495: u64 [sp + 0x18] = s1\n 28498: ecalli 12 // 'return_data_size'\n 28500: a2 = a0\n 28502: u64 [sp + 248] = 0\n 28506: u64 [sp + 240] = 0\n 28510: u64 [sp + 232] = 0\n 28514: a0 = sp + 0x100\n 28518: a1 = sp + 0xe0\n 28522: u64 [sp + 0x20] = a2\n 28525: u64 [sp + 0xe0] = a2\n 28529: ra = 1084, jump @878\n      : @1085 [@dyn 542] (gas: 11)\n 28535: a0 = u64 [sp + 0x100]\n 28539: u64 [sp + 0x40] = a0\n 28542: a0 = u64 [sp + 0x108]\n 28546: u64 [sp + 0x38] = a0\n 28549: a0 = u64 [sp + 0x110]\n 28553: u64 [sp + 0x30] = a0\n 28556: a0 = u64 [sp + 0x118]\n 28560: u64 [sp + 0x28] = a0\n 28563: a0 = sp + 0xc0\n 28567: a1 = 0x40\n 28570: ra = 1086, jump @17\n      : @1086 [@dyn 543] (gas: 22)\n 28576: a0 = u64 [sp + 0xd8]\n 28580: u64 [sp + 0x58] = a0\n 28583: s1 = u64 [sp + 0xd0]\n 28587: a2 = u64 [sp + 0xc8]\n 28591: u64 [sp + 0x50] = a2\n 28594: a3 = u64 [sp + 0xc0]\n 28598: u64 [sp + 0x48] = a3\n 28601: a1 = u64 [sp + 0x28]\n 28604: u64 [sp + 0x98] = a1\n 28608: a1 = u64 [sp + 0x30]\n 28611: u64 [sp + 0x90] = a1\n 28615: a1 = u64 [sp + 0x38]\n 28618: u64 [sp + 0x88] = a1\n 28622: a1 = u64 [sp + 0x40]\n 28625: u64 [sp + 0x80] = a1\n 28629: u64 [sp + 0xb8] = a0\n 28633: u64 [sp + 0xb0] = s1\n 28637: u64 [sp + 0xa8] = a2\n 28641: a0 = sp + 0xa0\n 28645: a1 = sp + 0x80\n 28649: u64 [sp + 0xa0] = a3\n 28653: ra = 1088, jump @869\n      : @1087 [@dyn 544] (gas: 12)\n 28659: a0 = u64 [sp + 0x48]\n 28662: a1 = u64 [sp + 0x58]\n 28665: a2 = u64 [sp + 0x50]\n 28668: a2 = a2 | a1\n 28671: a1 = a0 | s1\n 28674: a1 = a1 | a2\n 28677: a1 = a1 >> 0x20\n 28680: u64 [sp + 0x40] = s1\n 28683: a2 = a2 | s1\n 28686: a2 = a2 << 0x20\n 28689: a1 = a1 | a2\n 28692: jump @1095 if a1 != 0\n      : @1088 (gas: 7)\n 28696: u64 [sp + 120] = 0\n 28699: u64 [sp + 112] = 0\n 28702: u64 [sp + 104] = 0\n 28705: a1 = sp + 0x60\n 28708: a2 = u64 [sp + 0x20]\n 28711: u64 [sp + 0x60] = a2\n 28714: ra = 1090, jump @19\n      : @1089 [@dyn 545] (gas: 2)\n 28720: ecalli 12 // 'return_data_size'\n 28722: fallthrough\n      : @1090 (gas: 10)\n 28723: a3 = u64 [sp + 0x48]\n 28726: a1 = u64 [sp + 0x40]\n 28729: a2 = u64 [sp + 0x58]\n 28732: a1 = a1 | a2\n 28735: a2 = 0xffffffe0\n 28745: a2 = a3 <u a2\n 28748: a4 = u64 [sp + 0x50]\n 28751: a2 = 0 if a4 != 0\n 28753: a2 = 0 if a1 != 0\n 28755: jump @1095 if a2 == 0\n      : @1091 (gas: 3)\n 28758: s1 = a0\n 28760: a0 = a0 >> 0x20\n 28763: jump @1095 if a0 != 0\n      : @1092 (gas: 5)\n 28766: i32 a0 = a3 + 0x20\n 28769: i32 a1 = s1 + 0\n 28771: u64 [sp + 0x38] = a1\n 28774: a1 = s1\n 28776: ra = 1092, jump @31\n      : @1093 [@dyn 546] (gas: 6)\n 28782: u32 [sp + 0x120] = s1\n 28786: i32 a0 = a0 + 0\n 28788: i32 a1 = sp + 0x120\n 28792: a2 = 0\n 28794: ecalli 11 // 'return_data_copy'\n 28796: fallthrough\n      : @1094 (gas: 8)\n 28797: a4 = u64 [sp + 0x48]\n 28800: a0 = i32 [sp + 0x120]\n 28804: s1 = u64 [sp + 0x18]\n 28807: a1 = u64 [sp + 0x58]\n 28810: a2 = u64 [sp + 0x40]\n 28813: a3 = u64 [sp + 0x50]\n 28816: a5 = u64 [sp + 0x38]\n 28819: jump @1097 if a0 >=u a5\n      : @1095 (gas: 1)\n 28822: trap\n      : @1096 (gas: 5)\n 28823: a3 = 0\n 28825: a2 = 0\n 28827: a1 = 0\n 28829: a4 = 0x60\n 28832: fallthrough\n      : @1097 (gas: 10)\n 28833: u64 [s1] = a4\n 28835: u64 [s1 + 0x8] = a3\n 28838: u64 [s1 + 0x10] = a2\n 28841: u64 [s1 + 0x18] = a1\n 28844: sp = s0 + 0xfffffffffffffec0\n 28848: ra = u64 [sp + 0x138]\n 28852: s0 = u64 [sp + 0x130]\n 28856: s1 = u64 [sp + 0x128]\n 28860: sp = sp + 0x140\n 28864: ret\n      : @1098 (gas: 13)\n 28866: sp = sp + 0xffffffffffffff40\n 28870: u64 [sp + 0xb8] = ra\n 28874: u64 [sp + 0xb0] = s0\n 28878: u64 [sp + 0xa8] = s1\n 28882: s0 = sp + 0xc0\n 28886: sp = sp & 0xffffffffffffffe0\n 28889: u64 [sp + 152] = 0\n 28893: u64 [sp + 144] = 0\n 28897: u64 [sp + 136] = 0\n 28901: u64 [sp + 128] = 0\n 28905: a0 = sp + 0x60\n 28908: a1 = sp + 0x80\n 28912: ra = 1094, jump @21\n      : @1099 [@dyn 547] (gas: 11)\n 28918: a0 = u64 [sp + 0x68]\n 28921: u64 [sp + 0x18] = a0\n 28924: a0 = u64 [sp + 0x60]\n 28927: u64 [sp + 0x10] = a0\n 28930: a0 = u32 [sp + 0x70]\n 28933: u64 [sp + 0x8] = a0\n 28936: s1 = 0x30250\n 28941: i32 a0 = s1 + 0\n 28943: u64 [sp] = a0\n 28945: ecalli 6 // 'caller'\n 28947: fallthrough\n      : @1100 (gas: 22)\n 28948: a0 = u64 [0x30258]\n 28953: a1 = u64 [0x30250]\n 28958: a2 = i32 [0x30260]\n 28963: a0 = reverse a0\n 28965: a3 = a0 >> 0x20\n 28968: a1 = reverse a1\n 28970: a4 = a1 << 0x20\n 28973: a3 = a3 | a4\n 28976: a0 = a0 << 0x20\n 28979: a2 = reverse a2\n 28981: a2 = a2 >> 0x20\n 28984: a0 = a0 | a2\n 28987: a1 = a1 >> 0x20\n 28990: a2 = u64 [sp + 0x8]\n 28993: a1 = a1 ^ a2\n 28996: a2 = u64 [sp + 0x10]\n 28999: a0 = a0 ^ a2\n 29002: a0 = a0 | a1\n 29005: a1 = u64 [sp + 0x18]\n 29008: a1 = a1 ^ a3\n 29011: a0 = a0 | a1\n 29014: jump @1102 if a0 != 0\n      : @1101 (gas: 6)\n 29017: sp = s0 + 0xffffffffffffff40\n 29021: ra = u64 [sp + 0xb8]\n 29025: s0 = u64 [sp + 0xb0]\n 29029: s1 = u64 [sp + 0xa8]\n 29033: sp = sp + 0xc0\n 29037: ret\n      : @1102 (gas: 8)\n 29039: u64 [sp + 80] = 0\n 29042: u64 [sp + 72] = 0\n 29045: u64 [sp + 64] = 0\n 29048: a0 = 0x118cdaa700000000\n 29058: a1 = sp + 0x40\n 29061: u64 [sp + 0x58] = a0\n 29064: a0 = 0\n 29066: ra = 1096, jump @19\n      : @1103 [@dyn 548] (gas: 4)\n 29072: a0 = u64 [sp]\n 29074: ra = 0x44a\n 29078: ecalli 6 // 'caller'\n 29080: fallthrough\n      : @1104 [@dyn 549] (gas: 4)\n 29081: a0 = u64 [s1 + 0x8]\n 29084: a1 = i32 [s1 + 0x10]\n 29087: a2 = u64 [s1]\n 29089: t0 = 1100, jump @1138\n      : @1105 [@dyn 550] (gas: 7)\n 29095: u64 [sp + 56] = 0\n 29098: u64 [sp + 0x30] = a1\n 29101: u64 [sp + 0x28] = a0\n 29104: a0 = 0x4\n 29107: a1 = sp + 0x20\n 29110: u64 [sp + 0x20] = a3\n 29113: ra = 1102, jump @19\n      : @1106 [@dyn 551] (gas: 2)\n 29119: a1 = i32 [0x2023c]\n 29124: jump @1108 if a1 >u 63\n      : @1107 (gas: 2)\n 29128: u32 [0x2023c] = 0x40\n 29134: fallthrough\n      : @1108 (gas: 8)\n 29135: a1 = 0x20250\n 29140: i32 a1 = a1 + 0\n 29142: a0 = 0x1\n 29145: a2 = 0x24\n 29148: ecalli 13 // 'seal_return'\n 29150: a0 = 0\n 29152: ra = 0x450\n 29156: jump @37\n      : @1109 [export #0: 'call'] (gas: 2)\n 29159: a0 = 0\n 29161: ra = 1104, jump @37\n      : @1110 [@dyn 552] [export #1: 'deploy'] (gas: 2)\n 29167: a0 = 0x1\n 29170: ra = 1106, jump @37\n      : @1111 [@dyn 553] (gas: 11)\n 29176: a2 = u64 [sp + 0x8]\n 29179: a2 = a2 | s1\n 29182: s1 = 0x100000000\n 29192: a0 = 0xfffffffc\n 29202: a1 = u64 [sp + 0x18]\n 29205: a0 = a1 <u a0\n 29208: a1 = u64 [sp + 0x10]\n 29211: a0 = 0 if a1 != 0\n 29213: u64 [sp + 0x8] = a2\n 29216: a0 = 0 if a2 != 0\n 29218: jump [t0]\n      : @1112 (gas: 15)\n 29220: a2 = u64 [sp + 0xb8]\n 29224: s1 = u64 [sp + 0xb0]\n 29228: a0 = u64 [sp + 0xa8]\n 29232: a1 = u64 [sp + 0xa0]\n 29236: u64 [sp + 0x10] = a0\n 29239: u64 [sp + 0x8] = a2\n 29242: a0 = a0 | a2\n 29245: u64 [sp + 0x18] = a1\n 29248: a1 = a1 | s1\n 29251: a1 = a1 | a0\n 29254: a1 = a1 >> 0x20\n 29257: a0 = a0 | s1\n 29260: a0 = a0 << 0x20\n 29263: a0 = a0 | a1\n 29266: jump [t0]\n      : @1113 (gas: 14)\n 29268: sp = sp + 0xffffffffffffff20\n 29272: u64 [sp + 0xd8] = ra\n 29276: u64 [sp + 0xd0] = s0\n 29280: u64 [sp + 0xc8] = s1\n 29284: s0 = sp + 0xe0\n 29288: sp = sp & 0xfffffffffffffff0\n 29291: a1 = u64 [a0 + 0x10]\n 29294: a2 = u64 [a0 + 0x18]\n 29297: a3 = u64 [a0 + 0x8]\n 29300: a0 = u64 [a0]\n 29302: a2 = a2 | a3\n 29305: a0 = a0 | a1\n 29308: a0 = a0 | a2\n 29311: jump [t0]\n      : @1114 (gas: 8)\n 29313: a0 = s1 + 0xffffffffffffffdc\n 29316: a1 = u64 [sp + 0x18]\n 29319: a0 = a1 <u a0\n 29322: a1 = u64 [sp + 0x10]\n 29325: a0 = 0 if a1 != 0\n 29327: a1 = u64 [sp + 0x8]\n 29330: a0 = 0 if a1 != 0\n 29332: jump [t0]\n      : @1115 (gas: 7)\n 29334: a0 = 0xffffffbc\n 29344: a0 = s1 <u a0\n 29347: a1 = u64 [sp + 0x10]\n 29350: a0 = 0 if a1 != 0\n 29352: a1 = u64 [sp + 0x8]\n 29355: a0 = 0 if a1 != 0\n 29357: jump [t0]\n      : @1116 (gas: 15)\n 29359: a0 = u64 [a2 + 0x8]\n 29362: a1 = i32 [a2 + 0x10]\n 29365: a2 = u64 [a2]\n 29367: a0 = reverse a0\n 29369: a3 = a0 << 0x20\n 29372: a1 = reverse a1\n 29374: a1 = a1 >> 0x20\n 29377: a3 = a3 | a1\n 29380: a0 = a0 >> 0x20\n 29383: a1 = reverse a2\n 29385: a2 = a1 << 0x20\n 29388: a0 = a0 | a2\n 29391: a1 = a1 >> 0x20\n 29394: a2 = s1 + 0x1100\n 29398: jump [t0]\n      : @1117 (gas: 13)\n 29400: a4 = s1 + 0x100\n 29404: a1 = u64 [a4 + 0x70]\n 29407: a2 = u64 [a4 + 0x60]\n 29410: a1 = a1 | a2\n 29413: a3 = u64 [a4 + 0x68]\n 29416: a2 = u64 [a4 + 0x78]\n 29419: a2 = a2 | a3\n 29422: a2 = a2 | a1\n 29425: a2 = a2 >> 0x20\n 29428: a1 = a1 | a3\n 29431: a1 = a1 << 0x20\n 29434: a1 = a1 | a2\n 29437: jump [t0]\n      : @1118 (gas: 8)\n 29439: u64 [sp + 144] = 0\n 29443: u64 [sp + 136] = 0\n 29447: u64 [sp + 128] = 0\n 29451: a0 = 0x8c379a000000000\n 29461: a1 = sp + 0x80\n 29465: u64 [sp + 0x98] = a0\n 29469: a0 = u64 [sp + 0x18]\n 29472: jump [t0]\n      : @1119 (gas: 11)\n 29474: a4 = a4 + a1\n 29477: a1 = a4 <u a1\n 29480: a1 = a1 + a3\n 29483: a1 = a1 | a2\n 29486: a2 = a0 | a4\n 29489: a2 = a2 | a1\n 29492: a1 = a1 | a4\n 29495: a2 = a2 >> 0x20\n 29498: a1 = a1 << 0x20\n 29501: a1 = a1 | a2\n 29504: jump [t0]\n      : @1120 (gas: 12)\n 29506: a5 = s1 + 0x100\n 29510: a1 = u64 [a5 + 0x78]\n 29513: a0 = u64 [a5 + 0x68]\n 29516: a3 = u64 [a5 + 0x60]\n 29519: a3 = a3 | a0\n 29522: a4 = 0x100000000\n 29532: a0 = 0xfffffffc\n 29542: a0 = a1 <u a0\n 29545: a2 = u64 [a5 + 0x70]\n 29548: a0 = 0 if a2 != 0\n 29550: a0 = 0 if a3 != 0\n 29552: jump [t0]\n      : @1121 (gas: 8)\n 29554: a0 = u64 [sp + 0x18]\n 29557: i32 a0 = a0 + 0x4\n 29560: u64 [sp + 120] = 0\n 29563: u64 [sp + 112] = 0\n 29566: u64 [sp + 96] = 0x20\n 29570: a1 = sp + 0x60\n 29573: u64 [sp + 104] = 0\n 29576: jump [t0]\n      : @1122 (gas: 8)\n 29578: a0 = u64 [a2 + 0x8]\n 29581: a1 = i32 [a2 + 0x10]\n 29584: a2 = u64 [a2]\n 29586: a3 = reverse a0\n 29588: a0 = a3 << 0x20\n 29591: a1 = reverse a1\n 29593: a1 = a1 >> 0x20\n 29596: jump [t0]\n      : @1123 (gas: 13)\n 29598: a3 = a3 + a5\n 29601: a4 = a4 + a3\n 29604: a5 = a3 <u a5\n 29607: a3 = a4 <u a3\n 29610: a2 = a2 + a5\n 29613: a2 = a2 + a3\n 29616: a2 = a2 | a4\n 29619: a3 = 0xffffff80\n 29629: u64 [s1 + 0x170] = a3\n 29633: a3 = a0 <u a3\n 29636: a3 = 0 if a1 != 0\n 29638: a3 = 0 if a2 != 0\n 29640: jump [t0]\n      : @1124 (gas: 6)\n 29642: a2 = a2 + a4\n 29645: a2 = a2 + a1\n 29648: a3 = a2 ^ a4\n 29651: a4 = a2 <u a4\n 29654: a4 = a1 if a3 == 0\n 29657: jump [t0]\n      : @1125 (gas: 15)\n 29659: a3 = u64 [s1 + 0x178]\n 29663: a0 = u64 [a3 + 0x18]\n 29666: a1 = u64 [a3 + 0x10]\n 29669: a2 = u64 [a3 + 0x8]\n 29672: a3 = u64 [a3]\n 29674: a0 = reverse a0\n 29676: a4 = reverse a1\n 29678: a2 = reverse a2\n 29680: a3 = reverse a3\n 29682: a1 = u64 [s1 + 0x170]\n 29686: u64 [a1 + 0x18] = a3\n 29689: u64 [a1 + 0x10] = a2\n 29692: u64 [a1 + 0x8] = a4\n 29695: u64 [a1] = a0\n 29697: jump [t0]\n      : @1126 (gas: 12)\n 29699: a5 = 0\n 29701: t1 = 0\n 29703: a3 = s1 + 0x100\n 29707: a2 = u64 [a3 + 0x10]\n 29710: a1 = 0 if a2 == 0\n 29712: a0 = 0 if a2 == 0\n 29714: a4 = 0x64\n 29717: u64 [a3 + 16] = 0x63\n 29721: a2 = 0\n 29723: u64 [a3 + 8] = 0\n 29726: t2 = u64 [s1 + 0x130]\n 29730: jump [t0]\n      : @1127 (gas: 14)\n 29732: a3 = u64 [s1 + 0x140]\n 29736: a4 = u64 [s1 + 0x148]\n 29740: a2 = u64 [s1 + 0x150]\n 29744: a2 = a2 | a4\n 29747: a4 = s1 + 0x100\n 29751: a5 = u64 [a4 + 0x78]\n 29754: a5 = a5 | a3\n 29757: a2 = a2 | a5\n 29760: a3 = u64 [a4 + 0x18]\n 29763: a1 = 0 if a3 == 0\n 29765: u64 [a4 + 0x58] = a1\n 29768: a0 = 0 if a3 == 0\n 29770: u64 [a4 + 0x70] = a0\n 29773: jump [t0]\n      : @1128 (gas: 11)\n 29775: a2 = u64 [s1 + 0x110]\n 29779: a1 = a1 | a2\n 29782: a3 = u64 [s1 + 0x178]\n 29786: a4 = a3 <u 0x80\n 29790: u64 [s1 + 0x110] = a4\n 29794: a2 = u64 [s1 + 0x108]\n 29798: a1 = a2 if a4 == 0\n 29801: a2 = u64 [s1 + 0x130]\n 29805: a2 = a1 if a3 != 0\n 29808: u64 [s1 + 0x130] = a2\n 29812: jump [t0]\n      : @1129 (gas: 14)\n 29814: a0 = u64 [a2 + 0x8]\n 29817: a1 = i32 [a2 + 0x10]\n 29820: a2 = u64 [a2]\n 29822: a0 = reverse a0\n 29824: a3 = a0 << 0x20\n 29827: a1 = reverse a1\n 29829: a1 = a1 >> 0x20\n 29832: a3 = a3 | a1\n 29835: a0 = a0 >> 0x20\n 29838: a1 = reverse a2\n 29840: a2 = a1 << 0x20\n 29843: a2 = a2 | a0\n 29846: a1 = a1 >> 0x20\n 29849: jump [t0]\n      : @1130 (gas: 11)\n 29851: a3 = u64 [s1 + 0x178]\n 29855: a0 = u64 [a3 + 0x18]\n 29858: a1 = u64 [a3 + 0x10]\n 29861: a2 = u64 [a3 + 0x8]\n 29864: a3 = u64 [a3]\n 29866: a0 = reverse a0\n 29868: a1 = reverse a1\n 29870: a2 = reverse a2\n 29872: a3 = reverse a3\n 29874: a4 = s1 + 0x1918\n 29878: jump [t0]\n      : @1131 (gas: 11)\n 29880: a5 = s1 + 0x100\n 29884: a1 = u64 [a5 + 0x58]\n 29887: a2 = reverse a1\n 29889: a1 = u64 [a5 + 0x40]\n 29892: a1 = reverse a1\n 29894: a3 = u64 [a5 + 0x48]\n 29897: a3 = reverse a3\n 29899: a4 = u64 [a5 + 0x50]\n 29902: a4 = reverse a4\n 29904: a5 = s1 + 0x1100\n 29908: jump [t0]\n      : @1132 (gas: 10)\n 29910: ra = u64 [s1 + 0x160]\n 29914: a4 = ra >> 0x3f\n 29917: a4 = a4 | a2\n 29920: u64 [s1 + 0x138] = a4\n 29924: a2 = u64 [s1 + 0x108]\n 29928: a1 = a2 ^ a3\n 29931: u64 [s1 + 0x120] = a1\n 29935: a1 = a2 <u a3\n 29938: a5 = u64 [s1 + 0x110]\n 29942: jump [t0]\n      : @1133 (gas: 4)\n 29944: a0 = a0 | a1\n 29947: a0 = a0 >u 0\n 29949: a1 = s1 + 0x1100\n 29953: jump [t0]\n      : @1134 (gas: 9)\n 29955: a1 = a1 <u 0x20\n 29958: a1 = a1 ^ 0x1\n 29961: a1 = a0 if a3 != 0\n 29964: a0 = a3 >u 0\n 29966: a2 = a3 >u 0\n 29968: a2 = a0 if a3 == 0\n 29971: a0 = a3 | a3\n 29974: a2 = a1 if a0 == 0\n 29977: jump [t0]\n      : @1135 (gas: 9)\n 29979: a1 = a2 <u a4\n 29982: t1 = u64 [s1 + 0x128]\n 29986: a5 = a2 - t1\n 29989: a5 = a5 - a1\n 29992: a5 = a5 - a0\n 29995: ra = a5 >>a 0x3f\n 29998: a0 = ra & 0x64\n 30001: a1 = u64 [s1 + 0x138]\n 30005: jump [t0]\n      : @1136 (gas: 5)\n 30007: a0 = a0 + 0xffffffffffffffdc\n 30010: a0 = a1 <u a0\n 30013: a0 = 0 if a2 != 0\n 30015: a0 = 0 if a3 != 0\n 30017: jump [t0]\n      : @1137 (gas: 6)\n 30019: sp = s0 + 0xffffffffffffff20\n 30023: ra = u64 [sp + 0xd8]\n 30027: s0 = u64 [sp + 0xd0]\n 30031: s1 = u64 [sp + 0xc8]\n 30035: sp = sp + 0xe0\n 30039: jump [t0]\n      : @1138 (gas: 11)\n 30041: a0 = reverse a0\n 30043: a3 = a0 << 0x20\n 30046: a1 = reverse a1\n 30048: a1 = a1 >> 0x20\n 30051: a3 = a3 | a1\n 30054: a0 = a0 >> 0x20\n 30057: a1 = reverse a2\n 30059: a2 = a1 << 0x20\n 30062: a0 = a0 | a2\n 30065: a1 = a1 >> 0x20\n 30068: jump [t0]\n      : @1139 (gas: 11)\n 30070: a5 = s1 + 0x100\n 30074: a0 = u64 [a5 + 0x50]\n 30077: a0 = a0 & 0xffffffffffffffff\n 30080: a2 = u64 [a5 + 0x58]\n 30083: a1 = a2 & 0xffffffffffffffff\n 30086: a2 = u64 [a5 + 0x60]\n 30089: a3 = u64 [a5 + 0x48]\n 30092: a2 = a2 & a3\n 30095: a3 = 0x1918\n 30099: a4 = s1 + a3\n 30102: jump [t0]\n      : @1140 (gas: 9)\n 30104: u64 [s1 + 0x158] = a0\n 30108: a0 = u64 [s1 + 0x160]\n 30112: a0 = a0 | a1\n 30115: u64 [s1 + 0x160] = a0\n 30119: a0 = u64 [s1 + 0x170]\n 30123: a2 = a0 + 0xffffffffffffff80\n 30126: a0 = u64 [s1 + 0x138]\n 30130: a1 = u64 [s1 + 0x130]\n 30134: jump [t0]\n      : @1141 (gas: 6)\n 30136: i32 a0 = a2 + 0\n 30138: u64 [s1 + 0x170] = a0\n 30142: a0 = u64 [s1 + 0x178]\n 30146: a1 = a2\n 30148: u64 [s1 + 0x168] = a2\n 30152: jump [t0]\n      : @1142 (gas: 8)\n 30154: a2 = a3 | a4\n 30157: a1 = a0 | a5\n 30160: a1 = a1 | a2\n 30163: a1 = a1 >> 0x20\n 30166: a2 = a2 | a5\n 30169: a2 = a2 << 0x20\n 30172: a1 = a1 | a2\n 30175: jump [t0]\n      : @1143 (gas: 10)\n 30177: a1 = u64 [s1 + 0x158]\n 30181: a0 = u64 [a1 + 0x18]\n 30184: u64 [s1 + 0x150] = a0\n 30188: a0 = u64 [a1 + 0x10]\n 30191: u64 [s1 + 0x148] = a0\n 30195: a0 = u64 [a1 + 0x8]\n 30198: u64 [s1 + 0x140] = a0\n 30202: a0 = u64 [a1]\n 30204: u64 [s1 + 0x158] = a0\n 30208: jump [t0]\n      : @1144 (gas: 10)\n 30210: a0 = u64 [s1 + 0x78]\n 30213: a1 = u64 [s1 + 0xe0]\n 30217: u64 [a1 + 0x8] = a0\n 30220: a0 = u64 [s1 + 0x110]\n 30224: u64 [a1] = a0\n 30226: a0 = u64 [s1 + 0x108]\n 30230: u32 [a1 + 0x10] = a0\n 30233: a0 = 0x2118\n 30237: a2 = s1 + a0\n 30240: jump [t0]\n      : @1145 (gas: 13)\n 30242: a4 = s1 + 0x100\n 30246: a5 = u64 [a4 + 0x78]\n 30249: a2 = u64 [a4 + 0x70]\n 30252: a0 = a5 | a2\n 30255: a1 = u64 [a4 + 0x68]\n 30258: a3 = u64 [a4 + 0x60]\n 30261: a1 = a1 | a3\n 30264: a0 = a0 | a1\n 30267: a0 = a0 >> 0x20\n 30270: a1 = a1 | a2\n 30273: a1 = a1 << 0x20\n 30276: a0 = a0 | a1\n 30279: jump [t0]\n      : @1146 (gas: 12)\n 30281: a3 = u64 [a1 + 0x38]\n 30284: a4 = u64 [a1 + 0x30]\n 30287: a5 = u64 [a1 + 0x28]\n 30290: a0 = u64 [a1 + 0x20]\n 30293: a2 = a5 | a3\n 30296: a1 = a0 | a4\n 30299: a1 = a1 | a2\n 30302: a1 = a1 >> 0x20\n 30305: a2 = a2 | a4\n 30308: a2 = a2 << 0x20\n 30311: a1 = a1 | a2\n 30314: jump [t0]\n      : @1147 (gas: 9)\n 30316: a0 = u64 [a1 + 0xd8]\n 30320: u64 [s1 + 0x170] = a0\n 30324: a0 = u64 [a1 + 0xd0]\n 30328: u64 [s1 + 0x168] = a0\n 30332: a0 = u64 [a1 + 0xc8]\n 30336: u64 [s1 + 0x160] = a0\n 30340: a0 = u64 [a1 + 0xc0]\n 30344: u64 [s1 + 0x178] = a0\n 30348: jump [t0]\n      : @1148 (gas: 7)\n 30350: a4 = 0x100000000\n 30360: a0 = 0xfffffffc\n 30370: a0 = a1 <u a0\n 30373: a2 = u64 [a5 + 0x18]\n 30376: a0 = 0 if a2 != 0\n 30378: a0 = 0 if a3 != 0\n 30380: jump [t0]\n      : @1149 (gas: 8)\n 30382: a2 = 0x100000000\n 30392: a2 = a2 ^ a0\n 30395: a2 = a2 | a1\n 30398: a3 = a0 >> 0x20\n 30401: a3 = a3 <u 0x1\n 30404: a3 = 0 if a1 != 0\n 30406: a3 = 0 if a2 == 0\n 30408: jump [t0]\n      : @1150 (gas: 8)\n 30410: a1 = 0x100000000\n 30420: a1 = a1 ^ a4\n 30423: a1 = a1 | a0\n 30426: a2 = a4 >> 0x20\n 30429: a2 = a2 <u 0x1\n 30432: a2 = 0 if a0 != 0\n 30434: a2 = 0 if a1 == 0\n 30436: jump [t0]\n      : @1151 (gas: 8)\n 30438: a0 = a0 | a1\n 30441: a1 = u64 [s1 + 0x118]\n 30445: a0 = a1 if a4 == 0\n 30448: a1 = u64 [s1 + 0x138]\n 30452: a1 = a0 if a3 != 0\n 30455: a2 = a3\n 30457: u64 [s1 + 0x138] = a1\n 30461: jump [t0]\n      : @1152 (gas: 9)\n 30463: a1 = u64 [sp]\n 30465: a1 = reverse a1\n 30467: a2 = u64 [sp + 0x8]\n 30470: a2 = reverse a2\n 30472: a3 = u64 [sp + 0x10]\n 30475: a3 = reverse a3\n 30477: a4 = u64 [sp + 0x18]\n 30480: a4 = reverse a4\n 30482: jump [t0]\n      : @1153 (gas: 10)\n 30484: a3 = s1 + a0\n 30487: a4 = a3 + 0x500\n 30491: a0 = u64 [a4 + 0xb8]\n 30495: a1 = u64 [a4 + 0xc0]\n 30499: a2 = u64 [a4 + 0xb0]\n 30503: a3 = u64 [a4 + 0xa8]\n 30507: a1 = a1 | a2\n 30510: a0 = a0 | a3\n 30513: a0 = a0 | a1\n 30516: jump [t0]\n      : @1154 (gas: 7)\n 30518: a1 = a4 if a2 == 0\n 30521: u64 [s1 + 0x160] = a1\n 30525: a1 = u64 [s1 + 0x168]\n 30529: a4 = u64 [s1 + 0x158]\n 30533: a1 = a1 | a4\n 30536: a1 = a0 if a3 == 0\n 30539: jump [t0]\n      : @1155 (gas: 4)\n 30541: i32 a1 = a0 + 0\n 30543: a0 = 0x1\n 30546: a2 = 0x64\n 30549: jump [t0]\n      : @1156 (gas: 4)\n 30551: a0 = 0x1918\n 30555: a3 = s1 + a0\n 30558: a4 = a3 + 0x600\n 30562: jump [t0]\n      : @1157 (gas: 7)\n 30564: a0 = sp + 0xffffffffffffffe0\n 30567: a0 = a0 & 0xffffffffffffffe0\n 30570: u64 [s1 + 0x178] = a0\n 30574: sp = a0\n 30576: i32 a2 = a0 + 0\n 30578: a1 = 0x40\n 30581: jump [t0]\n      : @1158 (gas: 6)\n 30583: u64 [s1 + 0x118] = a0\n 30587: u64 [s1 + 0x108] = a1\n 30591: a0 = u64 [s1 + 0x138]\n 30595: a1 = u64 [s1 + 0x130]\n 30599: a2 = u64 [s1 + 0x178]\n 30603: jump [t0]\n      : @1159 (gas: 8)\n 30605: a0 = u64 [a4 + 0x38]\n 30608: a1 = u64 [a4 + 0x40]\n 30611: a2 = u64 [a4 + 0x30]\n 30614: a3 = u64 [a4 + 0x28]\n 30617: a1 = a1 | a2\n 30620: a0 = a0 | a3\n 30623: a0 = a0 | a1\n 30626: jump [t0]\n      : @1160 (gas: 8)\n 30628: a1 = sp + 0xffffffffffffffe0\n 30631: a1 = a1 & 0xffffffffffffffe0\n 30634: u64 [s1 + 0x178] = a1\n 30638: sp = a1\n 30640: i32 a0 = a0 + 0\n 30642: i32 a2 = a1 + 0\n 30644: a1 = u64 [s1 + 0x88]\n 30648: jump [t0]\n      : @1161 (gas: 8)\n 30650: a1 = sp + 0xffffffffffffffe0\n 30653: a1 = a1 & 0xffffffffffffffe0\n 30656: u64 [s1 + 0x178] = a1\n 30660: sp = a1\n 30662: i32 a0 = a0 + 0\n 30664: i32 a2 = a1 + 0\n 30666: a1 = u64 [s1 + 0x30]\n 30669: jump [t0]\n      : @1162 (gas: 6)\n 30671: a2 = u64 [s1 + 0x170]\n 30675: a3 = a2 <u 0x80\n 30679: u64 [s1 + 0x118] = a3\n 30683: a4 = u64 [s1 + 0x160]\n 30687: a1 = a4 if a3 != 0\n 30690: jump [t0]\n      : @1163 (gas: 2)\n 30692: a3 = a2 & 0x40\n 30695: jump @1167 if a3 != 0\n      : @1164 (gas: 1)\n 30698: jump @1166 if a2 == 0\n      : @1165 (gas: 6)\n 30701: i32 a3 = 0x40 - a2\n 30704: a3 = a1 << a3\n 30707: a1 = a1 >> a2\n 30710: a0 = a0 >> a2\n 30713: a0 = a0 | a3\n 30716: ret\n      : @1166 (gas: 1)\n 30718: ret\n      : @1167 (gas: 4)\n 30720: a0 = a2 + 0xffffffffffffffc0\n 30723: a0 = a1 >> a0\n 30726: a1 = 0\n 30728: ret\n      : @1168 (gas: 2)\n 30730: a3 = a2 & 0x40\n 30733: jump @1172 if a3 != 0\n      : @1169 (gas: 1)\n 30736: jump @1171 if a2 == 0\n      : @1170 (gas: 6)\n 30739: i32 a3 = 0x40 - a2\n 30742: a3 = a0 >> a3\n 30745: a0 = a0 << a2\n 30748: a1 = a1 << a2\n 30751: a1 = a1 | a3\n 30754: ret\n      : @1171 (gas: 1)\n 30756: ret\n      : @1172 (gas: 4)\n 30758: a1 = a2 + 0xffffffffffffffc0\n 30761: a1 = a0 << a1\n 30764: a0 = 0\n 30766: ret\n","bytecode":{"object":"50564d0000108f000000000000010700c17002c00080038238145916539c07e08b84f2a4d01fcd4413afdaa322977f4919e057646b6f18b4e36963657220656546616320746e65697020656220746f6e6e646461206f72657a145916539c07e08b84f2a4d01fcd4413afdaa322977f4919e057646b6f18b4e32f74abc3e51fc20bbaff77445c5bd1f178802218e66711cf1d337fbede5e62fa6963657220656546616320746e65697020656220746f6e6e646461206f72657abce4ee4f7dab942f3cf811126c78b718182bec47fa9288c861d2d179f3a239ca687469772048544566206c6177617264338c74d291fe175807fc3780a7d868f1a713368eecf6da3a3d56e4fa2c4ad4586369666675736e4948544520746e656965636e616c6162206b6f7420746e6569776f6c6c61206e659f923cb6108b8ac944c4a0b40b389977f932874df7eb13c7d1aa21410315c944206f6f742065654667dd2e4f3c46dd11b27a0c1350f0856b4454cbbe522f83f58a49a14a40929ab06977206e656b6f546c617761726468740064656c696166206e616c6162206e656461206e656b6f54616320737365726420656220746f6e6e646461206f72657a6e65697069636552746f6e6e616320746f72657a20656220737365726464612020746e656d796150206562207473756d207265746165726720726f74616572436220746f6e6e616361206f72657a206500007373657264642079646165726c41726f6620646961706f632073696874206e61727420656546696166207265667320726f7461657243726566736e6172740064656c696166200481141100000000070000000e00000012000000200000002e0000003c000000420000004f0000005a00000069000000760000008600000096000000a1000000b3000000be0000006164647265737362616c616e636563616c6c63616c6c5f646174615f636f707963616c6c5f646174615f6c6f616463616c6c5f646174615f73697a6563616c6c65726465706f7369745f6576656e746765745f73746f72616765686173685f6b656363616b5f3235367265665f74696d655f6c65667472657475726e5f646174615f636f707972657475726e5f646174615f73697a657365616c5f72657475726e7365745f696d6d757461626c655f646174617365745f73746f7261676576616c75655f7472616e73666572726564051302c0e7710463616c6cc0ef71066465706c6f7906c08e8b822902c030789b00e3019b03a003c903ce0380048704fd044e0591051e0629064406de0662076e071f084908a708f5082c098709c709d209060a540a600ade0afa0a230b370b420b670b200c310c970cab0cc90c2f0d480d850d8a0db90dce0df50da20ed00ee10e490f8f0fc20fce0fd70f1010201053107310d410e410bb11ca11dd112f129a12b012dc12f21216137013e8131614a814b2141b1548155e1598159e15ca15e01504165416d416051788178e17c5176f18fb180d197c19a719ca19df19f919191a231a3b1a441a621aa21aa81ab51abb1a371b461b621b841b901ba51be21be81bf51bfb1b191c471c6a1cc11cd51def1df51dfb1d011e0b1e241e2a1e5e1e641e6a1e8b1e341f3a1f8d1fcd1f6120c920bb21cc21e8213e226c228a22e022122382239423a423eb2323245e247f248524a724bc242a253825552577259d250126072637267926e4262f273d27ba27e8274d285a2885281c297b299c29bb29da29f929192a232a432a4c2a6e2ab42aba2ac72acd2a4f2b602b7c2b9e2baa2bc52b042c0a2c492c732c962c422d562e702e762e7c2e822e8c2ea52eab2edd2e1f2f2c2f462f862fdd2f40301631233192313d329b32f9320f3337339433a133a733b733c133ce33d433eb33f1333a349934af34e6343835733584355236c636f0365b37b337f5374a386d387338793896389c38a538b338b938dc385e39603a993a083b9f3ba93bd33bfd3b5d3c6e3c4f3d5e3d763dd43d3c3ea03eea3e6f3f753f7b3f993f9f3fa93fb73fbd3fe03f62409141d841bf42ea42a943d043e543ef430c4415443744514482449044b044c144dd44ff443c4556455c4569456f457945be45cb4529469a46c846d94617473f47af47d847e347fd477c489648a048ad48b348ca48d0484049b349ce49034a094a1c4a224a694a9c4a2d4b424b4c4b174c884c8e4cd14ce24cc34d4d4e854e964e114f264f304f045075507b50c250d350a65132526d5278528a52b352df52fb52305382539153ad53cf5315542e5434544154475455549a54ab541b559055bf55ce550c563a568f56ca56d556ed567b579857d157d757f8572c586158675886584d5abc5ac25a2b5b935b9d5b0d5c1b5c845ca65ced5c585d5e5dc65ddc5dfe5d565ec95e055f285f555f755f815fb85f7f60b560ce60f2606a618161a5614f63a063f963ff6324642a644a649f64da64e664fc6402650b651a65206529652f65356554655a6579657f65b265bd65c365ca658866df66e566ee66fd6603670c6712671867216727672d674c6752678a6795679b67a867ae67b767c667cc67d567db67e167ea67f067f66715681b684e6859685f686c6872687b688a68906899689f68a568ae68b468ba68d968df681769226928692f69e06af96a1d6bd96bf26b166cb36c1d6d876db86dc16dd06dd66ddf6de56deb6df46dfa6d006e1f6e256e586e636e696e766e7c6e856e946e9a6ea36ea96eaf6eb86ebe6ec46ee36ee96e176f226f286f2f6f776fa06ff36f30706e70f67090719971a771bf71ef71f871aa876e978a2098aa20977b2098bb20c89b0bc9ba0a979b019abbaeab20ae873751094ec87909647a017c8b95880195ac0178ab64caab9cf42836510934c87909647a017c8b95880195ac0178ab64caab9cf4281c51091a839aff01c8a80b7cbb9599ffc8a70c78cb83aaff5209f0320039084002025108b90a330770020383770a0e28ac0a9511f07b10087b1564896475330820649750100269047c78017c797c7a027c7b03978808d4980897aa1097bb18d4ba0ad4a8087c79057c7a047c7b067c7c07979908d4a90997bb1097cc18d4cb0bd4b909979920d489027c79097c7a087c7b0a7c7c0b979908d4a90997bb1097cc18d4cb0bd4b9097c7a0d7c7b0c7c7c0e7c780f97aa08d4ba0a97cc10978818d4c808d4a808978820d498037c78117c7a107c7b127c7c13978808d4a80897bb1097cc18d4cb0bd4b8087c7a157c7b147c7c167c791797aa08d4ba0a97cc10979918d4c909d4a909979920d4890a7c78197c79187c7b1a7c7c1b978808d4980897bb1097cc18d4cb0bd4b8087c791d7c7b1c7c7c1e7c771f979908d4b90997cc10977718d4c707d49707977720d487076f776fa86f396f2a7b5a187b59107b58087b57821008821595111032009511d87b10207b15187b161082897b19088289087b1982851082861833082050100421036f686f59821a6faa821b086fbb787b18787a10787908787898bc38787c1f98bc30787c1e98bc28787c1d98bc20787c1c98bc18787c1b98bc10787c1a98bb08787b1998ab38787b1798ab30787b1698ab28787b1598ab20787b1498ab18787b1398ab10787b1298aa08787a11989a38787a0f989a30787a0e989a28787a0d989a20787a0c989a18787a0b989a10787a0a98990878790998893878790798893078790698892878790598892078790498891878790398891078790298880878780182102082151882161095112832009511a07b10587b15507b16489515608411e06476828718828910828a0882886f776f996faa6f887b18187b1a107b19087b17491138491130491128491120481140208318831a20831b403309ff33070a08821738821830821928821a206f776f886f996faa7b6a187b69107b68087b679551a082105882155082164895116032009511a07b10587b15509515608411e08272827a08827b108277188283828908828c108288186f746fbb6faa6f276f826fcc6f996f387b17187b1a107b1b087b147b18387b19307b1c287b12208318831a203309ff330b2033070a0f9551a0821058821550951160320050120864737b1b387b1a307b19287b18208379836a8317203308010a079551a0821058821550821648951160320050120c36737b1b587b1a507b19487b18408218206f888219286f99821a306faa821b386fbb7b1b787b1a707b19687b18608379836a8317403308020a07955160ff8210980082159000821688009511a0003200951120ff7b10d8007b15d0007b16c8009515e0008411e082bc7b1c4082bc087b1c4882bc107b1c5082bb187b1b5833020e82ab7b1b1882ab087b1b2082ab107b1b2882aa187b1a308296829a087b1a829a107b1a088299187b19107b18383300102882007b18385010107c6f687b187882186f887b18708218086f887b18688218106f887b18608218186f887b1898008218206f887b1890008218286f887b1888008218306f887b1880008218406f887b18b8008218486f887b18b0008218506f887b18a8008218586f887b18a0008379811a388317603308030a075012124b7032008b7910520931c8780883881f8488e056380000012533093c0202390a3c0202ae8a093d083c02020133085002028377c887073200009511f07b10087b158475010a05013d0738020251050750101447330016951110fe7b10e8017b15e0017b16d8019515f001951190da8411e064169569181949292004492918044929080480003307409568201d492910043300422831fc951140fc951700037b70b8007b75b0007b76a8009515c0038411e09517000249279800492790004927880049278000831780020a1001951b000282b7900082b8980082b9880082ba8000d49808d4a707d487075207a604390638020297672098772095771f8477e095788000d87807951900027b98607b976894777b977033074095186002491978501018a6fb33078000646850101adbfe8377646833090a030154161f6804951740023308800050101c46fa821850028219580214070000000001000000d38707d497077b18689888208888017b19189498937851083e04821748027b1758821740027b1760330650020383677b17780a060138076002033a085002033a09580203d48707d49707510719041407ffffffff000000007b17408217689777209877207b1748951700024927b8004927b0004927a8004927a000951720029518a00250101ed8fb951800028287287b17388287207b17308287387b17508287307b17708217780a0682670881681082696f77977a206f88988820d4a8089877206f99979a20d4a707989920821a7098aa2097aa20d4a909951b0002492bd800492bd000492bc800492bc000821a507bbaf8007bb9f0007bb7e8007bb8e0009517c0029518e002501020d5fb951700023308405010221cf9951800028287187b17108287107b17208287087b172882877b17508217780a0682670881681082696f7a97a7206f88988820d4870798aa206f99979820d4a808989920821a3084aaff821c3884cbff821c40821670d26c0c4921b8014921d8017b1cd0017b1bc8017b1ac0013a0a0000023a0b0800023a0c1000023a061800027b1af8017b1bf0017b1ce8017b16e0017b19b0017b18a8019519e001951ac001951ba0017b17a0013307330850102402fc95180003491818491810491808490801491838491830491828491820059517000395182003501026eefa821760821858d48707821848d4870752078601821750821920d49707821828821610d46808d48707987720d49808978820d4870752070c02492150014921480149214001140700000000a079c308951840017b1758018217505010281df9821720d46709140600000000010000001407fcffffff00000000821850d87807821828948794975107bb018217508377044921380149213001492120012095182001492128017b197850102acff89567dc821850d87807821828948782187894875107810182165083672449211801492110014921000124951800014921080150102c98f8821978140a00000000010000001407bcffffff00000000d876078218289487949751073c018216508367443a082000027b18f8003a082800023a093000027b1a703a0a3800027b18f0007b19e8009518e0007b1ae00050102e3df882177095779cd87607821828948782187894875107ef008216508367644921d0004921c800140800000000737365727b18d8009518c0004921c000501030fdf733088400646750103232fb8378330701330984000a0d01140600000000ffffffff95180003491858491850491848491840029517800195184003501034b0f882179801821890018477ffd26808821968d49808821918d49707951a0003491a78491a70491a68491a60028219587ba988008219607ba980007ba798007ba890009517600395188003501036e3f8951760013308405010382af682177801821870018219680182166001d49707d48609d47909989920d48707977720d4970751079500003308500202838833070133090a0d28213308500202838833070133090a0d28113308500202838833070133090a0d014921b0004921a8004921a000140700000000f7bd4f1e9518a0007b17b800330750103ae6f6492198004921900049218800330704951880004921800050103ccaf639083c020256183f0b20033c02024001330850020283883307013309240a0d016467330850103ee1f98377330833090a032845f564673308501040cdf98378330733090a0d287aff33073802027b67780139073802025517040728da5095670020837740fd33083300440a0401956a181981a744045147859a638cf30a52475bcba58d0a28cb1b9569182152471b984be70a287f1951476736e301bf025147c3e2e812e8085247b1cb0f140a28931251476ed35e2bbb0b514740489046cd07514779f782470a28a41c4929800149297801492970014929680195670020837780020a1001956a182195ab000182b77882b8800082b97082ba68d49808d4a707d4870751070628ad4c8267780181775617430728b14c956700208377a0023308043300460a0401956a182182ab980182a7a0015012489e6a520906289a4c82a790017b67700182a788017b6778017b6b400197b7209877207b674801956700208377c0023308240a04956718218277c0017b676801956718218277b8017b676001956718218277b0017b675801956718218277a8017b67500150104a30648267700182687801d487078268480150124c52684928b8034928b0037b87a0039567a0144928a80333004e33026803288e65956700208377e0020a0101826450018263580182626801956a182195ab000182b7d00082b8c80082b9d80082bae000d3370bd83707d84808dbb708d32a07d82a0c826a6001d8a90bdb7c0bd3a909d49707db7b08520806282a23956760133308405010505bf39567001195780002828b78828c70828a68828760501252876895690011510806285c4b4929500249294802492940027b6a7001140a00000000a079c308956840137b9a58027b6778017b6b68017b6c60015010543ff4501256bd65520706281e4b838704956900114929380249293002492920022095682013492928027b6a68017b6b60015010580bf4956b000182ba6882b97082b87882b76050125a6e6752070628da4a838724956a0011492a1802492a1002492a00021895680013492a080250105ccff395690001829a781407bcffffff00000000d87a078298709487829868948752070628954a83a7443a08f000023a09f800023a0a000102956b001195bc00017bc8f8007bc9f0007bcae8009568e012492be0013300a6002874f3492a6004492a5804492a5004492a480495670020837760fd0a1001956a181995ab000482b75882b86082b95082ba48d49808d4a707d4870751070628544a8267780181775617630728584a9567800550105eb8509568000582879000956900017b9770828788007b9768828780007b977895670020837780fd3308243300600a0401956b181982b7780482b88004501262d267520a06281b4a82b870047b68580182b868047b6860011409ffffffff000000007b6948019777209877207b675001956700208377a0fd3308440a0495681819958900048297a0007b673801829798007b673001829790007b672801829788007b6720015010647e61826768018478ff826778018477ff82697001826a4801d2a9097b6700017b69f000d497077b68f800d487078e7749267805492670057b6760059567600549266805501066c55395690001829758829860d48707829850d487078e7749265805492650057b6740059567400549264805330068330268032895629567200533084050106abcf09568000550126c776651080628d1484926100549260805492600051409000000003182a070956800057b6918057b6748017b6a18017b6b10017b6c080150106eb4f133075002037b67400183773300700a01956a000182ab4882a71882a810d487071408fcffffff00000000d88b0882a9089498947852080628644882694001501272286483b7044926f804956b00047bb8f0007bb9e8009568e0047bbae00050107451f10a0a826768016f77977820826970016f99989920d4890a826878016f88978920987720d497079888207b67e000826940017b97087b6a70017b9a7b6868017a9810956718194927c0044927b8044927b0044927a8043308248267480150107630f47b6778013308208267480150107820f4956818194828c80420492800054928f8044928f0044928e80482684001978820988920140800000000180000007b69e800d489029568c01d9788209888209569001e979920d4890a8268780197882098882014090000000024000000d4980b9777209877209568e01d978820d4780c3308ff3309ff64270a02015107062849220a0c01330b20aeb7080a0c647b0182694801826a18018267100182680801492618017b6b7801956c00047bcb80007bc9a000492688047bc8a800492690047bc7b000492698049567a004956880047bcab80050107a024e826a18018ea78268780150127c3e63520906288c4a956760048268480150107eadee826768048268780482696004826a7004826c2801d3c70bd8c707826c2001d8c909dbb70982673001d87a02826c3801d3c80bd8c808dab208d3a707d4b707da79087b68780195674004330840502080005cee95670004827c58827b50827a4882794082677801520706280222d4b907d4ca08d48707987720d4b808978820d48707510706284a464926f0014926e8014926e001140700000000a079c3089568e0017b67f80164977b6948017b6a18017b6b10017b6c0801502082002bef956c000182c84882c71082ca08d47a0a50228400e46352070628f8458387044926d8014926d0014926c001209568c0014926c8017b6a78017b6b700150208600e9ee956b000182ba7882b91882b84882b770502288004b6252070628b6458387244926b8014926b0014926a0011a9568a0014926a80150208a00afee956a000182a9481407bcffffff00000000d8790782a818948782a87894875207062874458397443a08f000023a090801023a0a7801027b6898017b6990017b6a880114090000000000006563956880017b69800150208c0055ee330864826748013300c0012884f14929400149293801492930014929280195670020837740020a1001956b182195bc000182c73882c84082c93082ca28d49808d4a707d4870751070628574582677801817756170307285b45492b6001492b5801492b5001492b4801029567c0129568602250208e00cfee95670011957900018298d000956a00017ba8688298c8007ba8788297c0007ba7709567a0123308405020900075ec956a001195ac000182cbb80082c8b00082c9a80082c7a000d49b0bd48709d4b909989920d4b808978820d49808510806286544956b000182b868978820988920492a980182b87095ac00017bc8800082b8787bc88800956880127bc990007b677801330054012843ed492ac005492ab805492ab005492aa805956700208377c0fe330092000a103307181933029400286f6233071819502294006862510706287d44826778018177561723072881449517e08477e07b6778016471956700208377e0fe3308040a0495671819957c000582c9e0007b69700182cad8007b6a680182c8d0007b68600182cbc8007b6b5801826778017b79187b7a107b78087b7b50209600ad5b956a000182a77082a868d4870782a85888880b82a96094989478510806288219956720063308405020980043eb95680006828b38828c30828a2882872050229a007260510806284a43492610064926080649260006140900000000a079c308956800067b6918067b6778017b6a70017b6b68017b6c600150209c002dec50229e00aa5d520706280a438387044926f8054926f0054926e005209568e0054926e8057b6a68017b6b60015020a000fbeb956b000182ba6882b97082b87882b7605022a2005d5f52070628c8428387244926d8054926d0054926c0050c9568c0054926c8055020a400c1eb956a000182a9781407bcffffff00000000d8790782a870948782a86894875207062886428397443a083801024926a8057b68b805140800000000686769687b68b0059568a0054926a0055020a60071eb330864826778013300c00128a0ee956718214927c0044927b8044927b0044927a804956700208377c0050a1001956b182195bc000482c7b80082c8c00082c9b00082caa800d49808d4a707d4870751070628af428267780181775617030728b342492be004492bd804492bd004492bc804019567601a9568e0255020a800e3eb9568181995890001829760956800017b87788297587b87708297507b87688297487b87609567401a3308405020aa0086e9956a181995ac000182c74082c83882c93082cb28d49707d48b09d47909989920d48707977720d49707510706287a419569000182976095ac00017bc7088297687bc7108297707bc7189568201a8297787bc72064b77b9b7833005401285eea492ac006492ab806492ab006492aa806956700208377c03300ac000a103302ae0028d25f5022ae00cf5f82b7b80082b8c00082b9b00082baa800d49808d4a707d4870751070628cc41826778018177562783000828cf41956760125020b000964795680011958900018297787b67708297707b67b0008297687b67b8008297607b67c000956700208377e03308240a0401956c181995ca000682a7e00082a8d80082a9d000d4780a889b0194ab520b0628844182cac806826b780180b295ac04d8ac0ac8a90bd89b09daaa09c88909d88908c88703956a0011492af800492af000492ae8007ba2e00095a700017b7c7b7b087b791095672012956800129569e0117ba318015020b2003c4995680011958900018297387b6768018297307b6770018297287b6760018297207b6778018297587b6790008297507b6798008297487b6788008297407b67a0009567002083773308440a0495671819827700077b67e800956718198277f8067b67f000956718198277f0067b67f800956718198277e8067b670001956700208377203308643300b4000a0401956a181982ab180782a720075022b600c35d5209062899401407ffffffff000000007b67c80082a710077b67d00082a708077b67d8008267f00082680001d487078268e8008269f800d49808d487077b6b7897b8209888207b68a8008e77956800114928d8004928d0007b87c0009567c0114928c8003300b80033028a0328db588267b8008478ff8267c0008477ff8269b000826ac800d2a9097b67587b6948d497077b68505022ba00575b4928b8004928b0007b87a000956800119567a0114928a8003300bc003302aa03288d588267d0008268d800d487078268a8005022be001f5b49289800492890007b87800095678011492888005020c0005c4933075002037b67e00083777b6780003300c2000a068269e0003302c4002899588269e0005022c40092584919787b98707b9768956860117b9a6033075020c6008ae73302c80095680011014918584918504918400395690011330720956840114919485020ca0063e733093c020239073c020256173f0b20033c020240017b69689517e08479e07b69580164913307500202837783993308407b67603300cc000a093302ce0028425b5022ce003f5b956720113308405020d000d6e55022d2006d5b51070628ed3d8268a000826a9800d4a80782699000826b8800d4b909d49707987720d4a909979920d4970751070628c23d95690011829238829b30829720829328d4b70ad42309d49a0a98aa20d4b909979920d4a90951090628973d83cc7b6c3883897b69407b6778017b6270017b6b68017b6360015020d400cee983778268408269383300d6000a03018267a00082687801c88707d8870882698800826b60015022d8006e5882689800826a6801c8a808d8a802826c9000826a7001c8ac0cc82c0a5022da00a45751080628243d5022dc002e597bcb7bca087bc810956800117bc9185020de0020e68267980082689000d487071408e0ffffff000000008269a000d88908826988009498947852080628df3c8267408378207b6830826778015020e00023e95022e200d85b3300e4000a093302e60028a9585022e600a65895bc00077bca407bc9387bc8307bc7289567e010956840205020e8009ee69568ff079588f9007c87e8078877014928e0074928d8077b87c8079567c0104928d0073300ea003302ca032810569568181949286007492858074928500749284807019567a010956860205020ec004de6956bff0795bbf90095bc000782c7a80082c8b00082c9b80082cac0007bca607bc9587bc8507bc7488267e8007bc780008267f0007bc7788267f8007bc770956780109568601095694010826a00017bca685020ee00744c9567ff079577f9008270a0078274980782729007827a88077b6a380168076848958940db0709682768a8958840db270895878000d4040adaa709d8870c94ac8ecb8897fa00857a01daca0b88b7019577ff9ab89accc9ac039a99f900956a00017ba8608e8c8e787ba768da7c087ba970889c000185cc018e39db390cdbb80cd4020882a738d44709d498086409888801d4c80894807b642801644a948a7b623001642c948c647b948b510806288e1c7b692001826870018588ff0082646001d4480882626801d42309d49808520806286b1c826a700195a9017b697801889801c838087b685001d49808888801c848087b684001d84808c828087b6848019aa9ff007b6970019a998000826830015020f000155a7b6768017b6860018267280182682001826970015020f200215a5022f400a9575020f600155a5022f800d459826b20015022fa00315982672801da97087b68680182673801826830015020fc00ec595022fe000056510906282b1a330c4926180128861b492a4006492a3806492a3006492a280695670020837740ff330000010a103302020128fc5850220201f95850220401295951070628493b82677801817756174307284d3b9567ff079577c10050200601d040956700108277d0f87b67e000956700108277c8f87b67e800956700108277c0f87b67f00095670020837760ff3308240a04019569181982946006829a5806829b5006d44a0788b801947852080628003b829c480682677801807795c823d8c809c89b037b6bf800d8b30bda990bc8ab0b7b6a0001d8ab097b640801c84909d4b909d878079437949752070628d33a83c804956700208377807b6c1001330008010a0433020a0128265850220a01235882b7800082b87882b97082ba687b674801956b00107bb798f87b684001956700107b7890f87b693801956700107b7988f89567ff079577a1009568ff07958881007b6a7001956900107b9a80f850200c016b41956700108277a0f87b673001956700108277a8f87b672801956700108277b0f87b672001956700108277b8f87b6718019567ff0795776133084050200e01bee095670010827878f87b68580195670010827970f87b69600195670010827a68f87b6a500195670010827b60f87b6b680182671801956c00107bc738f882672001956c00107bc730f882672801956c00107bc728f882673001956c00107bc720f8956700107b7858f8956700107b7950f8956700107b7a48f89567ff079577419568ff07958821956900107b9b40f8502010015d3f956b000182b85082b95882ba6082b768d48909d4a708d49808988820d4a909979920d4980851080628223882687001956900107b9800f882683801956900107b9808f882684001956900107b9810f89568ff0795880182694801956a00107ba918f850201201fce08262100182677001c82707d82708826bf80082643801c84b09c88909d3b90ad8b90bdaa80b826a000182604001c80a08c88b0bd8a80ad88b08826c080182634801c83c0cc8ca0ac8a808957a24d87a07c8790cd89c09da7709826778018077c8b909d8b90bc8b808d8a70788ca01857701dbca07889a01888b01da8a0bd49808db8b078268700152070628803a640a644bd40807d43409d49707987720d40909979920d497075107062839378260600182675801d470031404e0ffffff0000000082696801d849078262500194279437520706280f37826710018377247b6730018397207b6728017b647801502014014ae383778168700182693001330016010a03018268680182677001c88707d88708826b50018269380150221801e85182685801826a4801c8a808826a4001826c6001c8ca0ad8ca0cc8c808c8ab0bd8ab0ac8a808d4b808826a7801d8a70a949a948a520a06288d368377204926f8074926f0074926e8079568e0074926e00750201a0187df8267e0009777209877204926d8078268e8007b68c8078268f0007b68c0079568c0077b67d007330750201c0159df4926b8074926b0074926a007033307209568a0074926a80750201e013bdf39083c020256183f0b20033c020240019517e08479e07b69780164913307500202837783993308400a09826878018287187b6750018287107b6748018287087b67400182877b6738019567800733084050202001abdd95680007828798007b677001828790007b676001828788007b675801828780007b67780195676007826868015020220179dd956a000182a77082a858d4870782a96082a878d49808d47808988820d49707977720d4870751070628713595670007827b78827c70827860827a68d4c807d4ba09d49707987720d4c909979920d49707510706284635826778017b6868017b6a30017b6b20017b6c18015020240183e17b67100182672801826868015020260171e1647882671001826968015020280162dc8264180182632001826230018267780182686801c88707d8870882695801c82909c88909d3290ad8290bdaa80b82686001c84808d8480a826c7001c83c0cc8ca0a50222a013d4f51080628bd34826838016f89826840016f88826a48016faa826b50016fbb956c00077bcb407bca487bc850956840077bc95850202c01a2dd956b000182b72082b818d487071408e0ffffff0000000082b968d8890882ba3094a894785208062861348398207b6870018267780150202e01a7e09518e08488e07b68780164818377838982687001330030010a0933023201281f50502232011c5095bc00067bcaa0007bc998007bc890007bc78800956720079568a01f5020340110de826720077b6778019567000733084050203601cfdb956b000782ba1882b81082b90882b7d49a0ad48709d4a909989920d4a808978820d4980851080628c8337c6878018e894926f8064926f0064926e8069568e0067b69e0067b6778013300540128b7dc492940054929380549293005492928059567002083774006330038010a1001956a182195ab000550223a015b5251070628bf348267780181775617230728c3349567201c50203c01063a95671819827810037b687001827808037b687801807718037b67680150203e01514b95690001829778829868d48707829870d48707510706288f349567801b33084050204001eeda956b181982b2800295b80002828c78828a70828768d42a09d4c708d49808988820d4c909979920d4980851080628e132492b5802492b5002492b48027b6a7001140a00000000a079c3089568601b7bba60027b6778017b6268017b6c600150204201c4db50224401414d52070628a13283870495691819492940024929380249292802209568401b492930027b6a68017b6b6001502046018edb956a000182a87882a7609577dcd8780782a970949782a968949752070628573283872495691819492920024929180249290802249568201b49291002502048014cdb95670001827b68827a70827878140900000000010000001407bcffffff00000000d8780794a794b75207062807328387443a088000027b696001956b18197bb800023a088800023a099000023a0a98000295bc00017bc8f8007bc9f0009568001b7bcae80050204a01e1da956a000182a97882a76095779cd8790782a870948782a868948752070628aa31839764956a1819492ad801492ad001140800000000737365727ba8e0019568e01a492ac80150204c0196da330884008267780150204e01c8dd8378330701330984000a0d0195671821492700054927f8044927f0044927e80495670020837700060a1001956b182195bc000482c7f80082b8000582c9f00082cae800d49808d4a707d4870751070628b0338267780181775617030728b433492b2005492b1805492b1005492b08059567c01a9568202650205001fdda95681819958900018297b800956800017b87688297b0007b87788297a8007b87709567a01a33084050205201a3d8956a181995ac000182cba00082c8980082c9900082c78800d49b0bd48709d4b909989920d4b808978820d49808510806289330956b000182b868978820988920492a800182b87095ac00017bc86882b8787bc8709568801a7bc9787b6778015020540178d93308208267780150205601abdc837833092033070a0d0151476d3d604e0a28f33282677801817756174307283a339567801950205801d636956818198287787b67e8008287707b67f0008287687b67f80095670020837760033308240a0401956c182195ca000282a76082a85882a950d4780a889b0194ab520b0628fb3282ca4802826b780180b295ac04d8ac0ac8a90bd89b09daaa09c88909d88908c8870a9567181949074917f84917f07b72e87b7c087b7b107b7918647b9567401995682019956900197bba2050205a018f38956818198287407b6768018287387b6770018287307b6760018287287b6778018287607b67d0008287587b67d8008287507b67c8008287487b67e0009567182149278002492778024927700249276802956700208377800333005c010a1001956a182195ab000282b77882b8800082b97082ba68d49808d4a70750225e01624b4928f8074928f0077b87e0079567e0184928e8073300600133028a03289c488267e8009777209878208267f0008269f800d497077b68a00050226201244b4928d8074928d0077b87c0079567c0184928c807330064013302aa03285e4833075002037b67000183777b67c000330066010a068269000133026801289948826900015022680192484929b807959b00077bb8b0007bb7a8009568a0187bbaa000330750206a0182d733026c0195680011014928980749289007492880070395690011330720956880184929880750206e0157d733093c020239073c020256173f0b20033c020240017b69b0009517e08479e07b695801649133075002027b67a800837783993308407b67b800330070010a093302720128304b502272012d4b9567601833084050207401c4d5502276015b4b51070628db2d8268e000826ad800d4a8078269d000826bc800d4b909d49707987720d4a909979920d4970751070628b02d9569001182927807829b70078297600782936807d4b70ad42309d49a0a98aa20d4b909979920d4a90951090628812d83cc7b6c900083897b6998007b6778017b6270017b6b68017b63600150207801b6d98377826898008269900033007a010a03018267e00082687801c88707d887088269c800826b600150227c0154488268d800826a6801c8a808d8a802826cd000826a7001c8ac0cc82c0a50227e018a47510806280a2d5022800114497bcb400795cb00077bba487bb850956840187bb9585020820100d68267d8008268d000d487071408e0ffffff000000008269e000d889088269c8009498947852080628bf2c826798008378207b688800826778015020840101d950228601a04b0a09826a780182a71882a81082a90882aa6f776f886f996faa956b182195bc00027bcaa0007bc998007bc890007bc78800956720189568a023502088016ed6956800117c87200788770149281807492810077b870007956700184928080733008a013302ca0328e445956818214928c0024928b8024928b0024928a802019567e0179568c02350208c0121d695680011958900068297e0007b6778018297e8007b6770018297f0007b6768018297f8007b676001956718214927e0024927d8024927d0024927c802956700208377e0030a1095691821959b000282bac80082b7d00082b8d80082b9e000956b0011826c60017bbc9806826c68017bbc9006826c70017bbc8806826c78017bbc800695bc00067bc9b8007bc8b0007bc7a800956b00119567c0179568a017956980177bbaa00650208e01f33b95680011018282d8068287d0068284c8068283c006682a6878958940db2a09684a6838958840db4a08958b8000d4270adaab09d88b0c94ac8ecb8898fa00858a01daca0b88b0019500ff9ab89accc9ac0a9a99f9007b6860018e8c8e08da0c087b695801889c000185cc018ea9dba90cdbb80c647bd42408d47309d49808888801d4c80864279487956900017b976864b794877b9770644794877b97787b633801643c948c51080628221364b3826b580185b8ff0082676001d47808d40a09d4980852080628051395b9017b697801889801c8a8087b685001d49808888801c878087b684001d87808c808087b6848019ab7ff007b6770019a7980008267380164487b6430017b6228017b6320015020900194497b6768017b68600182672001826828018269700150209201a049502294012847502096019449502298015349826b280150229a01b04882672001da97087b686801826738018268300150209c016b4950229e017f4551090628ac10330c4926180128091295671819492700064927f8054927f0054927e805019567c0069568001f5020a001dad38267d806956900017b97508267d0067b97488267c8067b97408267c0067b97389568181949282006492818064928100649280806019567201f8298785020a20119d49567a0063308405020a4015fd195680006828bb800828cb000828aa8008287a0005022a6018a46510806286229826838017b688006826840017b688806826848017b68900695688006826950017b6998067b6778017b6a50017b6b48017b6c40015020a8013fd2956b000182b97882b74882b840d487071408e0ffffff00000000d8890882ba5094a8947852080628fe28839720826858017b686006826860017b686806826868017b68700695686006826970017b6978065020aa01e8d13a071801023a08200102956b00067bb7583a072801027bb8503a0a3001027bb748330840956940067bba40826778013300ac019511a07b10587b15507b16489515608411e0829a7b1a18829a087b1a10829a107b1a088299187b19648633000628c2d43308500202838828ec2a0a0a826870016f89979820826a40016faa98aa20d48a0a826878016f8b97bc203308500203989920d4c90998bb203d0b6002033e095802033e0a500203956a18218269580195ab00017bb9f000826950017bb9e800826960017bb9f8008269680195ab00027bb9482a08028e77fc089a797bb9407bb9387bb9307bb928978820988820977723d4870795680023978820988820330b50020295694023979920d4890a7b6b380197bb2098bb2095682023978820d4b80c3308ff3309ff0a027b674001956780145020ae011f3e956760143308405020b00168cf9567001195780003828978828c70828b68828a60956200118267400152070b01d4ca07d49b08d48707987720d4c808978820d4870751070628502782675001952900027b97c000826758017b97c800826760017b97d0009568c013826768017b97d80064a77b6a30015020b20133d082674801956b001195bc00027bc79000826770017bc78800826778017bc780003a07d000023a08d800023a09e000023a0ae800027bc7b8007bc8b0007bc9a8007bcaa000956700113308209569a013956a801349279802826730013300b401951160ff7b1098007b1590007b1688009515a0008411e082ab7b1b3882ab087b1b3082ab107b1b2882aa187b1a20829a7b1a18829a087b1a10829a107b1a088299187b19648633000a28c5d281683801330733090a0d28012ad4ca07d49b08d48707987720d4c808978820d48707510706284926492250034922480349224003140700000000a079c308956840147b27580364a77b6a30017b6b28017b6c70017b6978015020b6012acf956c000182c83082c77882ca70d47a0a140b00000000010000001407fcffffff00000000d8780782c928949794a752070628df25838704956900114929380349293003492920032095682014492928037b6a78017b6b70015020b801ccce956b000182ba7882b92882b83082b7705022ba012e42520706289925838724956a0011492a1803492a1003492a00031595680014492a08035020bc018ece95690001829a301407bcffffff00000000d87a078298289487829878948752070628532583a7443a08c000023a09c80002956b001195ba00027ba8f8007ba9f000140800000064656c69617ba8e8009568e013492be0025020be0131ce330864826730015020c00164d15022c201ac430a0d019567c0043308405020c401d4cc956800045022c601b1423300c8010a0c3302ca01280d3f5022ca010a3f51080628d424647998772051070628c9245022cc01d3415020ce0114d195681819826968017a890805837795680020838820fe33090a0b95671819817708050182687001ae87062890240a0c016478987720510706288224826778017b6870015020d001cbd08378816970013307010a0d287125d4b907d4ca08d48707987720d4b808978820d48707510706284b24492630044926280449262004140700000000bb9c05a9956820047b67380464977b6948017b6a18017b6b10017b6c08015020d2012ccd956c000182c84882c71082c908d4970a5022d401e54152070628f9238387044926180482686001956c00047bc8826858017bc80895680004826950017bc9107b6a78017b6bd8005020d601dfcc956a000182a9488267d8009577dcd8790782a818948782a878948752070628a72383972482682001956a00037ba8e000826828017ba8e800826830017ba8f0009568e003826938017ba9f8005020d8018dcc0a0a826740018268e0007b7808826870017b78826868017a78109567181949274005492738054927300549272805330844826748015020da0192cf7b677801330820826748015020dc0181cf95691819959a0005481a4820492a8000ff491a78ff491a70ff491a68ff140800000000080000008269e800d489029568401e9788209888209569801e979920d4890a8268780197882098882014090000000044000000d4980b9777209877209568601e978820d4780c3308ff3309ff64270a0201510706288e120a0c01330820ae87080a0c64780182694801826a1801826b1001826c08017b687001492678017b6880037b69a003492688037b6aa803492690037b6bb003492698039567a003956880037b6cb8035020de016c298262480182677001c82700d8700882631801826c7801c83c09c88909d3c90ad8c90bdaa80b826a1001c8ac08c88b0bd88b04d8c80882670801c87c0cc8c808c884047b6b30037b6928037b6020037b6758037b6a50037b6348037b6240039567600395684003956920037b6438035020e0010a2f826770038268780382696803826a6003d49808d4a707d487077b677801956700033308405020e2019bc995670003827b18827a1082780882798267780151070628ef11d4a907956c00017bc8787bcb60d4b808d487079877207bca68d4a808978820d48707510706287d21492670024926680249266002140700000000a079c308956860027b67780264977b6970015020e4016aca956b000182b97082b76882ba60d47a0a140700000000010000007bb7601407fcffffff00000000d8790782b87894877bba6894a75207062819218397044926580249265002492640022095684002492648025020e60112ca956900018297609577dc829870d878078298789487829868948752070628db20826770018377244926380249263002492620021795682002492628025020e801d0c91407bcffffff0000000095690001829870d8780782987894878298689487520706289520826770018377443a086001023a096801023a0a700102956b00027bb8187bb9107bba0895680002492600025020ea017bc9330864826770013300c00128aacc8267780195798082672801826820015020ec017d3f5022ee010a3f5020f001713f7b67287b681001826878019a89800082672801826820015020f2017a3f5022f401b93b8268285022f601473e82672801826820015020f801373f5022fa01503b82623801017b6828017b6c30014926180198293f974a01d49a0a9729015022fc01003cd8bc02826b2001dbb80282682801978801987b3fd4b8087b682801984b3f977701d47b0b97070182686801988c3fd4c7077b676001978c018267580198783fd48c04977c018267700198703fd40c0c97770182683001d487077b677001d4c3077b675801d443077b67680182676001d473077b676001c9b907d827075022fe01c33bc97802d87808c98a0494a8c98b07d88b08c98308826a7801826c5001d4ca09889901826b4001d89b03c99b0b88a901c99c0c82694801c9390995aaff7b6c50017b694801d4c9097b6a7801d4ba0ad4a909840c017b6b40013303520906ff8269680198973f82686001978801d47802826a580198a83f979901d49808826b700198b93f97aa0197bb01d4cb0b82671801d47909d4a90cd4870ad42700019568ff079588f9007b6b5801958900067b9be80082670001958b00077bb7087b6c50017b9cf0008267f8007bb7107b6a48017b9af8008267f0007bb7187b6040017b800007648b95672010956800109569ff079599e107826ae8007bba200750200002c3309568ff079588f90095890007829740956800017b87208297387b87288297307b87308297287b87389567ff079577c10733084050200202f2c59569ff079599f9008292e00695980006828cd800828bd0008287c800d42b0ad4c708d4a808988820d4ca0a97aa20d4a80851080628de1d4929b8064929b0064929a806140a000000003eed62dd9568ff079588a1077b9ac0067b6778017b6268017b6c60017b6b700150200402bdc6826780000a0601956c000182cb7882c76882c860d47809140a00000000010000001407fcffffff00000000d87b0782c87094879497520706286b1d7b6918018269e00082970881981082996f777b6a1001977a206f88988820d48a0a9877206f98978920d4790998882083b704956bff0795bbf900492ba00695bc00067bc898007bc990009568ff07958881077bca88005020060226c682678000330008020a0195690001829b788297109577dcd87b078298709487829818948752070628e51c8269e00050220a02a93883b724956cff0795ccf900492c800695cb00067bb8787bb9709568ff07958861077bba6850200c02c8c50a0a8267d0006f779778208269786f99989920d4890a8268d8006f88978920987720d497079888207b67788269e0007b97087b6a10017b9a7b6808017a981095671819492780074927780749277007492768073308448267780150200e02a8c87b671801330820826778015020100297c89568181948288807204928c0074928b8074928b0074928a8078268e000978820988920140800000000180000007b6928d48902956880209788209888209569c020979920d4890a8268180197882098882014090000000044000000d4980b9777209877209568a020978820d4780c3308ff3309ff64270a020151070628d30c0a0c01330820ae87080a0c6478014916207b681801956aff0795aaf90095ab00067bb808826778017bb728492a1006826770017bb730492a1806826760017bb738492a20069567ff07957721079568ff0795880107826968017bb940502012026f22826a208ea78268180150221402ab3752090628e7219567ff079577e106826878015020160215c3956aff0795aaf90082a7f00582a8000682a9e80582a2f805826cf800d3c70bd8c707826c0001d8c909dbb709826cf000d8c207826be800d3b80ad8b808daa708d3c207d4a707da79085108880c9567ff079577610133084050201802b7c29569ff079599f900829a8000829b78829770829868956c00017bc7707bca68d4a7077bc878d4b808d478089888207bcb60d4b707977720d48707510706289a1a491958491950491948140700000000a079c3089568ff07958841017b97608267780150201a0289c3956a000182a76882a960d47909140700000000010000007ba7601407fcffffff0000000082a878d8780782a87094877ba968949752070628381a826778018377049569ff079599f900491940491938491928209568ff079588210149193050201c0225c3956900018297609577dc829878d878078298709487829868948752070628ee19826778018377249569ff079599f9004919204919184919081c9568ff079588010149191050201e02dbc21407bcffffff0000000095690001829878d878078298709487829868948752070628a019826778018377443a08f000023a090801023a0a100102956bff0795bbf9007bb87bb9f8956800107b8ae8f814090000000065636e619568ff079588e100956a00107ba9e0f83300a6002868c2826778019579808267200182682801502020027b38502222020838502024026f387b6780007b681001826878019a898000826720018268280150202602773850222802b6348268800050222a024337826720018268280150202c02333850222e024c3482623801017b6828017b6c30014926180198293f974a01d49a0a97290150223002fc34d8bc02826b2001dbb80282682801978801987b3fd4b8087b682801984b3f977701d47b0b97070182686801988c3fd4c7077b676001978c018267580198783fd48c04977c018267700198703fd40c0c97770182683001d487077b677001d4c3077b675801d443077b67680182676001d473077b676001c9b907d8270750223202bf34c97802d87808c98a0494a8c98b07d88b08c98308826a7801826c5001d4ca09889901826b4001d89b03c99b0b88a901c99c0c82694801c9390995aaff7b6c50017b694801d4c9097b6a7801d4ba0ad4a909840c017b6b40013303520906ff8269680198973f82686001978801d48707826a580198a83f979901d49808826b700198b93f97aa0197bb01d4bc0c826b1801d4b909d4a909956a00017ba978d4b8087ba870d4b7077ba768017b6c600195671821492700034927f8024927f0024927e80295670020837700040a1095691821959b000282bae80082b7f00082b8f80082990003956b0011826c68017bbc3806826c70017bbc3006826c78017bbc2806826c60017bbc200695bc00067bc9587bc8507bc748956b00119567601795684017956920177bba400650203402922995670011957900068298607b6858018298687b6850018298707b6848018297787b674001956818214928200349281803492810034928080302956700179568202450203602dfc0956700119579000682987b6838018298107b6830018297087b6728010a0a826828016f88978920826a30016faa98aa20d4a909988820826a38016faa97ab20d4b80898aa20826b00017aba107bb8087bb99569182182686801959a00037ba840826870017ba838826878017ba830826860017ba8284829480349267801fc088e77fc089a787ba880007ba8787ba8707ba86897b8209888207b687001977723d487079568402497882098882095698024979920d4890a8268a800978820988b207b6b680195686024978820d4b80c3308ff3309ff0a028877017b6760019567e01650203802762c956700114927d8054927d005826860017b78c005956800119567c0164928c80533003a023302fc03286d2f0a0a8268f0006f88978920826ae8006faa98aa20d4a909826af8006faa98882097ab20d4b808826b00017bb8087bb998aa207aba109569182182684001959a00037ba8a000826848017ba89800826850017ba89000826858017ba888004829a80382687801d878079a787ba8e0007ba8d8007ba8d0007ba8c80097772382687001d487079568a0249788209888209569e024979920d4890a9568c024978820826b6801d4b80c3308ff3309ff0a028877017b6778019567a01650203c028c2b956800114928980549289005826778017b878005956780164928880533003e0233021c0428872e8267c000330040020a06826900013302420228cd2e8269000150224202c62e49297805959b00057bb8707bb768956860167bba60330750204402b9bd33024602956800110149285805492850054928400503956900113307209568401649294805502048028ebd8269b000819756173f0e48094033024a02281c3350224a0219338267b8000a09956900018298788287187b97708287107b97688287087b976082877b97589567201633084050204c0209bc956700119578000550224e02bf31510806281814826898007b6778017b6a50017b6b48017b6c40015020500255c083778268980082699000330052020a03018268e00082677801c88707d88708826bc8008269400150225402f32e826ad80082684801c8a808d8a802826cd000826a5001c8ac0cc82c0a50225602292e51080628a913826858016f89826860016f88826a68016faa826b70016fbb956c00117bcb000595cb00057bba087bb810956800167bb9185020580289bc9517e08477e07b6770016471826778018268880050205a02afbf50225c024e3233005e020a093302600228752e50226002722e9567e015502062023ebd956a001195ab000482b7e00082b8e80082b9f80082baf000847700ff867701956b18217bb9000495b900037b9af8007b98f0007b97e8009568002582677001502064027abd9567c01533084050206602c0ba956900118292d80495980004828bd000828cc8008287c000d42c0ad4b708d4a808988820d4ba0a97aa20d4a80851080628b0124929b8044929b0044929a8049568a0154929a004607b6778017b6b68017b6260017b6c7001502068029cbb956b000182ba7082b87882b76882b960d47909140b00000000010000001407a0ffffff00000000d8780794a794975207062851128387608268e0007b6b5801956b001195ba00047ba880008268c8007ba888008268d8007ba89000956880157b6950018269d0007ba9980050206a022bbb956a000182a97882a758957780d8790782a870948782a850948752070628f411839780008268980050206c023dbe8377826898008269900033006e020a03018267e00082687801c88707d88709826b70018268c800c8b808c89808d3b80ad8b80bdaa90b82696001826ad000c8a909826c6801826ad800502270028d2c520a06289111837780009569001149297804492970044929680495686015492960045020720286ba8267e00095771f1408e0ffffff01000000d287077b676801956718214927200449271804492710044927080495670020837720050a1095671821957c000482c90882c81082ca1882cb2082677801837720956c00117bcb580495cb00047bba507bb848956840157bb9405020740216ba826778018377409568001149283804492830044928280495690011956820154929200450207602edb98267c000330078020a06018267700182686801ac780628bd10648b8269000150227a02932bd4780298aa206f98978920d4a909988a2083b88000956300118267a0007b37d0033a0ba000024923d8038267f0007b37c8038267f8007b37c0037b3b18043a0ba800023a0cb000023a07b800024923f8037b3b10047b3c08047b3700047b3af0037b39e80395690015956ae014956bc0147b32e0038267780150207c02a6bb33078268b80033090a0d28c2139567c00333084050207e02f5b79568000350228002d22d330082020a0c33028402282e2a502284022b2a51080628f50f647998772051070628ea0f50228602f42c5020880235bc95681819826968017a8988058377956800208388a0fe33090a0b95671819817788052822ebd4a907d4b808d48707987720d4a808978820d48707510706289e0f826720017b67e002826728017b67e802826730017b67f0029568e002826738017b67f80264977b69700150208a0285b849269802956c000182c7507b67900282c7587b67880282c7607b6780024926b8028267f0007b67b0028267f8007b67a8023a074001023a084801023a0950010282ca7b6aa0027b67d8027b68d0027b69c8023a075801023308209569c002956aa002956b80027b67c00282c77050208c026fba330850020283882879119567ff079577410733084050208e02bdb69567ff079577f900957900068298607b6870018298587b6868018298507b6860018297487b677801330090020a0c3302920228d82850229202d5285208a20e64799877205207990e50229402a22b50209602e3ba95681819826968017a89c8078377956800208388e00033090a0b956718198177c80728d0e99568182149084918f84918f04918e8029567ff079577c10695680021502098024eb89568ff079588f900958900058297d8007b6718018297d0007b67208297c8007b67189567ff079577a10633084050209a02efb5956bff0795bbf90095bc000582c8c00082c9b80082c7b00082caa800956c00017bc7707bc860d48707d49a08d478089888207bc968d49707977720d487075207d10d8268188488ff7b68188268208487ff7b67208267c80082681801d287077b671801492b9805492b9005492b8805140700000000dd72b8239568ff07958881067bb7a00564a77b6a780150209c0298b68267800033009e020a068269e0003302a002284b288269e0005022a0024428d4780298aa206f99979820d4a80398942082677801957a04d87a0b82677001c8b70cd87c07dabb0782686801c88707d8870b82686001c88b0b826840019569ff079599f9007b980005826848017b98f804826850017b98f004826858017b98e804826818017b9818058268207b9810058268187b980805959800057b8b607b8758492920057b8c507b8a487b9438057b9330057b922805649c9567ff07957761069568ff07958841069569ff0795992106956aff0795aa0106956bff0795bbe105492c40055020a20205209568ff079588f900828770058282800582836805828a780582687001d3870bd8870c648082647801d84308dab80c82696801c99a0bd89a0a82696001c99209c9a909d8cb0ac9a9097b695001c9cb0b7b6b4801c90707c987077b674001c943077b6758013300a4020a0a3302a602287d295022a6027a2949192049191849191082675801647a826b4801d4b70782685001826c4001d4c808d48707987720d4b808978820d487074919085207ea0b8267780164a85020a80234b87b674801330820826778015020aa0223b895691821956c0001491c502048192820491960ff491958ff491950ff491948ff14080000000008000000826928d489029568202197882098882095696021979920d4890a82c84897882098882082cb5897bb20d48b0b97772098772095684021978820d4780c3308ff3309ff7b62580164270a02015207300a0a0c015517200b0a0c7b675001019569ff079599f90082675001959b00047bb78800826778017bb7a8004926480149299004826770017bb7b00049299804826768017bb7b8004929a0049567ff079577a1059568ff0795888105826a60017bbac0005020ac02fb118262780182675001c82700d8700882637001826c4801c83c09c88909d3c90ad8c90bdaa80b826a6801c8ac08c88b0bd88b04d8c80882676001c87c0cc8c808c884049568ff079588f900958c00047bcb387bc9307b8028047bc7607bca587b8350047b824804648a9567ff07957761059568ff07958841059569ff07959921057ba440045020ae028317956bff0795bbf90095bc000482c86882c77082c97882ca80007bca207bc9187bc7109567ff07957701057bc8083300b0023302fc0328d2239567ff079577e1043308405020b202f5b19568ff079588f900828a0004958b000382b9f80082b7f00082b8e800956b00017bb7707bba60d4a7077bb878d49808d478089888207bb968d49707977720d487075207d4099567ff079577f9004927d8034927d0034927c8036479140700000000dd72b8239568ff079588c1047b97e003826778015020b402b4b2826780003300b6020a068269e0003302b8022867248269e0005022b8026024d4780298aa206f99979820d4a80398942082677801957a04d87a0b82677001c8b70cd87c07dabb0782686801c88707d8870b82686001c88b0b826820019569ff079599f9007b984003826828017b983803826830017b983003826838017b9828038268707b9860038268b0007b9858038268b8007b9850038268c0007b984803959800037b8ba0007b8798007b8c90007b8a88007b9478037b9370037b926803649c9567ff079577a1049568ff07958881049569ff0795996104956aff0795aa4104956bff0795bb2104492c80035020ba02181c9568ff079588f9008287b0038282c0038283a803828ab80382687001d3870bd8870c648082647801d84308dab80c82696801c99a0bd89a0a82696001c99209c9a909d8cb0ac9a9097b694801c9cb0b7b6b4001c90707c987077b673801c943077b6750013300bc020a0a3302be022890255022be028d254929a000492998004929900082675001647a826b4001d4b70782684801826c3801d4c808d48707987720d4b808978820d48707492988005207f9078267780164a85020c00243b47b674001330820826778015020c20232b49569182149264801204829a800204929e000ff4929d800ff4929d000ff4929c800ff9568a0219788209888209569e021979920d4890a82684001978820988820826b500197bb20d48b0b9777209877209568c021978820d4780c3308ff3309ff826758010a02015207e1060a0c015517200b0a0c7b674801019569ff079599f90082674801959800027b87c800826778017b87e800492658014929d002826770017b87f0004929d802826768017b87f8004929e0029567ff079577e1039568ff079588c103826a60017b9a00035020c402180e8262780182674801c82700d8700882637001826c5801c83c09c88909d3c90ad8c90bdaa80b826a6801c8ac08c88b0bd88b04d8c80882676001c87c0cc8c808c884049568ff079588f900958c00027bcb787bc9707b8068027bc7a0007bca98007b8390027b828802648a9567ff079577a1039568ff07958881039569ff07959961037ba480025020c6029e13956bff0795bbf90095bc000282c8a80082c7b00082c9b80082cac0007bca607bc9587bc7509567ff07957741037bc8483300c80233021c0428ea1f826780003300ca020a06018269e00082970881981082995022cc02d5229569ff079599f90049294002959b00027bb8387bb7309568ff07958821037bba2833075020ce0212af9568ff079588f9004928200249281802492808020364893307209568ff0795880103492910025020d002e6ae826768817756173f118268684808403302d2022872245022d2026f248267600a09826878018287187b6758018287107b6750018287087b67480182877b6740019567ff079577e1023308405020d4025bad9567ff079577f90082790002957c000182caf80082cbf00082c8e800956c00017bc9707bcb60d49b077bc878d4a808d478089888207bca68d4a707977720d4870752073a05826778018268405020d60283b183778268408269383300d8020a03018268a00082677801c88707d88708826b8800826960015022da022320826a980082686801c8a808d8a802826c9000826a7001c8ac0cc82c0a5022dc02591f5208dc04826840016f89826848016f88826a50016faa826b58016fbb956cff0795ccf9007bcbc80195cb00017bbad0007bb8d8009568ff079588c1027bb9e0005020de02b0ad9517e08477e07b6770016471826778018268305020e002d7b05022e2028c233300e4020a093302e602289d1f5022e6029a1f9567ff079577a1025020e80262ae956aff0795aaf90095ab000182b7a80082b8b00082b9c00082bab800847700ff867701956b182195bc00017bc9207bca187bc8107bc70895682022826770015020ea029eae9567ff07957781023308405020ec02e0ab9568ff079588f900958b000182b7a00082b9980082ba900082b88800956b00017bb7607bba70d4a7077bb878d49808d478089888207bb968d49707977720d487075207bf039569ff079599f9004929800149297801492970019568ff07958861024929680160826778015020ee02aaac956a000182a76882a860d48709140700000000010000007ba7501407a0ffffff0000000082a878d8780782a87094877ba958949751075c03826778018377608268a000956aff0795aaf90095ab00017bb848826888007bb850826898007bb8589568ff0795884102826990007bb9605020f00235ac95690001829750957780829878d87807829870948782985894875107010382677801837780008268405020f20246af83778268408269383300f4020a03018267a00082687801c88707d8870982688800826b7001c8b808c89808d3b80ad8b80bdaa90b82699000826a6001c8a909826a9800826c68015022f602981d510a9f02837780009569ff079599f9004929400149293801492930019568ff0795882102492928015020f8028bab8267a00095771f1408e0ffffff01000000d287077b676801826778018377208268e800956aff0795aaf90095ab00017bb8208268f0007bb8188268f8007bb8109568ff0795880102826900017bb9085020fa0236ab826778018377409569ff079599f900492900018268a8007b98f8008268d0007b98f000649a9568ff079588e1018269d8007ba9e8005020fc02fbaa826780003300fe020a06018267700182686801ae78ce01648b8269e00050220003a31cd4780298aa206f98978920d4a909988a2083b880008267489563ff079533f9007b3798003a0ba000024923a0008267507b3790008267587b3788007b3be0003a0ba800023a0cb000023a07b800024923c0007b3bd800643b7bbcd0007bb7c8007bbab8007bb9b0009569ff079599c101956aff0795aaa101956bff0795bb81017b32a8008267780150200203a7ac330782686033090a0d28c4049567ff079577c10533084050200403f3a89567ff079577f900957900048298e0007b6870018298d8007b6868018298d0007b6860018297c8007b677801330006030a0c33020803280a1b50220803071b5208d4009878205208cd0064787b67680183777b6770018267780150200a030dad95681821826968017a89688377956800208388800133090a0b9567182181776828fcdb9567ff079577010433084050200c035fa89567ff079577f900957900038298207b6870018298187b6868018298107b6860018297087b67780133000e030a0c33021003287a1a50221003771a52084498782052083e64787b67680183777b67700182677801502012037fac95681821826968017a89e8008377956800208388000233090a0b956718218177e800286cdb003308500202838833070133090a0d288e033308500202838833070133090a0d287d03330850020283883307010a0d28dc003308500202838833070133090a0d285d033308500202838833070133090a0d284c033308500202838833070133090a0d283b033308500202838833070133090a0d282a033308500202838833070133090a0d2819033308500202838833070133090a0d2808033308500202838833070133090a0d28f7023308500202838833070133090a0d28e6023308500202838833070133090a0d28d5023308500202838833070133090a0d28c4023308500202838833070133090a0d28b3023308500202838833070133090a0d28a202330850020283883307010a0d013308500202838833070133090a0d2884023308500202838833070133090a0d2873023308500202838833070133090a0d2862023308500202838833070133090a0d2851023308500202838833070133090a0d2840023308500202838833070133090a0d282f021407ffffffff000000007b6760019567182149276005492758054927500549274805029567001c95686026502014036aa895681819958a000282a7f0007b6758018287000382a9f8007b69480182a8e8007b68500195681821958b0005491b68027bb7a00098972097772082696801d497077bb79800492880054928780549287005826770017bb79000826778017bb78800956780269568a026502016037ca850221803ba1a492ba00282ca687bba980282ca707bba900282ca7895bc00027bca8800492bc0027bc9b8007bc8b0003a086000023a096800023a0a7000027bc7a8007bc8e0007bc9d8007bcad00064b83a077800029569e01b956ac01b956ba01b7b87c8023307330850201a03f7a83308500202838801330733090a0d280f013308500202838833070133090a0d28fe003308500202838833070133090a0d28ed0052478be3fdf28500956718214927c0054927b8054927b0054927a805956700208377c00633001c030a103307182133021e0328841b3307182150221e037d1b5107ab003308500202838833070133090a0d2899003308500202838833070133090a0d2888003308500202838833070133090a0d28773308500202838833070133090a0d28675247a61850714b95671821492740044927380449273004492728049567002083774005330020030a1001956a182195ab000450222203781b51074d3308500202838833070133090a0d281c3308500202838833070133090a0d280c838833070133090a0d018267780181775617232c330850020228e7330850020283883307010a0d2851fd8267780181775617036801330850020228c69567001d50202403d702956718198278f0037b6870018278e8037b6878018077f8037b67680150202603221495690001829778829868d48707829870d48707510720021407ffffffff000000007b676001956718214927e0054927d8054927d0054927c8059567e01c9568e02650202803caa595681819958a000382a9d8007b69480182a7d0007b67580182a7c8007b67500182a7e00098982097882082696801d4980895691821492900064929f8054929f0054929e805826a7001959b00067bba10826a78017bba087bb7207bb818956700279568202750202a03e0a550222c031e18492b800382ca687bba780382ca707bba700382ca7895bc00037bca68492ba0037bc998007bc890003a084000023a094800023a0a5000027bc788007bc8c0007bc9b8007bcab00064b83a075800029569c01c956aa01c956b801c7b87a8033307330850202e035ca633085002028388330733090a0d2875fe50203003ec1295671821492760044927580449275004492748049567001a9568602550203203b9a4956818198289f8007b6968018287e8007b6778018287f0007b67700182870001989820978820956918214929800449297804492970044929680449299004492988047b97a0047b989804956780259568a02550203403e2a4956c000182c768977720987720956a1819492aa000492a9800492a9000492a8800492ac0007ba7b80082c7707ba7b0003a074000023a084800023a0950000282cb787baba8007ba7e0007ba8d8007ba9d00064a83a075800029569e019956ac019956ba0197b87c800330733085020360359a533085002028388330733090a0d2872fd956718194927580349275003492748036479140700000000f7bd4f1e9568601c7b976003330750203803c0a29567181949274003492738034927300364793307049568401c4929280350203a039da239083c020256183f0b20033c02024001330850020283883307013309240a0d0133070182686033003c030a0d019511c07b10387b15307b16289515408411e06476831733080433003e030a0401821710821818502240033317510a248219821a087b697b6a087b67107b68189551c08210388215308216289511403200330850020283883307013309330042030a0d01951170ff7b1088007b1580007b1678951590008411f064728289827408828c088273959a1fd89a00c80c0984aae07b1308c8a303d8a30bc8490ac8ba0ad39a06d89a07da6b07822b18d8c90c828610822210828818da000cc86c0cd86c06c82c09c89707d8c90cd89709c8b808c86808c8c808c8980c8ec88e79dbc809d4c7088ea6db8906520657821808d88308d34a09d84a06da9806d82708d3bc09d8bc0bda980bd32708d49808da860b520b307b13507b1a587b17603307409518507b1c685020440346a1955170ff8210880082158000821678951190003200491140491138491130140700000000717b484e9518307b174833075020460310a14911284911204911104133070495181049111850204803f7a039083c020256183f0b20033c020240013308500202838833070133092433004a030a0d01828a18828b108282088eac8eb9dbac09d4ba0a8e2bdba90b520b30828895891fd88908c828088488018499e0959a20d89a09c8980bd88b08da99084917187b7a7b7b087b781032009511b07b10487b15409515508411f0491130491128491120140700000000717b484e9518207b1738330750204c035ba0491118491110490141330704641849110850204e0344a039083c020256183f0b20033c0202400133085002028388330701330924330050030a0d01951160ff7b1098007b1590007b1688009515a0008411e0828b829608828008829395ba1f7b1b58d8ba02c8200c7b1340d83a03d36c0a7b1648d86c0bdaa30b828410d80c0ada220a829218828318829610c84a0ad84a08c83808d32809d92808d86a0cda9c08d36a0ad4a909db980b510b19017b12287b16307b1738821758d447077b1318d43008d487079877207b1420d44808978820d487075207ed0064068118588317600a04018214788217708219687b1750d4470788980194785108d200821860821758957b20d87b0ac8a6037b1808c8b808d8b8027b1910c83909c82909d3390cd83907dac207d8630cdaaa0c821a20c8ca00d8a006821218c86202821648d3690cd89609821640d88608dbc908821950c80909d8090c7b1458c84206c86c0cc89707d89709c8c909821628d3690cd89609821430d87406dbc906d34707d4c707db760852084e8217388218087b78207b7b8218107b78287b73088218507b78307b70108218587b78387b7218955160ff8210980082159000821688009511a0003200003308500202280f3308500202280833085002020183883307013309330052030a0d01951100ff7b10f8007b15f0007b16e800951500018411f0827810827918827a088277d4a909d48707d49707510719955100ff8210f8008215f0008216e8009511000132009517c00033084050205403eb9c8219d8008216d0008217c8008218c0007b17107b1908d497077b1818d46808d47808988820d46707977720d487075207e6004921b0004921a8004921a000140700000000a079c3089518a0007b17b80082171850205603cc9d50225803ff0d5107b50082171883770449219800492190004921800020951880004921880050205a03a19d50225c035d0e51078a008216188367244911784911704911602495186049116850205e037b9d140700000000010000007b171407bcffffff00000000d87607821810948782180894875107478216188367443a088001027b18583a088801023a099001023a0a9801027b18507b19489518407b1a4050206003269d821795779cd876078218109487821808948752070400821618836764491130491128140800000000737365727b183895182049112050206203eb9c330884006467502064031fa0837833070133098400330066030a0d33026803285b0d50226803580d51070b50226a033e1032009517a00033084050206c03719b50226e030a0d52076250227003dc0d50207203969c50227403c90c51074d8217188377044911784911704911689518604911602050207603719c502278032d0d5107288216188367244911584911504911402095184049114850207a034c9c50227c031d0d520704008216188367443a08a001027b18383a08a801023a09b001023a0ab801027b18307b19289518207b1a2050207e03139c330864646750208003489f502282039011330084030a0d019511907b10687b15607b16589515708411f0648a82841082880882920882a67b16829b7b1b08829010d3820c7b1c28d8820cd86b0b821328da3b0c64b682aa187b1a188299187b1910c9400ac9ca097b1920d8ca097b1428d8400b821418821a10c94a0ac9ba0ac99a0ac98209c969098212821b08c92b0b8e9c88bb2085bb01db9c0b8fa68219208e9cdba60cd4a909db9c0b510b616476821a28d4a207d44809d49707987720d4a909979920d49707520743951730642850208603039a821748821840821930821a38d4780b889c0294ac94bc510c277b697b6a087b68107b67189551908210688215608216589511703200003308500202280833085002020183883307013309330088030a0d33028a0328780b50228a03750b51070b50228c035b0e32009517a00033084050208e038e9950229003270b52075250229203f90b50209403b39a50229603e60a51073d50229803570c50209a039e9a50229c035a0b5107288216188367244911584911504911401e95184049114850209e03799a5022a0034a0b520704008216188367443a08c001023a09c801023a0ad001027b18387b19307b1a281409000030206e6168749518207b19205020a2033b9a33086464675020a403709d5022a603b80f3300a8030a0d3302aa0328af0a5022aa03ac0a51070b5022ac03920d32009517a0003308405020ae03c5985022b0035e0a5207525022b203300b5020b403ea995022b6031d0a51073d5022b8038e0b5020ba03d5995022bc03910a5107288216188367244911584911504911401e9518404911485020be03b0995022c003810a520704008216188367443a08d801027b18383a08e001023a09e801023a0af001027b18307b19289518207b1a205020c203779933086464675020c403ac9c5022c603f40e3300c8030a0d3302ca0328eb095022ca03e80951070b5022cc03ce0c32009517a0003308405020ce0301985022d0039a095207525022d2036c0a5020d40326995022d603590951073d5022d803ca0a5020da0311995022dc03cd095107288216188367244911584911504911401d9518404911485020de03ec985022e003bd09520704008216188367443a08f801023a090002023a0a0802027b18387b19307b1a281409000000746e65746e9518207b19205020e203ae9833086464675020e403e39b5022e6032b0e3300e8030a0d01951140ff7b10b8007b15b0007b16a8009515c0008411f082908282828a087b1758829b08d60207ca0a06c86707d86706d60a0cc86c0ccab206c867077b1750d86707d6b206c86707c8c707d8c70cd6ba06c86c0ccaba06c867077b1748d86706c86c0c7b1c40829310829918828418828710ca3a0c7b1920ca2906c8c6087b1b28ca7b06ca0409c86909ca2306ca070cc8c6067b1330d6230b7b1b10c88b0bd60703c89308d8c6097b18187b1b08c8b80cc8c9097b1438d44a0cd47208d4c808821b40821c48c8c606d8c604c8b909c8490951088f00d3b9087b1948821948d8b909db89047b1640821810821908d889068ea98218208e8cd2c909d6280c8eccd4c909643b821330d63a0a8eaad4a909d469097b1910821918d8b909821b288eba8216388e6cd2ca0ad6060c8eccd4ca0ad67b0c8eccd4ca0ad4a909d4830ad4670c8216408eaa8eccd2ca0ad4a909821810d49808821948d4480784770152072dca02078218587b878217507b87087b86107b8918955140ff8210b8008215b0008216a8009511c0003200492190004921880049218000140700000000717b484e951880007b17980033075020ea03e596491178491170491160113307049518604911685020ec03cc9639083c020256183f0b20033c02024001330850020283883307013309243300ee030a0d019511807b10787b15707b1668951580008411f0829b828a829608828308829410828c10829918828818d363027b1608d863067b1b187b1a10d8ba0a7b1ada2a06d3980ad89800d84c02daa200d34c0bd4ba0adaa600520046c94c0ac99808c92808d86a09c99808c96a0a821908c99309821bc9b909821b18821c10c9bc0b7b7b7b79087b7a107b7818955180821078821570821668951180003200491150491148491140140700000000717b484e9518407b175833075020f003ec95491138491130491120113307049518204911285020f203d39539083c020256183f0b20033c02024001330850020283883307013309243300f4030a0d01951110ff7b10e8007b15e0007b16d8009515f0008411f0828610828218828c0882887b1c687b1258d42c036482d4680cd43c0c98cc207b1660d46308978820d4c8087b175052085c0182b7187b172082b7107b171882b7087b171082b77b170882a7107b173082a7087b173882a77b174082971082980882999777209877204921c8007b19b0007b18b8009518b0007b17c000642664275020f6031295821760821858d48709140700000000010000007b17281407e0ffffff00000000d8760782186894877b194894975107d7001408ffffffff00000000821930d289098218388488ff821a4084aaff8367204921a8007b1a90007b189800951890007b19a0005020f803a8948217289577c0d8760782186894878218489487510787009567607b1748d86707821868c878097b1940d88908da7708821760c878087b1838d87807821858c887077b17688367408218087b18708218107b18788218187b1880009518708219207b1988005020fa033e948217508218387b78108218407b78088218487b788218687b7818955110ff8210e8008215e0008216d8009511f00032000051070b5022fe03880732009517a00033084050200004bb9250220204540452075250220404260550200604e09350220804130451073d50220a04840550200c04cb9350220e0487045107288216188367244911584911504911401395184049114850201004a693502212047704520704008216188367443a081002023a091802027b18387b19301408000000000064656c7b1828951820491120502014046d93330864646750201604a29650221804ea0833001a040a0d33021c0428e10350221c04de0351070b50221e04c40632009517a00033084050202004f791502222049003520752502224046204502026041c93502228044f0351073d50222a04c00450202c04079350222e04c3035107288216188367244911584911504911401795184049114850203004e29250223204b303520704008216188367443a082002023a092802023a0a3002027b18387b19307b1a2895182049112050203404ae92330864646750203604e395502238042b0833003a040a0d019511c0fe7b1038017b1530017b162801951540018411e064760a0c0151074c017b16180a0c64794921f8004921f0004921e800951700019518e0007b19207b19e00050203c0481f1821700017b1740821708017b1738821710017b1730821718017b17289517c00033084050203e04eb908217d8007b17588216d0008219c8007b1950821ac0007b1a488218287b1898008218307b1890008218387b1888008218407b1880007b17b8007b16b0007b19a8009517a000951880007b1aa00050204004cbef821748821858821950d48909d46708d498089888207b1640d46909979920d49808520882004911784911704911689518608219207b19605020420495910a0c01821a48821840821958d498081409e0ffffff00000000d89a09821b5094b99489510943647698772052073b83a72083687b183864685020440497947a16200183778318200133090a0b01821b4881172001821618821858821940821a50821c38aec70e00330a33093308330b60017b6b7b6a087b69107b68189551c0fe821038018215300182162801951140013200951140ff7b10b8007b15b0007b16a8009515c0008411e0492198004921900049218800492180009517609518800050204604c1918217687b17188217607b17108017707b1708330650020383677b170a06013a075802033a0850020339096002036f77987a206f88978b20d4ba0a9777206f99989920d49707988820821908d39808821910d39707d48707821818d3a808d48707520719955140ff8210b8008215b0008216a8009511c0003200491150491148491140140700000000a7da8c119518407b17583307502048043590821733004a040a0601826708816810826950224c04b8034911387b18307b17283307049518207b1a2050204e04069039083c020256183f0b20033c02024001330850020283883307013309240a0d3307330050042850933307502050044b93330701502052044293821908d46909140600000000010000001407fcffffff00000000821818d8780782181094877b1908949732028219b8008216b0008217a8008218a0007b17107b1908d497077b1818d46808d47808988820d46707977720d487073202951120ff7b10d8007b15d0007b16c8009515e0008411f0827810827918827a088277d4a909d48707d4970732029567dc821818d878078218109487821808948732021407bcffffff00000000d8760782181094878218089487320282970881981082996f77977a206f88988820d48a0a9877206f98978920d49707988820956900113202956b000182b87082b960d4980882ba6882b978d4a909d48909989920d4a808978820d498083202492190004921880049218000140700000000a079c308951880007b1798008217183202c88b0bd88b08c8a808d49808d4b709d48909d4b808989920978820d498083202956c000182c87882c76882ca60d47a0a140b00000000010000001407fcffffff00000000d8780782c970949794a7320282171883770449117849117049116020951860491168320282970881981082996f7a97a7206f889888203202c8ca0ac8ab0bd8ca0cd8ab0ac8c909c8a909d4b909140a80ffffff000000007b6a7001d8a70a948a949a3202c8b909c88909d3b90ad8b90bdaa80b3202826a780182a71882a81082a90882aa6f776f8b6f996faa826870017b8a187b89107b8b087b873202330c3303956a000182a91093989397330b64491a10633309491a08826430013202826a4001826b480182695001d4b909956b000182bc78d4ac0cd4c90982ba1893a87bb85893a77bb770320282691001d49808826a780188ab80007b6b100182690801dab90882693001dba8097b693001320282970881981082996f77977a206f88988820d48a0a9877206f98978920d479099888203202826a780182a71882a81082a90882aa6f776f886f996faa956b18193202956c000182c8586f8982c8406f8882ca486faa82cb506fbb956c0011320282606001980b3fd49b0b7b6b380182690801d3a9087b682001d8a908826c10013202d487078e77956800113202888820858801dba7088ea78ea9daa709d4aa07da78093202d8b90882632801c9390cc98c0cc97c0c99c03f8407648268380132029577dcd87807949794a73202955120ff8210d8008215d0008216c8009511e00032026f77977a206f88988820d48a0a9877206f98978920d497079888203202956c000182c7508477ff82c9588498ff82c96082ca48d2a909330a1819c8a60b32027b67580182676001d487077b676001826770019579808267380182683001320283977b6770018267780164987b6968013202d4ba09d4c708d49808988820d4c909979920d498083202826858018287187b6750018287107b6748018287087b67400182877b67580132028267788268e0007b8708826710017b87826708017a871033071821c876093202956b000182bc7882b970d49c0782b86882ba60d4a808d48707987720d49808978820d487073202828a38828b30828c28828720d4ac09d4b708d49808988820d4b909979920d4980832028287d8007b6770018287d0007b6768018287c8007b6760018287c0007b6778013202140b00000000010000001407fcffffff00000000d8780782c918949794a7320214090000000001000000d37909d48909987a2088aa01948a939a320214080000000001000000d3b808d4780898b920889901947993893202d4870782681801dab80782683801dba70864a97b683801320282186f888219086f99821a106faa821b186fbb3202c8760a95ab000582b7b80082b8c00082b9b00082baa800d49808d4a707d487073202da9b087b68600182686801826b5801d4b808daa70832028378330701330964320233071819c8760a95ab000632029517e08477e07b6778016471837933084032027b6718017b680801826738018268300182697801320282b73882b84082b93082ba28d49808d4a707d4870732029518e08488e07b6878016481837783898268880032029518e08488e07b687801648183778389826830320282697001889a80007b6a1801826b6001dbab083202849a40520a195109148d9a40cfa80ad09808d09707d4a707320032009597c0d0780733083200849a40520a195109148d9a40d0a70acf9707cf9808d4a808320032009598c0cf87083307320049922425494b2a252da9944c4949214225a952484992244992244992244992244992244992244992244992244992244992244992542529a524292949a84a494a922449922449922449922449922449922449922449929224294955494a92284925495592922425494a5292aaaa242549492a490a49524949924292a494529254524444141111294992a42449524a922489524949499122458a142952a42849a124491042c2509a9486442222225244048948222222121111d1888848122149229194444214aa86881011409224159148280d21241140922422222242244992a4a45292922449444424222222444224495252522949499224494444841042444444444485489224111192249124499224222280888424800092542411212221494a91448488900002482a92102124444484242945121140448428946800912422424492249124128988881009111149922486528552855223228088424424228408869256a84a85aa84089188d288804022908080400202028988886844224992449188a4111192888848222245444444444484884488888844221a1111111149924492248984882409914444041011112124898810111122494292880811211240524a12428888888848444444239224491245224444229188a41111928888002289881411111111112291884424524444844892141111894442842422028888880821ca91240124954448444444284a9444491291281211118910891021222292002291441249004922496ad2a446444444444444444488222411212222924822912449448248924892244912110144141111449204492242444410491224890811412480a4942484101101440489484444442392244912452222440411118944224144444492244922492422111191888888282211245124892252444444444424298824492a890491244112110144444404419288101111449204492242441009202925091101444490884444444423222292245124224244109148922491202249922449128924492425121111892241444492240a892022492412913422229292889224492222224a22228288442291482412892845444444444444128d88200920222222129124892222222212894424498288888888442482888808421451442248122988984424128410c12451a8248a049120482212912449124992244992522222829268441211442411499004259120220144a292241104512488248908222211111191888810114444444492444422111109222222a2924a2249459254225249222549525254542511118924894412492289888820222282200822884444102445222222a248102451242288888888888834222229892849248944924a12892812449288888888888888882022222222222292202222222222222222222222222222221289082249922449121111111191880822928824494492442449924449922449124925499224220144a29248242228221a9144041189489224914a1211114124111111511011121184082651a8148944a2880411111111111144922449922492244992241111114444504410111149244922892448a2288a22492488240124a9241141125544912022222282884810494a922449141111118988888846044914892022222282489224912022922449922422228088880882241111222282489294924444880822490001a492848808214444441049925292880820228288a044232222a2111111499228121111114444241289041111114992248924914812892011941a48148920128944441a91242989284992244a92a488481089442291482412111111118d48244910111111892422114444444442145144228888882888181122114108118c240a518928124482208948449224494444244992a42822228222a211494410914424411244249120220144a2924844101449aa8a8888880822121111118988081141444444444444444414111111111111111111111111c488884a2a892415495289a844a4a42449452a95a8a48848922492481249444414114144440441104410898820488a44448488202291482422224482481011114112111111111111412449004925898888888820844848482211499294244925a114254aa2842421848888888888224a92248924441249244911412488489288489224494444444444114444444484104244442422222222222549929224a924aa244992242202882822228824092080a492444488880822498224111122824800492949081111014444900882468208a2489094240822a2888a18494b12111429499224898800228a8808224982241151242211412492949244444444440445248a4444442288441011212202884412492401248924a949931a1111111111111111442411499248924812111111111141444492880491a44812499224492222808822882409200124a5241121228824492989448488208048524a2221844812112422918820081211114190202208624424499048248924892412492249241289482441929244249124914424924411892492449244928c888888444422221145444404119148922411092222222249922411114044444404d148920002482a89482a529292242222222282882349524a224844441291a028298992249128121111892012418488884802482289249200924492d4a4494d4444221189484444448214411211414444442491442249928848101149224992244992248088441049024800494a4924228988049124292591882422120410494a4924841051220288888844228220888888088208228220464492048944924892482291249244229188441224294944124912494422491491482249244924912419111111514444444444444444928888082212894422222244041145225194284994249222229148248228922491441249241149522282888888888814254aa22491928888888888881411914824914422498908222222222211452482882452103122442282281209a2489224251244044944440445442392882022894882248aa2282292489044114110458208222222221111111141248888884892244944448888082249124000a924111111111111114492a494440445442392882449442282242222228248008988888828224922119144824844444404118d488a2029494444888888082144444444444450542241045124484a1204115144452449922411111111510411894422222242084544844444240825224144241289441409a2441044441115912889880822222212894810111111912449924492241189880820228a20a288449094249248124924222222222222918824928828222222222282888888488a24924892482491882241922812912449220a22114444444404904412499224492449d468142322222222222222222222884822922491249124229248228a88888820229244928844242241444444449224499288888802888808228a4804494922892491442222222222121111111111111145444444444410111111499144124912892412512488882812912449441444228810420821924822892489248946a318111111111111111111114144129124892489241191444444111111114444444492884424a291144444241129888808252282144924489148248a8804111111114992244922129444239288202289488288a2288a88888888208922411045828820222222221149121144248888888848922449121111111122882401248024a588444424128988049124294544829268441291248948441011111111114402484422221289444482484444441411114434228a202949242242241211428828222222222222289588041111111111114582481445041129a222894810118944221145822445114144145111194a25944a2825944a2895502aa15442a9845209a5124a25944a2895502aa15442692895502aa15442a9845209a51240444484882022222222222292484444444444104422918888082144441422222a08ad124a25944a404444444411892042a9845209a50aa50a4444444434224828552855a951844229510845101111114124492280888888882022222222924844444424924404412412894444082122a210115141a84a10111111414444444412111111111141248988888844082111118588880a425522220a20a22022a244042182a1a4493449924a3409524a92242994a2119148252549922449922449922449252549922449922449828848942480a4208924418860288926a9a4a4244992242525499204901424490942044349342222525292244992244992244912499224499228699224459224499224499224499224499224499224494a922449444434140a4bd188884892922422228a041111499224494444001109824822424410449244120450004929494808214982929432490248124441892812242812040982204992441024492209824c4242084912a42088264952922a4992a42449922449929494a4942425499224054992544a922469282c4591204191204810040982204912491064124248124012a42088224182224190200812044192249220c82424849024410a82281224281204098220411024492209824c4208490248821404d1888848254992244992244992244992244992244992244992244922499224a5a494942449292929495249922449491211114544001105492409420443493449229524499224254992244992a424294992444902480a924812840886926844442449494a92248924494a9294a42422222a48124002484a1140922489888820494a912449922449922489248224494a2222a2098a0441822048100449924882209310920092042908a24890a04810240882044190248924083209212449821404d18888488d544444248248241289049188441289442222222248922449124992044d9200924a494a4114359124c92a4b121111454444222212419224a11a42282529499224492222a22401240545938224498210c15052918204490001242915119124499214111149529292a4540049a9a45292924491244992a48808202225499224459204104052254924259552922409205225498a24554592aa48254a1411892429a54844442251522949498a24554591524a5124118944294a52494a2449a2a48a88884a494a52244992481189484445142549922291481425124522459224499292244992141111115100012455004952059024552291a24a2995888848522222a9a4489444a588882849929444152551a588889424495249254992545200"},"methodIdentifiers":{"feeRecipient()":"46904840","hasPaid(address,string)":"140fcbb1","owner()":"8da5cb5b","payETH(address,string)":"4e603d6d","payToken(address,string,uint256,address)":"2b5ed36e","platformFeePercent()":"8c639a85","renounceOwnership()":"715018a6","setFeeRecipient(address)":"e74b981b","setPlatformFee(uint256)":"12e8e2c3","transferOwnership(address)":"f2fde38b","withdrawETH(address,uint256)":"4782f779","withdrawToken(address,address,uint256)":"01e33667"}},"hash":"e0b772f01f11372cdecdd9a98ec503e995207ab65c9ea702a77536594874b432","factoryDependencies":{}}}}